{
	"mapping.sol": {
		"Mapping": {
			"abi": [
				{
					"inputs": [
						{
							"internalType": "string",
							"name": "_name",
							"type": "string"
						},
						{
							"internalType": "uint256",
							"name": "_favoritenumber",
							"type": "uint256"
						}
					],
					"name": "addperson",
					"outputs": [],
					"stateMutability": "nonpayable",
					"type": "function"
				},
				{
					"inputs": [
						{
							"internalType": "uint256",
							"name": "",
							"type": "uint256"
						}
					],
					"name": "favoritenumbertoname",
					"outputs": [
						{
							"internalType": "string",
							"name": "",
							"type": "string"
						}
					],
					"stateMutability": "view",
					"type": "function"
				},
				{
					"inputs": [],
					"name": "getarraylength",
					"outputs": [
						{
							"internalType": "uint256",
							"name": "",
							"type": "uint256"
						}
					],
					"stateMutability": "view",
					"type": "function"
				},
				{
					"inputs": [
						{
							"internalType": "uint256",
							"name": "",
							"type": "uint256"
						}
					],
					"name": "listofpeople",
					"outputs": [
						{
							"internalType": "uint256",
							"name": "favoritenumber",
							"type": "uint256"
						},
						{
							"internalType": "string",
							"name": "name",
							"type": "string"
						}
					],
					"stateMutability": "view",
					"type": "function"
				}
			],
			"devdoc": {
				"kind": "dev",
				"methods": {},
				"version": 1
			},
			"evm": {
				"assembly": "    /* \"mapping.sol\":61:626  contract Mapping{... */\n  mstore(0x40, 0x80)\n  callvalue\n  dup1\n  iszero\n  tag_1\n  jumpi\n  0x00\n  dup1\n  revert\ntag_1:\n  pop\n  dataSize(sub_0)\n  dup1\n  dataOffset(sub_0)\n  0x00\n  codecopy\n  0x00\n  return\nstop\n\nsub_0: assembly {\n        /* \"mapping.sol\":61:626  contract Mapping{... */\n      mstore(0x40, 0x80)\n      callvalue\n      dup1\n      iszero\n      tag_1\n      jumpi\n      0x00\n      dup1\n      revert\n    tag_1:\n      pop\n      jumpi(tag_2, lt(calldatasize, 0x04))\n      shr(0xe0, calldataload(0x00))\n      dup1\n      0x5801afa5\n      eq\n      tag_3\n      jumpi\n      dup1\n      0x8c1edb90\n      eq\n      tag_4\n      jumpi\n      dup1\n      0xbf119bdb\n      eq\n      tag_5\n      jumpi\n      dup1\n      0xe1b3202a\n      eq\n      tag_6\n      jumpi\n    tag_2:\n      0x00\n      dup1\n      revert\n        /* \"mapping.sol\":524:623  function getarraylength() public view returns(uint256){... */\n    tag_3:\n      tag_7\n      tag_8\n      jump\t// in\n    tag_7:\n      mload(0x40)\n      tag_9\n      swap2\n      swap1\n      tag_10\n      jump\t// in\n    tag_9:\n      mload(0x40)\n      dup1\n      swap2\n      sub\n      swap1\n      return\n        /* \"mapping.sol\":201:255  mapping(uint256 => string) public favoritenumbertoname */\n    tag_4:\n      tag_11\n      0x04\n      dup1\n      calldatasize\n      sub\n      dup2\n      add\n      swap1\n      tag_12\n      swap2\n      swap1\n      tag_13\n      jump\t// in\n    tag_12:\n      tag_14\n      jump\t// in\n    tag_11:\n      mload(0x40)\n      tag_15\n      swap2\n      swap1\n      tag_16\n      jump\t// in\n    tag_15:\n      mload(0x40)\n      dup1\n      swap2\n      sub\n      swap1\n      return\n        /* \"mapping.sol\":272:300  person[] public listofpeople */\n    tag_5:\n      tag_17\n      0x04\n      dup1\n      calldatasize\n      sub\n      dup2\n      add\n      swap1\n      tag_18\n      swap2\n      swap1\n      tag_13\n      jump\t// in\n    tag_18:\n      tag_19\n      jump\t// in\n    tag_17:\n      mload(0x40)\n      tag_20\n      swap3\n      swap2\n      swap1\n      tag_21\n      jump\t// in\n    tag_20:\n      mload(0x40)\n      dup1\n      swap2\n      sub\n      swap1\n      return\n        /* \"mapping.sol\":315:516  function addperson(string memory _name, uint256 _favoritenumber) public {... */\n    tag_6:\n      tag_22\n      0x04\n      dup1\n      calldatasize\n      sub\n      dup2\n      add\n      swap1\n      tag_23\n      swap2\n      swap1\n      tag_24\n      jump\t// in\n    tag_23:\n      tag_25\n      jump\t// in\n    tag_22:\n      stop\n        /* \"mapping.sol\":524:623  function getarraylength() public view returns(uint256){... */\n    tag_8:\n        /* \"mapping.sol\":570:577  uint256 */\n      0x00\n        /* \"mapping.sol\":596:608  listofpeople */\n      0x02\n        /* \"mapping.sol\":596:615  listofpeople.length */\n      dup1\n      sload\n      swap1\n      pop\n        /* \"mapping.sol\":589:615  return listofpeople.length */\n      swap1\n      pop\n        /* \"mapping.sol\":524:623  function getarraylength() public view returns(uint256){... */\n      swap1\n      jump\t// out\n        /* \"mapping.sol\":201:255  mapping(uint256 => string) public favoritenumbertoname */\n    tag_14:\n      mstore(0x20, 0x01)\n      dup1\n      0x00\n      mstore\n      keccak256(0x00, 0x40)\n      0x00\n      swap2\n      pop\n      swap1\n      pop\n      dup1\n      sload\n      tag_27\n      swap1\n      tag_28\n      jump\t// in\n    tag_27:\n      dup1\n      0x1f\n      add\n      0x20\n      dup1\n      swap2\n      div\n      mul\n      0x20\n      add\n      mload(0x40)\n      swap1\n      dup2\n      add\n      0x40\n      mstore\n      dup1\n      swap3\n      swap2\n      swap1\n      dup2\n      dup2\n      mstore\n      0x20\n      add\n      dup3\n      dup1\n      sload\n      tag_29\n      swap1\n      tag_28\n      jump\t// in\n    tag_29:\n      dup1\n      iszero\n      tag_30\n      jumpi\n      dup1\n      0x1f\n      lt\n      tag_31\n      jumpi\n      0x0100\n      dup1\n      dup4\n      sload\n      div\n      mul\n      dup4\n      mstore\n      swap2\n      0x20\n      add\n      swap2\n      jump(tag_30)\n    tag_31:\n      dup3\n      add\n      swap2\n      swap1\n      0x00\n      mstore\n      keccak256(0x00, 0x20)\n      swap1\n    tag_32:\n      dup2\n      sload\n      dup2\n      mstore\n      swap1\n      0x01\n      add\n      swap1\n      0x20\n      add\n      dup1\n      dup4\n      gt\n      tag_32\n      jumpi\n      dup3\n      swap1\n      sub\n      0x1f\n      and\n      dup3\n      add\n      swap2\n    tag_30:\n      pop\n      pop\n      pop\n      pop\n      pop\n      dup2\n      jump\t// out\n        /* \"mapping.sol\":272:300  person[] public listofpeople */\n    tag_19:\n      0x02\n      dup2\n      dup2\n      sload\n      dup2\n      lt\n      tag_33\n      jumpi\n      0x00\n      dup1\n      revert\n    tag_33:\n      swap1\n      0x00\n      mstore\n      keccak256(0x00, 0x20)\n      swap1\n      0x02\n      mul\n      add\n      0x00\n      swap2\n      pop\n      swap1\n      pop\n      dup1\n      0x00\n      add\n      sload\n      swap1\n      dup1\n      0x01\n      add\n      dup1\n      sload\n      tag_35\n      swap1\n      tag_28\n      jump\t// in\n    tag_35:\n      dup1\n      0x1f\n      add\n      0x20\n      dup1\n      swap2\n      div\n      mul\n      0x20\n      add\n      mload(0x40)\n      swap1\n      dup2\n      add\n      0x40\n      mstore\n      dup1\n      swap3\n      swap2\n      swap1\n      dup2\n      dup2\n      mstore\n      0x20\n      add\n      dup3\n      dup1\n      sload\n      tag_36\n      swap1\n      tag_28\n      jump\t// in\n    tag_36:\n      dup1\n      iszero\n      tag_37\n      jumpi\n      dup1\n      0x1f\n      lt\n      tag_38\n      jumpi\n      0x0100\n      dup1\n      dup4\n      sload\n      div\n      mul\n      dup4\n      mstore\n      swap2\n      0x20\n      add\n      swap2\n      jump(tag_37)\n    tag_38:\n      dup3\n      add\n      swap2\n      swap1\n      0x00\n      mstore\n      keccak256(0x00, 0x20)\n      swap1\n    tag_39:\n      dup2\n      sload\n      dup2\n      mstore\n      swap1\n      0x01\n      add\n      swap1\n      0x20\n      add\n      dup1\n      dup4\n      gt\n      tag_39\n      jumpi\n      dup3\n      swap1\n      sub\n      0x1f\n      and\n      dup3\n      add\n      swap2\n    tag_37:\n      pop\n      pop\n      pop\n      pop\n      pop\n      swap1\n      pop\n      dup3\n      jump\t// out\n        /* \"mapping.sol\":315:516  function addperson(string memory _name, uint256 _favoritenumber) public {... */\n    tag_25:\n        /* \"mapping.sol\":398:410  listofpeople */\n      0x02\n        /* \"mapping.sol\":416:445  person(_favoritenumber,_name) */\n      mload(0x40)\n      dup1\n      0x40\n      add\n      0x40\n      mstore\n      dup1\n        /* \"mapping.sol\":423:438  _favoritenumber */\n      dup4\n        /* \"mapping.sol\":416:445  person(_favoritenumber,_name) */\n      dup2\n      mstore\n      0x20\n      add\n        /* \"mapping.sol\":439:444  _name */\n      dup5\n        /* \"mapping.sol\":416:445  person(_favoritenumber,_name) */\n      dup2\n      mstore\n      pop\n        /* \"mapping.sol\":398:446  listofpeople.push(person(_favoritenumber,_name)) */\n      swap1\n      dup1\n      0x01\n      dup2\n      sload\n      add\n      dup1\n      dup3\n      sstore\n      dup1\n      swap2\n      pop\n      pop\n      0x01\n      swap1\n      sub\n      swap1\n      0x00\n      mstore\n      keccak256(0x00, 0x20)\n      swap1\n      0x02\n      mul\n      add\n      0x00\n      swap1\n      swap2\n      swap1\n      swap2\n      swap1\n      swap2\n      pop\n      0x00\n      dup3\n      add\n      mload\n      dup2\n      0x00\n      add\n      sstore\n      0x20\n      dup3\n      add\n      mload\n      dup2\n      0x01\n      add\n      swap1\n      dup2\n      tag_42\n      swap2\n      swap1\n      tag_43\n      jump\t// in\n    tag_42:\n      pop\n      pop\n      pop\n        /* \"mapping.sol\":497:502  _name */\n      dup2\n        /* \"mapping.sol\":457:477  favoritenumbertoname */\n      0x01\n        /* \"mapping.sol\":457:494  favoritenumbertoname[_favoritenumber] */\n      0x00\n        /* \"mapping.sol\":478:493  _favoritenumber */\n      dup4\n        /* \"mapping.sol\":457:494  favoritenumbertoname[_favoritenumber] */\n      dup2\n      mstore\n      0x20\n      add\n      swap1\n      dup2\n      mstore\n      0x20\n      add\n      0x00\n      keccak256\n        /* \"mapping.sol\":457:502  favoritenumbertoname[_favoritenumber] = _name */\n      swap1\n      dup2\n      tag_44\n      swap2\n      swap1\n      tag_43\n      jump\t// in\n    tag_44:\n      pop\n        /* \"mapping.sol\":315:516  function addperson(string memory _name, uint256 _favoritenumber) public {... */\n      pop\n      pop\n      jump\t// out\n        /* \"#utility.yul\":7:84   */\n    tag_45:\n        /* \"#utility.yul\":44:51   */\n      0x00\n        /* \"#utility.yul\":73:78   */\n      dup2\n        /* \"#utility.yul\":62:78   */\n      swap1\n      pop\n        /* \"#utility.yul\":7:84   */\n      swap2\n      swap1\n      pop\n      jump\t// out\n        /* \"#utility.yul\":90:208   */\n    tag_46:\n        /* \"#utility.yul\":177:201   */\n      tag_85\n        /* \"#utility.yul\":195:200   */\n      dup2\n        /* \"#utility.yul\":177:201   */\n      tag_45\n      jump\t// in\n    tag_85:\n        /* \"#utility.yul\":172:175   */\n      dup3\n        /* \"#utility.yul\":165:202   */\n      mstore\n        /* \"#utility.yul\":90:208   */\n      pop\n      pop\n      jump\t// out\n        /* \"#utility.yul\":214:436   */\n    tag_10:\n        /* \"#utility.yul\":307:311   */\n      0x00\n        /* \"#utility.yul\":345:347   */\n      0x20\n        /* \"#utility.yul\":334:343   */\n      dup3\n        /* \"#utility.yul\":330:348   */\n      add\n        /* \"#utility.yul\":322:348   */\n      swap1\n      pop\n        /* \"#utility.yul\":358:429   */\n      tag_87\n        /* \"#utility.yul\":426:427   */\n      0x00\n        /* \"#utility.yul\":415:424   */\n      dup4\n        /* \"#utility.yul\":411:428   */\n      add\n        /* \"#utility.yul\":402:408   */\n      dup5\n        /* \"#utility.yul\":358:429   */\n      tag_46\n      jump\t// in\n    tag_87:\n        /* \"#utility.yul\":214:436   */\n      swap3\n      swap2\n      pop\n      pop\n      jump\t// out\n        /* \"#utility.yul\":442:517   */\n    tag_47:\n        /* \"#utility.yul\":475:481   */\n      0x00\n        /* \"#utility.yul\":508:510   */\n      0x40\n        /* \"#utility.yul\":502:511   */\n      mload\n        /* \"#utility.yul\":492:511   */\n      swap1\n      pop\n        /* \"#utility.yul\":442:517   */\n      swap1\n      jump\t// out\n        /* \"#utility.yul\":523:640   */\n    tag_48:\n        /* \"#utility.yul\":632:633   */\n      0x00\n        /* \"#utility.yul\":629:630   */\n      dup1\n        /* \"#utility.yul\":622:634   */\n      revert\n        /* \"#utility.yul\":646:763   */\n    tag_49:\n        /* \"#utility.yul\":755:756   */\n      0x00\n        /* \"#utility.yul\":752:753   */\n      dup1\n        /* \"#utility.yul\":745:757   */\n      revert\n        /* \"#utility.yul\":769:891   */\n    tag_50:\n        /* \"#utility.yul\":842:866   */\n      tag_92\n        /* \"#utility.yul\":860:865   */\n      dup2\n        /* \"#utility.yul\":842:866   */\n      tag_45\n      jump\t// in\n    tag_92:\n        /* \"#utility.yul\":835:840   */\n      dup2\n        /* \"#utility.yul\":832:867   */\n      eq\n        /* \"#utility.yul\":822:885   */\n      tag_93\n      jumpi\n        /* \"#utility.yul\":881:882   */\n      0x00\n        /* \"#utility.yul\":878:879   */\n      dup1\n        /* \"#utility.yul\":871:883   */\n      revert\n        /* \"#utility.yul\":822:885   */\n    tag_93:\n        /* \"#utility.yul\":769:891   */\n      pop\n      jump\t// out\n        /* \"#utility.yul\":897:1036   */\n    tag_51:\n        /* \"#utility.yul\":943:948   */\n      0x00\n        /* \"#utility.yul\":981:987   */\n      dup2\n        /* \"#utility.yul\":968:988   */\n      calldataload\n        /* \"#utility.yul\":959:988   */\n      swap1\n      pop\n        /* \"#utility.yul\":997:1030   */\n      tag_95\n        /* \"#utility.yul\":1024:1029   */\n      dup2\n        /* \"#utility.yul\":997:1030   */\n      tag_50\n      jump\t// in\n    tag_95:\n        /* \"#utility.yul\":897:1036   */\n      swap3\n      swap2\n      pop\n      pop\n      jump\t// out\n        /* \"#utility.yul\":1042:1371   */\n    tag_13:\n        /* \"#utility.yul\":1101:1107   */\n      0x00\n        /* \"#utility.yul\":1150:1152   */\n      0x20\n        /* \"#utility.yul\":1138:1147   */\n      dup3\n        /* \"#utility.yul\":1129:1136   */\n      dup5\n        /* \"#utility.yul\":1125:1148   */\n      sub\n        /* \"#utility.yul\":1121:1153   */\n      slt\n        /* \"#utility.yul\":1118:1237   */\n      iszero\n      tag_97\n      jumpi\n        /* \"#utility.yul\":1156:1235   */\n      tag_98\n      tag_48\n      jump\t// in\n    tag_98:\n        /* \"#utility.yul\":1118:1237   */\n    tag_97:\n        /* \"#utility.yul\":1276:1277   */\n      0x00\n        /* \"#utility.yul\":1301:1354   */\n      tag_99\n        /* \"#utility.yul\":1346:1353   */\n      dup5\n        /* \"#utility.yul\":1337:1343   */\n      dup3\n        /* \"#utility.yul\":1326:1335   */\n      dup6\n        /* \"#utility.yul\":1322:1344   */\n      add\n        /* \"#utility.yul\":1301:1354   */\n      tag_51\n      jump\t// in\n    tag_99:\n        /* \"#utility.yul\":1291:1354   */\n      swap2\n      pop\n        /* \"#utility.yul\":1247:1364   */\n      pop\n        /* \"#utility.yul\":1042:1371   */\n      swap3\n      swap2\n      pop\n      pop\n      jump\t// out\n        /* \"#utility.yul\":1377:1476   */\n    tag_52:\n        /* \"#utility.yul\":1429:1435   */\n      0x00\n        /* \"#utility.yul\":1463:1468   */\n      dup2\n        /* \"#utility.yul\":1457:1469   */\n      mload\n        /* \"#utility.yul\":1447:1469   */\n      swap1\n      pop\n        /* \"#utility.yul\":1377:1476   */\n      swap2\n      swap1\n      pop\n      jump\t// out\n        /* \"#utility.yul\":1482:1651   */\n    tag_53:\n        /* \"#utility.yul\":1566:1577   */\n      0x00\n        /* \"#utility.yul\":1600:1606   */\n      dup3\n        /* \"#utility.yul\":1595:1598   */\n      dup3\n        /* \"#utility.yul\":1588:1607   */\n      mstore\n        /* \"#utility.yul\":1640:1644   */\n      0x20\n        /* \"#utility.yul\":1635:1638   */\n      dup3\n        /* \"#utility.yul\":1631:1645   */\n      add\n        /* \"#utility.yul\":1616:1645   */\n      swap1\n      pop\n        /* \"#utility.yul\":1482:1651   */\n      swap3\n      swap2\n      pop\n      pop\n      jump\t// out\n        /* \"#utility.yul\":1657:1796   */\n    tag_54:\n        /* \"#utility.yul\":1746:1752   */\n      dup3\n        /* \"#utility.yul\":1741:1744   */\n      dup2\n        /* \"#utility.yul\":1736:1739   */\n      dup4\n        /* \"#utility.yul\":1730:1753   */\n      mcopy\n        /* \"#utility.yul\":1787:1788   */\n      0x00\n        /* \"#utility.yul\":1778:1784   */\n      dup4\n        /* \"#utility.yul\":1773:1776   */\n      dup4\n        /* \"#utility.yul\":1769:1785   */\n      add\n        /* \"#utility.yul\":1762:1789   */\n      mstore\n        /* \"#utility.yul\":1657:1796   */\n      pop\n      pop\n      pop\n      jump\t// out\n        /* \"#utility.yul\":1802:1904   */\n    tag_55:\n        /* \"#utility.yul\":1843:1849   */\n      0x00\n        /* \"#utility.yul\":1894:1896   */\n      0x1f\n        /* \"#utility.yul\":1890:1897   */\n      not\n        /* \"#utility.yul\":1885:1887   */\n      0x1f\n        /* \"#utility.yul\":1878:1883   */\n      dup4\n        /* \"#utility.yul\":1874:1888   */\n      add\n        /* \"#utility.yul\":1870:1898   */\n      and\n        /* \"#utility.yul\":1860:1898   */\n      swap1\n      pop\n        /* \"#utility.yul\":1802:1904   */\n      swap2\n      swap1\n      pop\n      jump\t// out\n        /* \"#utility.yul\":1910:2287   */\n    tag_56:\n        /* \"#utility.yul\":1998:2001   */\n      0x00\n        /* \"#utility.yul\":2026:2065   */\n      tag_105\n        /* \"#utility.yul\":2059:2064   */\n      dup3\n        /* \"#utility.yul\":2026:2065   */\n      tag_52\n      jump\t// in\n    tag_105:\n        /* \"#utility.yul\":2081:2152   */\n      tag_106\n        /* \"#utility.yul\":2145:2151   */\n      dup2\n        /* \"#utility.yul\":2140:2143   */\n      dup6\n        /* \"#utility.yul\":2081:2152   */\n      tag_53\n      jump\t// in\n    tag_106:\n        /* \"#utility.yul\":2074:2152   */\n      swap4\n      pop\n        /* \"#utility.yul\":2161:2226   */\n      tag_107\n        /* \"#utility.yul\":2219:2225   */\n      dup2\n        /* \"#utility.yul\":2214:2217   */\n      dup6\n        /* \"#utility.yul\":2207:2211   */\n      0x20\n        /* \"#utility.yul\":2200:2205   */\n      dup7\n        /* \"#utility.yul\":2196:2212   */\n      add\n        /* \"#utility.yul\":2161:2226   */\n      tag_54\n      jump\t// in\n    tag_107:\n        /* \"#utility.yul\":2251:2280   */\n      tag_108\n        /* \"#utility.yul\":2273:2279   */\n      dup2\n        /* \"#utility.yul\":2251:2280   */\n      tag_55\n      jump\t// in\n    tag_108:\n        /* \"#utility.yul\":2246:2249   */\n      dup5\n        /* \"#utility.yul\":2242:2281   */\n      add\n        /* \"#utility.yul\":2235:2281   */\n      swap2\n      pop\n        /* \"#utility.yul\":2002:2287   */\n      pop\n        /* \"#utility.yul\":1910:2287   */\n      swap3\n      swap2\n      pop\n      pop\n      jump\t// out\n        /* \"#utility.yul\":2293:2606   */\n    tag_16:\n        /* \"#utility.yul\":2406:2410   */\n      0x00\n        /* \"#utility.yul\":2444:2446   */\n      0x20\n        /* \"#utility.yul\":2433:2442   */\n      dup3\n        /* \"#utility.yul\":2429:2447   */\n      add\n        /* \"#utility.yul\":2421:2447   */\n      swap1\n      pop\n        /* \"#utility.yul\":2493:2502   */\n      dup2\n        /* \"#utility.yul\":2487:2491   */\n      dup2\n        /* \"#utility.yul\":2483:2503   */\n      sub\n        /* \"#utility.yul\":2479:2480   */\n      0x00\n        /* \"#utility.yul\":2468:2477   */\n      dup4\n        /* \"#utility.yul\":2464:2481   */\n      add\n        /* \"#utility.yul\":2457:2504   */\n      mstore\n        /* \"#utility.yul\":2521:2599   */\n      tag_110\n        /* \"#utility.yul\":2594:2598   */\n      dup2\n        /* \"#utility.yul\":2585:2591   */\n      dup5\n        /* \"#utility.yul\":2521:2599   */\n      tag_56\n      jump\t// in\n    tag_110:\n        /* \"#utility.yul\":2513:2599   */\n      swap1\n      pop\n        /* \"#utility.yul\":2293:2606   */\n      swap3\n      swap2\n      pop\n      pop\n      jump\t// out\n        /* \"#utility.yul\":2612:3035   */\n    tag_21:\n        /* \"#utility.yul\":2753:2757   */\n      0x00\n        /* \"#utility.yul\":2791:2793   */\n      0x40\n        /* \"#utility.yul\":2780:2789   */\n      dup3\n        /* \"#utility.yul\":2776:2794   */\n      add\n        /* \"#utility.yul\":2768:2794   */\n      swap1\n      pop\n        /* \"#utility.yul\":2804:2875   */\n      tag_112\n        /* \"#utility.yul\":2872:2873   */\n      0x00\n        /* \"#utility.yul\":2861:2870   */\n      dup4\n        /* \"#utility.yul\":2857:2874   */\n      add\n        /* \"#utility.yul\":2848:2854   */\n      dup6\n        /* \"#utility.yul\":2804:2875   */\n      tag_46\n      jump\t// in\n    tag_112:\n        /* \"#utility.yul\":2922:2931   */\n      dup2\n        /* \"#utility.yul\":2916:2920   */\n      dup2\n        /* \"#utility.yul\":2912:2932   */\n      sub\n        /* \"#utility.yul\":2907:2909   */\n      0x20\n        /* \"#utility.yul\":2896:2905   */\n      dup4\n        /* \"#utility.yul\":2892:2910   */\n      add\n        /* \"#utility.yul\":2885:2933   */\n      mstore\n        /* \"#utility.yul\":2950:3028   */\n      tag_113\n        /* \"#utility.yul\":3023:3027   */\n      dup2\n        /* \"#utility.yul\":3014:3020   */\n      dup5\n        /* \"#utility.yul\":2950:3028   */\n      tag_56\n      jump\t// in\n    tag_113:\n        /* \"#utility.yul\":2942:3028   */\n      swap1\n      pop\n        /* \"#utility.yul\":2612:3035   */\n      swap4\n      swap3\n      pop\n      pop\n      pop\n      jump\t// out\n        /* \"#utility.yul\":3041:3158   */\n    tag_57:\n        /* \"#utility.yul\":3150:3151   */\n      0x00\n        /* \"#utility.yul\":3147:3148   */\n      dup1\n        /* \"#utility.yul\":3140:3152   */\n      revert\n        /* \"#utility.yul\":3164:3281   */\n    tag_58:\n        /* \"#utility.yul\":3273:3274   */\n      0x00\n        /* \"#utility.yul\":3270:3271   */\n      dup1\n        /* \"#utility.yul\":3263:3275   */\n      revert\n        /* \"#utility.yul\":3287:3467   */\n    tag_59:\n        /* \"#utility.yul\":3335:3412   */\n      0x4e487b7100000000000000000000000000000000000000000000000000000000\n        /* \"#utility.yul\":3332:3333   */\n      0x00\n        /* \"#utility.yul\":3325:3413   */\n      mstore\n        /* \"#utility.yul\":3432:3436   */\n      0x41\n        /* \"#utility.yul\":3429:3430   */\n      0x04\n        /* \"#utility.yul\":3422:3437   */\n      mstore\n        /* \"#utility.yul\":3456:3460   */\n      0x24\n        /* \"#utility.yul\":3453:3454   */\n      0x00\n        /* \"#utility.yul\":3446:3461   */\n      revert\n        /* \"#utility.yul\":3473:3754   */\n    tag_60:\n        /* \"#utility.yul\":3556:3583   */\n      tag_118\n        /* \"#utility.yul\":3578:3582   */\n      dup3\n        /* \"#utility.yul\":3556:3583   */\n      tag_55\n      jump\t// in\n    tag_118:\n        /* \"#utility.yul\":3548:3554   */\n      dup2\n        /* \"#utility.yul\":3544:3584   */\n      add\n        /* \"#utility.yul\":3686:3692   */\n      dup2\n        /* \"#utility.yul\":3674:3684   */\n      dup2\n        /* \"#utility.yul\":3671:3693   */\n      lt\n        /* \"#utility.yul\":3650:3668   */\n      0xffffffffffffffff\n        /* \"#utility.yul\":3638:3648   */\n      dup3\n        /* \"#utility.yul\":3635:3669   */\n      gt\n        /* \"#utility.yul\":3632:3694   */\n      or\n        /* \"#utility.yul\":3629:3717   */\n      iszero\n      tag_119\n      jumpi\n        /* \"#utility.yul\":3697:3715   */\n      tag_120\n      tag_59\n      jump\t// in\n    tag_120:\n        /* \"#utility.yul\":3629:3717   */\n    tag_119:\n        /* \"#utility.yul\":3737:3747   */\n      dup1\n        /* \"#utility.yul\":3733:3735   */\n      0x40\n        /* \"#utility.yul\":3726:3748   */\n      mstore\n        /* \"#utility.yul\":3516:3754   */\n      pop\n        /* \"#utility.yul\":3473:3754   */\n      pop\n      pop\n      jump\t// out\n        /* \"#utility.yul\":3760:3889   */\n    tag_61:\n        /* \"#utility.yul\":3794:3800   */\n      0x00\n        /* \"#utility.yul\":3821:3841   */\n      tag_122\n      tag_47\n      jump\t// in\n    tag_122:\n        /* \"#utility.yul\":3811:3841   */\n      swap1\n      pop\n        /* \"#utility.yul\":3850:3883   */\n      tag_123\n        /* \"#utility.yul\":3878:3882   */\n      dup3\n        /* \"#utility.yul\":3870:3876   */\n      dup3\n        /* \"#utility.yul\":3850:3883   */\n      tag_60\n      jump\t// in\n    tag_123:\n        /* \"#utility.yul\":3760:3889   */\n      swap2\n      swap1\n      pop\n      jump\t// out\n        /* \"#utility.yul\":3895:4203   */\n    tag_62:\n        /* \"#utility.yul\":3957:3961   */\n      0x00\n        /* \"#utility.yul\":4047:4065   */\n      0xffffffffffffffff\n        /* \"#utility.yul\":4039:4045   */\n      dup3\n        /* \"#utility.yul\":4036:4066   */\n      gt\n        /* \"#utility.yul\":4033:4089   */\n      iszero\n      tag_125\n      jumpi\n        /* \"#utility.yul\":4069:4087   */\n      tag_126\n      tag_59\n      jump\t// in\n    tag_126:\n        /* \"#utility.yul\":4033:4089   */\n    tag_125:\n        /* \"#utility.yul\":4107:4136   */\n      tag_127\n        /* \"#utility.yul\":4129:4135   */\n      dup3\n        /* \"#utility.yul\":4107:4136   */\n      tag_55\n      jump\t// in\n    tag_127:\n        /* \"#utility.yul\":4099:4136   */\n      swap1\n      pop\n        /* \"#utility.yul\":4191:4195   */\n      0x20\n        /* \"#utility.yul\":4185:4189   */\n      dup2\n        /* \"#utility.yul\":4181:4196   */\n      add\n        /* \"#utility.yul\":4173:4196   */\n      swap1\n      pop\n        /* \"#utility.yul\":3895:4203   */\n      swap2\n      swap1\n      pop\n      jump\t// out\n        /* \"#utility.yul\":4209:4357   */\n    tag_63:\n        /* \"#utility.yul\":4307:4313   */\n      dup3\n        /* \"#utility.yul\":4302:4305   */\n      dup2\n        /* \"#utility.yul\":4297:4300   */\n      dup4\n        /* \"#utility.yul\":4284:4314   */\n      calldatacopy\n        /* \"#utility.yul\":4348:4349   */\n      0x00\n        /* \"#utility.yul\":4339:4345   */\n      dup4\n        /* \"#utility.yul\":4334:4337   */\n      dup4\n        /* \"#utility.yul\":4330:4346   */\n      add\n        /* \"#utility.yul\":4323:4350   */\n      mstore\n        /* \"#utility.yul\":4209:4357   */\n      pop\n      pop\n      pop\n      jump\t// out\n        /* \"#utility.yul\":4363:4788   */\n    tag_64:\n        /* \"#utility.yul\":4441:4446   */\n      0x00\n        /* \"#utility.yul\":4466:4532   */\n      tag_130\n        /* \"#utility.yul\":4482:4531   */\n      tag_131\n        /* \"#utility.yul\":4524:4530   */\n      dup5\n        /* \"#utility.yul\":4482:4531   */\n      tag_62\n      jump\t// in\n    tag_131:\n        /* \"#utility.yul\":4466:4532   */\n      tag_61\n      jump\t// in\n    tag_130:\n        /* \"#utility.yul\":4457:4532   */\n      swap1\n      pop\n        /* \"#utility.yul\":4555:4561   */\n      dup3\n        /* \"#utility.yul\":4548:4553   */\n      dup2\n        /* \"#utility.yul\":4541:4562   */\n      mstore\n        /* \"#utility.yul\":4593:4597   */\n      0x20\n        /* \"#utility.yul\":4586:4591   */\n      dup2\n        /* \"#utility.yul\":4582:4598   */\n      add\n        /* \"#utility.yul\":4631:4634   */\n      dup5\n        /* \"#utility.yul\":4622:4628   */\n      dup5\n        /* \"#utility.yul\":4617:4620   */\n      dup5\n        /* \"#utility.yul\":4613:4629   */\n      add\n        /* \"#utility.yul\":4610:4635   */\n      gt\n        /* \"#utility.yul\":4607:4719   */\n      iszero\n      tag_132\n      jumpi\n        /* \"#utility.yul\":4638:4717   */\n      tag_133\n      tag_58\n      jump\t// in\n    tag_133:\n        /* \"#utility.yul\":4607:4719   */\n    tag_132:\n        /* \"#utility.yul\":4728:4782   */\n      tag_134\n        /* \"#utility.yul\":4775:4781   */\n      dup5\n        /* \"#utility.yul\":4770:4773   */\n      dup3\n        /* \"#utility.yul\":4765:4768   */\n      dup6\n        /* \"#utility.yul\":4728:4782   */\n      tag_63\n      jump\t// in\n    tag_134:\n        /* \"#utility.yul\":4447:4788   */\n      pop\n        /* \"#utility.yul\":4363:4788   */\n      swap4\n      swap3\n      pop\n      pop\n      pop\n      jump\t// out\n        /* \"#utility.yul\":4808:5148   */\n    tag_65:\n        /* \"#utility.yul\":4864:4869   */\n      0x00\n        /* \"#utility.yul\":4913:4916   */\n      dup3\n        /* \"#utility.yul\":4906:4910   */\n      0x1f\n        /* \"#utility.yul\":4898:4904   */\n      dup4\n        /* \"#utility.yul\":4894:4911   */\n      add\n        /* \"#utility.yul\":4890:4917   */\n      slt\n        /* \"#utility.yul\":4880:5002   */\n      tag_136\n      jumpi\n        /* \"#utility.yul\":4921:5000   */\n      tag_137\n      tag_57\n      jump\t// in\n    tag_137:\n        /* \"#utility.yul\":4880:5002   */\n    tag_136:\n        /* \"#utility.yul\":5038:5044   */\n      dup2\n        /* \"#utility.yul\":5025:5045   */\n      calldataload\n        /* \"#utility.yul\":5063:5142   */\n      tag_138\n        /* \"#utility.yul\":5138:5141   */\n      dup5\n        /* \"#utility.yul\":5130:5136   */\n      dup3\n        /* \"#utility.yul\":5123:5127   */\n      0x20\n        /* \"#utility.yul\":5115:5121   */\n      dup7\n        /* \"#utility.yul\":5111:5128   */\n      add\n        /* \"#utility.yul\":5063:5142   */\n      tag_64\n      jump\t// in\n    tag_138:\n        /* \"#utility.yul\":5054:5142   */\n      swap2\n      pop\n        /* \"#utility.yul\":4870:5148   */\n      pop\n        /* \"#utility.yul\":4808:5148   */\n      swap3\n      swap2\n      pop\n      pop\n      jump\t// out\n        /* \"#utility.yul\":5154:5808   */\n    tag_24:\n        /* \"#utility.yul\":5232:5238   */\n      0x00\n        /* \"#utility.yul\":5240:5246   */\n      dup1\n        /* \"#utility.yul\":5289:5291   */\n      0x40\n        /* \"#utility.yul\":5277:5286   */\n      dup4\n        /* \"#utility.yul\":5268:5275   */\n      dup6\n        /* \"#utility.yul\":5264:5287   */\n      sub\n        /* \"#utility.yul\":5260:5292   */\n      slt\n        /* \"#utility.yul\":5257:5376   */\n      iszero\n      tag_140\n      jumpi\n        /* \"#utility.yul\":5295:5374   */\n      tag_141\n      tag_48\n      jump\t// in\n    tag_141:\n        /* \"#utility.yul\":5257:5376   */\n    tag_140:\n        /* \"#utility.yul\":5443:5444   */\n      0x00\n        /* \"#utility.yul\":5432:5441   */\n      dup4\n        /* \"#utility.yul\":5428:5445   */\n      add\n        /* \"#utility.yul\":5415:5446   */\n      calldataload\n        /* \"#utility.yul\":5473:5491   */\n      0xffffffffffffffff\n        /* \"#utility.yul\":5465:5471   */\n      dup2\n        /* \"#utility.yul\":5462:5492   */\n      gt\n        /* \"#utility.yul\":5459:5576   */\n      iszero\n      tag_142\n      jumpi\n        /* \"#utility.yul\":5495:5574   */\n      tag_143\n      tag_49\n      jump\t// in\n    tag_143:\n        /* \"#utility.yul\":5459:5576   */\n    tag_142:\n        /* \"#utility.yul\":5600:5663   */\n      tag_144\n        /* \"#utility.yul\":5655:5662   */\n      dup6\n        /* \"#utility.yul\":5646:5652   */\n      dup3\n        /* \"#utility.yul\":5635:5644   */\n      dup7\n        /* \"#utility.yul\":5631:5653   */\n      add\n        /* \"#utility.yul\":5600:5663   */\n      tag_65\n      jump\t// in\n    tag_144:\n        /* \"#utility.yul\":5590:5663   */\n      swap3\n      pop\n        /* \"#utility.yul\":5386:5673   */\n      pop\n        /* \"#utility.yul\":5712:5714   */\n      0x20\n        /* \"#utility.yul\":5738:5791   */\n      tag_145\n        /* \"#utility.yul\":5783:5790   */\n      dup6\n        /* \"#utility.yul\":5774:5780   */\n      dup3\n        /* \"#utility.yul\":5763:5772   */\n      dup7\n        /* \"#utility.yul\":5759:5781   */\n      add\n        /* \"#utility.yul\":5738:5791   */\n      tag_51\n      jump\t// in\n    tag_145:\n        /* \"#utility.yul\":5728:5791   */\n      swap2\n      pop\n        /* \"#utility.yul\":5683:5801   */\n      pop\n        /* \"#utility.yul\":5154:5808   */\n      swap3\n      pop\n      swap3\n      swap1\n      pop\n      jump\t// out\n        /* \"#utility.yul\":5814:5994   */\n    tag_66:\n        /* \"#utility.yul\":5862:5939   */\n      0x4e487b7100000000000000000000000000000000000000000000000000000000\n        /* \"#utility.yul\":5859:5860   */\n      0x00\n        /* \"#utility.yul\":5852:5940   */\n      mstore\n        /* \"#utility.yul\":5959:5963   */\n      0x22\n        /* \"#utility.yul\":5956:5957   */\n      0x04\n        /* \"#utility.yul\":5949:5964   */\n      mstore\n        /* \"#utility.yul\":5983:5987   */\n      0x24\n        /* \"#utility.yul\":5980:5981   */\n      0x00\n        /* \"#utility.yul\":5973:5988   */\n      revert\n        /* \"#utility.yul\":6000:6320   */\n    tag_28:\n        /* \"#utility.yul\":6044:6050   */\n      0x00\n        /* \"#utility.yul\":6081:6082   */\n      0x02\n        /* \"#utility.yul\":6075:6079   */\n      dup3\n        /* \"#utility.yul\":6071:6083   */\n      div\n        /* \"#utility.yul\":6061:6083   */\n      swap1\n      pop\n        /* \"#utility.yul\":6128:6129   */\n      0x01\n        /* \"#utility.yul\":6122:6126   */\n      dup3\n        /* \"#utility.yul\":6118:6130   */\n      and\n        /* \"#utility.yul\":6149:6167   */\n      dup1\n        /* \"#utility.yul\":6139:6220   */\n      tag_148\n      jumpi\n        /* \"#utility.yul\":6205:6209   */\n      0x7f\n        /* \"#utility.yul\":6197:6203   */\n      dup3\n        /* \"#utility.yul\":6193:6210   */\n      and\n        /* \"#utility.yul\":6183:6210   */\n      swap2\n      pop\n        /* \"#utility.yul\":6139:6220   */\n    tag_148:\n        /* \"#utility.yul\":6267:6269   */\n      0x20\n        /* \"#utility.yul\":6259:6265   */\n      dup3\n        /* \"#utility.yul\":6256:6270   */\n      lt\n        /* \"#utility.yul\":6236:6254   */\n      dup2\n        /* \"#utility.yul\":6233:6271   */\n      sub\n        /* \"#utility.yul\":6230:6314   */\n      tag_149\n      jumpi\n        /* \"#utility.yul\":6286:6304   */\n      tag_150\n      tag_66\n      jump\t// in\n    tag_150:\n        /* \"#utility.yul\":6230:6314   */\n    tag_149:\n        /* \"#utility.yul\":6051:6320   */\n      pop\n        /* \"#utility.yul\":6000:6320   */\n      swap2\n      swap1\n      pop\n      jump\t// out\n        /* \"#utility.yul\":6326:6467   */\n    tag_67:\n        /* \"#utility.yul\":6375:6379   */\n      0x00\n        /* \"#utility.yul\":6398:6401   */\n      dup2\n        /* \"#utility.yul\":6390:6401   */\n      swap1\n      pop\n        /* \"#utility.yul\":6421:6424   */\n      dup2\n        /* \"#utility.yul\":6418:6419   */\n      0x00\n        /* \"#utility.yul\":6411:6425   */\n      mstore\n        /* \"#utility.yul\":6455:6459   */\n      0x20\n        /* \"#utility.yul\":6452:6453   */\n      0x00\n        /* \"#utility.yul\":6442:6460   */\n      keccak256\n        /* \"#utility.yul\":6434:6460   */\n      swap1\n      pop\n        /* \"#utility.yul\":6326:6467   */\n      swap2\n      swap1\n      pop\n      jump\t// out\n        /* \"#utility.yul\":6473:6566   */\n    tag_68:\n        /* \"#utility.yul\":6510:6516   */\n      0x00\n        /* \"#utility.yul\":6557:6559   */\n      0x20\n        /* \"#utility.yul\":6552:6554   */\n      0x1f\n        /* \"#utility.yul\":6545:6550   */\n      dup4\n        /* \"#utility.yul\":6541:6555   */\n      add\n        /* \"#utility.yul\":6537:6560   */\n      div\n        /* \"#utility.yul\":6527:6560   */\n      swap1\n      pop\n        /* \"#utility.yul\":6473:6566   */\n      swap2\n      swap1\n      pop\n      jump\t// out\n        /* \"#utility.yul\":6572:6679   */\n    tag_69:\n        /* \"#utility.yul\":6616:6624   */\n      0x00\n        /* \"#utility.yul\":6666:6671   */\n      dup3\n        /* \"#utility.yul\":6660:6664   */\n      dup3\n        /* \"#utility.yul\":6656:6672   */\n      shl\n        /* \"#utility.yul\":6635:6672   */\n      swap1\n      pop\n        /* \"#utility.yul\":6572:6679   */\n      swap3\n      swap2\n      pop\n      pop\n      jump\t// out\n        /* \"#utility.yul\":6685:7078   */\n    tag_70:\n        /* \"#utility.yul\":6754:6760   */\n      0x00\n        /* \"#utility.yul\":6804:6805   */\n      0x08\n        /* \"#utility.yul\":6792:6802   */\n      dup4\n        /* \"#utility.yul\":6788:6806   */\n      mul\n        /* \"#utility.yul\":6827:6924   */\n      tag_155\n        /* \"#utility.yul\":6857:6923   */\n      0xffffffffffffffffffffffffffffffffffffffffffffffffffffffffffffffff\n        /* \"#utility.yul\":6846:6855   */\n      dup3\n        /* \"#utility.yul\":6827:6924   */\n      tag_69\n      jump\t// in\n    tag_155:\n        /* \"#utility.yul\":6945:6984   */\n      tag_156\n        /* \"#utility.yul\":6975:6983   */\n      dup7\n        /* \"#utility.yul\":6964:6973   */\n      dup4\n        /* \"#utility.yul\":6945:6984   */\n      tag_69\n      jump\t// in\n    tag_156:\n        /* \"#utility.yul\":6933:6984   */\n      swap6\n      pop\n        /* \"#utility.yul\":7017:7021   */\n      dup1\n        /* \"#utility.yul\":7013:7022   */\n      not\n        /* \"#utility.yul\":7006:7011   */\n      dup5\n        /* \"#utility.yul\":7002:7023   */\n      and\n        /* \"#utility.yul\":6993:7023   */\n      swap4\n      pop\n        /* \"#utility.yul\":7066:7070   */\n      dup1\n        /* \"#utility.yul\":7056:7064   */\n      dup7\n        /* \"#utility.yul\":7052:7071   */\n      and\n        /* \"#utility.yul\":7045:7050   */\n      dup5\n        /* \"#utility.yul\":7042:7072   */\n      or\n        /* \"#utility.yul\":7032:7072   */\n      swap3\n      pop\n        /* \"#utility.yul\":6761:7078   */\n      pop\n      pop\n        /* \"#utility.yul\":6685:7078   */\n      swap4\n      swap3\n      pop\n      pop\n      pop\n      jump\t// out\n        /* \"#utility.yul\":7084:7144   */\n    tag_71:\n        /* \"#utility.yul\":7112:7115   */\n      0x00\n        /* \"#utility.yul\":7133:7138   */\n      dup2\n        /* \"#utility.yul\":7126:7138   */\n      swap1\n      pop\n        /* \"#utility.yul\":7084:7144   */\n      swap2\n      swap1\n      pop\n      jump\t// out\n        /* \"#utility.yul\":7150:7292   */\n    tag_72:\n        /* \"#utility.yul\":7200:7209   */\n      0x00\n        /* \"#utility.yul\":7233:7286   */\n      tag_159\n        /* \"#utility.yul\":7251:7285   */\n      tag_160\n        /* \"#utility.yul\":7260:7284   */\n      tag_161\n        /* \"#utility.yul\":7278:7283   */\n      dup5\n        /* \"#utility.yul\":7260:7284   */\n      tag_45\n      jump\t// in\n    tag_161:\n        /* \"#utility.yul\":7251:7285   */\n      tag_71\n      jump\t// in\n    tag_160:\n        /* \"#utility.yul\":7233:7286   */\n      tag_45\n      jump\t// in\n    tag_159:\n        /* \"#utility.yul\":7220:7286   */\n      swap1\n      pop\n        /* \"#utility.yul\":7150:7292   */\n      swap2\n      swap1\n      pop\n      jump\t// out\n        /* \"#utility.yul\":7298:7373   */\n    tag_73:\n        /* \"#utility.yul\":7341:7344   */\n      0x00\n        /* \"#utility.yul\":7362:7367   */\n      dup2\n        /* \"#utility.yul\":7355:7367   */\n      swap1\n      pop\n        /* \"#utility.yul\":7298:7373   */\n      swap2\n      swap1\n      pop\n      jump\t// out\n        /* \"#utility.yul\":7379:7648   */\n    tag_74:\n        /* \"#utility.yul\":7489:7528   */\n      tag_164\n        /* \"#utility.yul\":7520:7527   */\n      dup4\n        /* \"#utility.yul\":7489:7528   */\n      tag_72\n      jump\t// in\n    tag_164:\n        /* \"#utility.yul\":7550:7641   */\n      tag_165\n        /* \"#utility.yul\":7599:7640   */\n      tag_166\n        /* \"#utility.yul\":7623:7639   */\n      dup3\n        /* \"#utility.yul\":7599:7640   */\n      tag_73\n      jump\t// in\n    tag_166:\n        /* \"#utility.yul\":7591:7597   */\n      dup5\n        /* \"#utility.yul\":7584:7588   */\n      dup5\n        /* \"#utility.yul\":7578:7589   */\n      sload\n        /* \"#utility.yul\":7550:7641   */\n      tag_70\n      jump\t// in\n    tag_165:\n        /* \"#utility.yul\":7544:7548   */\n      dup3\n        /* \"#utility.yul\":7537:7642   */\n      sstore\n        /* \"#utility.yul\":7455:7648   */\n      pop\n        /* \"#utility.yul\":7379:7648   */\n      pop\n      pop\n      pop\n      jump\t// out\n        /* \"#utility.yul\":7654:7727   */\n    tag_75:\n        /* \"#utility.yul\":7699:7702   */\n      0x00\n        /* \"#utility.yul\":7654:7727   */\n      swap1\n      jump\t// out\n        /* \"#utility.yul\":7733:7922   */\n    tag_76:\n        /* \"#utility.yul\":7810:7842   */\n      tag_169\n      tag_75\n      jump\t// in\n    tag_169:\n        /* \"#utility.yul\":7851:7916   */\n      tag_170\n        /* \"#utility.yul\":7909:7915   */\n      dup2\n        /* \"#utility.yul\":7901:7907   */\n      dup5\n        /* \"#utility.yul\":7895:7899   */\n      dup5\n        /* \"#utility.yul\":7851:7916   */\n      tag_74\n      jump\t// in\n    tag_170:\n        /* \"#utility.yul\":7786:7922   */\n      pop\n        /* \"#utility.yul\":7733:7922   */\n      pop\n      pop\n      jump\t// out\n        /* \"#utility.yul\":7928:8114   */\n    tag_77:\n        /* \"#utility.yul\":7988:8108   */\n    tag_172:\n        /* \"#utility.yul\":8005:8008   */\n      dup2\n        /* \"#utility.yul\":7998:8003   */\n      dup2\n        /* \"#utility.yul\":7995:8009   */\n      lt\n        /* \"#utility.yul\":7988:8108   */\n      iszero\n      tag_174\n      jumpi\n        /* \"#utility.yul\":8059:8098   */\n      tag_175\n        /* \"#utility.yul\":8096:8097   */\n      0x00\n        /* \"#utility.yul\":8089:8094   */\n      dup3\n        /* \"#utility.yul\":8059:8098   */\n      tag_76\n      jump\t// in\n    tag_175:\n        /* \"#utility.yul\":8032:8033   */\n      0x01\n        /* \"#utility.yul\":8025:8030   */\n      dup2\n        /* \"#utility.yul\":8021:8034   */\n      add\n        /* \"#utility.yul\":8012:8034   */\n      swap1\n      pop\n        /* \"#utility.yul\":7988:8108   */\n      jump(tag_172)\n    tag_174:\n        /* \"#utility.yul\":7928:8114   */\n      pop\n      pop\n      jump\t// out\n        /* \"#utility.yul\":8120:8663   */\n    tag_78:\n        /* \"#utility.yul\":8221:8223   */\n      0x1f\n        /* \"#utility.yul\":8216:8219   */\n      dup3\n        /* \"#utility.yul\":8213:8224   */\n      gt\n        /* \"#utility.yul\":8210:8656   */\n      iszero\n      tag_177\n      jumpi\n        /* \"#utility.yul\":8255:8293   */\n      tag_178\n        /* \"#utility.yul\":8287:8292   */\n      dup2\n        /* \"#utility.yul\":8255:8293   */\n      tag_67\n      jump\t// in\n    tag_178:\n        /* \"#utility.yul\":8339:8368   */\n      tag_179\n        /* \"#utility.yul\":8357:8367   */\n      dup5\n        /* \"#utility.yul\":8339:8368   */\n      tag_68\n      jump\t// in\n    tag_179:\n        /* \"#utility.yul\":8329:8337   */\n      dup2\n        /* \"#utility.yul\":8325:8369   */\n      add\n        /* \"#utility.yul\":8522:8524   */\n      0x20\n        /* \"#utility.yul\":8510:8520   */\n      dup6\n        /* \"#utility.yul\":8507:8525   */\n      lt\n        /* \"#utility.yul\":8504:8553   */\n      iszero\n      tag_180\n      jumpi\n        /* \"#utility.yul\":8543:8551   */\n      dup2\n        /* \"#utility.yul\":8528:8551   */\n      swap1\n      pop\n        /* \"#utility.yul\":8504:8553   */\n    tag_180:\n        /* \"#utility.yul\":8566:8646   */\n      tag_181\n        /* \"#utility.yul\":8622:8644   */\n      tag_182\n        /* \"#utility.yul\":8640:8643   */\n      dup6\n        /* \"#utility.yul\":8622:8644   */\n      tag_68\n      jump\t// in\n    tag_182:\n        /* \"#utility.yul\":8612:8620   */\n      dup4\n        /* \"#utility.yul\":8608:8645   */\n      add\n        /* \"#utility.yul\":8595:8606   */\n      dup3\n        /* \"#utility.yul\":8566:8646   */\n      tag_77\n      jump\t// in\n    tag_181:\n        /* \"#utility.yul\":8225:8656   */\n      pop\n      pop\n        /* \"#utility.yul\":8210:8656   */\n    tag_177:\n        /* \"#utility.yul\":8120:8663   */\n      pop\n      pop\n      pop\n      jump\t// out\n        /* \"#utility.yul\":8669:8786   */\n    tag_79:\n        /* \"#utility.yul\":8723:8731   */\n      0x00\n        /* \"#utility.yul\":8773:8778   */\n      dup3\n        /* \"#utility.yul\":8767:8771   */\n      dup3\n        /* \"#utility.yul\":8763:8779   */\n      shr\n        /* \"#utility.yul\":8742:8779   */\n      swap1\n      pop\n        /* \"#utility.yul\":8669:8786   */\n      swap3\n      swap2\n      pop\n      pop\n      jump\t// out\n        /* \"#utility.yul\":8792:8961   */\n    tag_80:\n        /* \"#utility.yul\":8836:8842   */\n      0x00\n        /* \"#utility.yul\":8869:8920   */\n      tag_185\n        /* \"#utility.yul\":8917:8918   */\n      0x00\n        /* \"#utility.yul\":8913:8919   */\n      not\n        /* \"#utility.yul\":8905:8910   */\n      dup5\n        /* \"#utility.yul\":8902:8903   */\n      0x08\n        /* \"#utility.yul\":8898:8911   */\n      mul\n        /* \"#utility.yul\":8869:8920   */\n      tag_79\n      jump\t// in\n    tag_185:\n        /* \"#utility.yul\":8865:8921   */\n      not\n        /* \"#utility.yul\":8950:8954   */\n      dup1\n        /* \"#utility.yul\":8944:8948   */\n      dup4\n        /* \"#utility.yul\":8940:8955   */\n      and\n        /* \"#utility.yul\":8930:8955   */\n      swap2\n      pop\n        /* \"#utility.yul\":8843:8961   */\n      pop\n        /* \"#utility.yul\":8792:8961   */\n      swap3\n      swap2\n      pop\n      pop\n      jump\t// out\n        /* \"#utility.yul\":8966:9261   */\n    tag_81:\n        /* \"#utility.yul\":9042:9046   */\n      0x00\n        /* \"#utility.yul\":9188:9217   */\n      tag_187\n        /* \"#utility.yul\":9213:9216   */\n      dup4\n        /* \"#utility.yul\":9207:9211   */\n      dup4\n        /* \"#utility.yul\":9188:9217   */\n      tag_80\n      jump\t// in\n    tag_187:\n        /* \"#utility.yul\":9180:9217   */\n      swap2\n      pop\n        /* \"#utility.yul\":9250:9253   */\n      dup3\n        /* \"#utility.yul\":9247:9248   */\n      0x02\n        /* \"#utility.yul\":9243:9254   */\n      mul\n        /* \"#utility.yul\":9237:9241   */\n      dup3\n        /* \"#utility.yul\":9234:9255   */\n      or\n        /* \"#utility.yul\":9226:9255   */\n      swap1\n      pop\n        /* \"#utility.yul\":8966:9261   */\n      swap3\n      swap2\n      pop\n      pop\n      jump\t// out\n        /* \"#utility.yul\":9266:10661   */\n    tag_43:\n        /* \"#utility.yul\":9383:9420   */\n      tag_189\n        /* \"#utility.yul\":9416:9419   */\n      dup3\n        /* \"#utility.yul\":9383:9420   */\n      tag_52\n      jump\t// in\n    tag_189:\n        /* \"#utility.yul\":9485:9503   */\n      0xffffffffffffffff\n        /* \"#utility.yul\":9477:9483   */\n      dup2\n        /* \"#utility.yul\":9474:9504   */\n      gt\n        /* \"#utility.yul\":9471:9527   */\n      iszero\n      tag_190\n      jumpi\n        /* \"#utility.yul\":9507:9525   */\n      tag_191\n      tag_59\n      jump\t// in\n    tag_191:\n        /* \"#utility.yul\":9471:9527   */\n    tag_190:\n        /* \"#utility.yul\":9551:9589   */\n      tag_192\n        /* \"#utility.yul\":9583:9587   */\n      dup3\n        /* \"#utility.yul\":9577:9588   */\n      sload\n        /* \"#utility.yul\":9551:9589   */\n      tag_28\n      jump\t// in\n    tag_192:\n        /* \"#utility.yul\":9636:9703   */\n      tag_193\n        /* \"#utility.yul\":9696:9702   */\n      dup3\n        /* \"#utility.yul\":9688:9694   */\n      dup3\n        /* \"#utility.yul\":9682:9686   */\n      dup6\n        /* \"#utility.yul\":9636:9703   */\n      tag_78\n      jump\t// in\n    tag_193:\n        /* \"#utility.yul\":9730:9731   */\n      0x00\n        /* \"#utility.yul\":9754:9758   */\n      0x20\n        /* \"#utility.yul\":9741:9758   */\n      swap1\n      pop\n        /* \"#utility.yul\":9786:9788   */\n      0x1f\n        /* \"#utility.yul\":9778:9784   */\n      dup4\n        /* \"#utility.yul\":9775:9789   */\n      gt\n        /* \"#utility.yul\":9803:9804   */\n      0x01\n        /* \"#utility.yul\":9798:10416   */\n      dup2\n      eq\n      tag_195\n      jumpi\n        /* \"#utility.yul\":10460:10461   */\n      0x00\n        /* \"#utility.yul\":10477:10483   */\n      dup5\n        /* \"#utility.yul\":10474:10551   */\n      iszero\n      tag_196\n      jumpi\n        /* \"#utility.yul\":10526:10535   */\n      dup3\n        /* \"#utility.yul\":10521:10524   */\n      dup8\n        /* \"#utility.yul\":10517:10536   */\n      add\n        /* \"#utility.yul\":10511:10537   */\n      mload\n        /* \"#utility.yul\":10502:10537   */\n      swap1\n      pop\n        /* \"#utility.yul\":10474:10551   */\n    tag_196:\n        /* \"#utility.yul\":10577:10644   */\n      tag_197\n        /* \"#utility.yul\":10637:10643   */\n      dup6\n        /* \"#utility.yul\":10630:10635   */\n      dup3\n        /* \"#utility.yul\":10577:10644   */\n      tag_81\n      jump\t// in\n    tag_197:\n        /* \"#utility.yul\":10571:10575   */\n      dup7\n        /* \"#utility.yul\":10564:10645   */\n      sstore\n        /* \"#utility.yul\":10433:10655   */\n      pop\n        /* \"#utility.yul\":9768:10655   */\n      jump(tag_194)\n        /* \"#utility.yul\":9798:10416   */\n    tag_195:\n        /* \"#utility.yul\":9850:9854   */\n      0x1f\n        /* \"#utility.yul\":9846:9855   */\n      not\n        /* \"#utility.yul\":9838:9844   */\n      dup5\n        /* \"#utility.yul\":9834:9856   */\n      and\n        /* \"#utility.yul\":9884:9921   */\n      tag_198\n        /* \"#utility.yul\":9916:9920   */\n      dup7\n        /* \"#utility.yul\":9884:9921   */\n      tag_67\n      jump\t// in\n    tag_198:\n        /* \"#utility.yul\":9943:9944   */\n      0x00\n        /* \"#utility.yul\":9957:10165   */\n    tag_199:\n        /* \"#utility.yul\":9971:9978   */\n      dup3\n        /* \"#utility.yul\":9968:9969   */\n      dup2\n        /* \"#utility.yul\":9965:9979   */\n      lt\n        /* \"#utility.yul\":9957:10165   */\n      iszero\n      tag_201\n      jumpi\n        /* \"#utility.yul\":10050:10059   */\n      dup5\n        /* \"#utility.yul\":10045:10048   */\n      dup10\n        /* \"#utility.yul\":10041:10060   */\n      add\n        /* \"#utility.yul\":10035:10061   */\n      mload\n        /* \"#utility.yul\":10027:10033   */\n      dup3\n        /* \"#utility.yul\":10020:10062   */\n      sstore\n        /* \"#utility.yul\":10101:10102   */\n      0x01\n        /* \"#utility.yul\":10093:10099   */\n      dup3\n        /* \"#utility.yul\":10089:10103   */\n      add\n        /* \"#utility.yul\":10079:10103   */\n      swap2\n      pop\n        /* \"#utility.yul\":10148:10150   */\n      0x20\n        /* \"#utility.yul\":10137:10146   */\n      dup6\n        /* \"#utility.yul\":10133:10151   */\n      add\n        /* \"#utility.yul\":10120:10151   */\n      swap5\n      pop\n        /* \"#utility.yul\":9994:9998   */\n      0x20\n        /* \"#utility.yul\":9991:9992   */\n      dup2\n        /* \"#utility.yul\":9987:9999   */\n      add\n        /* \"#utility.yul\":9982:9999   */\n      swap1\n      pop\n        /* \"#utility.yul\":9957:10165   */\n      jump(tag_199)\n    tag_201:\n        /* \"#utility.yul\":10193:10199   */\n      dup7\n        /* \"#utility.yul\":10184:10191   */\n      dup4\n        /* \"#utility.yul\":10181:10200   */\n      lt\n        /* \"#utility.yul\":10178:10357   */\n      iszero\n      tag_202\n      jumpi\n        /* \"#utility.yul\":10251:10260   */\n      dup5\n        /* \"#utility.yul\":10246:10249   */\n      dup10\n        /* \"#utility.yul\":10242:10261   */\n      add\n        /* \"#utility.yul\":10236:10262   */\n      mload\n        /* \"#utility.yul\":10294:10342   */\n      tag_203\n        /* \"#utility.yul\":10336:10340   */\n      0x1f\n        /* \"#utility.yul\":10328:10334   */\n      dup10\n        /* \"#utility.yul\":10324:10341   */\n      and\n        /* \"#utility.yul\":10313:10322   */\n      dup3\n        /* \"#utility.yul\":10294:10342   */\n      tag_80\n      jump\t// in\n    tag_203:\n        /* \"#utility.yul\":10286:10292   */\n      dup4\n        /* \"#utility.yul\":10279:10343   */\n      sstore\n        /* \"#utility.yul\":10201:10357   */\n      pop\n        /* \"#utility.yul\":10178:10357   */\n    tag_202:\n        /* \"#utility.yul\":10403:10404   */\n      0x01\n        /* \"#utility.yul\":10399:10400   */\n      0x02\n        /* \"#utility.yul\":10391:10397   */\n      dup9\n        /* \"#utility.yul\":10387:10401   */\n      mul\n        /* \"#utility.yul\":10383:10405   */\n      add\n        /* \"#utility.yul\":10377:10381   */\n      dup9\n        /* \"#utility.yul\":10370:10406   */\n      sstore\n        /* \"#utility.yul\":9805:10416   */\n      pop\n      pop\n      pop\n        /* \"#utility.yul\":9768:10655   */\n    tag_194:\n      pop\n        /* \"#utility.yul\":9358:10661   */\n      pop\n      pop\n      pop\n        /* \"#utility.yul\":9266:10661   */\n      pop\n      pop\n      jump\t// out\n\n    auxdata: 0xa26469706673582212202722c6b7f147a19a369022c5477abf5aafaa1cedc1553356593f3dd25d73fcc364736f6c634300081a0033\n}\n",
				"bytecode": {
					"linkReferences": {},
					"object": "6080604052348015600e575f80fd5b5061089f8061001c5f395ff3fe608060405234801561000f575f80fd5b506004361061004a575f3560e01c80635801afa51461004e5780638c1edb901461006c578063bf119bdb1461009c578063e1b3202a146100cd575b5f80fd5b6100566100e9565b60405161006391906102dd565b60405180910390f35b61008660048036038101906100819190610331565b6100f5565b60405161009391906103cc565b60405180910390f35b6100b660048036038101906100b19190610331565b610190565b6040516100c49291906103ec565b60405180910390f35b6100e760048036038101906100e29190610546565b610245565b005b5f600280549050905090565b6001602052805f5260405f205f915090508054610111906105cd565b80601f016020809104026020016040519081016040528092919081815260200182805461013d906105cd565b80156101885780601f1061015f57610100808354040283529160200191610188565b820191905f5260205f20905b81548152906001019060200180831161016b57829003601f168201915b505050505081565b6002818154811061019f575f80fd5b905f5260205f2090600202015f91509050805f0154908060010180546101c4906105cd565b80601f01602080910402602001604051908101604052809291908181526020018280546101f0906105cd565b801561023b5780601f106102125761010080835404028352916020019161023b565b820191905f5260205f20905b81548152906001019060200180831161021e57829003601f168201915b5050505050905082565b6002604051806040016040528083815260200184815250908060018154018082558091505060019003905f5260205f2090600202015f909190919091505f820151815f0155602082015181600101908161029f919061079a565b5050508160015f8381526020019081526020015f2090816102c0919061079a565b505050565b5f819050919050565b6102d7816102c5565b82525050565b5f6020820190506102f05f8301846102ce565b92915050565b5f604051905090565b5f80fd5b5f80fd5b610310816102c5565b811461031a575f80fd5b50565b5f8135905061032b81610307565b92915050565b5f60208284031215610346576103456102ff565b5b5f6103538482850161031d565b91505092915050565b5f81519050919050565b5f82825260208201905092915050565b8281835e5f83830152505050565b5f601f19601f8301169050919050565b5f61039e8261035c565b6103a88185610366565b93506103b8818560208601610376565b6103c181610384565b840191505092915050565b5f6020820190508181035f8301526103e48184610394565b905092915050565b5f6040820190506103ff5f8301856102ce565b81810360208301526104118184610394565b90509392505050565b5f80fd5b5f80fd5b7f4e487b71000000000000000000000000000000000000000000000000000000005f52604160045260245ffd5b61045882610384565b810181811067ffffffffffffffff8211171561047757610476610422565b5b80604052505050565b5f6104896102f6565b9050610495828261044f565b919050565b5f67ffffffffffffffff8211156104b4576104b3610422565b5b6104bd82610384565b9050602081019050919050565b828183375f83830152505050565b5f6104ea6104e58461049a565b610480565b9050828152602081018484840111156105065761050561041e565b5b6105118482856104ca565b509392505050565b5f82601f83011261052d5761052c61041a565b5b813561053d8482602086016104d8565b91505092915050565b5f806040838503121561055c5761055b6102ff565b5b5f83013567ffffffffffffffff81111561057957610578610303565b5b61058585828601610519565b92505060206105968582860161031d565b9150509250929050565b7f4e487b71000000000000000000000000000000000000000000000000000000005f52602260045260245ffd5b5f60028204905060018216806105e457607f821691505b6020821081036105f7576105f66105a0565b5b50919050565b5f819050815f5260205f209050919050565b5f6020601f8301049050919050565b5f82821b905092915050565b5f600883026106597fffffffffffffffffffffffffffffffffffffffffffffffffffffffffffffffff8261061e565b610663868361061e565b95508019841693508086168417925050509392505050565b5f819050919050565b5f61069e610699610694846102c5565b61067b565b6102c5565b9050919050565b5f819050919050565b6106b783610684565b6106cb6106c3826106a5565b84845461062a565b825550505050565b5f90565b6106df6106d3565b6106ea8184846106ae565b505050565b5b8181101561070d576107025f826106d7565b6001810190506106f0565b5050565b601f82111561075257610723816105fd565b61072c8461060f565b8101602085101561073b578190505b61074f6107478561060f565b8301826106ef565b50505b505050565b5f82821c905092915050565b5f6107725f1984600802610757565b1980831691505092915050565b5f61078a8383610763565b9150826002028217905092915050565b6107a38261035c565b67ffffffffffffffff8111156107bc576107bb610422565b5b6107c682546105cd565b6107d1828285610711565b5f60209050601f831160018114610802575f84156107f0578287015190505b6107fa858261077f565b865550610861565b601f198416610810866105fd565b5f5b8281101561083757848901518255600182019150602085019450602081019050610812565b868310156108545784890151610850601f891682610763565b8355505b6001600288020188555050505b50505050505056fea26469706673582212202722c6b7f147a19a369022c5477abf5aafaa1cedc1553356593f3dd25d73fcc364736f6c634300081a0033",
					"opcodes": "PUSH1 0x80 PUSH1 0x40 MSTORE CALLVALUE DUP1 ISZERO PUSH1 0xE JUMPI PUSH0 DUP1 REVERT JUMPDEST POP PUSH2 0x89F DUP1 PUSH2 0x1C PUSH0 CODECOPY PUSH0 RETURN INVALID PUSH1 0x80 PUSH1 0x40 MSTORE CALLVALUE DUP1 ISZERO PUSH2 0xF JUMPI PUSH0 DUP1 REVERT JUMPDEST POP PUSH1 0x4 CALLDATASIZE LT PUSH2 0x4A JUMPI PUSH0 CALLDATALOAD PUSH1 0xE0 SHR DUP1 PUSH4 0x5801AFA5 EQ PUSH2 0x4E JUMPI DUP1 PUSH4 0x8C1EDB90 EQ PUSH2 0x6C JUMPI DUP1 PUSH4 0xBF119BDB EQ PUSH2 0x9C JUMPI DUP1 PUSH4 0xE1B3202A EQ PUSH2 0xCD JUMPI JUMPDEST PUSH0 DUP1 REVERT JUMPDEST PUSH2 0x56 PUSH2 0xE9 JUMP JUMPDEST PUSH1 0x40 MLOAD PUSH2 0x63 SWAP2 SWAP1 PUSH2 0x2DD JUMP JUMPDEST PUSH1 0x40 MLOAD DUP1 SWAP2 SUB SWAP1 RETURN JUMPDEST PUSH2 0x86 PUSH1 0x4 DUP1 CALLDATASIZE SUB DUP2 ADD SWAP1 PUSH2 0x81 SWAP2 SWAP1 PUSH2 0x331 JUMP JUMPDEST PUSH2 0xF5 JUMP JUMPDEST PUSH1 0x40 MLOAD PUSH2 0x93 SWAP2 SWAP1 PUSH2 0x3CC JUMP JUMPDEST PUSH1 0x40 MLOAD DUP1 SWAP2 SUB SWAP1 RETURN JUMPDEST PUSH2 0xB6 PUSH1 0x4 DUP1 CALLDATASIZE SUB DUP2 ADD SWAP1 PUSH2 0xB1 SWAP2 SWAP1 PUSH2 0x331 JUMP JUMPDEST PUSH2 0x190 JUMP JUMPDEST PUSH1 0x40 MLOAD PUSH2 0xC4 SWAP3 SWAP2 SWAP1 PUSH2 0x3EC JUMP JUMPDEST PUSH1 0x40 MLOAD DUP1 SWAP2 SUB SWAP1 RETURN JUMPDEST PUSH2 0xE7 PUSH1 0x4 DUP1 CALLDATASIZE SUB DUP2 ADD SWAP1 PUSH2 0xE2 SWAP2 SWAP1 PUSH2 0x546 JUMP JUMPDEST PUSH2 0x245 JUMP JUMPDEST STOP JUMPDEST PUSH0 PUSH1 0x2 DUP1 SLOAD SWAP1 POP SWAP1 POP SWAP1 JUMP JUMPDEST PUSH1 0x1 PUSH1 0x20 MSTORE DUP1 PUSH0 MSTORE PUSH1 0x40 PUSH0 KECCAK256 PUSH0 SWAP2 POP SWAP1 POP DUP1 SLOAD PUSH2 0x111 SWAP1 PUSH2 0x5CD JUMP JUMPDEST DUP1 PUSH1 0x1F ADD PUSH1 0x20 DUP1 SWAP2 DIV MUL PUSH1 0x20 ADD PUSH1 0x40 MLOAD SWAP1 DUP2 ADD PUSH1 0x40 MSTORE DUP1 SWAP3 SWAP2 SWAP1 DUP2 DUP2 MSTORE PUSH1 0x20 ADD DUP3 DUP1 SLOAD PUSH2 0x13D SWAP1 PUSH2 0x5CD JUMP JUMPDEST DUP1 ISZERO PUSH2 0x188 JUMPI DUP1 PUSH1 0x1F LT PUSH2 0x15F JUMPI PUSH2 0x100 DUP1 DUP4 SLOAD DIV MUL DUP4 MSTORE SWAP2 PUSH1 0x20 ADD SWAP2 PUSH2 0x188 JUMP JUMPDEST DUP3 ADD SWAP2 SWAP1 PUSH0 MSTORE PUSH1 0x20 PUSH0 KECCAK256 SWAP1 JUMPDEST DUP2 SLOAD DUP2 MSTORE SWAP1 PUSH1 0x1 ADD SWAP1 PUSH1 0x20 ADD DUP1 DUP4 GT PUSH2 0x16B JUMPI DUP3 SWAP1 SUB PUSH1 0x1F AND DUP3 ADD SWAP2 JUMPDEST POP POP POP POP POP DUP2 JUMP JUMPDEST PUSH1 0x2 DUP2 DUP2 SLOAD DUP2 LT PUSH2 0x19F JUMPI PUSH0 DUP1 REVERT JUMPDEST SWAP1 PUSH0 MSTORE PUSH1 0x20 PUSH0 KECCAK256 SWAP1 PUSH1 0x2 MUL ADD PUSH0 SWAP2 POP SWAP1 POP DUP1 PUSH0 ADD SLOAD SWAP1 DUP1 PUSH1 0x1 ADD DUP1 SLOAD PUSH2 0x1C4 SWAP1 PUSH2 0x5CD JUMP JUMPDEST DUP1 PUSH1 0x1F ADD PUSH1 0x20 DUP1 SWAP2 DIV MUL PUSH1 0x20 ADD PUSH1 0x40 MLOAD SWAP1 DUP2 ADD PUSH1 0x40 MSTORE DUP1 SWAP3 SWAP2 SWAP1 DUP2 DUP2 MSTORE PUSH1 0x20 ADD DUP3 DUP1 SLOAD PUSH2 0x1F0 SWAP1 PUSH2 0x5CD JUMP JUMPDEST DUP1 ISZERO PUSH2 0x23B JUMPI DUP1 PUSH1 0x1F LT PUSH2 0x212 JUMPI PUSH2 0x100 DUP1 DUP4 SLOAD DIV MUL DUP4 MSTORE SWAP2 PUSH1 0x20 ADD SWAP2 PUSH2 0x23B JUMP JUMPDEST DUP3 ADD SWAP2 SWAP1 PUSH0 MSTORE PUSH1 0x20 PUSH0 KECCAK256 SWAP1 JUMPDEST DUP2 SLOAD DUP2 MSTORE SWAP1 PUSH1 0x1 ADD SWAP1 PUSH1 0x20 ADD DUP1 DUP4 GT PUSH2 0x21E JUMPI DUP3 SWAP1 SUB PUSH1 0x1F AND DUP3 ADD SWAP2 JUMPDEST POP POP POP POP POP SWAP1 POP DUP3 JUMP JUMPDEST PUSH1 0x2 PUSH1 0x40 MLOAD DUP1 PUSH1 0x40 ADD PUSH1 0x40 MSTORE DUP1 DUP4 DUP2 MSTORE PUSH1 0x20 ADD DUP5 DUP2 MSTORE POP SWAP1 DUP1 PUSH1 0x1 DUP2 SLOAD ADD DUP1 DUP3 SSTORE DUP1 SWAP2 POP POP PUSH1 0x1 SWAP1 SUB SWAP1 PUSH0 MSTORE PUSH1 0x20 PUSH0 KECCAK256 SWAP1 PUSH1 0x2 MUL ADD PUSH0 SWAP1 SWAP2 SWAP1 SWAP2 SWAP1 SWAP2 POP PUSH0 DUP3 ADD MLOAD DUP2 PUSH0 ADD SSTORE PUSH1 0x20 DUP3 ADD MLOAD DUP2 PUSH1 0x1 ADD SWAP1 DUP2 PUSH2 0x29F SWAP2 SWAP1 PUSH2 0x79A JUMP JUMPDEST POP POP POP DUP2 PUSH1 0x1 PUSH0 DUP4 DUP2 MSTORE PUSH1 0x20 ADD SWAP1 DUP2 MSTORE PUSH1 0x20 ADD PUSH0 KECCAK256 SWAP1 DUP2 PUSH2 0x2C0 SWAP2 SWAP1 PUSH2 0x79A JUMP JUMPDEST POP POP POP JUMP JUMPDEST PUSH0 DUP2 SWAP1 POP SWAP2 SWAP1 POP JUMP JUMPDEST PUSH2 0x2D7 DUP2 PUSH2 0x2C5 JUMP JUMPDEST DUP3 MSTORE POP POP JUMP JUMPDEST PUSH0 PUSH1 0x20 DUP3 ADD SWAP1 POP PUSH2 0x2F0 PUSH0 DUP4 ADD DUP5 PUSH2 0x2CE JUMP JUMPDEST SWAP3 SWAP2 POP POP JUMP JUMPDEST PUSH0 PUSH1 0x40 MLOAD SWAP1 POP SWAP1 JUMP JUMPDEST PUSH0 DUP1 REVERT JUMPDEST PUSH0 DUP1 REVERT JUMPDEST PUSH2 0x310 DUP2 PUSH2 0x2C5 JUMP JUMPDEST DUP2 EQ PUSH2 0x31A JUMPI PUSH0 DUP1 REVERT JUMPDEST POP JUMP JUMPDEST PUSH0 DUP2 CALLDATALOAD SWAP1 POP PUSH2 0x32B DUP2 PUSH2 0x307 JUMP JUMPDEST SWAP3 SWAP2 POP POP JUMP JUMPDEST PUSH0 PUSH1 0x20 DUP3 DUP5 SUB SLT ISZERO PUSH2 0x346 JUMPI PUSH2 0x345 PUSH2 0x2FF JUMP JUMPDEST JUMPDEST PUSH0 PUSH2 0x353 DUP5 DUP3 DUP6 ADD PUSH2 0x31D JUMP JUMPDEST SWAP2 POP POP SWAP3 SWAP2 POP POP JUMP JUMPDEST PUSH0 DUP2 MLOAD SWAP1 POP SWAP2 SWAP1 POP JUMP JUMPDEST PUSH0 DUP3 DUP3 MSTORE PUSH1 0x20 DUP3 ADD SWAP1 POP SWAP3 SWAP2 POP POP JUMP JUMPDEST DUP3 DUP2 DUP4 MCOPY PUSH0 DUP4 DUP4 ADD MSTORE POP POP POP JUMP JUMPDEST PUSH0 PUSH1 0x1F NOT PUSH1 0x1F DUP4 ADD AND SWAP1 POP SWAP2 SWAP1 POP JUMP JUMPDEST PUSH0 PUSH2 0x39E DUP3 PUSH2 0x35C JUMP JUMPDEST PUSH2 0x3A8 DUP2 DUP6 PUSH2 0x366 JUMP JUMPDEST SWAP4 POP PUSH2 0x3B8 DUP2 DUP6 PUSH1 0x20 DUP7 ADD PUSH2 0x376 JUMP JUMPDEST PUSH2 0x3C1 DUP2 PUSH2 0x384 JUMP JUMPDEST DUP5 ADD SWAP2 POP POP SWAP3 SWAP2 POP POP JUMP JUMPDEST PUSH0 PUSH1 0x20 DUP3 ADD SWAP1 POP DUP2 DUP2 SUB PUSH0 DUP4 ADD MSTORE PUSH2 0x3E4 DUP2 DUP5 PUSH2 0x394 JUMP JUMPDEST SWAP1 POP SWAP3 SWAP2 POP POP JUMP JUMPDEST PUSH0 PUSH1 0x40 DUP3 ADD SWAP1 POP PUSH2 0x3FF PUSH0 DUP4 ADD DUP6 PUSH2 0x2CE JUMP JUMPDEST DUP2 DUP2 SUB PUSH1 0x20 DUP4 ADD MSTORE PUSH2 0x411 DUP2 DUP5 PUSH2 0x394 JUMP JUMPDEST SWAP1 POP SWAP4 SWAP3 POP POP POP JUMP JUMPDEST PUSH0 DUP1 REVERT JUMPDEST PUSH0 DUP1 REVERT JUMPDEST PUSH32 0x4E487B7100000000000000000000000000000000000000000000000000000000 PUSH0 MSTORE PUSH1 0x41 PUSH1 0x4 MSTORE PUSH1 0x24 PUSH0 REVERT JUMPDEST PUSH2 0x458 DUP3 PUSH2 0x384 JUMP JUMPDEST DUP2 ADD DUP2 DUP2 LT PUSH8 0xFFFFFFFFFFFFFFFF DUP3 GT OR ISZERO PUSH2 0x477 JUMPI PUSH2 0x476 PUSH2 0x422 JUMP JUMPDEST JUMPDEST DUP1 PUSH1 0x40 MSTORE POP POP POP JUMP JUMPDEST PUSH0 PUSH2 0x489 PUSH2 0x2F6 JUMP JUMPDEST SWAP1 POP PUSH2 0x495 DUP3 DUP3 PUSH2 0x44F JUMP JUMPDEST SWAP2 SWAP1 POP JUMP JUMPDEST PUSH0 PUSH8 0xFFFFFFFFFFFFFFFF DUP3 GT ISZERO PUSH2 0x4B4 JUMPI PUSH2 0x4B3 PUSH2 0x422 JUMP JUMPDEST JUMPDEST PUSH2 0x4BD DUP3 PUSH2 0x384 JUMP JUMPDEST SWAP1 POP PUSH1 0x20 DUP2 ADD SWAP1 POP SWAP2 SWAP1 POP JUMP JUMPDEST DUP3 DUP2 DUP4 CALLDATACOPY PUSH0 DUP4 DUP4 ADD MSTORE POP POP POP JUMP JUMPDEST PUSH0 PUSH2 0x4EA PUSH2 0x4E5 DUP5 PUSH2 0x49A JUMP JUMPDEST PUSH2 0x480 JUMP JUMPDEST SWAP1 POP DUP3 DUP2 MSTORE PUSH1 0x20 DUP2 ADD DUP5 DUP5 DUP5 ADD GT ISZERO PUSH2 0x506 JUMPI PUSH2 0x505 PUSH2 0x41E JUMP JUMPDEST JUMPDEST PUSH2 0x511 DUP5 DUP3 DUP6 PUSH2 0x4CA JUMP JUMPDEST POP SWAP4 SWAP3 POP POP POP JUMP JUMPDEST PUSH0 DUP3 PUSH1 0x1F DUP4 ADD SLT PUSH2 0x52D JUMPI PUSH2 0x52C PUSH2 0x41A JUMP JUMPDEST JUMPDEST DUP2 CALLDATALOAD PUSH2 0x53D DUP5 DUP3 PUSH1 0x20 DUP7 ADD PUSH2 0x4D8 JUMP JUMPDEST SWAP2 POP POP SWAP3 SWAP2 POP POP JUMP JUMPDEST PUSH0 DUP1 PUSH1 0x40 DUP4 DUP6 SUB SLT ISZERO PUSH2 0x55C JUMPI PUSH2 0x55B PUSH2 0x2FF JUMP JUMPDEST JUMPDEST PUSH0 DUP4 ADD CALLDATALOAD PUSH8 0xFFFFFFFFFFFFFFFF DUP2 GT ISZERO PUSH2 0x579 JUMPI PUSH2 0x578 PUSH2 0x303 JUMP JUMPDEST JUMPDEST PUSH2 0x585 DUP6 DUP3 DUP7 ADD PUSH2 0x519 JUMP JUMPDEST SWAP3 POP POP PUSH1 0x20 PUSH2 0x596 DUP6 DUP3 DUP7 ADD PUSH2 0x31D JUMP JUMPDEST SWAP2 POP POP SWAP3 POP SWAP3 SWAP1 POP JUMP JUMPDEST PUSH32 0x4E487B7100000000000000000000000000000000000000000000000000000000 PUSH0 MSTORE PUSH1 0x22 PUSH1 0x4 MSTORE PUSH1 0x24 PUSH0 REVERT JUMPDEST PUSH0 PUSH1 0x2 DUP3 DIV SWAP1 POP PUSH1 0x1 DUP3 AND DUP1 PUSH2 0x5E4 JUMPI PUSH1 0x7F DUP3 AND SWAP2 POP JUMPDEST PUSH1 0x20 DUP3 LT DUP2 SUB PUSH2 0x5F7 JUMPI PUSH2 0x5F6 PUSH2 0x5A0 JUMP JUMPDEST JUMPDEST POP SWAP2 SWAP1 POP JUMP JUMPDEST PUSH0 DUP2 SWAP1 POP DUP2 PUSH0 MSTORE PUSH1 0x20 PUSH0 KECCAK256 SWAP1 POP SWAP2 SWAP1 POP JUMP JUMPDEST PUSH0 PUSH1 0x20 PUSH1 0x1F DUP4 ADD DIV SWAP1 POP SWAP2 SWAP1 POP JUMP JUMPDEST PUSH0 DUP3 DUP3 SHL SWAP1 POP SWAP3 SWAP2 POP POP JUMP JUMPDEST PUSH0 PUSH1 0x8 DUP4 MUL PUSH2 0x659 PUSH32 0xFFFFFFFFFFFFFFFFFFFFFFFFFFFFFFFFFFFFFFFFFFFFFFFFFFFFFFFFFFFFFFFF DUP3 PUSH2 0x61E JUMP JUMPDEST PUSH2 0x663 DUP7 DUP4 PUSH2 0x61E JUMP JUMPDEST SWAP6 POP DUP1 NOT DUP5 AND SWAP4 POP DUP1 DUP7 AND DUP5 OR SWAP3 POP POP POP SWAP4 SWAP3 POP POP POP JUMP JUMPDEST PUSH0 DUP2 SWAP1 POP SWAP2 SWAP1 POP JUMP JUMPDEST PUSH0 PUSH2 0x69E PUSH2 0x699 PUSH2 0x694 DUP5 PUSH2 0x2C5 JUMP JUMPDEST PUSH2 0x67B JUMP JUMPDEST PUSH2 0x2C5 JUMP JUMPDEST SWAP1 POP SWAP2 SWAP1 POP JUMP JUMPDEST PUSH0 DUP2 SWAP1 POP SWAP2 SWAP1 POP JUMP JUMPDEST PUSH2 0x6B7 DUP4 PUSH2 0x684 JUMP JUMPDEST PUSH2 0x6CB PUSH2 0x6C3 DUP3 PUSH2 0x6A5 JUMP JUMPDEST DUP5 DUP5 SLOAD PUSH2 0x62A JUMP JUMPDEST DUP3 SSTORE POP POP POP POP JUMP JUMPDEST PUSH0 SWAP1 JUMP JUMPDEST PUSH2 0x6DF PUSH2 0x6D3 JUMP JUMPDEST PUSH2 0x6EA DUP2 DUP5 DUP5 PUSH2 0x6AE JUMP JUMPDEST POP POP POP JUMP JUMPDEST JUMPDEST DUP2 DUP2 LT ISZERO PUSH2 0x70D JUMPI PUSH2 0x702 PUSH0 DUP3 PUSH2 0x6D7 JUMP JUMPDEST PUSH1 0x1 DUP2 ADD SWAP1 POP PUSH2 0x6F0 JUMP JUMPDEST POP POP JUMP JUMPDEST PUSH1 0x1F DUP3 GT ISZERO PUSH2 0x752 JUMPI PUSH2 0x723 DUP2 PUSH2 0x5FD JUMP JUMPDEST PUSH2 0x72C DUP5 PUSH2 0x60F JUMP JUMPDEST DUP2 ADD PUSH1 0x20 DUP6 LT ISZERO PUSH2 0x73B JUMPI DUP2 SWAP1 POP JUMPDEST PUSH2 0x74F PUSH2 0x747 DUP6 PUSH2 0x60F JUMP JUMPDEST DUP4 ADD DUP3 PUSH2 0x6EF JUMP JUMPDEST POP POP JUMPDEST POP POP POP JUMP JUMPDEST PUSH0 DUP3 DUP3 SHR SWAP1 POP SWAP3 SWAP2 POP POP JUMP JUMPDEST PUSH0 PUSH2 0x772 PUSH0 NOT DUP5 PUSH1 0x8 MUL PUSH2 0x757 JUMP JUMPDEST NOT DUP1 DUP4 AND SWAP2 POP POP SWAP3 SWAP2 POP POP JUMP JUMPDEST PUSH0 PUSH2 0x78A DUP4 DUP4 PUSH2 0x763 JUMP JUMPDEST SWAP2 POP DUP3 PUSH1 0x2 MUL DUP3 OR SWAP1 POP SWAP3 SWAP2 POP POP JUMP JUMPDEST PUSH2 0x7A3 DUP3 PUSH2 0x35C JUMP JUMPDEST PUSH8 0xFFFFFFFFFFFFFFFF DUP2 GT ISZERO PUSH2 0x7BC JUMPI PUSH2 0x7BB PUSH2 0x422 JUMP JUMPDEST JUMPDEST PUSH2 0x7C6 DUP3 SLOAD PUSH2 0x5CD JUMP JUMPDEST PUSH2 0x7D1 DUP3 DUP3 DUP6 PUSH2 0x711 JUMP JUMPDEST PUSH0 PUSH1 0x20 SWAP1 POP PUSH1 0x1F DUP4 GT PUSH1 0x1 DUP2 EQ PUSH2 0x802 JUMPI PUSH0 DUP5 ISZERO PUSH2 0x7F0 JUMPI DUP3 DUP8 ADD MLOAD SWAP1 POP JUMPDEST PUSH2 0x7FA DUP6 DUP3 PUSH2 0x77F JUMP JUMPDEST DUP7 SSTORE POP PUSH2 0x861 JUMP JUMPDEST PUSH1 0x1F NOT DUP5 AND PUSH2 0x810 DUP7 PUSH2 0x5FD JUMP JUMPDEST PUSH0 JUMPDEST DUP3 DUP2 LT ISZERO PUSH2 0x837 JUMPI DUP5 DUP10 ADD MLOAD DUP3 SSTORE PUSH1 0x1 DUP3 ADD SWAP2 POP PUSH1 0x20 DUP6 ADD SWAP5 POP PUSH1 0x20 DUP2 ADD SWAP1 POP PUSH2 0x812 JUMP JUMPDEST DUP7 DUP4 LT ISZERO PUSH2 0x854 JUMPI DUP5 DUP10 ADD MLOAD PUSH2 0x850 PUSH1 0x1F DUP10 AND DUP3 PUSH2 0x763 JUMP JUMPDEST DUP4 SSTORE POP JUMPDEST PUSH1 0x1 PUSH1 0x2 DUP9 MUL ADD DUP9 SSTORE POP POP POP JUMPDEST POP POP POP POP POP POP JUMP INVALID LOG2 PUSH5 0x6970667358 0x22 SLT KECCAK256 0x27 0x22 0xC6 0xB7 CALL SELFBALANCE LOG1 SWAP11 CALLDATASIZE SWAP1 0x22 0xC5 SELFBALANCE PUSH27 0xBF5AAFAA1CEDC1553356593F3DD25D73FCC364736F6C634300081A STOP CALLER "
				},
				"gasEstimates": {
					"creation": {
						"codeDepositCost": "441400",
						"executionCost": "472",
						"totalCost": "441872"
					},
					"external": {
						"addperson(string,uint256)": "infinite",
						"favoritenumbertoname(uint256)": "infinite",
						"getarraylength()": "2418",
						"listofpeople(uint256)": "infinite"
					}
				},
				"methodIdentifiers": {
					"addperson(string,uint256)": "e1b3202a",
					"favoritenumbertoname(uint256)": "8c1edb90",
					"getarraylength()": "5801afa5",
					"listofpeople(uint256)": "bf119bdb"
				}
			},
			"storageLayout": {
				"storage": [
					{
						"astId": 3,
						"contract": "mapping.sol:Mapping",
						"label": "myfavoritenumber",
						"offset": 0,
						"slot": "0",
						"type": "t_uint256"
					},
					{
						"astId": 12,
						"contract": "mapping.sol:Mapping",
						"label": "favoritenumbertoname",
						"offset": 0,
						"slot": "1",
						"type": "t_mapping(t_uint256,t_string_storage)"
					},
					{
						"astId": 16,
						"contract": "mapping.sol:Mapping",
						"label": "listofpeople",
						"offset": 0,
						"slot": "2",
						"type": "t_array(t_struct(person)8_storage)dyn_storage"
					}
				],
				"types": {
					"t_array(t_struct(person)8_storage)dyn_storage": {
						"base": "t_struct(person)8_storage",
						"encoding": "dynamic_array",
						"label": "struct Mapping.person[]",
						"numberOfBytes": "32"
					},
					"t_mapping(t_uint256,t_string_storage)": {
						"encoding": "mapping",
						"key": "t_uint256",
						"label": "mapping(uint256 => string)",
						"numberOfBytes": "32",
						"value": "t_string_storage"
					},
					"t_string_storage": {
						"encoding": "bytes",
						"label": "string",
						"numberOfBytes": "32"
					},
					"t_struct(person)8_storage": {
						"encoding": "inplace",
						"label": "struct Mapping.person",
						"members": [
							{
								"astId": 5,
								"contract": "mapping.sol:Mapping",
								"label": "favoritenumber",
								"offset": 0,
								"slot": "0",
								"type": "t_uint256"
							},
							{
								"astId": 7,
								"contract": "mapping.sol:Mapping",
								"label": "name",
								"offset": 0,
								"slot": "1",
								"type": "t_string_storage"
							}
						],
						"numberOfBytes": "64"
					},
					"t_uint256": {
						"encoding": "inplace",
						"label": "uint256",
						"numberOfBytes": "32"
					}
				}
			},
			"userdoc": {
				"kind": "user",
				"methods": {},
				"version": 1
			}
		}
	}
}