{
	"contracts/fundme.sol": {
		"Fundme": {
			"abi": [
				{
					"inputs": [],
					"name": "addingtoarray",
					"outputs": [],
					"stateMutability": "nonpayable",
					"type": "function"
				},
				{
					"inputs": [
						{
							"internalType": "address",
							"name": "funder",
							"type": "address"
						}
					],
					"name": "addresstoAmountfunded",
					"outputs": [
						{
							"internalType": "uint256",
							"name": "amountfunded",
							"type": "uint256"
						}
					],
					"stateMutability": "view",
					"type": "function"
				},
				{
					"inputs": [],
					"name": "calculatesum",
					"outputs": [
						{
							"internalType": "uint256",
							"name": "",
							"type": "uint256"
						}
					],
					"stateMutability": "pure",
					"type": "function"
				},
				{
					"inputs": [],
					"name": "contributionCount",
					"outputs": [
						{
							"internalType": "uint256",
							"name": "",
							"type": "uint256"
						}
					],
					"stateMutability": "view",
					"type": "function"
				},
				{
					"inputs": [
						{
							"internalType": "uint256",
							"name": "",
							"type": "uint256"
						}
					],
					"name": "funder",
					"outputs": [
						{
							"internalType": "address",
							"name": "",
							"type": "address"
						}
					],
					"stateMutability": "view",
					"type": "function"
				},
				{
					"inputs": [],
					"name": "fundme",
					"outputs": [],
					"stateMutability": "payable",
					"type": "function"
				},
				{
					"inputs": [],
					"name": "minimumUSD",
					"outputs": [
						{
							"internalType": "uint256",
							"name": "",
							"type": "uint256"
						}
					],
					"stateMutability": "view",
					"type": "function"
				},
				{
					"inputs": [
						{
							"internalType": "uint256",
							"name": "",
							"type": "uint256"
						}
					],
					"name": "pushthenumber",
					"outputs": [
						{
							"internalType": "uint256",
							"name": "",
							"type": "uint256"
						}
					],
					"stateMutability": "view",
					"type": "function"
				},
				{
					"inputs": [],
					"name": "retrieve",
					"outputs": [
						{
							"internalType": "uint256[]",
							"name": "",
							"type": "uint256[]"
						}
					],
					"stateMutability": "view",
					"type": "function"
				},
				{
					"inputs": [],
					"name": "withdraw",
					"outputs": [],
					"stateMutability": "nonpayable",
					"type": "function"
				}
			],
			"devdoc": {
				"kind": "dev",
				"methods": {},
				"version": 1
			},
			"evm": {
				"assembly": "    /* \"contracts/fundme.sol\":865:2969  contract Fundme{... */\n  mstore(0x40, 0x80)\n    /* \"contracts/fundme.sol\":1031:1035  5e18 */\n  0x4563918244f40000\n    /* \"contracts/fundme.sol\":1004:1035  uint256 public minimumUSD =5e18 */\n  0x01\n  sstore\n    /* \"contracts/fundme.sol\":865:2969  contract Fundme{... */\n  callvalue\n  dup1\n  iszero\n  tag_1\n  jumpi\n  0x00\n  dup1\n  revert\ntag_1:\n  pop\n  dataSize(sub_0)\n  dup1\n  dataOffset(sub_0)\n  0x00\n  codecopy\n  0x00\n  return\nstop\n\nsub_0: assembly {\n        /* \"contracts/fundme.sol\":865:2969  contract Fundme{... */\n      mstore(0x40, 0x80)\n      jumpi(tag_1, lt(calldatasize, 0x04))\n      shr(0xe0, calldataload(0x00))\n      dup1\n      0x3430a88c\n      gt\n      tag_12\n      jumpi\n      dup1\n      0x3430a88c\n      eq\n      tag_7\n      jumpi\n      dup1\n      0x3ccfd60b\n      eq\n      tag_8\n      jumpi\n      dup1\n      0x5b18056b\n      eq\n      tag_9\n      jumpi\n      dup1\n      0x89ffce48\n      eq\n      tag_10\n      jumpi\n      dup1\n      0xd1d9165d\n      eq\n      tag_11\n      jumpi\n      jump(tag_1)\n    tag_12:\n      dup1\n      0x1f2c9238\n      eq\n      tag_2\n      jumpi\n      dup1\n      0x221ace14\n      eq\n      tag_3\n      jumpi\n      dup1\n      0x288c3d17\n      eq\n      tag_4\n      jumpi\n      dup1\n      0x2e01594f\n      eq\n      tag_5\n      jumpi\n      dup1\n      0x2e64cec1\n      eq\n      tag_6\n      jumpi\n    tag_1:\n      0x00\n      dup1\n      revert\n        /* \"contracts/fundme.sol\":1044:1067  address[] public funder */\n    tag_2:\n      callvalue\n      dup1\n      iszero\n      tag_13\n      jumpi\n      0x00\n      dup1\n      revert\n    tag_13:\n      pop\n      tag_14\n      0x04\n      dup1\n      calldatasize\n      sub\n      dup2\n      add\n      swap1\n      tag_15\n      swap2\n      swap1\n      tag_16\n      jump\t// in\n    tag_15:\n      tag_17\n      jump\t// in\n    tag_14:\n      mload(0x40)\n      tag_18\n      swap2\n      swap1\n      tag_19\n      jump\t// in\n    tag_18:\n      mload(0x40)\n      dup1\n      swap2\n      sub\n      swap1\n      return\n        /* \"contracts/fundme.sol\":1076:1154  mapping (address funder => uint256 amountfunded ) public addresstoAmountfunded */\n    tag_3:\n      callvalue\n      dup1\n      iszero\n      tag_20\n      jumpi\n      0x00\n      dup1\n      revert\n    tag_20:\n      pop\n      tag_21\n      0x04\n      dup1\n      calldatasize\n      sub\n      dup2\n      add\n      swap1\n      tag_22\n      swap2\n      swap1\n      tag_23\n      jump\t// in\n    tag_22:\n      tag_24\n      jump\t// in\n    tag_21:\n      mload(0x40)\n      tag_25\n      swap2\n      swap1\n      tag_26\n      jump\t// in\n    tag_25:\n      mload(0x40)\n      dup1\n      swap2\n      sub\n      swap1\n      return\n        /* \"contracts/fundme.sol\":1718:1885  function calculatesum() public pure returns (uint256){... */\n    tag_4:\n      callvalue\n      dup1\n      iszero\n      tag_27\n      jumpi\n      0x00\n      dup1\n      revert\n    tag_27:\n      pop\n      tag_28\n      tag_29\n      jump\t// in\n    tag_28:\n      mload(0x40)\n      tag_30\n      swap2\n      swap1\n      tag_26\n      jump\t// in\n    tag_30:\n      mload(0x40)\n      dup1\n      swap2\n      sub\n      swap1\n      return\n        /* \"contracts/fundme.sol\":2703:2849  function addingtoarray() public  {... */\n    tag_5:\n      callvalue\n      dup1\n      iszero\n      tag_31\n      jumpi\n      0x00\n      dup1\n      revert\n    tag_31:\n      pop\n      tag_32\n      tag_33\n      jump\t// in\n    tag_32:\n      stop\n        /* \"contracts/fundme.sol\":2857:2954  function retrieve() public view returns (uint256[] memory){... */\n    tag_6:\n      callvalue\n      dup1\n      iszero\n      tag_34\n      jumpi\n      0x00\n      dup1\n      revert\n    tag_34:\n      pop\n      tag_35\n      tag_36\n      jump\t// in\n    tag_35:\n      mload(0x40)\n      tag_37\n      swap2\n      swap1\n      tag_38\n      jump\t// in\n    tag_37:\n      mload(0x40)\n      dup1\n      swap2\n      sub\n      swap1\n      return\n        /* \"contracts/fundme.sol\":1004:1035  uint256 public minimumUSD =5e18 */\n    tag_7:\n      callvalue\n      dup1\n      iszero\n      tag_39\n      jumpi\n      0x00\n      dup1\n      revert\n    tag_39:\n      pop\n      tag_40\n      tag_41\n      jump\t// in\n    tag_40:\n      mload(0x40)\n      tag_42\n      swap2\n      swap1\n      tag_26\n      jump\t// in\n    tag_42:\n      mload(0x40)\n      dup1\n      swap2\n      sub\n      swap1\n      return\n        /* \"contracts/fundme.sol\":1893:2695  function withdraw() public {... */\n    tag_8:\n      callvalue\n      dup1\n      iszero\n      tag_43\n      jumpi\n      0x00\n      dup1\n      revert\n    tag_43:\n      pop\n      tag_44\n      tag_45\n      jump\t// in\n    tag_44:\n      stop\n        /* \"contracts/fundme.sol\":1614:1710  function contributionCount() public view returns(uint256){... */\n    tag_9:\n      callvalue\n      dup1\n      iszero\n      tag_46\n      jumpi\n      0x00\n      dup1\n      revert\n    tag_46:\n      pop\n      tag_47\n      tag_48\n      jump\t// in\n    tag_47:\n      mload(0x40)\n      tag_49\n      swap2\n      swap1\n      tag_26\n      jump\t// in\n    tag_49:\n      mload(0x40)\n      dup1\n      swap2\n      sub\n      swap1\n      return\n        /* \"contracts/fundme.sol\":965:995  uint256[] public pushthenumber */\n    tag_10:\n      callvalue\n      dup1\n      iszero\n      tag_50\n      jumpi\n      0x00\n      dup1\n      revert\n    tag_50:\n      pop\n      tag_51\n      0x04\n      dup1\n      calldatasize\n      sub\n      dup2\n      add\n      swap1\n      tag_52\n      swap2\n      swap1\n      tag_16\n      jump\t// in\n    tag_52:\n      tag_53\n      jump\t// in\n    tag_51:\n      mload(0x40)\n      tag_54\n      swap2\n      swap1\n      tag_26\n      jump\t// in\n    tag_54:\n      mload(0x40)\n      dup1\n      swap2\n      sub\n      swap1\n      return\n        /* \"contracts/fundme.sol\":1163:1602  function fundme () public payable {... */\n    tag_11:\n      tag_55\n      tag_56\n      jump\t// in\n    tag_55:\n      stop\n        /* \"contracts/fundme.sol\":1044:1067  address[] public funder */\n    tag_17:\n      0x02\n      dup2\n      dup2\n      sload\n      dup2\n      lt\n      tag_57\n      jumpi\n      0x00\n      dup1\n      revert\n    tag_57:\n      swap1\n      0x00\n      mstore\n      keccak256(0x00, 0x20)\n      add\n      0x00\n      swap2\n      pop\n      sload\n      swap1\n      0x0100\n      exp\n      swap1\n      div\n      0xffffffffffffffffffffffffffffffffffffffff\n      and\n      dup2\n      jump\t// out\n        /* \"contracts/fundme.sol\":1076:1154  mapping (address funder => uint256 amountfunded ) public addresstoAmountfunded */\n    tag_24:\n      mstore(0x20, 0x03)\n      dup1\n      0x00\n      mstore\n      keccak256(0x00, 0x40)\n      0x00\n      swap2\n      pop\n      swap1\n      pop\n      sload\n      dup2\n      jump\t// out\n        /* \"contracts/fundme.sol\":1718:1885  function calculatesum() public pure returns (uint256){... */\n    tag_29:\n        /* \"contracts/fundme.sol\":1763:1770  uint256 */\n      0x00\n        /* \"contracts/fundme.sol\":1782:1791  uint256 a */\n      dup1\n        /* \"contracts/fundme.sol\":1794:1796  27 */\n      0x1b\n        /* \"contracts/fundme.sol\":1782:1796  uint256 a = 27 */\n      swap1\n      pop\n        /* \"contracts/fundme.sol\":1807:1816  uint256 b */\n      0x00\n        /* \"contracts/fundme.sol\":1819:1821  13 */\n      0x0d\n        /* \"contracts/fundme.sol\":1807:1821  uint256 b = 13 */\n      swap1\n      pop\n        /* \"contracts/fundme.sol\":1832:1843  uint256 sum */\n      0x00\n        /* \"contracts/fundme.sol\":1846:1854  a.add(b) */\n      tag_60\n        /* \"contracts/fundme.sol\":1852:1853  b */\n      dup3\n        /* \"contracts/fundme.sol\":1846:1847  a */\n      dup5\n        /* \"contracts/fundme.sol\":1846:1851  a.add */\n      tag_61\n      swap1\n        /* \"contracts/fundme.sol\":1846:1854  a.add(b) */\n      swap2\n      swap1\n      0xffffffff\n      and\n      jump\t// in\n    tag_60:\n        /* \"contracts/fundme.sol\":1832:1854  uint256 sum = a.add(b) */\n      swap1\n      pop\n        /* \"contracts/fundme.sol\":1872:1875  sum */\n      dup1\n        /* \"contracts/fundme.sol\":1865:1875  return sum */\n      swap4\n      pop\n      pop\n      pop\n      pop\n        /* \"contracts/fundme.sol\":1718:1885  function calculatesum() public pure returns (uint256){... */\n      swap1\n      jump\t// out\n        /* \"contracts/fundme.sol\":2703:2849  function addingtoarray() public  {... */\n    tag_33:\n        /* \"contracts/fundme.sol\":2751:2765  uint256 number */\n      0x00\n        /* \"contracts/fundme.sol\":2747:2842  for(uint256 number=0; number<10; number++){... */\n    tag_63:\n        /* \"contracts/fundme.sol\":2776:2778  10 */\n      0x0a\n        /* \"contracts/fundme.sol\":2769:2775  number */\n      dup2\n        /* \"contracts/fundme.sol\":2769:2778  number<10 */\n      lt\n        /* \"contracts/fundme.sol\":2747:2842  for(uint256 number=0; number<10; number++){... */\n      iszero\n      tag_64\n      jumpi\n        /* \"contracts/fundme.sol\":2804:2817  pushthenumber */\n      0x00\n        /* \"contracts/fundme.sol\":2823:2829  number */\n      dup2\n        /* \"contracts/fundme.sol\":2804:2830  pushthenumber.push(number) */\n      swap1\n      dup1\n      0x01\n      dup2\n      sload\n      add\n      dup1\n      dup3\n      sstore\n      dup1\n      swap2\n      pop\n      pop\n      0x01\n      swap1\n      sub\n      swap1\n      0x00\n      mstore\n      keccak256(0x00, 0x20)\n      add\n      0x00\n      swap1\n      swap2\n      swap1\n      swap2\n      swap1\n      swap2\n      pop\n      sstore\n        /* \"contracts/fundme.sol\":2780:2788  number++ */\n      dup1\n      dup1\n      0x01\n      add\n      swap2\n      pop\n      pop\n        /* \"contracts/fundme.sol\":2747:2842  for(uint256 number=0; number<10; number++){... */\n      jump(tag_63)\n    tag_64:\n      pop\n        /* \"contracts/fundme.sol\":2703:2849  function addingtoarray() public  {... */\n      jump\t// out\n        /* \"contracts/fundme.sol\":2857:2954  function retrieve() public view returns (uint256[] memory){... */\n    tag_36:\n        /* \"contracts/fundme.sol\":2898:2914  uint256[] memory */\n      0x60\n        /* \"contracts/fundme.sol\":2933:2946  pushthenumber */\n      0x00\n        /* \"contracts/fundme.sol\":2926:2946  return pushthenumber */\n      dup1\n      sload\n      dup1\n      0x20\n      mul\n      0x20\n      add\n      mload(0x40)\n      swap1\n      dup2\n      add\n      0x40\n      mstore\n      dup1\n      swap3\n      swap2\n      swap1\n      dup2\n      dup2\n      mstore\n      0x20\n      add\n      dup3\n      dup1\n      sload\n      dup1\n      iszero\n      tag_68\n      jumpi\n      0x20\n      mul\n      dup3\n      add\n      swap2\n      swap1\n      0x00\n      mstore\n      keccak256(0x00, 0x20)\n      swap1\n    tag_69:\n      dup2\n      sload\n      dup2\n      mstore\n      0x20\n      add\n      swap1\n      0x01\n      add\n      swap1\n      dup1\n      dup4\n      gt\n      tag_69\n      jumpi\n    tag_68:\n      pop\n      pop\n      pop\n      pop\n      pop\n      swap1\n      pop\n        /* \"contracts/fundme.sol\":2857:2954  function retrieve() public view returns (uint256[] memory){... */\n      swap1\n      jump\t// out\n        /* \"contracts/fundme.sol\":1004:1035  uint256 public minimumUSD =5e18 */\n    tag_41:\n      sload(0x01)\n      dup2\n      jump\t// out\n        /* \"contracts/fundme.sol\":1893:2695  function withdraw() public {... */\n    tag_45:\n        /* \"contracts/fundme.sol\":1935:1954  uint256 funderIndex */\n      0x00\n        /* \"contracts/fundme.sol\":1931:2112  for(uint256 funderIndex = 0; funderIndex<funder.length; funderIndex++){... */\n    tag_71:\n        /* \"contracts/fundme.sol\":1972:1978  funder */\n      0x02\n        /* \"contracts/fundme.sol\":1972:1985  funder.length */\n      dup1\n      sload\n      swap1\n      pop\n        /* \"contracts/fundme.sol\":1960:1971  funderIndex */\n      dup2\n        /* \"contracts/fundme.sol\":1960:1985  funderIndex<funder.length */\n      lt\n        /* \"contracts/fundme.sol\":1931:2112  for(uint256 funderIndex = 0; funderIndex<funder.length; funderIndex++){... */\n      iszero\n      tag_72\n      jumpi\n        /* \"contracts/fundme.sol\":2016:2031  address funders */\n      0x00\n        /* \"contracts/fundme.sol\":2034:2040  funder */\n      0x02\n        /* \"contracts/fundme.sol\":2041:2052  funderIndex */\n      dup3\n        /* \"contracts/fundme.sol\":2034:2053  funder[funderIndex] */\n      dup2\n      sload\n      dup2\n      lt\n      tag_74\n      jumpi\n      tag_75\n      tag_76\n      jump\t// in\n    tag_75:\n    tag_74:\n      swap1\n      0x00\n      mstore\n      keccak256(0x00, 0x20)\n      add\n      0x00\n      swap1\n      sload\n      swap1\n      0x0100\n      exp\n      swap1\n      div\n      0xffffffffffffffffffffffffffffffffffffffff\n      and\n        /* \"contracts/fundme.sol\":2016:2053  address funders = funder[funderIndex] */\n      swap1\n      pop\n        /* \"contracts/fundme.sol\":2099:2100  0 */\n      0x00\n        /* \"contracts/fundme.sol\":2068:2089  addresstoAmountfunded */\n      0x03\n        /* \"contracts/fundme.sol\":2068:2098  addresstoAmountfunded[funders] */\n      0x00\n        /* \"contracts/fundme.sol\":2090:2097  funders */\n      dup4\n        /* \"contracts/fundme.sol\":2068:2098  addresstoAmountfunded[funders] */\n      0xffffffffffffffffffffffffffffffffffffffff\n      and\n      0xffffffffffffffffffffffffffffffffffffffff\n      and\n      dup2\n      mstore\n      0x20\n      add\n      swap1\n      dup2\n      mstore\n      0x20\n      add\n      0x00\n      keccak256\n        /* \"contracts/fundme.sol\":2068:2100  addresstoAmountfunded[funders]=0 */\n      dup2\n      swap1\n      sstore\n      pop\n        /* \"contracts/fundme.sol\":2001:2112  {... */\n      pop\n        /* \"contracts/fundme.sol\":1987:2000  funderIndex++ */\n      dup1\n      dup1\n      0x01\n      add\n      swap2\n      pop\n      pop\n        /* \"contracts/fundme.sol\":1931:2112  for(uint256 funderIndex = 0; funderIndex<funder.length; funderIndex++){... */\n      jump(tag_71)\n    tag_72:\n      pop\n        /* \"contracts/fundme.sol\":2179:2180  0 */\n      0x00\n        /* \"contracts/fundme.sol\":2165:2181  new address[](0) */\n      0xffffffffffffffff\n      dup2\n      gt\n      iszero\n      tag_78\n      jumpi\n      tag_79\n      tag_80\n      jump\t// in\n    tag_79:\n    tag_78:\n      mload(0x40)\n      swap1\n      dup1\n      dup3\n      mstore\n      dup1\n      0x20\n      mul\n      0x20\n      add\n      dup3\n      add\n      0x40\n      mstore\n      dup1\n      iszero\n      tag_81\n      jumpi\n      dup2\n      0x20\n      add\n      0x20\n      dup3\n      mul\n      dup1\n      calldatasize\n      dup4\n      calldatacopy\n      dup1\n      dup3\n      add\n      swap2\n      pop\n      pop\n      swap1\n      pop\n    tag_81:\n      pop\n        /* \"contracts/fundme.sol\":2156:2162  funder */\n      0x02\n        /* \"contracts/fundme.sol\":2156:2181  funder = new address[](0) */\n      swap1\n      dup1\n      mload\n      swap1\n      0x20\n      add\n      swap1\n      tag_82\n      swap3\n      swap2\n      swap1\n      tag_83\n      jump\t// in\n    tag_82:\n      pop\n        /* \"contracts/fundme.sol\":2565:2577  bool truimph */\n      0x00\n        /* \"contracts/fundme.sol\":2591:2601  msg.sender */\n      caller\n        /* \"contracts/fundme.sol\":2582:2607  payable (msg.sender).call */\n      0xffffffffffffffffffffffffffffffffffffffff\n      and\n        /* \"contracts/fundme.sol\":2614:2635  address(this).balance */\n      selfbalance\n        /* \"contracts/fundme.sol\":2582:2641  payable (msg.sender).call{value:address(this).balance}(\" \") */\n      mload(0x40)\n      tag_84\n      swap1\n      tag_85\n      jump\t// in\n    tag_84:\n      0x00\n      mload(0x40)\n      dup1\n      dup4\n      sub\n      dup2\n      dup6\n      dup8\n      gas\n      call\n      swap3\n      pop\n      pop\n      pop\n      returndatasize\n      dup1\n      0x00\n      dup2\n      eq\n      tag_88\n      jumpi\n      mload(0x40)\n      swap2\n      pop\n      and(add(returndatasize, 0x3f), not(0x1f))\n      dup3\n      add\n      0x40\n      mstore\n      returndatasize\n      dup3\n      mstore\n      returndatasize\n      0x00\n      0x20\n      dup5\n      add\n      returndatacopy\n      jump(tag_87)\n    tag_88:\n      0x60\n      swap2\n      pop\n    tag_87:\n      pop\n        /* \"contracts/fundme.sol\":2564:2641  (bool truimph,) = payable (msg.sender).call{value:address(this).balance}(\" \") */\n      pop\n      swap1\n      pop\n        /* \"contracts/fundme.sol\":2661:2668  truimph */\n      dup1\n        /* \"contracts/fundme.sol\":2652:2683  require (truimph,\"failed call\") */\n      tag_89\n      jumpi\n      mload(0x40)\n      0x08c379a000000000000000000000000000000000000000000000000000000000\n      dup2\n      mstore\n      0x04\n      add\n      tag_90\n      swap1\n      tag_91\n      jump\t// in\n    tag_90:\n      mload(0x40)\n      dup1\n      swap2\n      sub\n      swap1\n      revert\n    tag_89:\n        /* \"contracts/fundme.sol\":1920:2695  {... */\n      pop\n        /* \"contracts/fundme.sol\":1893:2695  function withdraw() public {... */\n      jump\t// out\n        /* \"contracts/fundme.sol\":1614:1710  function contributionCount() public view returns(uint256){... */\n    tag_48:\n        /* \"contracts/fundme.sol\":1663:1670  uint256 */\n      0x00\n        /* \"contracts/fundme.sol\":1689:1695  funder */\n      0x02\n        /* \"contracts/fundme.sol\":1689:1702  funder.length */\n      dup1\n      sload\n      swap1\n      pop\n        /* \"contracts/fundme.sol\":1682:1702  return funder.length */\n      swap1\n      pop\n        /* \"contracts/fundme.sol\":1614:1710  function contributionCount() public view returns(uint256){... */\n      swap1\n      jump\t// out\n        /* \"contracts/fundme.sol\":965:995  uint256[] public pushthenumber */\n    tag_53:\n      0x00\n      dup2\n      dup2\n      sload\n      dup2\n      lt\n      tag_93\n      jumpi\n      0x00\n      dup1\n      revert\n    tag_93:\n      swap1\n      0x00\n      mstore\n      keccak256(0x00, 0x20)\n      add\n      0x00\n      swap2\n      pop\n      swap1\n      pop\n      sload\n      dup2\n      jump\t// out\n        /* \"contracts/fundme.sol\":1163:1602  function fundme () public payable {... */\n    tag_56:\n        /* \"contracts/fundme.sol\":1377:1387  minimumUSD */\n      sload(0x01)\n        /* \"contracts/fundme.sol\":1345:1374  msg.value.getConversionrate() */\n      tag_96\n        /* \"contracts/fundme.sol\":1345:1354  msg.value */\n      callvalue\n        /* \"contracts/fundme.sol\":1345:1372  msg.value.getConversionrate */\n      tag_97\n        /* \"contracts/fundme.sol\":1345:1374  msg.value.getConversionrate() */\n      jump\t// in\n    tag_96:\n        /* \"contracts/fundme.sol\":1345:1387  msg.value.getConversionrate() > minimumUSD */\n      gt\n        /* \"contracts/fundme.sol\":1337:1416  require(msg.value.getConversionrate() > minimumUSD, \"doesn't satisfy my need \") */\n      tag_98\n      jumpi\n      mload(0x40)\n      0x08c379a000000000000000000000000000000000000000000000000000000000\n      dup2\n      mstore\n      0x04\n      add\n      tag_99\n      swap1\n      tag_100\n      jump\t// in\n    tag_99:\n      mload(0x40)\n      dup1\n      swap2\n      sub\n      swap1\n      revert\n    tag_98:\n        /* \"contracts/fundme.sol\":1428:1434  funder */\n      0x02\n        /* \"contracts/fundme.sol\":1440:1450  msg.sender */\n      caller\n        /* \"contracts/fundme.sol\":1428:1451  funder.push(msg.sender) */\n      swap1\n      dup1\n      0x01\n      dup2\n      sload\n      add\n      dup1\n      dup3\n      sstore\n      dup1\n      swap2\n      pop\n      pop\n      0x01\n      swap1\n      sub\n      swap1\n      0x00\n      mstore\n      keccak256(0x00, 0x20)\n      add\n      0x00\n      swap1\n      swap2\n      swap1\n      swap2\n      swap1\n      swap2\n      0x0100\n      exp\n      dup2\n      sload\n      dup2\n      0xffffffffffffffffffffffffffffffffffffffff\n      mul\n      not\n      and\n      swap1\n      dup4\n      0xffffffffffffffffffffffffffffffffffffffff\n      and\n      mul\n      or\n      swap1\n      sstore\n      pop\n        /* \"contracts/fundme.sol\":1534:1543  msg.value */\n      callvalue\n        /* \"contracts/fundme.sol\":1498:1519  addresstoAmountfunded */\n      0x03\n        /* \"contracts/fundme.sol\":1498:1531  addresstoAmountfunded[msg.sender] */\n      0x00\n        /* \"contracts/fundme.sol\":1520:1530  msg.sender */\n      caller\n        /* \"contracts/fundme.sol\":1498:1531  addresstoAmountfunded[msg.sender] */\n      0xffffffffffffffffffffffffffffffffffffffff\n      and\n      0xffffffffffffffffffffffffffffffffffffffff\n      and\n      dup2\n      mstore\n      0x20\n      add\n      swap1\n      dup2\n      mstore\n      0x20\n      add\n      0x00\n      keccak256\n      sload\n        /* \"contracts/fundme.sol\":1498:1543  addresstoAmountfunded[msg.sender] + msg.value */\n      tag_102\n      swap2\n      swap1\n      tag_103\n      jump\t// in\n    tag_102:\n        /* \"contracts/fundme.sol\":1462:1483  addresstoAmountfunded */\n      0x03\n        /* \"contracts/fundme.sol\":1462:1495  addresstoAmountfunded[msg.sender] */\n      0x00\n        /* \"contracts/fundme.sol\":1484:1494  msg.sender */\n      caller\n        /* \"contracts/fundme.sol\":1462:1495  addresstoAmountfunded[msg.sender] */\n      0xffffffffffffffffffffffffffffffffffffffff\n      and\n      0xffffffffffffffffffffffffffffffffffffffff\n      and\n      dup2\n      mstore\n      0x20\n      add\n      swap1\n      dup2\n      mstore\n      0x20\n      add\n      0x00\n      keccak256\n        /* \"contracts/fundme.sol\":1462:1543  addresstoAmountfunded[msg.sender] = addresstoAmountfunded[msg.sender] + msg.value */\n      dup2\n      swap1\n      sstore\n      pop\n        /* \"contracts/fundme.sol\":1163:1602  function fundme () public payable {... */\n      jump\t// out\n        /* \"contracts/mathslibrary.sol\":96:258  function add(uint256 _first, uint256 _second) internal pure returns(uint256){... */\n    tag_61:\n        /* \"contracts/mathslibrary.sol\":164:171  uint256 */\n      0x00\n        /* \"contracts/mathslibrary.sol\":183:202  uint256 addednumber */\n      dup1\n        /* \"contracts/mathslibrary.sol\":214:221  _second */\n      dup3\n        /* \"contracts/mathslibrary.sol\":205:211  _first */\n      dup5\n        /* \"contracts/mathslibrary.sol\":205:221  _first + _second */\n      tag_105\n      swap2\n      swap1\n      tag_103\n      jump\t// in\n    tag_105:\n        /* \"contracts/mathslibrary.sol\":183:221  uint256 addednumber = _first + _second */\n      swap1\n      pop\n        /* \"contracts/mathslibrary.sol\":239:250  addednumber */\n      dup1\n        /* \"contracts/mathslibrary.sol\":232:250  return addednumber */\n      swap2\n      pop\n      pop\n        /* \"contracts/mathslibrary.sol\":96:258  function add(uint256 _first, uint256 _second) internal pure returns(uint256){... */\n      swap3\n      swap2\n      pop\n      pop\n      jump\t// out\n        /* \"contracts/priceconverter.sol\":631:911  function getConversionrate(uint256 ethAmount) internal  view returns(uint256) {... */\n    tag_97:\n        /* \"contracts/priceconverter.sol\":700:707  uint256 */\n      0x00\n        /* \"contracts/priceconverter.sol\":779:795  uint256 ethprice */\n      dup1\n        /* \"contracts/priceconverter.sol\":798:808  getPrice() */\n      tag_107\n        /* \"contracts/priceconverter.sol\":798:806  getPrice */\n      tag_108\n        /* \"contracts/priceconverter.sol\":798:808  getPrice() */\n      jump\t// in\n    tag_107:\n        /* \"contracts/priceconverter.sol\":779:808  uint256 ethprice = getPrice() */\n      swap1\n      pop\n        /* \"contracts/priceconverter.sol\":819:841  uint256 ethAmountInUSD */\n      0x00\n        /* \"contracts/priceconverter.sol\":865:869  1e18 */\n      0x0de0b6b3a7640000\n        /* \"contracts/priceconverter.sol\":855:863  ethprice */\n      dup3\n        /* \"contracts/priceconverter.sol\":845:854  ethAmount */\n      dup6\n        /* \"contracts/priceconverter.sol\":845:863  ethAmount*ethprice */\n      tag_109\n      swap2\n      swap1\n      tag_110\n      jump\t// in\n    tag_109:\n        /* \"contracts/priceconverter.sol\":844:869  (ethAmount*ethprice)/1e18 */\n      tag_111\n      swap2\n      swap1\n      tag_112\n      jump\t// in\n    tag_111:\n        /* \"contracts/priceconverter.sol\":819:869  uint256 ethAmountInUSD = (ethAmount*ethprice)/1e18 */\n      swap1\n      pop\n        /* \"contracts/priceconverter.sol\":889:903  ethAmountInUSD */\n      dup1\n        /* \"contracts/priceconverter.sol\":882:903  return ethAmountInUSD */\n      swap3\n      pop\n      pop\n      pop\n        /* \"contracts/priceconverter.sol\":631:911  function getConversionrate(uint256 ethAmount) internal  view returns(uint256) {... */\n      swap2\n      swap1\n      pop\n      jump\t// out\n        /* \"contracts/priceconverter.sol\":205:623  function getPrice () internal view returns(uint256){... */\n    tag_108:\n        /* \"contracts/priceconverter.sol\":248:255  uint256 */\n      0x00\n        /* \"contracts/priceconverter.sol\":399:430  AggregatorV3Interface pricefeed */\n      dup1\n        /* \"contracts/priceconverter.sol\":454:496  0x694AA1769357215DE4FAC081bf1f309aDC325306 */\n      0x694aa1769357215de4fac081bf1f309adc325306\n        /* \"contracts/priceconverter.sol\":399:497  AggregatorV3Interface pricefeed= AggregatorV3Interface(0x694AA1769357215DE4FAC081bf1f309aDC325306) */\n      swap1\n      pop\n        /* \"contracts/priceconverter.sol\":510:523  int256 answer */\n      0x00\n        /* \"contracts/priceconverter.sol\":530:539  pricefeed */\n      dup2\n        /* \"contracts/priceconverter.sol\":530:555  pricefeed.latestRoundData */\n      0xffffffffffffffffffffffffffffffffffffffff\n      and\n      0xfeaf968c\n        /* \"contracts/priceconverter.sol\":530:557  pricefeed.latestRoundData() */\n      mload(0x40)\n      dup2\n      0xffffffff\n      and\n      0xe0\n      shl\n      dup2\n      mstore\n      0x04\n      add\n      0xa0\n      mload(0x40)\n      dup1\n      dup4\n      sub\n      dup2\n      dup7\n      gas\n      staticcall\n      iszero\n      dup1\n      iszero\n      tag_115\n      jumpi\n      returndatasize\n      0x00\n      dup1\n      returndatacopy\n      revert(0x00, returndatasize)\n    tag_115:\n      pop\n      pop\n      pop\n      pop\n      mload(0x40)\n      returndatasize\n      not(0x1f)\n      0x1f\n      dup3\n      add\n      and\n      dup3\n      add\n      dup1\n      0x40\n      mstore\n      pop\n      dup2\n      add\n      swap1\n      tag_116\n      swap2\n      swap1\n      tag_117\n      jump\t// in\n    tag_116:\n        /* \"contracts/priceconverter.sol\":508:557  (,int256 answer,,,) = pricefeed.latestRoundData() */\n      pop\n      pop\n      pop\n      swap2\n      pop\n      pop\n        /* \"contracts/priceconverter.sol\":610:614  1e10 */\n      0x02540be400\n        /* \"contracts/priceconverter.sol\":603:609  answer */\n      dup2\n        /* \"contracts/priceconverter.sol\":603:614  answer*1e10 */\n      tag_118\n      swap2\n      swap1\n      tag_119\n      jump\t// in\n    tag_118:\n        /* \"contracts/priceconverter.sol\":588:615  return uint256(answer*1e10) */\n      swap3\n      pop\n      pop\n      pop\n        /* \"contracts/priceconverter.sol\":205:623  function getPrice () internal view returns(uint256){... */\n      swap1\n      jump\t// out\n    tag_83:\n      dup3\n      dup1\n      sload\n      dup3\n      dup3\n      sstore\n      swap1\n      0x00\n      mstore\n      keccak256(0x00, 0x20)\n      swap1\n      dup2\n      add\n      swap3\n      dup3\n      iszero\n      tag_120\n      jumpi\n      swap2\n      0x20\n      mul\n      dup3\n      add\n    tag_121:\n      dup3\n      dup2\n      gt\n      iszero\n      tag_122\n      jumpi\n      dup3\n      mload\n      dup3\n      exp(0x0100, 0x00)\n      dup2\n      sload\n      dup2\n      0xffffffffffffffffffffffffffffffffffffffff\n      mul\n      not\n      and\n      swap1\n      dup4\n      0xffffffffffffffffffffffffffffffffffffffff\n      and\n      mul\n      or\n      swap1\n      sstore\n      pop\n      swap2\n      0x20\n      add\n      swap2\n      swap1\n      0x01\n      add\n      swap1\n      jump(tag_121)\n    tag_122:\n    tag_120:\n      pop\n      swap1\n      pop\n      tag_123\n      swap2\n      swap1\n      tag_124\n      jump\t// in\n    tag_123:\n      pop\n      swap1\n      jump\t// out\n    tag_124:\n    tag_125:\n      dup1\n      dup3\n      gt\n      iszero\n      tag_126\n      jumpi\n      0x00\n      dup2\n      0x00\n      swap1\n      sstore\n      pop\n      0x01\n      add\n      jump(tag_125)\n    tag_126:\n      pop\n      swap1\n      jump\t// out\n        /* \"#utility.yul\":88:205   */\n    tag_128:\n        /* \"#utility.yul\":197:198   */\n      0x00\n        /* \"#utility.yul\":194:195   */\n      dup1\n        /* \"#utility.yul\":187:199   */\n      revert\n        /* \"#utility.yul\":334:411   */\n    tag_130:\n        /* \"#utility.yul\":371:378   */\n      0x00\n        /* \"#utility.yul\":400:405   */\n      dup2\n        /* \"#utility.yul\":389:405   */\n      swap1\n      pop\n        /* \"#utility.yul\":334:411   */\n      swap2\n      swap1\n      pop\n      jump\t// out\n        /* \"#utility.yul\":417:539   */\n    tag_131:\n        /* \"#utility.yul\":490:514   */\n      tag_169\n        /* \"#utility.yul\":508:513   */\n      dup2\n        /* \"#utility.yul\":490:514   */\n      tag_130\n      jump\t// in\n    tag_169:\n        /* \"#utility.yul\":483:488   */\n      dup2\n        /* \"#utility.yul\":480:515   */\n      eq\n        /* \"#utility.yul\":470:533   */\n      tag_170\n      jumpi\n        /* \"#utility.yul\":529:530   */\n      0x00\n        /* \"#utility.yul\":526:527   */\n      dup1\n        /* \"#utility.yul\":519:531   */\n      revert\n        /* \"#utility.yul\":470:533   */\n    tag_170:\n        /* \"#utility.yul\":417:539   */\n      pop\n      jump\t// out\n        /* \"#utility.yul\":545:684   */\n    tag_132:\n        /* \"#utility.yul\":591:596   */\n      0x00\n        /* \"#utility.yul\":629:635   */\n      dup2\n        /* \"#utility.yul\":616:636   */\n      calldataload\n        /* \"#utility.yul\":607:636   */\n      swap1\n      pop\n        /* \"#utility.yul\":645:678   */\n      tag_172\n        /* \"#utility.yul\":672:677   */\n      dup2\n        /* \"#utility.yul\":645:678   */\n      tag_131\n      jump\t// in\n    tag_172:\n        /* \"#utility.yul\":545:684   */\n      swap3\n      swap2\n      pop\n      pop\n      jump\t// out\n        /* \"#utility.yul\":690:1019   */\n    tag_16:\n        /* \"#utility.yul\":749:755   */\n      0x00\n        /* \"#utility.yul\":798:800   */\n      0x20\n        /* \"#utility.yul\":786:795   */\n      dup3\n        /* \"#utility.yul\":777:784   */\n      dup5\n        /* \"#utility.yul\":773:796   */\n      sub\n        /* \"#utility.yul\":769:801   */\n      slt\n        /* \"#utility.yul\":766:885   */\n      iszero\n      tag_174\n      jumpi\n        /* \"#utility.yul\":804:883   */\n      tag_175\n      tag_128\n      jump\t// in\n    tag_175:\n        /* \"#utility.yul\":766:885   */\n    tag_174:\n        /* \"#utility.yul\":924:925   */\n      0x00\n        /* \"#utility.yul\":949:1002   */\n      tag_176\n        /* \"#utility.yul\":994:1001   */\n      dup5\n        /* \"#utility.yul\":985:991   */\n      dup3\n        /* \"#utility.yul\":974:983   */\n      dup6\n        /* \"#utility.yul\":970:992   */\n      add\n        /* \"#utility.yul\":949:1002   */\n      tag_132\n      jump\t// in\n    tag_176:\n        /* \"#utility.yul\":939:1002   */\n      swap2\n      pop\n        /* \"#utility.yul\":895:1012   */\n      pop\n        /* \"#utility.yul\":690:1019   */\n      swap3\n      swap2\n      pop\n      pop\n      jump\t// out\n        /* \"#utility.yul\":1025:1151   */\n    tag_133:\n        /* \"#utility.yul\":1062:1069   */\n      0x00\n        /* \"#utility.yul\":1102:1144   */\n      0xffffffffffffffffffffffffffffffffffffffff\n        /* \"#utility.yul\":1095:1100   */\n      dup3\n        /* \"#utility.yul\":1091:1145   */\n      and\n        /* \"#utility.yul\":1080:1145   */\n      swap1\n      pop\n        /* \"#utility.yul\":1025:1151   */\n      swap2\n      swap1\n      pop\n      jump\t// out\n        /* \"#utility.yul\":1157:1253   */\n    tag_134:\n        /* \"#utility.yul\":1194:1201   */\n      0x00\n        /* \"#utility.yul\":1223:1247   */\n      tag_179\n        /* \"#utility.yul\":1241:1246   */\n      dup3\n        /* \"#utility.yul\":1223:1247   */\n      tag_133\n      jump\t// in\n    tag_179:\n        /* \"#utility.yul\":1212:1247   */\n      swap1\n      pop\n        /* \"#utility.yul\":1157:1253   */\n      swap2\n      swap1\n      pop\n      jump\t// out\n        /* \"#utility.yul\":1259:1377   */\n    tag_135:\n        /* \"#utility.yul\":1346:1370   */\n      tag_181\n        /* \"#utility.yul\":1364:1369   */\n      dup2\n        /* \"#utility.yul\":1346:1370   */\n      tag_134\n      jump\t// in\n    tag_181:\n        /* \"#utility.yul\":1341:1344   */\n      dup3\n        /* \"#utility.yul\":1334:1371   */\n      mstore\n        /* \"#utility.yul\":1259:1377   */\n      pop\n      pop\n      jump\t// out\n        /* \"#utility.yul\":1383:1605   */\n    tag_19:\n        /* \"#utility.yul\":1476:1480   */\n      0x00\n        /* \"#utility.yul\":1514:1516   */\n      0x20\n        /* \"#utility.yul\":1503:1512   */\n      dup3\n        /* \"#utility.yul\":1499:1517   */\n      add\n        /* \"#utility.yul\":1491:1517   */\n      swap1\n      pop\n        /* \"#utility.yul\":1527:1598   */\n      tag_183\n        /* \"#utility.yul\":1595:1596   */\n      0x00\n        /* \"#utility.yul\":1584:1593   */\n      dup4\n        /* \"#utility.yul\":1580:1597   */\n      add\n        /* \"#utility.yul\":1571:1577   */\n      dup5\n        /* \"#utility.yul\":1527:1598   */\n      tag_135\n      jump\t// in\n    tag_183:\n        /* \"#utility.yul\":1383:1605   */\n      swap3\n      swap2\n      pop\n      pop\n      jump\t// out\n        /* \"#utility.yul\":1611:1733   */\n    tag_136:\n        /* \"#utility.yul\":1684:1708   */\n      tag_185\n        /* \"#utility.yul\":1702:1707   */\n      dup2\n        /* \"#utility.yul\":1684:1708   */\n      tag_134\n      jump\t// in\n    tag_185:\n        /* \"#utility.yul\":1677:1682   */\n      dup2\n        /* \"#utility.yul\":1674:1709   */\n      eq\n        /* \"#utility.yul\":1664:1727   */\n      tag_186\n      jumpi\n        /* \"#utility.yul\":1723:1724   */\n      0x00\n        /* \"#utility.yul\":1720:1721   */\n      dup1\n        /* \"#utility.yul\":1713:1725   */\n      revert\n        /* \"#utility.yul\":1664:1727   */\n    tag_186:\n        /* \"#utility.yul\":1611:1733   */\n      pop\n      jump\t// out\n        /* \"#utility.yul\":1739:1878   */\n    tag_137:\n        /* \"#utility.yul\":1785:1790   */\n      0x00\n        /* \"#utility.yul\":1823:1829   */\n      dup2\n        /* \"#utility.yul\":1810:1830   */\n      calldataload\n        /* \"#utility.yul\":1801:1830   */\n      swap1\n      pop\n        /* \"#utility.yul\":1839:1872   */\n      tag_188\n        /* \"#utility.yul\":1866:1871   */\n      dup2\n        /* \"#utility.yul\":1839:1872   */\n      tag_136\n      jump\t// in\n    tag_188:\n        /* \"#utility.yul\":1739:1878   */\n      swap3\n      swap2\n      pop\n      pop\n      jump\t// out\n        /* \"#utility.yul\":1884:2213   */\n    tag_23:\n        /* \"#utility.yul\":1943:1949   */\n      0x00\n        /* \"#utility.yul\":1992:1994   */\n      0x20\n        /* \"#utility.yul\":1980:1989   */\n      dup3\n        /* \"#utility.yul\":1971:1978   */\n      dup5\n        /* \"#utility.yul\":1967:1990   */\n      sub\n        /* \"#utility.yul\":1963:1995   */\n      slt\n        /* \"#utility.yul\":1960:2079   */\n      iszero\n      tag_190\n      jumpi\n        /* \"#utility.yul\":1998:2077   */\n      tag_191\n      tag_128\n      jump\t// in\n    tag_191:\n        /* \"#utility.yul\":1960:2079   */\n    tag_190:\n        /* \"#utility.yul\":2118:2119   */\n      0x00\n        /* \"#utility.yul\":2143:2196   */\n      tag_192\n        /* \"#utility.yul\":2188:2195   */\n      dup5\n        /* \"#utility.yul\":2179:2185   */\n      dup3\n        /* \"#utility.yul\":2168:2177   */\n      dup6\n        /* \"#utility.yul\":2164:2186   */\n      add\n        /* \"#utility.yul\":2143:2196   */\n      tag_137\n      jump\t// in\n    tag_192:\n        /* \"#utility.yul\":2133:2196   */\n      swap2\n      pop\n        /* \"#utility.yul\":2089:2206   */\n      pop\n        /* \"#utility.yul\":1884:2213   */\n      swap3\n      swap2\n      pop\n      pop\n      jump\t// out\n        /* \"#utility.yul\":2219:2337   */\n    tag_138:\n        /* \"#utility.yul\":2306:2330   */\n      tag_194\n        /* \"#utility.yul\":2324:2329   */\n      dup2\n        /* \"#utility.yul\":2306:2330   */\n      tag_130\n      jump\t// in\n    tag_194:\n        /* \"#utility.yul\":2301:2304   */\n      dup3\n        /* \"#utility.yul\":2294:2331   */\n      mstore\n        /* \"#utility.yul\":2219:2337   */\n      pop\n      pop\n      jump\t// out\n        /* \"#utility.yul\":2343:2565   */\n    tag_26:\n        /* \"#utility.yul\":2436:2440   */\n      0x00\n        /* \"#utility.yul\":2474:2476   */\n      0x20\n        /* \"#utility.yul\":2463:2472   */\n      dup3\n        /* \"#utility.yul\":2459:2477   */\n      add\n        /* \"#utility.yul\":2451:2477   */\n      swap1\n      pop\n        /* \"#utility.yul\":2487:2558   */\n      tag_196\n        /* \"#utility.yul\":2555:2556   */\n      0x00\n        /* \"#utility.yul\":2544:2553   */\n      dup4\n        /* \"#utility.yul\":2540:2557   */\n      add\n        /* \"#utility.yul\":2531:2537   */\n      dup5\n        /* \"#utility.yul\":2487:2558   */\n      tag_138\n      jump\t// in\n    tag_196:\n        /* \"#utility.yul\":2343:2565   */\n      swap3\n      swap2\n      pop\n      pop\n      jump\t// out\n        /* \"#utility.yul\":2571:2685   */\n    tag_139:\n        /* \"#utility.yul\":2638:2644   */\n      0x00\n        /* \"#utility.yul\":2672:2677   */\n      dup2\n        /* \"#utility.yul\":2666:2678   */\n      mload\n        /* \"#utility.yul\":2656:2678   */\n      swap1\n      pop\n        /* \"#utility.yul\":2571:2685   */\n      swap2\n      swap1\n      pop\n      jump\t// out\n        /* \"#utility.yul\":2691:2875   */\n    tag_140:\n        /* \"#utility.yul\":2790:2801   */\n      0x00\n        /* \"#utility.yul\":2824:2830   */\n      dup3\n        /* \"#utility.yul\":2819:2822   */\n      dup3\n        /* \"#utility.yul\":2812:2831   */\n      mstore\n        /* \"#utility.yul\":2864:2868   */\n      0x20\n        /* \"#utility.yul\":2859:2862   */\n      dup3\n        /* \"#utility.yul\":2855:2869   */\n      add\n        /* \"#utility.yul\":2840:2869   */\n      swap1\n      pop\n        /* \"#utility.yul\":2691:2875   */\n      swap3\n      swap2\n      pop\n      pop\n      jump\t// out\n        /* \"#utility.yul\":2881:3013   */\n    tag_141:\n        /* \"#utility.yul\":2948:2952   */\n      0x00\n        /* \"#utility.yul\":2971:2974   */\n      dup2\n        /* \"#utility.yul\":2963:2974   */\n      swap1\n      pop\n        /* \"#utility.yul\":3001:3005   */\n      0x20\n        /* \"#utility.yul\":2996:2999   */\n      dup3\n        /* \"#utility.yul\":2992:3006   */\n      add\n        /* \"#utility.yul\":2984:3006   */\n      swap1\n      pop\n        /* \"#utility.yul\":2881:3013   */\n      swap2\n      swap1\n      pop\n      jump\t// out\n        /* \"#utility.yul\":3019:3127   */\n    tag_142:\n        /* \"#utility.yul\":3096:3120   */\n      tag_201\n        /* \"#utility.yul\":3114:3119   */\n      dup2\n        /* \"#utility.yul\":3096:3120   */\n      tag_130\n      jump\t// in\n    tag_201:\n        /* \"#utility.yul\":3091:3094   */\n      dup3\n        /* \"#utility.yul\":3084:3121   */\n      mstore\n        /* \"#utility.yul\":3019:3127   */\n      pop\n      pop\n      jump\t// out\n        /* \"#utility.yul\":3133:3312   */\n    tag_143:\n        /* \"#utility.yul\":3202:3212   */\n      0x00\n        /* \"#utility.yul\":3223:3269   */\n      tag_203\n        /* \"#utility.yul\":3265:3268   */\n      dup4\n        /* \"#utility.yul\":3257:3263   */\n      dup4\n        /* \"#utility.yul\":3223:3269   */\n      tag_142\n      jump\t// in\n    tag_203:\n        /* \"#utility.yul\":3301:3305   */\n      0x20\n        /* \"#utility.yul\":3296:3299   */\n      dup4\n        /* \"#utility.yul\":3292:3306   */\n      add\n        /* \"#utility.yul\":3278:3306   */\n      swap1\n      pop\n        /* \"#utility.yul\":3133:3312   */\n      swap3\n      swap2\n      pop\n      pop\n      jump\t// out\n        /* \"#utility.yul\":3318:3431   */\n    tag_144:\n        /* \"#utility.yul\":3388:3392   */\n      0x00\n        /* \"#utility.yul\":3420:3424   */\n      0x20\n        /* \"#utility.yul\":3415:3418   */\n      dup3\n        /* \"#utility.yul\":3411:3425   */\n      add\n        /* \"#utility.yul\":3403:3425   */\n      swap1\n      pop\n        /* \"#utility.yul\":3318:3431   */\n      swap2\n      swap1\n      pop\n      jump\t// out\n        /* \"#utility.yul\":3467:4199   */\n    tag_145:\n        /* \"#utility.yul\":3586:3589   */\n      0x00\n        /* \"#utility.yul\":3615:3669   */\n      tag_206\n        /* \"#utility.yul\":3663:3668   */\n      dup3\n        /* \"#utility.yul\":3615:3669   */\n      tag_139\n      jump\t// in\n    tag_206:\n        /* \"#utility.yul\":3685:3771   */\n      tag_207\n        /* \"#utility.yul\":3764:3770   */\n      dup2\n        /* \"#utility.yul\":3759:3762   */\n      dup6\n        /* \"#utility.yul\":3685:3771   */\n      tag_140\n      jump\t// in\n    tag_207:\n        /* \"#utility.yul\":3678:3771   */\n      swap4\n      pop\n        /* \"#utility.yul\":3795:3851   */\n      tag_208\n        /* \"#utility.yul\":3845:3850   */\n      dup4\n        /* \"#utility.yul\":3795:3851   */\n      tag_141\n      jump\t// in\n    tag_208:\n        /* \"#utility.yul\":3874:3881   */\n      dup1\n        /* \"#utility.yul\":3905:3906   */\n      0x00\n        /* \"#utility.yul\":3890:4174   */\n    tag_209:\n        /* \"#utility.yul\":3915:3921   */\n      dup4\n        /* \"#utility.yul\":3912:3913   */\n      dup2\n        /* \"#utility.yul\":3909:3922   */\n      lt\n        /* \"#utility.yul\":3890:4174   */\n      iszero\n      tag_211\n      jumpi\n        /* \"#utility.yul\":3991:3997   */\n      dup2\n        /* \"#utility.yul\":3985:3998   */\n      mload\n        /* \"#utility.yul\":4018:4081   */\n      tag_212\n        /* \"#utility.yul\":4077:4080   */\n      dup9\n        /* \"#utility.yul\":4062:4075   */\n      dup3\n        /* \"#utility.yul\":4018:4081   */\n      tag_143\n      jump\t// in\n    tag_212:\n        /* \"#utility.yul\":4011:4081   */\n      swap8\n      pop\n        /* \"#utility.yul\":4104:4164   */\n      tag_213\n        /* \"#utility.yul\":4157:4163   */\n      dup4\n        /* \"#utility.yul\":4104:4164   */\n      tag_144\n      jump\t// in\n    tag_213:\n        /* \"#utility.yul\":4094:4164   */\n      swap3\n      pop\n        /* \"#utility.yul\":3950:4174   */\n      pop\n        /* \"#utility.yul\":3937:3938   */\n      0x01\n        /* \"#utility.yul\":3934:3935   */\n      dup2\n        /* \"#utility.yul\":3930:3939   */\n      add\n        /* \"#utility.yul\":3925:3939   */\n      swap1\n      pop\n        /* \"#utility.yul\":3890:4174   */\n      jump(tag_209)\n    tag_211:\n        /* \"#utility.yul\":3894:3908   */\n      pop\n        /* \"#utility.yul\":4190:4193   */\n      dup6\n        /* \"#utility.yul\":4183:4193   */\n      swap4\n      pop\n        /* \"#utility.yul\":3591:4199   */\n      pop\n      pop\n      pop\n        /* \"#utility.yul\":3467:4199   */\n      swap3\n      swap2\n      pop\n      pop\n      jump\t// out\n        /* \"#utility.yul\":4205:4578   */\n    tag_38:\n        /* \"#utility.yul\":4348:4352   */\n      0x00\n        /* \"#utility.yul\":4386:4388   */\n      0x20\n        /* \"#utility.yul\":4375:4384   */\n      dup3\n        /* \"#utility.yul\":4371:4389   */\n      add\n        /* \"#utility.yul\":4363:4389   */\n      swap1\n      pop\n        /* \"#utility.yul\":4435:4444   */\n      dup2\n        /* \"#utility.yul\":4429:4433   */\n      dup2\n        /* \"#utility.yul\":4425:4445   */\n      sub\n        /* \"#utility.yul\":4421:4422   */\n      0x00\n        /* \"#utility.yul\":4410:4419   */\n      dup4\n        /* \"#utility.yul\":4406:4423   */\n      add\n        /* \"#utility.yul\":4399:4446   */\n      mstore\n        /* \"#utility.yul\":4463:4571   */\n      tag_215\n        /* \"#utility.yul\":4566:4570   */\n      dup2\n        /* \"#utility.yul\":4557:4563   */\n      dup5\n        /* \"#utility.yul\":4463:4571   */\n      tag_145\n      jump\t// in\n    tag_215:\n        /* \"#utility.yul\":4455:4571   */\n      swap1\n      pop\n        /* \"#utility.yul\":4205:4578   */\n      swap3\n      swap2\n      pop\n      pop\n      jump\t// out\n        /* \"#utility.yul\":4584:4764   */\n    tag_76:\n        /* \"#utility.yul\":4632:4709   */\n      0x4e487b7100000000000000000000000000000000000000000000000000000000\n        /* \"#utility.yul\":4629:4630   */\n      0x00\n        /* \"#utility.yul\":4622:4710   */\n      mstore\n        /* \"#utility.yul\":4729:4733   */\n      0x32\n        /* \"#utility.yul\":4726:4727   */\n      0x04\n        /* \"#utility.yul\":4719:4734   */\n      mstore\n        /* \"#utility.yul\":4753:4757   */\n      0x24\n        /* \"#utility.yul\":4750:4751   */\n      0x00\n        /* \"#utility.yul\":4743:4758   */\n      revert\n        /* \"#utility.yul\":4770:4950   */\n    tag_80:\n        /* \"#utility.yul\":4818:4895   */\n      0x4e487b7100000000000000000000000000000000000000000000000000000000\n        /* \"#utility.yul\":4815:4816   */\n      0x00\n        /* \"#utility.yul\":4808:4896   */\n      mstore\n        /* \"#utility.yul\":4915:4919   */\n      0x41\n        /* \"#utility.yul\":4912:4913   */\n      0x04\n        /* \"#utility.yul\":4905:4920   */\n      mstore\n        /* \"#utility.yul\":4939:4943   */\n      0x24\n        /* \"#utility.yul\":4936:4937   */\n      0x00\n        /* \"#utility.yul\":4929:4944   */\n      revert\n        /* \"#utility.yul\":4956:5103   */\n    tag_146:\n        /* \"#utility.yul\":5057:5068   */\n      0x00\n        /* \"#utility.yul\":5094:5097   */\n      dup2\n        /* \"#utility.yul\":5079:5097   */\n      swap1\n      pop\n        /* \"#utility.yul\":4956:5103   */\n      swap3\n      swap2\n      pop\n      pop\n      jump\t// out\n        /* \"#utility.yul\":5109:5260   */\n    tag_147:\n        /* \"#utility.yul\":5249:5252   */\n      0x2000000000000000000000000000000000000000000000000000000000000000\n        /* \"#utility.yul\":5245:5246   */\n      0x00\n        /* \"#utility.yul\":5237:5243   */\n      dup3\n        /* \"#utility.yul\":5233:5247   */\n      add\n        /* \"#utility.yul\":5226:5253   */\n      mstore\n        /* \"#utility.yul\":5109:5260   */\n      pop\n      jump\t// out\n        /* \"#utility.yul\":5266:5664   */\n    tag_148:\n        /* \"#utility.yul\":5425:5428   */\n      0x00\n        /* \"#utility.yul\":5446:5529   */\n      tag_221\n        /* \"#utility.yul\":5527:5528   */\n      0x01\n        /* \"#utility.yul\":5522:5525   */\n      dup4\n        /* \"#utility.yul\":5446:5529   */\n      tag_146\n      jump\t// in\n    tag_221:\n        /* \"#utility.yul\":5439:5529   */\n      swap2\n      pop\n        /* \"#utility.yul\":5538:5631   */\n      tag_222\n        /* \"#utility.yul\":5627:5630   */\n      dup3\n        /* \"#utility.yul\":5538:5631   */\n      tag_147\n      jump\t// in\n    tag_222:\n        /* \"#utility.yul\":5656:5657   */\n      0x01\n        /* \"#utility.yul\":5651:5654   */\n      dup3\n        /* \"#utility.yul\":5647:5658   */\n      add\n        /* \"#utility.yul\":5640:5658   */\n      swap1\n      pop\n        /* \"#utility.yul\":5266:5664   */\n      swap2\n      swap1\n      pop\n      jump\t// out\n        /* \"#utility.yul\":5670:6049   */\n    tag_85:\n        /* \"#utility.yul\":5854:5857   */\n      0x00\n        /* \"#utility.yul\":5876:6023   */\n      tag_224\n        /* \"#utility.yul\":6019:6022   */\n      dup3\n        /* \"#utility.yul\":5876:6023   */\n      tag_148\n      jump\t// in\n    tag_224:\n        /* \"#utility.yul\":5869:6023   */\n      swap2\n      pop\n        /* \"#utility.yul\":6040:6043   */\n      dup2\n        /* \"#utility.yul\":6033:6043   */\n      swap1\n      pop\n        /* \"#utility.yul\":5670:6049   */\n      swap2\n      swap1\n      pop\n      jump\t// out\n        /* \"#utility.yul\":6055:6224   */\n    tag_149:\n        /* \"#utility.yul\":6139:6150   */\n      0x00\n        /* \"#utility.yul\":6173:6179   */\n      dup3\n        /* \"#utility.yul\":6168:6171   */\n      dup3\n        /* \"#utility.yul\":6161:6180   */\n      mstore\n        /* \"#utility.yul\":6213:6217   */\n      0x20\n        /* \"#utility.yul\":6208:6211   */\n      dup3\n        /* \"#utility.yul\":6204:6218   */\n      add\n        /* \"#utility.yul\":6189:6218   */\n      swap1\n      pop\n        /* \"#utility.yul\":6055:6224   */\n      swap3\n      swap2\n      pop\n      pop\n      jump\t// out\n        /* \"#utility.yul\":6230:6391   */\n    tag_150:\n        /* \"#utility.yul\":6370:6383   */\n      0x6661696c65642063616c6c000000000000000000000000000000000000000000\n        /* \"#utility.yul\":6366:6367   */\n      0x00\n        /* \"#utility.yul\":6358:6364   */\n      dup3\n        /* \"#utility.yul\":6354:6368   */\n      add\n        /* \"#utility.yul\":6347:6384   */\n      mstore\n        /* \"#utility.yul\":6230:6391   */\n      pop\n      jump\t// out\n        /* \"#utility.yul\":6397:6763   */\n    tag_151:\n        /* \"#utility.yul\":6539:6542   */\n      0x00\n        /* \"#utility.yul\":6560:6627   */\n      tag_228\n        /* \"#utility.yul\":6624:6626   */\n      0x0b\n        /* \"#utility.yul\":6619:6622   */\n      dup4\n        /* \"#utility.yul\":6560:6627   */\n      tag_149\n      jump\t// in\n    tag_228:\n        /* \"#utility.yul\":6553:6627   */\n      swap2\n      pop\n        /* \"#utility.yul\":6636:6729   */\n      tag_229\n        /* \"#utility.yul\":6725:6728   */\n      dup3\n        /* \"#utility.yul\":6636:6729   */\n      tag_150\n      jump\t// in\n    tag_229:\n        /* \"#utility.yul\":6754:6756   */\n      0x20\n        /* \"#utility.yul\":6749:6752   */\n      dup3\n        /* \"#utility.yul\":6745:6757   */\n      add\n        /* \"#utility.yul\":6738:6757   */\n      swap1\n      pop\n        /* \"#utility.yul\":6397:6763   */\n      swap2\n      swap1\n      pop\n      jump\t// out\n        /* \"#utility.yul\":6769:7188   */\n    tag_91:\n        /* \"#utility.yul\":6935:6939   */\n      0x00\n        /* \"#utility.yul\":6973:6975   */\n      0x20\n        /* \"#utility.yul\":6962:6971   */\n      dup3\n        /* \"#utility.yul\":6958:6976   */\n      add\n        /* \"#utility.yul\":6950:6976   */\n      swap1\n      pop\n        /* \"#utility.yul\":7022:7031   */\n      dup2\n        /* \"#utility.yul\":7016:7020   */\n      dup2\n        /* \"#utility.yul\":7012:7032   */\n      sub\n        /* \"#utility.yul\":7008:7009   */\n      0x00\n        /* \"#utility.yul\":6997:7006   */\n      dup4\n        /* \"#utility.yul\":6993:7010   */\n      add\n        /* \"#utility.yul\":6986:7033   */\n      mstore\n        /* \"#utility.yul\":7050:7181   */\n      tag_231\n        /* \"#utility.yul\":7176:7180   */\n      dup2\n        /* \"#utility.yul\":7050:7181   */\n      tag_151\n      jump\t// in\n    tag_231:\n        /* \"#utility.yul\":7042:7181   */\n      swap1\n      pop\n        /* \"#utility.yul\":6769:7188   */\n      swap2\n      swap1\n      pop\n      jump\t// out\n        /* \"#utility.yul\":7194:7368   */\n    tag_152:\n        /* \"#utility.yul\":7334:7360   */\n      0x646f65736e27742073617469736679206d79206e656564200000000000000000\n        /* \"#utility.yul\":7330:7331   */\n      0x00\n        /* \"#utility.yul\":7322:7328   */\n      dup3\n        /* \"#utility.yul\":7318:7332   */\n      add\n        /* \"#utility.yul\":7311:7361   */\n      mstore\n        /* \"#utility.yul\":7194:7368   */\n      pop\n      jump\t// out\n        /* \"#utility.yul\":7374:7740   */\n    tag_153:\n        /* \"#utility.yul\":7516:7519   */\n      0x00\n        /* \"#utility.yul\":7537:7604   */\n      tag_234\n        /* \"#utility.yul\":7601:7603   */\n      0x18\n        /* \"#utility.yul\":7596:7599   */\n      dup4\n        /* \"#utility.yul\":7537:7604   */\n      tag_149\n      jump\t// in\n    tag_234:\n        /* \"#utility.yul\":7530:7604   */\n      swap2\n      pop\n        /* \"#utility.yul\":7613:7706   */\n      tag_235\n        /* \"#utility.yul\":7702:7705   */\n      dup3\n        /* \"#utility.yul\":7613:7706   */\n      tag_152\n      jump\t// in\n    tag_235:\n        /* \"#utility.yul\":7731:7733   */\n      0x20\n        /* \"#utility.yul\":7726:7729   */\n      dup3\n        /* \"#utility.yul\":7722:7734   */\n      add\n        /* \"#utility.yul\":7715:7734   */\n      swap1\n      pop\n        /* \"#utility.yul\":7374:7740   */\n      swap2\n      swap1\n      pop\n      jump\t// out\n        /* \"#utility.yul\":7746:8165   */\n    tag_100:\n        /* \"#utility.yul\":7912:7916   */\n      0x00\n        /* \"#utility.yul\":7950:7952   */\n      0x20\n        /* \"#utility.yul\":7939:7948   */\n      dup3\n        /* \"#utility.yul\":7935:7953   */\n      add\n        /* \"#utility.yul\":7927:7953   */\n      swap1\n      pop\n        /* \"#utility.yul\":7999:8008   */\n      dup2\n        /* \"#utility.yul\":7993:7997   */\n      dup2\n        /* \"#utility.yul\":7989:8009   */\n      sub\n        /* \"#utility.yul\":7985:7986   */\n      0x00\n        /* \"#utility.yul\":7974:7983   */\n      dup4\n        /* \"#utility.yul\":7970:7987   */\n      add\n        /* \"#utility.yul\":7963:8010   */\n      mstore\n        /* \"#utility.yul\":8027:8158   */\n      tag_237\n        /* \"#utility.yul\":8153:8157   */\n      dup2\n        /* \"#utility.yul\":8027:8158   */\n      tag_153\n      jump\t// in\n    tag_237:\n        /* \"#utility.yul\":8019:8158   */\n      swap1\n      pop\n        /* \"#utility.yul\":7746:8165   */\n      swap2\n      swap1\n      pop\n      jump\t// out\n        /* \"#utility.yul\":8171:8351   */\n    tag_154:\n        /* \"#utility.yul\":8219:8296   */\n      0x4e487b7100000000000000000000000000000000000000000000000000000000\n        /* \"#utility.yul\":8216:8217   */\n      0x00\n        /* \"#utility.yul\":8209:8297   */\n      mstore\n        /* \"#utility.yul\":8316:8320   */\n      0x11\n        /* \"#utility.yul\":8313:8314   */\n      0x04\n        /* \"#utility.yul\":8306:8321   */\n      mstore\n        /* \"#utility.yul\":8340:8344   */\n      0x24\n        /* \"#utility.yul\":8337:8338   */\n      0x00\n        /* \"#utility.yul\":8330:8345   */\n      revert\n        /* \"#utility.yul\":8357:8548   */\n    tag_103:\n        /* \"#utility.yul\":8397:8400   */\n      0x00\n        /* \"#utility.yul\":8416:8436   */\n      tag_240\n        /* \"#utility.yul\":8434:8435   */\n      dup3\n        /* \"#utility.yul\":8416:8436   */\n      tag_130\n      jump\t// in\n    tag_240:\n        /* \"#utility.yul\":8411:8436   */\n      swap2\n      pop\n        /* \"#utility.yul\":8450:8470   */\n      tag_241\n        /* \"#utility.yul\":8468:8469   */\n      dup4\n        /* \"#utility.yul\":8450:8470   */\n      tag_130\n      jump\t// in\n    tag_241:\n        /* \"#utility.yul\":8445:8470   */\n      swap3\n      pop\n        /* \"#utility.yul\":8493:8494   */\n      dup3\n        /* \"#utility.yul\":8490:8491   */\n      dup3\n        /* \"#utility.yul\":8486:8495   */\n      add\n        /* \"#utility.yul\":8479:8495   */\n      swap1\n      pop\n        /* \"#utility.yul\":8514:8517   */\n      dup1\n        /* \"#utility.yul\":8511:8512   */\n      dup3\n        /* \"#utility.yul\":8508:8518   */\n      gt\n        /* \"#utility.yul\":8505:8541   */\n      iszero\n      tag_242\n      jumpi\n        /* \"#utility.yul\":8521:8539   */\n      tag_243\n      tag_154\n      jump\t// in\n    tag_243:\n        /* \"#utility.yul\":8505:8541   */\n    tag_242:\n        /* \"#utility.yul\":8357:8548   */\n      swap3\n      swap2\n      pop\n      pop\n      jump\t// out\n        /* \"#utility.yul\":8554:8964   */\n    tag_110:\n        /* \"#utility.yul\":8594:8601   */\n      0x00\n        /* \"#utility.yul\":8617:8637   */\n      tag_245\n        /* \"#utility.yul\":8635:8636   */\n      dup3\n        /* \"#utility.yul\":8617:8637   */\n      tag_130\n      jump\t// in\n    tag_245:\n        /* \"#utility.yul\":8612:8637   */\n      swap2\n      pop\n        /* \"#utility.yul\":8651:8671   */\n      tag_246\n        /* \"#utility.yul\":8669:8670   */\n      dup4\n        /* \"#utility.yul\":8651:8671   */\n      tag_130\n      jump\t// in\n    tag_246:\n        /* \"#utility.yul\":8646:8671   */\n      swap3\n      pop\n        /* \"#utility.yul\":8706:8707   */\n      dup3\n        /* \"#utility.yul\":8703:8704   */\n      dup3\n        /* \"#utility.yul\":8699:8708   */\n      mul\n        /* \"#utility.yul\":8728:8758   */\n      tag_247\n        /* \"#utility.yul\":8746:8757   */\n      dup2\n        /* \"#utility.yul\":8728:8758   */\n      tag_130\n      jump\t// in\n    tag_247:\n        /* \"#utility.yul\":8717:8758   */\n      swap2\n      pop\n        /* \"#utility.yul\":8907:8908   */\n      dup3\n        /* \"#utility.yul\":8898:8905   */\n      dup3\n        /* \"#utility.yul\":8894:8909   */\n      div\n        /* \"#utility.yul\":8891:8892   */\n      dup5\n        /* \"#utility.yul\":8888:8910   */\n      eq\n        /* \"#utility.yul\":8868:8869   */\n      dup4\n        /* \"#utility.yul\":8861:8870   */\n      iszero\n        /* \"#utility.yul\":8841:8924   */\n      or\n        /* \"#utility.yul\":8818:8957   */\n      tag_248\n      jumpi\n        /* \"#utility.yul\":8937:8955   */\n      tag_249\n      tag_154\n      jump\t// in\n    tag_249:\n        /* \"#utility.yul\":8818:8957   */\n    tag_248:\n        /* \"#utility.yul\":8602:8964   */\n      pop\n        /* \"#utility.yul\":8554:8964   */\n      swap3\n      swap2\n      pop\n      pop\n      jump\t// out\n        /* \"#utility.yul\":8970:9150   */\n    tag_155:\n        /* \"#utility.yul\":9018:9095   */\n      0x4e487b7100000000000000000000000000000000000000000000000000000000\n        /* \"#utility.yul\":9015:9016   */\n      0x00\n        /* \"#utility.yul\":9008:9096   */\n      mstore\n        /* \"#utility.yul\":9115:9119   */\n      0x12\n        /* \"#utility.yul\":9112:9113   */\n      0x04\n        /* \"#utility.yul\":9105:9120   */\n      mstore\n        /* \"#utility.yul\":9139:9143   */\n      0x24\n        /* \"#utility.yul\":9136:9137   */\n      0x00\n        /* \"#utility.yul\":9129:9144   */\n      revert\n        /* \"#utility.yul\":9156:9341   */\n    tag_112:\n        /* \"#utility.yul\":9196:9197   */\n      0x00\n        /* \"#utility.yul\":9213:9233   */\n      tag_252\n        /* \"#utility.yul\":9231:9232   */\n      dup3\n        /* \"#utility.yul\":9213:9233   */\n      tag_130\n      jump\t// in\n    tag_252:\n        /* \"#utility.yul\":9208:9233   */\n      swap2\n      pop\n        /* \"#utility.yul\":9247:9267   */\n      tag_253\n        /* \"#utility.yul\":9265:9266   */\n      dup4\n        /* \"#utility.yul\":9247:9267   */\n      tag_130\n      jump\t// in\n    tag_253:\n        /* \"#utility.yul\":9242:9267   */\n      swap3\n      pop\n        /* \"#utility.yul\":9286:9287   */\n      dup3\n        /* \"#utility.yul\":9276:9311   */\n      tag_254\n      jumpi\n        /* \"#utility.yul\":9291:9309   */\n      tag_255\n      tag_155\n      jump\t// in\n    tag_255:\n        /* \"#utility.yul\":9276:9311   */\n    tag_254:\n        /* \"#utility.yul\":9333:9334   */\n      dup3\n        /* \"#utility.yul\":9330:9331   */\n      dup3\n        /* \"#utility.yul\":9326:9335   */\n      div\n        /* \"#utility.yul\":9321:9335   */\n      swap1\n      pop\n        /* \"#utility.yul\":9156:9341   */\n      swap3\n      swap2\n      pop\n      pop\n      jump\t// out\n        /* \"#utility.yul\":9347:9452   */\n    tag_156:\n        /* \"#utility.yul\":9383:9390   */\n      0x00\n        /* \"#utility.yul\":9423:9445   */\n      0xffffffffffffffffffff\n        /* \"#utility.yul\":9416:9421   */\n      dup3\n        /* \"#utility.yul\":9412:9446   */\n      and\n        /* \"#utility.yul\":9401:9446   */\n      swap1\n      pop\n        /* \"#utility.yul\":9347:9452   */\n      swap2\n      swap1\n      pop\n      jump\t// out\n        /* \"#utility.yul\":9458:9578   */\n    tag_157:\n        /* \"#utility.yul\":9530:9553   */\n      tag_258\n        /* \"#utility.yul\":9547:9552   */\n      dup2\n        /* \"#utility.yul\":9530:9553   */\n      tag_156\n      jump\t// in\n    tag_258:\n        /* \"#utility.yul\":9523:9528   */\n      dup2\n        /* \"#utility.yul\":9520:9554   */\n      eq\n        /* \"#utility.yul\":9510:9572   */\n      tag_259\n      jumpi\n        /* \"#utility.yul\":9568:9569   */\n      0x00\n        /* \"#utility.yul\":9565:9566   */\n      dup1\n        /* \"#utility.yul\":9558:9570   */\n      revert\n        /* \"#utility.yul\":9510:9572   */\n    tag_259:\n        /* \"#utility.yul\":9458:9578   */\n      pop\n      jump\t// out\n        /* \"#utility.yul\":9584:9725   */\n    tag_158:\n        /* \"#utility.yul\":9640:9645   */\n      0x00\n        /* \"#utility.yul\":9671:9677   */\n      dup2\n        /* \"#utility.yul\":9665:9678   */\n      mload\n        /* \"#utility.yul\":9656:9678   */\n      swap1\n      pop\n        /* \"#utility.yul\":9687:9719   */\n      tag_261\n        /* \"#utility.yul\":9713:9718   */\n      dup2\n        /* \"#utility.yul\":9687:9719   */\n      tag_157\n      jump\t// in\n    tag_261:\n        /* \"#utility.yul\":9584:9725   */\n      swap3\n      swap2\n      pop\n      pop\n      jump\t// out\n        /* \"#utility.yul\":9731:9807   */\n    tag_159:\n        /* \"#utility.yul\":9767:9774   */\n      0x00\n        /* \"#utility.yul\":9796:9801   */\n      dup2\n        /* \"#utility.yul\":9785:9801   */\n      swap1\n      pop\n        /* \"#utility.yul\":9731:9807   */\n      swap2\n      swap1\n      pop\n      jump\t// out\n        /* \"#utility.yul\":9813:9933   */\n    tag_160:\n        /* \"#utility.yul\":9885:9908   */\n      tag_264\n        /* \"#utility.yul\":9902:9907   */\n      dup2\n        /* \"#utility.yul\":9885:9908   */\n      tag_159\n      jump\t// in\n    tag_264:\n        /* \"#utility.yul\":9878:9883   */\n      dup2\n        /* \"#utility.yul\":9875:9909   */\n      eq\n        /* \"#utility.yul\":9865:9927   */\n      tag_265\n      jumpi\n        /* \"#utility.yul\":9923:9924   */\n      0x00\n        /* \"#utility.yul\":9920:9921   */\n      dup1\n        /* \"#utility.yul\":9913:9925   */\n      revert\n        /* \"#utility.yul\":9865:9927   */\n    tag_265:\n        /* \"#utility.yul\":9813:9933   */\n      pop\n      jump\t// out\n        /* \"#utility.yul\":9939:10080   */\n    tag_161:\n        /* \"#utility.yul\":9995:10000   */\n      0x00\n        /* \"#utility.yul\":10026:10032   */\n      dup2\n        /* \"#utility.yul\":10020:10033   */\n      mload\n        /* \"#utility.yul\":10011:10033   */\n      swap1\n      pop\n        /* \"#utility.yul\":10042:10074   */\n      tag_267\n        /* \"#utility.yul\":10068:10073   */\n      dup2\n        /* \"#utility.yul\":10042:10074   */\n      tag_160\n      jump\t// in\n    tag_267:\n        /* \"#utility.yul\":9939:10080   */\n      swap3\n      swap2\n      pop\n      pop\n      jump\t// out\n        /* \"#utility.yul\":10086:10229   */\n    tag_162:\n        /* \"#utility.yul\":10143:10148   */\n      0x00\n        /* \"#utility.yul\":10174:10180   */\n      dup2\n        /* \"#utility.yul\":10168:10181   */\n      mload\n        /* \"#utility.yul\":10159:10181   */\n      swap1\n      pop\n        /* \"#utility.yul\":10190:10223   */\n      tag_269\n        /* \"#utility.yul\":10217:10222   */\n      dup2\n        /* \"#utility.yul\":10190:10223   */\n      tag_131\n      jump\t// in\n    tag_269:\n        /* \"#utility.yul\":10086:10229   */\n      swap3\n      swap2\n      pop\n      pop\n      jump\t// out\n        /* \"#utility.yul\":10235:11206   */\n    tag_117:\n        /* \"#utility.yul\":10338:10344   */\n      0x00\n        /* \"#utility.yul\":10346:10352   */\n      dup1\n        /* \"#utility.yul\":10354:10360   */\n      0x00\n        /* \"#utility.yul\":10362:10368   */\n      dup1\n        /* \"#utility.yul\":10370:10376   */\n      0x00\n        /* \"#utility.yul\":10419:10422   */\n      0xa0\n        /* \"#utility.yul\":10407:10416   */\n      dup7\n        /* \"#utility.yul\":10398:10405   */\n      dup9\n        /* \"#utility.yul\":10394:10417   */\n      sub\n        /* \"#utility.yul\":10390:10423   */\n      slt\n        /* \"#utility.yul\":10387:10507   */\n      iszero\n      tag_271\n      jumpi\n        /* \"#utility.yul\":10426:10505   */\n      tag_272\n      tag_128\n      jump\t// in\n    tag_272:\n        /* \"#utility.yul\":10387:10507   */\n    tag_271:\n        /* \"#utility.yul\":10546:10547   */\n      0x00\n        /* \"#utility.yul\":10571:10634   */\n      tag_273\n        /* \"#utility.yul\":10626:10633   */\n      dup9\n        /* \"#utility.yul\":10617:10623   */\n      dup3\n        /* \"#utility.yul\":10606:10615   */\n      dup10\n        /* \"#utility.yul\":10602:10624   */\n      add\n        /* \"#utility.yul\":10571:10634   */\n      tag_158\n      jump\t// in\n    tag_273:\n        /* \"#utility.yul\":10561:10634   */\n      swap6\n      pop\n        /* \"#utility.yul\":10517:10644   */\n      pop\n        /* \"#utility.yul\":10683:10685   */\n      0x20\n        /* \"#utility.yul\":10709:10772   */\n      tag_274\n        /* \"#utility.yul\":10764:10771   */\n      dup9\n        /* \"#utility.yul\":10755:10761   */\n      dup3\n        /* \"#utility.yul\":10744:10753   */\n      dup10\n        /* \"#utility.yul\":10740:10762   */\n      add\n        /* \"#utility.yul\":10709:10772   */\n      tag_161\n      jump\t// in\n    tag_274:\n        /* \"#utility.yul\":10699:10772   */\n      swap5\n      pop\n        /* \"#utility.yul\":10654:10782   */\n      pop\n        /* \"#utility.yul\":10821:10823   */\n      0x40\n        /* \"#utility.yul\":10847:10911   */\n      tag_275\n        /* \"#utility.yul\":10903:10910   */\n      dup9\n        /* \"#utility.yul\":10894:10900   */\n      dup3\n        /* \"#utility.yul\":10883:10892   */\n      dup10\n        /* \"#utility.yul\":10879:10901   */\n      add\n        /* \"#utility.yul\":10847:10911   */\n      tag_162\n      jump\t// in\n    tag_275:\n        /* \"#utility.yul\":10837:10911   */\n      swap4\n      pop\n        /* \"#utility.yul\":10792:10921   */\n      pop\n        /* \"#utility.yul\":10960:10962   */\n      0x60\n        /* \"#utility.yul\":10986:11050   */\n      tag_276\n        /* \"#utility.yul\":11042:11049   */\n      dup9\n        /* \"#utility.yul\":11033:11039   */\n      dup3\n        /* \"#utility.yul\":11022:11031   */\n      dup10\n        /* \"#utility.yul\":11018:11040   */\n      add\n        /* \"#utility.yul\":10986:11050   */\n      tag_162\n      jump\t// in\n    tag_276:\n        /* \"#utility.yul\":10976:11050   */\n      swap3\n      pop\n        /* \"#utility.yul\":10931:11060   */\n      pop\n        /* \"#utility.yul\":11099:11102   */\n      0x80\n        /* \"#utility.yul\":11126:11189   */\n      tag_277\n        /* \"#utility.yul\":11181:11188   */\n      dup9\n        /* \"#utility.yul\":11172:11178   */\n      dup3\n        /* \"#utility.yul\":11161:11170   */\n      dup10\n        /* \"#utility.yul\":11157:11179   */\n      add\n        /* \"#utility.yul\":11126:11189   */\n      tag_158\n      jump\t// in\n    tag_277:\n        /* \"#utility.yul\":11116:11189   */\n      swap2\n      pop\n        /* \"#utility.yul\":11070:11199   */\n      pop\n        /* \"#utility.yul\":10235:11206   */\n      swap3\n      swap6\n      pop\n      swap3\n      swap6\n      swap1\n      swap4\n      pop\n      jump\t// out\n        /* \"#utility.yul\":11212:11768   */\n    tag_119:\n        /* \"#utility.yul\":11251:11258   */\n      0x00\n        /* \"#utility.yul\":11274:11293   */\n      tag_279\n        /* \"#utility.yul\":11291:11292   */\n      dup3\n        /* \"#utility.yul\":11274:11293   */\n      tag_159\n      jump\t// in\n    tag_279:\n        /* \"#utility.yul\":11269:11293   */\n      swap2\n      pop\n        /* \"#utility.yul\":11307:11326   */\n      tag_280\n        /* \"#utility.yul\":11324:11325   */\n      dup4\n        /* \"#utility.yul\":11307:11326   */\n      tag_159\n      jump\t// in\n    tag_280:\n        /* \"#utility.yul\":11302:11326   */\n      swap3\n      pop\n        /* \"#utility.yul\":11361:11362   */\n      dup3\n        /* \"#utility.yul\":11358:11359   */\n      dup3\n        /* \"#utility.yul\":11354:11363   */\n      mul\n        /* \"#utility.yul\":11383:11412   */\n      tag_281\n        /* \"#utility.yul\":11400:11411   */\n      dup2\n        /* \"#utility.yul\":11383:11412   */\n      tag_159\n      jump\t// in\n    tag_281:\n        /* \"#utility.yul\":11372:11412   */\n      swap2\n      pop\n        /* \"#utility.yul\":11470:11536   */\n      0x8000000000000000000000000000000000000000000000000000000000000000\n        /* \"#utility.yul\":11467:11468   */\n      dup5\n        /* \"#utility.yul\":11464:11537   */\n      eq\n        /* \"#utility.yul\":11460:11461   */\n      0x00\n        /* \"#utility.yul\":11457:11458   */\n      dup5\n        /* \"#utility.yul\":11453:11462   */\n      slt\n        /* \"#utility.yul\":11449:11538   */\n      and\n        /* \"#utility.yul\":11446:11561   */\n      iszero\n      tag_282\n      jumpi\n        /* \"#utility.yul\":11541:11559   */\n      tag_283\n      tag_154\n      jump\t// in\n    tag_283:\n        /* \"#utility.yul\":11446:11561   */\n    tag_282:\n        /* \"#utility.yul\":11711:11712   */\n      dup3\n        /* \"#utility.yul\":11702:11709   */\n      dup3\n        /* \"#utility.yul\":11697:11713   */\n      sdiv\n        /* \"#utility.yul\":11694:11695   */\n      dup5\n        /* \"#utility.yul\":11691:11714   */\n      eq\n        /* \"#utility.yul\":11671:11672   */\n      dup4\n        /* \"#utility.yul\":11664:11673   */\n      iszero\n        /* \"#utility.yul\":11644:11728   */\n      or\n        /* \"#utility.yul\":11621:11761   */\n      tag_284\n      jumpi\n        /* \"#utility.yul\":11741:11759   */\n      tag_285\n      tag_154\n      jump\t// in\n    tag_285:\n        /* \"#utility.yul\":11621:11761   */\n    tag_284:\n        /* \"#utility.yul\":11259:11768   */\n      pop\n        /* \"#utility.yul\":11212:11768   */\n      swap3\n      swap2\n      pop\n      pop\n      jump\t// out\n\n    auxdata: 0xa2646970667358221220cadaed0e5bd8134e00432907c2677026b4b398b0f25b5d0c893f00ef5acd984c64736f6c63430008180033\n}\n",
				"bytecode": {
					"linkReferences": {},
					"object": "6080604052674563918244f4000060015534801561001b575f80fd5b50610e37806100295f395ff3fe608060405260043610610090575f3560e01c80633430a88c116100585780633430a88c146101765780633ccfd60b146101a05780635b18056b146101b657806389ffce48146101e0578063d1d9165d1461021c57610090565b80631f2c923814610094578063221ace14146100d0578063288c3d171461010c5780632e01594f146101365780632e64cec11461014c575b5f80fd5b34801561009f575f80fd5b506100ba60048036038101906100b59190610817565b610226565b6040516100c79190610881565b60405180910390f35b3480156100db575f80fd5b506100f660048036038101906100f191906108c4565b610261565b60405161010391906108fe565b60405180910390f35b348015610117575f80fd5b50610120610276565b60405161012d91906108fe565b60405180910390f35b348015610141575f80fd5b5061014a6102a0565b005b348015610157575f80fd5b506101606102e0565b60405161016d91906109ce565b60405180910390f35b348015610181575f80fd5b5061018a610335565b60405161019791906108fe565b60405180910390f35b3480156101ab575f80fd5b506101b461033b565b005b3480156101c1575f80fd5b506101ca6104e4565b6040516101d791906108fe565b60405180910390f35b3480156101eb575f80fd5b5061020660048036038101906102019190610817565b6104f0565b60405161021391906108fe565b60405180910390f35b61022461050f565b005b60028181548110610235575f80fd5b905f5260205f20015f915054906101000a900473ffffffffffffffffffffffffffffffffffffffff1681565b6003602052805f5260405f205f915090505481565b5f80601b90505f600d90505f610295828461064790919063ffffffff16565b905080935050505090565b5f5b600a8110156102dd575f81908060018154018082558091505060019003905f5260205f20015f909190919091505580806001019150506102a2565b50565b60605f80548060200260200160405190810160405280929190818152602001828054801561032b57602002820191905f5260205f20905b815481526020019060010190808311610317575b5050505050905090565b60015481565b5f5b6002805490508110156103d9575f6002828154811061035f5761035e6109ee565b5b905f5260205f20015f9054906101000a900473ffffffffffffffffffffffffffffffffffffffff1690505f60035f8373ffffffffffffffffffffffffffffffffffffffff1673ffffffffffffffffffffffffffffffffffffffff1681526020019081526020015f208190555050808060010191505061033d565b505f67ffffffffffffffff8111156103f4576103f3610a1b565b5b6040519080825280602002602001820160405280156104225781602001602082028036833780820191505090505b506002908051906020019061043892919061073e565b505f3373ffffffffffffffffffffffffffffffffffffffff164760405161045e90610a9c565b5f6040518083038185875af1925050503d805f8114610498576040519150601f19603f3d011682016040523d82523d5f602084013e61049d565b606091505b50509050806104e1576040517f08c379a00000000000000000000000000000000000000000000000000000000081526004016104d890610b0a565b60405180910390fd5b50565b5f600280549050905090565b5f81815481106104fe575f80fd5b905f5260205f20015f915090505481565b60015461051b34610661565b1161055b576040517f08c379a000000000000000000000000000000000000000000000000000000000815260040161055290610b72565b60405180910390fd5b600233908060018154018082558091505060019003905f5260205f20015f9091909190916101000a81548173ffffffffffffffffffffffffffffffffffffffff021916908373ffffffffffffffffffffffffffffffffffffffff1602179055503460035f3373ffffffffffffffffffffffffffffffffffffffff1673ffffffffffffffffffffffffffffffffffffffff1681526020019081526020015f20546106049190610bbd565b60035f3373ffffffffffffffffffffffffffffffffffffffff1673ffffffffffffffffffffffffffffffffffffffff1681526020019081526020015f2081905550565b5f8082846106559190610bbd565b90508091505092915050565b5f8061066b610699565b90505f670de0b6b3a764000082856106839190610bf0565b61068d9190610c5e565b90508092505050919050565b5f8073694aa1769357215de4fac081bf1f309adc32530690505f8173ffffffffffffffffffffffffffffffffffffffff1663feaf968c6040518163ffffffff1660e01b815260040160a060405180830381865afa1580156106fc573d5f803e3d5ffd5b505050506040513d601f19601f820116820180604052508101906107209190610d14565b5050509150506402540be400816107379190610d8b565b9250505090565b828054828255905f5260205f209081019282156107b4579160200282015b828111156107b3578251825f6101000a81548173ffffffffffffffffffffffffffffffffffffffff021916908373ffffffffffffffffffffffffffffffffffffffff1602179055509160200191906001019061075c565b5b5090506107c191906107c5565b5090565b5b808211156107dc575f815f9055506001016107c6565b5090565b5f80fd5b5f819050919050565b6107f6816107e4565b8114610800575f80fd5b50565b5f81359050610811816107ed565b92915050565b5f6020828403121561082c5761082b6107e0565b5b5f61083984828501610803565b91505092915050565b5f73ffffffffffffffffffffffffffffffffffffffff82169050919050565b5f61086b82610842565b9050919050565b61087b81610861565b82525050565b5f6020820190506108945f830184610872565b92915050565b6108a381610861565b81146108ad575f80fd5b50565b5f813590506108be8161089a565b92915050565b5f602082840312156108d9576108d86107e0565b5b5f6108e6848285016108b0565b91505092915050565b6108f8816107e4565b82525050565b5f6020820190506109115f8301846108ef565b92915050565b5f81519050919050565b5f82825260208201905092915050565b5f819050602082019050919050565b610949816107e4565b82525050565b5f61095a8383610940565b60208301905092915050565b5f602082019050919050565b5f61097c82610917565b6109868185610921565b935061099183610931565b805f5b838110156109c15781516109a8888261094f565b97506109b383610966565b925050600181019050610994565b5085935050505092915050565b5f6020820190508181035f8301526109e68184610972565b905092915050565b7f4e487b71000000000000000000000000000000000000000000000000000000005f52603260045260245ffd5b7f4e487b71000000000000000000000000000000000000000000000000000000005f52604160045260245ffd5b5f81905092915050565b7f20000000000000000000000000000000000000000000000000000000000000005f82015250565b5f610a86600183610a48565b9150610a9182610a52565b600182019050919050565b5f610aa682610a7a565b9150819050919050565b5f82825260208201905092915050565b7f6661696c65642063616c6c0000000000000000000000000000000000000000005f82015250565b5f610af4600b83610ab0565b9150610aff82610ac0565b602082019050919050565b5f6020820190508181035f830152610b2181610ae8565b9050919050565b7f646f65736e27742073617469736679206d79206e6565642000000000000000005f82015250565b5f610b5c601883610ab0565b9150610b6782610b28565b602082019050919050565b5f6020820190508181035f830152610b8981610b50565b9050919050565b7f4e487b71000000000000000000000000000000000000000000000000000000005f52601160045260245ffd5b5f610bc7826107e4565b9150610bd2836107e4565b9250828201905080821115610bea57610be9610b90565b5b92915050565b5f610bfa826107e4565b9150610c05836107e4565b9250828202610c13816107e4565b91508282048414831517610c2a57610c29610b90565b5b5092915050565b7f4e487b71000000000000000000000000000000000000000000000000000000005f52601260045260245ffd5b5f610c68826107e4565b9150610c73836107e4565b925082610c8357610c82610c31565b5b828204905092915050565b5f69ffffffffffffffffffff82169050919050565b610cac81610c8e565b8114610cb6575f80fd5b50565b5f81519050610cc781610ca3565b92915050565b5f819050919050565b610cdf81610ccd565b8114610ce9575f80fd5b50565b5f81519050610cfa81610cd6565b92915050565b5f81519050610d0e816107ed565b92915050565b5f805f805f60a08688031215610d2d57610d2c6107e0565b5b5f610d3a88828901610cb9565b9550506020610d4b88828901610cec565b9450506040610d5c88828901610d00565b9350506060610d6d88828901610d00565b9250506080610d7e88828901610cb9565b9150509295509295909350565b5f610d9582610ccd565b9150610da083610ccd565b9250828202610dae81610ccd565b91507f800000000000000000000000000000000000000000000000000000000000000084145f84121615610de557610de4610b90565b5b8282058414831517610dfa57610df9610b90565b5b509291505056fea2646970667358221220cadaed0e5bd8134e00432907c2677026b4b398b0f25b5d0c893f00ef5acd984c64736f6c63430008180033",
					"opcodes": "PUSH1 0x80 PUSH1 0x40 MSTORE PUSH8 0x4563918244F40000 PUSH1 0x1 SSTORE CALLVALUE DUP1 ISZERO PUSH2 0x1B JUMPI PUSH0 DUP1 REVERT JUMPDEST POP PUSH2 0xE37 DUP1 PUSH2 0x29 PUSH0 CODECOPY PUSH0 RETURN INVALID PUSH1 0x80 PUSH1 0x40 MSTORE PUSH1 0x4 CALLDATASIZE LT PUSH2 0x90 JUMPI PUSH0 CALLDATALOAD PUSH1 0xE0 SHR DUP1 PUSH4 0x3430A88C GT PUSH2 0x58 JUMPI DUP1 PUSH4 0x3430A88C EQ PUSH2 0x176 JUMPI DUP1 PUSH4 0x3CCFD60B EQ PUSH2 0x1A0 JUMPI DUP1 PUSH4 0x5B18056B EQ PUSH2 0x1B6 JUMPI DUP1 PUSH4 0x89FFCE48 EQ PUSH2 0x1E0 JUMPI DUP1 PUSH4 0xD1D9165D EQ PUSH2 0x21C JUMPI PUSH2 0x90 JUMP JUMPDEST DUP1 PUSH4 0x1F2C9238 EQ PUSH2 0x94 JUMPI DUP1 PUSH4 0x221ACE14 EQ PUSH2 0xD0 JUMPI DUP1 PUSH4 0x288C3D17 EQ PUSH2 0x10C JUMPI DUP1 PUSH4 0x2E01594F EQ PUSH2 0x136 JUMPI DUP1 PUSH4 0x2E64CEC1 EQ PUSH2 0x14C JUMPI JUMPDEST PUSH0 DUP1 REVERT JUMPDEST CALLVALUE DUP1 ISZERO PUSH2 0x9F JUMPI PUSH0 DUP1 REVERT JUMPDEST POP PUSH2 0xBA PUSH1 0x4 DUP1 CALLDATASIZE SUB DUP2 ADD SWAP1 PUSH2 0xB5 SWAP2 SWAP1 PUSH2 0x817 JUMP JUMPDEST PUSH2 0x226 JUMP JUMPDEST PUSH1 0x40 MLOAD PUSH2 0xC7 SWAP2 SWAP1 PUSH2 0x881 JUMP JUMPDEST PUSH1 0x40 MLOAD DUP1 SWAP2 SUB SWAP1 RETURN JUMPDEST CALLVALUE DUP1 ISZERO PUSH2 0xDB JUMPI PUSH0 DUP1 REVERT JUMPDEST POP PUSH2 0xF6 PUSH1 0x4 DUP1 CALLDATASIZE SUB DUP2 ADD SWAP1 PUSH2 0xF1 SWAP2 SWAP1 PUSH2 0x8C4 JUMP JUMPDEST PUSH2 0x261 JUMP JUMPDEST PUSH1 0x40 MLOAD PUSH2 0x103 SWAP2 SWAP1 PUSH2 0x8FE JUMP JUMPDEST PUSH1 0x40 MLOAD DUP1 SWAP2 SUB SWAP1 RETURN JUMPDEST CALLVALUE DUP1 ISZERO PUSH2 0x117 JUMPI PUSH0 DUP1 REVERT JUMPDEST POP PUSH2 0x120 PUSH2 0x276 JUMP JUMPDEST PUSH1 0x40 MLOAD PUSH2 0x12D SWAP2 SWAP1 PUSH2 0x8FE JUMP JUMPDEST PUSH1 0x40 MLOAD DUP1 SWAP2 SUB SWAP1 RETURN JUMPDEST CALLVALUE DUP1 ISZERO PUSH2 0x141 JUMPI PUSH0 DUP1 REVERT JUMPDEST POP PUSH2 0x14A PUSH2 0x2A0 JUMP JUMPDEST STOP JUMPDEST CALLVALUE DUP1 ISZERO PUSH2 0x157 JUMPI PUSH0 DUP1 REVERT JUMPDEST POP PUSH2 0x160 PUSH2 0x2E0 JUMP JUMPDEST PUSH1 0x40 MLOAD PUSH2 0x16D SWAP2 SWAP1 PUSH2 0x9CE JUMP JUMPDEST PUSH1 0x40 MLOAD DUP1 SWAP2 SUB SWAP1 RETURN JUMPDEST CALLVALUE DUP1 ISZERO PUSH2 0x181 JUMPI PUSH0 DUP1 REVERT JUMPDEST POP PUSH2 0x18A PUSH2 0x335 JUMP JUMPDEST PUSH1 0x40 MLOAD PUSH2 0x197 SWAP2 SWAP1 PUSH2 0x8FE JUMP JUMPDEST PUSH1 0x40 MLOAD DUP1 SWAP2 SUB SWAP1 RETURN JUMPDEST CALLVALUE DUP1 ISZERO PUSH2 0x1AB JUMPI PUSH0 DUP1 REVERT JUMPDEST POP PUSH2 0x1B4 PUSH2 0x33B JUMP JUMPDEST STOP JUMPDEST CALLVALUE DUP1 ISZERO PUSH2 0x1C1 JUMPI PUSH0 DUP1 REVERT JUMPDEST POP PUSH2 0x1CA PUSH2 0x4E4 JUMP JUMPDEST PUSH1 0x40 MLOAD PUSH2 0x1D7 SWAP2 SWAP1 PUSH2 0x8FE JUMP JUMPDEST PUSH1 0x40 MLOAD DUP1 SWAP2 SUB SWAP1 RETURN JUMPDEST CALLVALUE DUP1 ISZERO PUSH2 0x1EB JUMPI PUSH0 DUP1 REVERT JUMPDEST POP PUSH2 0x206 PUSH1 0x4 DUP1 CALLDATASIZE SUB DUP2 ADD SWAP1 PUSH2 0x201 SWAP2 SWAP1 PUSH2 0x817 JUMP JUMPDEST PUSH2 0x4F0 JUMP JUMPDEST PUSH1 0x40 MLOAD PUSH2 0x213 SWAP2 SWAP1 PUSH2 0x8FE JUMP JUMPDEST PUSH1 0x40 MLOAD DUP1 SWAP2 SUB SWAP1 RETURN JUMPDEST PUSH2 0x224 PUSH2 0x50F JUMP JUMPDEST STOP JUMPDEST PUSH1 0x2 DUP2 DUP2 SLOAD DUP2 LT PUSH2 0x235 JUMPI PUSH0 DUP1 REVERT JUMPDEST SWAP1 PUSH0 MSTORE PUSH1 0x20 PUSH0 KECCAK256 ADD PUSH0 SWAP2 POP SLOAD SWAP1 PUSH2 0x100 EXP SWAP1 DIV PUSH20 0xFFFFFFFFFFFFFFFFFFFFFFFFFFFFFFFFFFFFFFFF AND DUP2 JUMP JUMPDEST PUSH1 0x3 PUSH1 0x20 MSTORE DUP1 PUSH0 MSTORE PUSH1 0x40 PUSH0 KECCAK256 PUSH0 SWAP2 POP SWAP1 POP SLOAD DUP2 JUMP JUMPDEST PUSH0 DUP1 PUSH1 0x1B SWAP1 POP PUSH0 PUSH1 0xD SWAP1 POP PUSH0 PUSH2 0x295 DUP3 DUP5 PUSH2 0x647 SWAP1 SWAP2 SWAP1 PUSH4 0xFFFFFFFF AND JUMP JUMPDEST SWAP1 POP DUP1 SWAP4 POP POP POP POP SWAP1 JUMP JUMPDEST PUSH0 JUMPDEST PUSH1 0xA DUP2 LT ISZERO PUSH2 0x2DD JUMPI PUSH0 DUP2 SWAP1 DUP1 PUSH1 0x1 DUP2 SLOAD ADD DUP1 DUP3 SSTORE DUP1 SWAP2 POP POP PUSH1 0x1 SWAP1 SUB SWAP1 PUSH0 MSTORE PUSH1 0x20 PUSH0 KECCAK256 ADD PUSH0 SWAP1 SWAP2 SWAP1 SWAP2 SWAP1 SWAP2 POP SSTORE DUP1 DUP1 PUSH1 0x1 ADD SWAP2 POP POP PUSH2 0x2A2 JUMP JUMPDEST POP JUMP JUMPDEST PUSH1 0x60 PUSH0 DUP1 SLOAD DUP1 PUSH1 0x20 MUL PUSH1 0x20 ADD PUSH1 0x40 MLOAD SWAP1 DUP2 ADD PUSH1 0x40 MSTORE DUP1 SWAP3 SWAP2 SWAP1 DUP2 DUP2 MSTORE PUSH1 0x20 ADD DUP3 DUP1 SLOAD DUP1 ISZERO PUSH2 0x32B JUMPI PUSH1 0x20 MUL DUP3 ADD SWAP2 SWAP1 PUSH0 MSTORE PUSH1 0x20 PUSH0 KECCAK256 SWAP1 JUMPDEST DUP2 SLOAD DUP2 MSTORE PUSH1 0x20 ADD SWAP1 PUSH1 0x1 ADD SWAP1 DUP1 DUP4 GT PUSH2 0x317 JUMPI JUMPDEST POP POP POP POP POP SWAP1 POP SWAP1 JUMP JUMPDEST PUSH1 0x1 SLOAD DUP2 JUMP JUMPDEST PUSH0 JUMPDEST PUSH1 0x2 DUP1 SLOAD SWAP1 POP DUP2 LT ISZERO PUSH2 0x3D9 JUMPI PUSH0 PUSH1 0x2 DUP3 DUP2 SLOAD DUP2 LT PUSH2 0x35F JUMPI PUSH2 0x35E PUSH2 0x9EE JUMP JUMPDEST JUMPDEST SWAP1 PUSH0 MSTORE PUSH1 0x20 PUSH0 KECCAK256 ADD PUSH0 SWAP1 SLOAD SWAP1 PUSH2 0x100 EXP SWAP1 DIV PUSH20 0xFFFFFFFFFFFFFFFFFFFFFFFFFFFFFFFFFFFFFFFF AND SWAP1 POP PUSH0 PUSH1 0x3 PUSH0 DUP4 PUSH20 0xFFFFFFFFFFFFFFFFFFFFFFFFFFFFFFFFFFFFFFFF AND PUSH20 0xFFFFFFFFFFFFFFFFFFFFFFFFFFFFFFFFFFFFFFFF AND DUP2 MSTORE PUSH1 0x20 ADD SWAP1 DUP2 MSTORE PUSH1 0x20 ADD PUSH0 KECCAK256 DUP2 SWAP1 SSTORE POP POP DUP1 DUP1 PUSH1 0x1 ADD SWAP2 POP POP PUSH2 0x33D JUMP JUMPDEST POP PUSH0 PUSH8 0xFFFFFFFFFFFFFFFF DUP2 GT ISZERO PUSH2 0x3F4 JUMPI PUSH2 0x3F3 PUSH2 0xA1B JUMP JUMPDEST JUMPDEST PUSH1 0x40 MLOAD SWAP1 DUP1 DUP3 MSTORE DUP1 PUSH1 0x20 MUL PUSH1 0x20 ADD DUP3 ADD PUSH1 0x40 MSTORE DUP1 ISZERO PUSH2 0x422 JUMPI DUP2 PUSH1 0x20 ADD PUSH1 0x20 DUP3 MUL DUP1 CALLDATASIZE DUP4 CALLDATACOPY DUP1 DUP3 ADD SWAP2 POP POP SWAP1 POP JUMPDEST POP PUSH1 0x2 SWAP1 DUP1 MLOAD SWAP1 PUSH1 0x20 ADD SWAP1 PUSH2 0x438 SWAP3 SWAP2 SWAP1 PUSH2 0x73E JUMP JUMPDEST POP PUSH0 CALLER PUSH20 0xFFFFFFFFFFFFFFFFFFFFFFFFFFFFFFFFFFFFFFFF AND SELFBALANCE PUSH1 0x40 MLOAD PUSH2 0x45E SWAP1 PUSH2 0xA9C JUMP JUMPDEST PUSH0 PUSH1 0x40 MLOAD DUP1 DUP4 SUB DUP2 DUP6 DUP8 GAS CALL SWAP3 POP POP POP RETURNDATASIZE DUP1 PUSH0 DUP2 EQ PUSH2 0x498 JUMPI PUSH1 0x40 MLOAD SWAP2 POP PUSH1 0x1F NOT PUSH1 0x3F RETURNDATASIZE ADD AND DUP3 ADD PUSH1 0x40 MSTORE RETURNDATASIZE DUP3 MSTORE RETURNDATASIZE PUSH0 PUSH1 0x20 DUP5 ADD RETURNDATACOPY PUSH2 0x49D JUMP JUMPDEST PUSH1 0x60 SWAP2 POP JUMPDEST POP POP SWAP1 POP DUP1 PUSH2 0x4E1 JUMPI PUSH1 0x40 MLOAD PUSH32 0x8C379A000000000000000000000000000000000000000000000000000000000 DUP2 MSTORE PUSH1 0x4 ADD PUSH2 0x4D8 SWAP1 PUSH2 0xB0A JUMP JUMPDEST PUSH1 0x40 MLOAD DUP1 SWAP2 SUB SWAP1 REVERT JUMPDEST POP JUMP JUMPDEST PUSH0 PUSH1 0x2 DUP1 SLOAD SWAP1 POP SWAP1 POP SWAP1 JUMP JUMPDEST PUSH0 DUP2 DUP2 SLOAD DUP2 LT PUSH2 0x4FE JUMPI PUSH0 DUP1 REVERT JUMPDEST SWAP1 PUSH0 MSTORE PUSH1 0x20 PUSH0 KECCAK256 ADD PUSH0 SWAP2 POP SWAP1 POP SLOAD DUP2 JUMP JUMPDEST PUSH1 0x1 SLOAD PUSH2 0x51B CALLVALUE PUSH2 0x661 JUMP JUMPDEST GT PUSH2 0x55B JUMPI PUSH1 0x40 MLOAD PUSH32 0x8C379A000000000000000000000000000000000000000000000000000000000 DUP2 MSTORE PUSH1 0x4 ADD PUSH2 0x552 SWAP1 PUSH2 0xB72 JUMP JUMPDEST PUSH1 0x40 MLOAD DUP1 SWAP2 SUB SWAP1 REVERT JUMPDEST PUSH1 0x2 CALLER SWAP1 DUP1 PUSH1 0x1 DUP2 SLOAD ADD DUP1 DUP3 SSTORE DUP1 SWAP2 POP POP PUSH1 0x1 SWAP1 SUB SWAP1 PUSH0 MSTORE PUSH1 0x20 PUSH0 KECCAK256 ADD PUSH0 SWAP1 SWAP2 SWAP1 SWAP2 SWAP1 SWAP2 PUSH2 0x100 EXP DUP2 SLOAD DUP2 PUSH20 0xFFFFFFFFFFFFFFFFFFFFFFFFFFFFFFFFFFFFFFFF MUL NOT AND SWAP1 DUP4 PUSH20 0xFFFFFFFFFFFFFFFFFFFFFFFFFFFFFFFFFFFFFFFF AND MUL OR SWAP1 SSTORE POP CALLVALUE PUSH1 0x3 PUSH0 CALLER PUSH20 0xFFFFFFFFFFFFFFFFFFFFFFFFFFFFFFFFFFFFFFFF AND PUSH20 0xFFFFFFFFFFFFFFFFFFFFFFFFFFFFFFFFFFFFFFFF AND DUP2 MSTORE PUSH1 0x20 ADD SWAP1 DUP2 MSTORE PUSH1 0x20 ADD PUSH0 KECCAK256 SLOAD PUSH2 0x604 SWAP2 SWAP1 PUSH2 0xBBD JUMP JUMPDEST PUSH1 0x3 PUSH0 CALLER PUSH20 0xFFFFFFFFFFFFFFFFFFFFFFFFFFFFFFFFFFFFFFFF AND PUSH20 0xFFFFFFFFFFFFFFFFFFFFFFFFFFFFFFFFFFFFFFFF AND DUP2 MSTORE PUSH1 0x20 ADD SWAP1 DUP2 MSTORE PUSH1 0x20 ADD PUSH0 KECCAK256 DUP2 SWAP1 SSTORE POP JUMP JUMPDEST PUSH0 DUP1 DUP3 DUP5 PUSH2 0x655 SWAP2 SWAP1 PUSH2 0xBBD JUMP JUMPDEST SWAP1 POP DUP1 SWAP2 POP POP SWAP3 SWAP2 POP POP JUMP JUMPDEST PUSH0 DUP1 PUSH2 0x66B PUSH2 0x699 JUMP JUMPDEST SWAP1 POP PUSH0 PUSH8 0xDE0B6B3A7640000 DUP3 DUP6 PUSH2 0x683 SWAP2 SWAP1 PUSH2 0xBF0 JUMP JUMPDEST PUSH2 0x68D SWAP2 SWAP1 PUSH2 0xC5E JUMP JUMPDEST SWAP1 POP DUP1 SWAP3 POP POP POP SWAP2 SWAP1 POP JUMP JUMPDEST PUSH0 DUP1 PUSH20 0x694AA1769357215DE4FAC081BF1F309ADC325306 SWAP1 POP PUSH0 DUP2 PUSH20 0xFFFFFFFFFFFFFFFFFFFFFFFFFFFFFFFFFFFFFFFF AND PUSH4 0xFEAF968C PUSH1 0x40 MLOAD DUP2 PUSH4 0xFFFFFFFF AND PUSH1 0xE0 SHL DUP2 MSTORE PUSH1 0x4 ADD PUSH1 0xA0 PUSH1 0x40 MLOAD DUP1 DUP4 SUB DUP2 DUP7 GAS STATICCALL ISZERO DUP1 ISZERO PUSH2 0x6FC JUMPI RETURNDATASIZE PUSH0 DUP1 RETURNDATACOPY RETURNDATASIZE PUSH0 REVERT JUMPDEST POP POP POP POP PUSH1 0x40 MLOAD RETURNDATASIZE PUSH1 0x1F NOT PUSH1 0x1F DUP3 ADD AND DUP3 ADD DUP1 PUSH1 0x40 MSTORE POP DUP2 ADD SWAP1 PUSH2 0x720 SWAP2 SWAP1 PUSH2 0xD14 JUMP JUMPDEST POP POP POP SWAP2 POP POP PUSH5 0x2540BE400 DUP2 PUSH2 0x737 SWAP2 SWAP1 PUSH2 0xD8B JUMP JUMPDEST SWAP3 POP POP POP SWAP1 JUMP JUMPDEST DUP3 DUP1 SLOAD DUP3 DUP3 SSTORE SWAP1 PUSH0 MSTORE PUSH1 0x20 PUSH0 KECCAK256 SWAP1 DUP2 ADD SWAP3 DUP3 ISZERO PUSH2 0x7B4 JUMPI SWAP2 PUSH1 0x20 MUL DUP3 ADD JUMPDEST DUP3 DUP2 GT ISZERO PUSH2 0x7B3 JUMPI DUP3 MLOAD DUP3 PUSH0 PUSH2 0x100 EXP DUP2 SLOAD DUP2 PUSH20 0xFFFFFFFFFFFFFFFFFFFFFFFFFFFFFFFFFFFFFFFF MUL NOT AND SWAP1 DUP4 PUSH20 0xFFFFFFFFFFFFFFFFFFFFFFFFFFFFFFFFFFFFFFFF AND MUL OR SWAP1 SSTORE POP SWAP2 PUSH1 0x20 ADD SWAP2 SWAP1 PUSH1 0x1 ADD SWAP1 PUSH2 0x75C JUMP JUMPDEST JUMPDEST POP SWAP1 POP PUSH2 0x7C1 SWAP2 SWAP1 PUSH2 0x7C5 JUMP JUMPDEST POP SWAP1 JUMP JUMPDEST JUMPDEST DUP1 DUP3 GT ISZERO PUSH2 0x7DC JUMPI PUSH0 DUP2 PUSH0 SWAP1 SSTORE POP PUSH1 0x1 ADD PUSH2 0x7C6 JUMP JUMPDEST POP SWAP1 JUMP JUMPDEST PUSH0 DUP1 REVERT JUMPDEST PUSH0 DUP2 SWAP1 POP SWAP2 SWAP1 POP JUMP JUMPDEST PUSH2 0x7F6 DUP2 PUSH2 0x7E4 JUMP JUMPDEST DUP2 EQ PUSH2 0x800 JUMPI PUSH0 DUP1 REVERT JUMPDEST POP JUMP JUMPDEST PUSH0 DUP2 CALLDATALOAD SWAP1 POP PUSH2 0x811 DUP2 PUSH2 0x7ED JUMP JUMPDEST SWAP3 SWAP2 POP POP JUMP JUMPDEST PUSH0 PUSH1 0x20 DUP3 DUP5 SUB SLT ISZERO PUSH2 0x82C JUMPI PUSH2 0x82B PUSH2 0x7E0 JUMP JUMPDEST JUMPDEST PUSH0 PUSH2 0x839 DUP5 DUP3 DUP6 ADD PUSH2 0x803 JUMP JUMPDEST SWAP2 POP POP SWAP3 SWAP2 POP POP JUMP JUMPDEST PUSH0 PUSH20 0xFFFFFFFFFFFFFFFFFFFFFFFFFFFFFFFFFFFFFFFF DUP3 AND SWAP1 POP SWAP2 SWAP1 POP JUMP JUMPDEST PUSH0 PUSH2 0x86B DUP3 PUSH2 0x842 JUMP JUMPDEST SWAP1 POP SWAP2 SWAP1 POP JUMP JUMPDEST PUSH2 0x87B DUP2 PUSH2 0x861 JUMP JUMPDEST DUP3 MSTORE POP POP JUMP JUMPDEST PUSH0 PUSH1 0x20 DUP3 ADD SWAP1 POP PUSH2 0x894 PUSH0 DUP4 ADD DUP5 PUSH2 0x872 JUMP JUMPDEST SWAP3 SWAP2 POP POP JUMP JUMPDEST PUSH2 0x8A3 DUP2 PUSH2 0x861 JUMP JUMPDEST DUP2 EQ PUSH2 0x8AD JUMPI PUSH0 DUP1 REVERT JUMPDEST POP JUMP JUMPDEST PUSH0 DUP2 CALLDATALOAD SWAP1 POP PUSH2 0x8BE DUP2 PUSH2 0x89A JUMP JUMPDEST SWAP3 SWAP2 POP POP JUMP JUMPDEST PUSH0 PUSH1 0x20 DUP3 DUP5 SUB SLT ISZERO PUSH2 0x8D9 JUMPI PUSH2 0x8D8 PUSH2 0x7E0 JUMP JUMPDEST JUMPDEST PUSH0 PUSH2 0x8E6 DUP5 DUP3 DUP6 ADD PUSH2 0x8B0 JUMP JUMPDEST SWAP2 POP POP SWAP3 SWAP2 POP POP JUMP JUMPDEST PUSH2 0x8F8 DUP2 PUSH2 0x7E4 JUMP JUMPDEST DUP3 MSTORE POP POP JUMP JUMPDEST PUSH0 PUSH1 0x20 DUP3 ADD SWAP1 POP PUSH2 0x911 PUSH0 DUP4 ADD DUP5 PUSH2 0x8EF JUMP JUMPDEST SWAP3 SWAP2 POP POP JUMP JUMPDEST PUSH0 DUP2 MLOAD SWAP1 POP SWAP2 SWAP1 POP JUMP JUMPDEST PUSH0 DUP3 DUP3 MSTORE PUSH1 0x20 DUP3 ADD SWAP1 POP SWAP3 SWAP2 POP POP JUMP JUMPDEST PUSH0 DUP2 SWAP1 POP PUSH1 0x20 DUP3 ADD SWAP1 POP SWAP2 SWAP1 POP JUMP JUMPDEST PUSH2 0x949 DUP2 PUSH2 0x7E4 JUMP JUMPDEST DUP3 MSTORE POP POP JUMP JUMPDEST PUSH0 PUSH2 0x95A DUP4 DUP4 PUSH2 0x940 JUMP JUMPDEST PUSH1 0x20 DUP4 ADD SWAP1 POP SWAP3 SWAP2 POP POP JUMP JUMPDEST PUSH0 PUSH1 0x20 DUP3 ADD SWAP1 POP SWAP2 SWAP1 POP JUMP JUMPDEST PUSH0 PUSH2 0x97C DUP3 PUSH2 0x917 JUMP JUMPDEST PUSH2 0x986 DUP2 DUP6 PUSH2 0x921 JUMP JUMPDEST SWAP4 POP PUSH2 0x991 DUP4 PUSH2 0x931 JUMP JUMPDEST DUP1 PUSH0 JUMPDEST DUP4 DUP2 LT ISZERO PUSH2 0x9C1 JUMPI DUP2 MLOAD PUSH2 0x9A8 DUP9 DUP3 PUSH2 0x94F JUMP JUMPDEST SWAP8 POP PUSH2 0x9B3 DUP4 PUSH2 0x966 JUMP JUMPDEST SWAP3 POP POP PUSH1 0x1 DUP2 ADD SWAP1 POP PUSH2 0x994 JUMP JUMPDEST POP DUP6 SWAP4 POP POP POP POP SWAP3 SWAP2 POP POP JUMP JUMPDEST PUSH0 PUSH1 0x20 DUP3 ADD SWAP1 POP DUP2 DUP2 SUB PUSH0 DUP4 ADD MSTORE PUSH2 0x9E6 DUP2 DUP5 PUSH2 0x972 JUMP JUMPDEST SWAP1 POP SWAP3 SWAP2 POP POP JUMP JUMPDEST PUSH32 0x4E487B7100000000000000000000000000000000000000000000000000000000 PUSH0 MSTORE PUSH1 0x32 PUSH1 0x4 MSTORE PUSH1 0x24 PUSH0 REVERT JUMPDEST PUSH32 0x4E487B7100000000000000000000000000000000000000000000000000000000 PUSH0 MSTORE PUSH1 0x41 PUSH1 0x4 MSTORE PUSH1 0x24 PUSH0 REVERT JUMPDEST PUSH0 DUP2 SWAP1 POP SWAP3 SWAP2 POP POP JUMP JUMPDEST PUSH32 0x2000000000000000000000000000000000000000000000000000000000000000 PUSH0 DUP3 ADD MSTORE POP JUMP JUMPDEST PUSH0 PUSH2 0xA86 PUSH1 0x1 DUP4 PUSH2 0xA48 JUMP JUMPDEST SWAP2 POP PUSH2 0xA91 DUP3 PUSH2 0xA52 JUMP JUMPDEST PUSH1 0x1 DUP3 ADD SWAP1 POP SWAP2 SWAP1 POP JUMP JUMPDEST PUSH0 PUSH2 0xAA6 DUP3 PUSH2 0xA7A JUMP JUMPDEST SWAP2 POP DUP2 SWAP1 POP SWAP2 SWAP1 POP JUMP JUMPDEST PUSH0 DUP3 DUP3 MSTORE PUSH1 0x20 DUP3 ADD SWAP1 POP SWAP3 SWAP2 POP POP JUMP JUMPDEST PUSH32 0x6661696C65642063616C6C000000000000000000000000000000000000000000 PUSH0 DUP3 ADD MSTORE POP JUMP JUMPDEST PUSH0 PUSH2 0xAF4 PUSH1 0xB DUP4 PUSH2 0xAB0 JUMP JUMPDEST SWAP2 POP PUSH2 0xAFF DUP3 PUSH2 0xAC0 JUMP JUMPDEST PUSH1 0x20 DUP3 ADD SWAP1 POP SWAP2 SWAP1 POP JUMP JUMPDEST PUSH0 PUSH1 0x20 DUP3 ADD SWAP1 POP DUP2 DUP2 SUB PUSH0 DUP4 ADD MSTORE PUSH2 0xB21 DUP2 PUSH2 0xAE8 JUMP JUMPDEST SWAP1 POP SWAP2 SWAP1 POP JUMP JUMPDEST PUSH32 0x646F65736E27742073617469736679206D79206E656564200000000000000000 PUSH0 DUP3 ADD MSTORE POP JUMP JUMPDEST PUSH0 PUSH2 0xB5C PUSH1 0x18 DUP4 PUSH2 0xAB0 JUMP JUMPDEST SWAP2 POP PUSH2 0xB67 DUP3 PUSH2 0xB28 JUMP JUMPDEST PUSH1 0x20 DUP3 ADD SWAP1 POP SWAP2 SWAP1 POP JUMP JUMPDEST PUSH0 PUSH1 0x20 DUP3 ADD SWAP1 POP DUP2 DUP2 SUB PUSH0 DUP4 ADD MSTORE PUSH2 0xB89 DUP2 PUSH2 0xB50 JUMP JUMPDEST SWAP1 POP SWAP2 SWAP1 POP JUMP JUMPDEST PUSH32 0x4E487B7100000000000000000000000000000000000000000000000000000000 PUSH0 MSTORE PUSH1 0x11 PUSH1 0x4 MSTORE PUSH1 0x24 PUSH0 REVERT JUMPDEST PUSH0 PUSH2 0xBC7 DUP3 PUSH2 0x7E4 JUMP JUMPDEST SWAP2 POP PUSH2 0xBD2 DUP4 PUSH2 0x7E4 JUMP JUMPDEST SWAP3 POP DUP3 DUP3 ADD SWAP1 POP DUP1 DUP3 GT ISZERO PUSH2 0xBEA JUMPI PUSH2 0xBE9 PUSH2 0xB90 JUMP JUMPDEST JUMPDEST SWAP3 SWAP2 POP POP JUMP JUMPDEST PUSH0 PUSH2 0xBFA DUP3 PUSH2 0x7E4 JUMP JUMPDEST SWAP2 POP PUSH2 0xC05 DUP4 PUSH2 0x7E4 JUMP JUMPDEST SWAP3 POP DUP3 DUP3 MUL PUSH2 0xC13 DUP2 PUSH2 0x7E4 JUMP JUMPDEST SWAP2 POP DUP3 DUP3 DIV DUP5 EQ DUP4 ISZERO OR PUSH2 0xC2A JUMPI PUSH2 0xC29 PUSH2 0xB90 JUMP JUMPDEST JUMPDEST POP SWAP3 SWAP2 POP POP JUMP JUMPDEST PUSH32 0x4E487B7100000000000000000000000000000000000000000000000000000000 PUSH0 MSTORE PUSH1 0x12 PUSH1 0x4 MSTORE PUSH1 0x24 PUSH0 REVERT JUMPDEST PUSH0 PUSH2 0xC68 DUP3 PUSH2 0x7E4 JUMP JUMPDEST SWAP2 POP PUSH2 0xC73 DUP4 PUSH2 0x7E4 JUMP JUMPDEST SWAP3 POP DUP3 PUSH2 0xC83 JUMPI PUSH2 0xC82 PUSH2 0xC31 JUMP JUMPDEST JUMPDEST DUP3 DUP3 DIV SWAP1 POP SWAP3 SWAP2 POP POP JUMP JUMPDEST PUSH0 PUSH10 0xFFFFFFFFFFFFFFFFFFFF DUP3 AND SWAP1 POP SWAP2 SWAP1 POP JUMP JUMPDEST PUSH2 0xCAC DUP2 PUSH2 0xC8E JUMP JUMPDEST DUP2 EQ PUSH2 0xCB6 JUMPI PUSH0 DUP1 REVERT JUMPDEST POP JUMP JUMPDEST PUSH0 DUP2 MLOAD SWAP1 POP PUSH2 0xCC7 DUP2 PUSH2 0xCA3 JUMP JUMPDEST SWAP3 SWAP2 POP POP JUMP JUMPDEST PUSH0 DUP2 SWAP1 POP SWAP2 SWAP1 POP JUMP JUMPDEST PUSH2 0xCDF DUP2 PUSH2 0xCCD JUMP JUMPDEST DUP2 EQ PUSH2 0xCE9 JUMPI PUSH0 DUP1 REVERT JUMPDEST POP JUMP JUMPDEST PUSH0 DUP2 MLOAD SWAP1 POP PUSH2 0xCFA DUP2 PUSH2 0xCD6 JUMP JUMPDEST SWAP3 SWAP2 POP POP JUMP JUMPDEST PUSH0 DUP2 MLOAD SWAP1 POP PUSH2 0xD0E DUP2 PUSH2 0x7ED JUMP JUMPDEST SWAP3 SWAP2 POP POP JUMP JUMPDEST PUSH0 DUP1 PUSH0 DUP1 PUSH0 PUSH1 0xA0 DUP7 DUP9 SUB SLT ISZERO PUSH2 0xD2D JUMPI PUSH2 0xD2C PUSH2 0x7E0 JUMP JUMPDEST JUMPDEST PUSH0 PUSH2 0xD3A DUP9 DUP3 DUP10 ADD PUSH2 0xCB9 JUMP JUMPDEST SWAP6 POP POP PUSH1 0x20 PUSH2 0xD4B DUP9 DUP3 DUP10 ADD PUSH2 0xCEC JUMP JUMPDEST SWAP5 POP POP PUSH1 0x40 PUSH2 0xD5C DUP9 DUP3 DUP10 ADD PUSH2 0xD00 JUMP JUMPDEST SWAP4 POP POP PUSH1 0x60 PUSH2 0xD6D DUP9 DUP3 DUP10 ADD PUSH2 0xD00 JUMP JUMPDEST SWAP3 POP POP PUSH1 0x80 PUSH2 0xD7E DUP9 DUP3 DUP10 ADD PUSH2 0xCB9 JUMP JUMPDEST SWAP2 POP POP SWAP3 SWAP6 POP SWAP3 SWAP6 SWAP1 SWAP4 POP JUMP JUMPDEST PUSH0 PUSH2 0xD95 DUP3 PUSH2 0xCCD JUMP JUMPDEST SWAP2 POP PUSH2 0xDA0 DUP4 PUSH2 0xCCD JUMP JUMPDEST SWAP3 POP DUP3 DUP3 MUL PUSH2 0xDAE DUP2 PUSH2 0xCCD JUMP JUMPDEST SWAP2 POP PUSH32 0x8000000000000000000000000000000000000000000000000000000000000000 DUP5 EQ PUSH0 DUP5 SLT AND ISZERO PUSH2 0xDE5 JUMPI PUSH2 0xDE4 PUSH2 0xB90 JUMP JUMPDEST JUMPDEST DUP3 DUP3 SDIV DUP5 EQ DUP4 ISZERO OR PUSH2 0xDFA JUMPI PUSH2 0xDF9 PUSH2 0xB90 JUMP JUMPDEST JUMPDEST POP SWAP3 SWAP2 POP POP JUMP INVALID LOG2 PUSH5 0x6970667358 0x22 SLT KECCAK256 0xCA 0xDA 0xED 0xE JUMPDEST 0xD8 SGT 0x4E STOP NUMBER 0x29 SMOD 0xC2 PUSH8 0x7026B4B398B0F25B TSTORE 0xC DUP10 EXTCODEHASH STOP 0xEF GAS 0xCD SWAP9 0x4C PUSH5 0x736F6C6343 STOP ADDMOD XOR STOP CALLER "
				},
				"gasEstimates": {
					"creation": {
						"codeDepositCost": "727800",
						"executionCost": "22864",
						"totalCost": "750664"
					},
					"external": {
						"addingtoarray()": "infinite",
						"addresstoAmountfunded(address)": "2825",
						"calculatesum()": "infinite",
						"contributionCount()": "2484",
						"funder(uint256)": "4945",
						"fundme()": "infinite",
						"minimumUSD()": "2425",
						"pushthenumber(uint256)": "infinite",
						"retrieve()": "infinite",
						"withdraw()": "infinite"
					}
				},
				"methodIdentifiers": {
					"addingtoarray()": "2e01594f",
					"addresstoAmountfunded(address)": "221ace14",
					"calculatesum()": "288c3d17",
					"contributionCount()": "5b18056b",
					"funder(uint256)": "1f2c9238",
					"fundme()": "d1d9165d",
					"minimumUSD()": "3430a88c",
					"pushthenumber(uint256)": "89ffce48",
					"retrieve()": "2e64cec1",
					"withdraw()": "3ccfd60b"
				}
			},
			"storageLayout": {
				"storage": [
					{
						"astId": 59,
						"contract": "contracts/fundme.sol:Fundme",
						"label": "pushthenumber",
						"offset": 0,
						"slot": "0",
						"type": "t_array(t_uint256)dyn_storage"
					},
					{
						"astId": 62,
						"contract": "contracts/fundme.sol:Fundme",
						"label": "minimumUSD",
						"offset": 0,
						"slot": "1",
						"type": "t_uint256"
					},
					{
						"astId": 65,
						"contract": "contracts/fundme.sol:Fundme",
						"label": "funder",
						"offset": 0,
						"slot": "2",
						"type": "t_array(t_address)dyn_storage"
					},
					{
						"astId": 69,
						"contract": "contracts/fundme.sol:Fundme",
						"label": "addresstoAmountfunded",
						"offset": 0,
						"slot": "3",
						"type": "t_mapping(t_address,t_uint256)"
					}
				],
				"types": {
					"t_address": {
						"encoding": "inplace",
						"label": "address",
						"numberOfBytes": "20"
					},
					"t_array(t_address)dyn_storage": {
						"base": "t_address",
						"encoding": "dynamic_array",
						"label": "address[]",
						"numberOfBytes": "32"
					},
					"t_array(t_uint256)dyn_storage": {
						"base": "t_uint256",
						"encoding": "dynamic_array",
						"label": "uint256[]",
						"numberOfBytes": "32"
					},
					"t_mapping(t_address,t_uint256)": {
						"encoding": "mapping",
						"key": "t_address",
						"label": "mapping(address => uint256)",
						"numberOfBytes": "32",
						"value": "t_uint256"
					},
					"t_uint256": {
						"encoding": "inplace",
						"label": "uint256",
						"numberOfBytes": "32"
					}
				}
			},
			"userdoc": {
				"kind": "user",
				"methods": {},
				"version": 1
			}
		}
	}
}