{
	"contracts/fundme.sol": {
		"Fundme": {
			"abi": [
				{
					"inputs": [
						{
							"internalType": "address",
							"name": "funder",
							"type": "address"
						}
					],
					"name": "addresstoAmountfunded",
					"outputs": [
						{
							"internalType": "uint256",
							"name": "amountfunded",
							"type": "uint256"
						}
					],
					"stateMutability": "view",
					"type": "function"
				},
				{
					"inputs": [],
					"name": "contributionCount",
					"outputs": [
						{
							"internalType": "uint256",
							"name": "",
							"type": "uint256"
						}
					],
					"stateMutability": "view",
					"type": "function"
				},
				{
					"inputs": [
						{
							"internalType": "uint256",
							"name": "",
							"type": "uint256"
						}
					],
					"name": "funder",
					"outputs": [
						{
							"internalType": "address",
							"name": "",
							"type": "address"
						}
					],
					"stateMutability": "view",
					"type": "function"
				},
				{
					"inputs": [],
					"name": "fundme",
					"outputs": [],
					"stateMutability": "payable",
					"type": "function"
				},
				{
					"inputs": [],
					"name": "minimumUSD",
					"outputs": [
						{
							"internalType": "uint256",
							"name": "",
							"type": "uint256"
						}
					],
					"stateMutability": "view",
					"type": "function"
				}
			],
			"devdoc": {
				"kind": "dev",
				"methods": {},
				"version": 1
			},
			"evm": {
				"assembly": "    /* \"contracts/fundme.sol\":835:1609  contract Fundme{... */\n  mstore(0x40, 0x80)\n    /* \"contracts/fundme.sol\":925:929  5e18 */\n  0x4563918244f40000\n    /* \"contracts/fundme.sol\":898:929  uint256 public minimumUSD =5e18 */\n  0x00\n  sstore\n    /* \"contracts/fundme.sol\":835:1609  contract Fundme{... */\n  callvalue\n  dup1\n  iszero\n  tag_1\n  jumpi\n  0x00\n  dup1\n  revert\ntag_1:\n  pop\n  dataSize(sub_0)\n  dup1\n  dataOffset(sub_0)\n  0x00\n  codecopy\n  0x00\n  return\nstop\n\nsub_0: assembly {\n        /* \"contracts/fundme.sol\":835:1609  contract Fundme{... */\n      mstore(0x40, 0x80)\n      jumpi(tag_1, lt(calldatasize, 0x04))\n      shr(0xe0, calldataload(0x00))\n      dup1\n      0x1f2c9238\n      eq\n      tag_2\n      jumpi\n      dup1\n      0x221ace14\n      eq\n      tag_3\n      jumpi\n      dup1\n      0x3430a88c\n      eq\n      tag_4\n      jumpi\n      dup1\n      0x5b18056b\n      eq\n      tag_5\n      jumpi\n      dup1\n      0xd1d9165d\n      eq\n      tag_6\n      jumpi\n    tag_1:\n      0x00\n      dup1\n      revert\n        /* \"contracts/fundme.sol\":938:961  address[] public funder */\n    tag_2:\n      callvalue\n      dup1\n      iszero\n      tag_7\n      jumpi\n      0x00\n      dup1\n      revert\n    tag_7:\n      pop\n      tag_8\n      0x04\n      dup1\n      calldatasize\n      sub\n      dup2\n      add\n      swap1\n      tag_9\n      swap2\n      swap1\n      tag_10\n      jump\t// in\n    tag_9:\n      tag_11\n      jump\t// in\n    tag_8:\n      mload(0x40)\n      tag_12\n      swap2\n      swap1\n      tag_13\n      jump\t// in\n    tag_12:\n      mload(0x40)\n      dup1\n      swap2\n      sub\n      swap1\n      return\n        /* \"contracts/fundme.sol\":970:1048  mapping (address funder => uint256 amountfunded ) public addresstoAmountfunded */\n    tag_3:\n      callvalue\n      dup1\n      iszero\n      tag_14\n      jumpi\n      0x00\n      dup1\n      revert\n    tag_14:\n      pop\n      tag_15\n      0x04\n      dup1\n      calldatasize\n      sub\n      dup2\n      add\n      swap1\n      tag_16\n      swap2\n      swap1\n      tag_17\n      jump\t// in\n    tag_16:\n      tag_18\n      jump\t// in\n    tag_15:\n      mload(0x40)\n      tag_19\n      swap2\n      swap1\n      tag_20\n      jump\t// in\n    tag_19:\n      mload(0x40)\n      dup1\n      swap2\n      sub\n      swap1\n      return\n        /* \"contracts/fundme.sol\":898:929  uint256 public minimumUSD =5e18 */\n    tag_4:\n      callvalue\n      dup1\n      iszero\n      tag_21\n      jumpi\n      0x00\n      dup1\n      revert\n    tag_21:\n      pop\n      tag_22\n      tag_23\n      jump\t// in\n    tag_22:\n      mload(0x40)\n      tag_24\n      swap2\n      swap1\n      tag_20\n      jump\t// in\n    tag_24:\n      mload(0x40)\n      dup1\n      swap2\n      sub\n      swap1\n      return\n        /* \"contracts/fundme.sol\":1508:1604  function contributionCount() public view returns(uint256){... */\n    tag_5:\n      callvalue\n      dup1\n      iszero\n      tag_25\n      jumpi\n      0x00\n      dup1\n      revert\n    tag_25:\n      pop\n      tag_26\n      tag_27\n      jump\t// in\n    tag_26:\n      mload(0x40)\n      tag_28\n      swap2\n      swap1\n      tag_20\n      jump\t// in\n    tag_28:\n      mload(0x40)\n      dup1\n      swap2\n      sub\n      swap1\n      return\n        /* \"contracts/fundme.sol\":1057:1496  function fundme () public payable {... */\n    tag_6:\n      tag_29\n      tag_30\n      jump\t// in\n    tag_29:\n      stop\n        /* \"contracts/fundme.sol\":938:961  address[] public funder */\n    tag_11:\n      0x01\n      dup2\n      dup2\n      sload\n      dup2\n      lt\n      tag_31\n      jumpi\n      0x00\n      dup1\n      revert\n    tag_31:\n      swap1\n      0x00\n      mstore\n      keccak256(0x00, 0x20)\n      add\n      0x00\n      swap2\n      pop\n      sload\n      swap1\n      0x0100\n      exp\n      swap1\n      div\n      0xffffffffffffffffffffffffffffffffffffffff\n      and\n      dup2\n      jump\t// out\n        /* \"contracts/fundme.sol\":970:1048  mapping (address funder => uint256 amountfunded ) public addresstoAmountfunded */\n    tag_18:\n      mstore(0x20, 0x02)\n      dup1\n      0x00\n      mstore\n      keccak256(0x00, 0x40)\n      0x00\n      swap2\n      pop\n      swap1\n      pop\n      sload\n      dup2\n      jump\t// out\n        /* \"contracts/fundme.sol\":898:929  uint256 public minimumUSD =5e18 */\n    tag_23:\n      sload(0x00)\n      dup2\n      jump\t// out\n        /* \"contracts/fundme.sol\":1508:1604  function contributionCount() public view returns(uint256){... */\n    tag_27:\n        /* \"contracts/fundme.sol\":1557:1564  uint256 */\n      0x00\n        /* \"contracts/fundme.sol\":1583:1589  funder */\n      0x01\n        /* \"contracts/fundme.sol\":1583:1596  funder.length */\n      dup1\n      sload\n      swap1\n      pop\n        /* \"contracts/fundme.sol\":1576:1596  return funder.length */\n      swap1\n      pop\n        /* \"contracts/fundme.sol\":1508:1604  function contributionCount() public view returns(uint256){... */\n      swap1\n      jump\t// out\n        /* \"contracts/fundme.sol\":1057:1496  function fundme () public payable {... */\n    tag_30:\n        /* \"contracts/fundme.sol\":1271:1281  minimumUSD */\n      sload(0x00)\n        /* \"contracts/fundme.sol\":1239:1268  msg.value.getConversionrate() */\n      tag_35\n        /* \"contracts/fundme.sol\":1239:1248  msg.value */\n      callvalue\n        /* \"contracts/fundme.sol\":1239:1266  msg.value.getConversionrate */\n      tag_36\n        /* \"contracts/fundme.sol\":1239:1268  msg.value.getConversionrate() */\n      jump\t// in\n    tag_35:\n        /* \"contracts/fundme.sol\":1239:1281  msg.value.getConversionrate() > minimumUSD */\n      gt\n        /* \"contracts/fundme.sol\":1231:1310  require(msg.value.getConversionrate() > minimumUSD, \"doesn't satisfy my need \") */\n      tag_37\n      jumpi\n      mload(0x40)\n      0x08c379a000000000000000000000000000000000000000000000000000000000\n      dup2\n      mstore\n      0x04\n      add\n      tag_38\n      swap1\n      tag_39\n      jump\t// in\n    tag_38:\n      mload(0x40)\n      dup1\n      swap2\n      sub\n      swap1\n      revert\n    tag_37:\n        /* \"contracts/fundme.sol\":1322:1328  funder */\n      0x01\n        /* \"contracts/fundme.sol\":1334:1344  msg.sender */\n      caller\n        /* \"contracts/fundme.sol\":1322:1345  funder.push(msg.sender) */\n      swap1\n      dup1\n      0x01\n      dup2\n      sload\n      add\n      dup1\n      dup3\n      sstore\n      dup1\n      swap2\n      pop\n      pop\n      0x01\n      swap1\n      sub\n      swap1\n      0x00\n      mstore\n      keccak256(0x00, 0x20)\n      add\n      0x00\n      swap1\n      swap2\n      swap1\n      swap2\n      swap1\n      swap2\n      0x0100\n      exp\n      dup2\n      sload\n      dup2\n      0xffffffffffffffffffffffffffffffffffffffff\n      mul\n      not\n      and\n      swap1\n      dup4\n      0xffffffffffffffffffffffffffffffffffffffff\n      and\n      mul\n      or\n      swap1\n      sstore\n      pop\n        /* \"contracts/fundme.sol\":1428:1437  msg.value */\n      callvalue\n        /* \"contracts/fundme.sol\":1392:1413  addresstoAmountfunded */\n      0x02\n        /* \"contracts/fundme.sol\":1392:1425  addresstoAmountfunded[msg.sender] */\n      0x00\n        /* \"contracts/fundme.sol\":1414:1424  msg.sender */\n      caller\n        /* \"contracts/fundme.sol\":1392:1425  addresstoAmountfunded[msg.sender] */\n      0xffffffffffffffffffffffffffffffffffffffff\n      and\n      0xffffffffffffffffffffffffffffffffffffffff\n      and\n      dup2\n      mstore\n      0x20\n      add\n      swap1\n      dup2\n      mstore\n      0x20\n      add\n      0x00\n      keccak256\n      sload\n        /* \"contracts/fundme.sol\":1392:1437  addresstoAmountfunded[msg.sender] + msg.value */\n      tag_41\n      swap2\n      swap1\n      tag_42\n      jump\t// in\n    tag_41:\n        /* \"contracts/fundme.sol\":1356:1377  addresstoAmountfunded */\n      0x02\n        /* \"contracts/fundme.sol\":1356:1389  addresstoAmountfunded[msg.sender] */\n      0x00\n        /* \"contracts/fundme.sol\":1378:1388  msg.sender */\n      caller\n        /* \"contracts/fundme.sol\":1356:1389  addresstoAmountfunded[msg.sender] */\n      0xffffffffffffffffffffffffffffffffffffffff\n      and\n      0xffffffffffffffffffffffffffffffffffffffff\n      and\n      dup2\n      mstore\n      0x20\n      add\n      swap1\n      dup2\n      mstore\n      0x20\n      add\n      0x00\n      keccak256\n        /* \"contracts/fundme.sol\":1356:1437  addresstoAmountfunded[msg.sender] = addresstoAmountfunded[msg.sender] + msg.value */\n      dup2\n      swap1\n      sstore\n      pop\n        /* \"contracts/fundme.sol\":1057:1496  function fundme () public payable {... */\n      jump\t// out\n        /* \"contracts/priceconverter.sol\":631:911  function getConversionrate(uint256 ethAmount) internal  view returns(uint256) {... */\n    tag_36:\n        /* \"contracts/priceconverter.sol\":700:707  uint256 */\n      0x00\n        /* \"contracts/priceconverter.sol\":779:795  uint256 ethprice */\n      dup1\n        /* \"contracts/priceconverter.sol\":798:808  getPrice() */\n      tag_44\n        /* \"contracts/priceconverter.sol\":798:806  getPrice */\n      tag_45\n        /* \"contracts/priceconverter.sol\":798:808  getPrice() */\n      jump\t// in\n    tag_44:\n        /* \"contracts/priceconverter.sol\":779:808  uint256 ethprice = getPrice() */\n      swap1\n      pop\n        /* \"contracts/priceconverter.sol\":819:841  uint256 ethAmountInUSD */\n      0x00\n        /* \"contracts/priceconverter.sol\":865:869  1e18 */\n      0x0de0b6b3a7640000\n        /* \"contracts/priceconverter.sol\":855:863  ethprice */\n      dup3\n        /* \"contracts/priceconverter.sol\":845:854  ethAmount */\n      dup6\n        /* \"contracts/priceconverter.sol\":845:863  ethAmount*ethprice */\n      tag_46\n      swap2\n      swap1\n      tag_47\n      jump\t// in\n    tag_46:\n        /* \"contracts/priceconverter.sol\":844:869  (ethAmount*ethprice)/1e18 */\n      tag_48\n      swap2\n      swap1\n      tag_49\n      jump\t// in\n    tag_48:\n        /* \"contracts/priceconverter.sol\":819:869  uint256 ethAmountInUSD = (ethAmount*ethprice)/1e18 */\n      swap1\n      pop\n        /* \"contracts/priceconverter.sol\":889:903  ethAmountInUSD */\n      dup1\n        /* \"contracts/priceconverter.sol\":882:903  return ethAmountInUSD */\n      swap3\n      pop\n      pop\n      pop\n        /* \"contracts/priceconverter.sol\":631:911  function getConversionrate(uint256 ethAmount) internal  view returns(uint256) {... */\n      swap2\n      swap1\n      pop\n      jump\t// out\n        /* \"contracts/priceconverter.sol\":205:623  function getPrice () internal view returns(uint256){... */\n    tag_45:\n        /* \"contracts/priceconverter.sol\":248:255  uint256 */\n      0x00\n        /* \"contracts/priceconverter.sol\":399:430  AggregatorV3Interface pricefeed */\n      dup1\n        /* \"contracts/priceconverter.sol\":454:496  0x694AA1769357215DE4FAC081bf1f309aDC325306 */\n      0x694aa1769357215de4fac081bf1f309adc325306\n        /* \"contracts/priceconverter.sol\":399:497  AggregatorV3Interface pricefeed= AggregatorV3Interface(0x694AA1769357215DE4FAC081bf1f309aDC325306) */\n      swap1\n      pop\n        /* \"contracts/priceconverter.sol\":510:523  int256 answer */\n      0x00\n        /* \"contracts/priceconverter.sol\":530:539  pricefeed */\n      dup2\n        /* \"contracts/priceconverter.sol\":530:555  pricefeed.latestRoundData */\n      0xffffffffffffffffffffffffffffffffffffffff\n      and\n      0xfeaf968c\n        /* \"contracts/priceconverter.sol\":530:557  pricefeed.latestRoundData() */\n      mload(0x40)\n      dup2\n      0xffffffff\n      and\n      0xe0\n      shl\n      dup2\n      mstore\n      0x04\n      add\n      0xa0\n      mload(0x40)\n      dup1\n      dup4\n      sub\n      dup2\n      dup7\n      gas\n      staticcall\n      iszero\n      dup1\n      iszero\n      tag_52\n      jumpi\n      returndatasize\n      0x00\n      dup1\n      returndatacopy\n      revert(0x00, returndatasize)\n    tag_52:\n      pop\n      pop\n      pop\n      pop\n      mload(0x40)\n      returndatasize\n      not(0x1f)\n      0x1f\n      dup3\n      add\n      and\n      dup3\n      add\n      dup1\n      0x40\n      mstore\n      pop\n      dup2\n      add\n      swap1\n      tag_53\n      swap2\n      swap1\n      tag_54\n      jump\t// in\n    tag_53:\n        /* \"contracts/priceconverter.sol\":508:557  (,int256 answer,,,) = pricefeed.latestRoundData() */\n      pop\n      pop\n      pop\n      swap2\n      pop\n      pop\n        /* \"contracts/priceconverter.sol\":610:614  1e10 */\n      0x02540be400\n        /* \"contracts/priceconverter.sol\":603:609  answer */\n      dup2\n        /* \"contracts/priceconverter.sol\":603:614  answer*1e10 */\n      tag_55\n      swap2\n      swap1\n      tag_56\n      jump\t// in\n    tag_55:\n        /* \"contracts/priceconverter.sol\":588:615  return uint256(answer*1e10) */\n      swap3\n      pop\n      pop\n      pop\n        /* \"contracts/priceconverter.sol\":205:623  function getPrice () internal view returns(uint256){... */\n      swap1\n      jump\t// out\n        /* \"#utility.yul\":88:205   */\n    tag_58:\n        /* \"#utility.yul\":197:198   */\n      0x00\n        /* \"#utility.yul\":194:195   */\n      dup1\n        /* \"#utility.yul\":187:199   */\n      revert\n        /* \"#utility.yul\":334:411   */\n    tag_60:\n        /* \"#utility.yul\":371:378   */\n      0x00\n        /* \"#utility.yul\":400:405   */\n      dup2\n        /* \"#utility.yul\":389:405   */\n      swap1\n      pop\n        /* \"#utility.yul\":334:411   */\n      swap2\n      swap1\n      pop\n      jump\t// out\n        /* \"#utility.yul\":417:539   */\n    tag_61:\n        /* \"#utility.yul\":490:514   */\n      tag_87\n        /* \"#utility.yul\":508:513   */\n      dup2\n        /* \"#utility.yul\":490:514   */\n      tag_60\n      jump\t// in\n    tag_87:\n        /* \"#utility.yul\":483:488   */\n      dup2\n        /* \"#utility.yul\":480:515   */\n      eq\n        /* \"#utility.yul\":470:533   */\n      tag_88\n      jumpi\n        /* \"#utility.yul\":529:530   */\n      0x00\n        /* \"#utility.yul\":526:527   */\n      dup1\n        /* \"#utility.yul\":519:531   */\n      revert\n        /* \"#utility.yul\":470:533   */\n    tag_88:\n        /* \"#utility.yul\":417:539   */\n      pop\n      jump\t// out\n        /* \"#utility.yul\":545:684   */\n    tag_62:\n        /* \"#utility.yul\":591:596   */\n      0x00\n        /* \"#utility.yul\":629:635   */\n      dup2\n        /* \"#utility.yul\":616:636   */\n      calldataload\n        /* \"#utility.yul\":607:636   */\n      swap1\n      pop\n        /* \"#utility.yul\":645:678   */\n      tag_90\n        /* \"#utility.yul\":672:677   */\n      dup2\n        /* \"#utility.yul\":645:678   */\n      tag_61\n      jump\t// in\n    tag_90:\n        /* \"#utility.yul\":545:684   */\n      swap3\n      swap2\n      pop\n      pop\n      jump\t// out\n        /* \"#utility.yul\":690:1019   */\n    tag_10:\n        /* \"#utility.yul\":749:755   */\n      0x00\n        /* \"#utility.yul\":798:800   */\n      0x20\n        /* \"#utility.yul\":786:795   */\n      dup3\n        /* \"#utility.yul\":777:784   */\n      dup5\n        /* \"#utility.yul\":773:796   */\n      sub\n        /* \"#utility.yul\":769:801   */\n      slt\n        /* \"#utility.yul\":766:885   */\n      iszero\n      tag_92\n      jumpi\n        /* \"#utility.yul\":804:883   */\n      tag_93\n      tag_58\n      jump\t// in\n    tag_93:\n        /* \"#utility.yul\":766:885   */\n    tag_92:\n        /* \"#utility.yul\":924:925   */\n      0x00\n        /* \"#utility.yul\":949:1002   */\n      tag_94\n        /* \"#utility.yul\":994:1001   */\n      dup5\n        /* \"#utility.yul\":985:991   */\n      dup3\n        /* \"#utility.yul\":974:983   */\n      dup6\n        /* \"#utility.yul\":970:992   */\n      add\n        /* \"#utility.yul\":949:1002   */\n      tag_62\n      jump\t// in\n    tag_94:\n        /* \"#utility.yul\":939:1002   */\n      swap2\n      pop\n        /* \"#utility.yul\":895:1012   */\n      pop\n        /* \"#utility.yul\":690:1019   */\n      swap3\n      swap2\n      pop\n      pop\n      jump\t// out\n        /* \"#utility.yul\":1025:1151   */\n    tag_63:\n        /* \"#utility.yul\":1062:1069   */\n      0x00\n        /* \"#utility.yul\":1102:1144   */\n      0xffffffffffffffffffffffffffffffffffffffff\n        /* \"#utility.yul\":1095:1100   */\n      dup3\n        /* \"#utility.yul\":1091:1145   */\n      and\n        /* \"#utility.yul\":1080:1145   */\n      swap1\n      pop\n        /* \"#utility.yul\":1025:1151   */\n      swap2\n      swap1\n      pop\n      jump\t// out\n        /* \"#utility.yul\":1157:1253   */\n    tag_64:\n        /* \"#utility.yul\":1194:1201   */\n      0x00\n        /* \"#utility.yul\":1223:1247   */\n      tag_97\n        /* \"#utility.yul\":1241:1246   */\n      dup3\n        /* \"#utility.yul\":1223:1247   */\n      tag_63\n      jump\t// in\n    tag_97:\n        /* \"#utility.yul\":1212:1247   */\n      swap1\n      pop\n        /* \"#utility.yul\":1157:1253   */\n      swap2\n      swap1\n      pop\n      jump\t// out\n        /* \"#utility.yul\":1259:1377   */\n    tag_65:\n        /* \"#utility.yul\":1346:1370   */\n      tag_99\n        /* \"#utility.yul\":1364:1369   */\n      dup2\n        /* \"#utility.yul\":1346:1370   */\n      tag_64\n      jump\t// in\n    tag_99:\n        /* \"#utility.yul\":1341:1344   */\n      dup3\n        /* \"#utility.yul\":1334:1371   */\n      mstore\n        /* \"#utility.yul\":1259:1377   */\n      pop\n      pop\n      jump\t// out\n        /* \"#utility.yul\":1383:1605   */\n    tag_13:\n        /* \"#utility.yul\":1476:1480   */\n      0x00\n        /* \"#utility.yul\":1514:1516   */\n      0x20\n        /* \"#utility.yul\":1503:1512   */\n      dup3\n        /* \"#utility.yul\":1499:1517   */\n      add\n        /* \"#utility.yul\":1491:1517   */\n      swap1\n      pop\n        /* \"#utility.yul\":1527:1598   */\n      tag_101\n        /* \"#utility.yul\":1595:1596   */\n      0x00\n        /* \"#utility.yul\":1584:1593   */\n      dup4\n        /* \"#utility.yul\":1580:1597   */\n      add\n        /* \"#utility.yul\":1571:1577   */\n      dup5\n        /* \"#utility.yul\":1527:1598   */\n      tag_65\n      jump\t// in\n    tag_101:\n        /* \"#utility.yul\":1383:1605   */\n      swap3\n      swap2\n      pop\n      pop\n      jump\t// out\n        /* \"#utility.yul\":1611:1733   */\n    tag_66:\n        /* \"#utility.yul\":1684:1708   */\n      tag_103\n        /* \"#utility.yul\":1702:1707   */\n      dup2\n        /* \"#utility.yul\":1684:1708   */\n      tag_64\n      jump\t// in\n    tag_103:\n        /* \"#utility.yul\":1677:1682   */\n      dup2\n        /* \"#utility.yul\":1674:1709   */\n      eq\n        /* \"#utility.yul\":1664:1727   */\n      tag_104\n      jumpi\n        /* \"#utility.yul\":1723:1724   */\n      0x00\n        /* \"#utility.yul\":1720:1721   */\n      dup1\n        /* \"#utility.yul\":1713:1725   */\n      revert\n        /* \"#utility.yul\":1664:1727   */\n    tag_104:\n        /* \"#utility.yul\":1611:1733   */\n      pop\n      jump\t// out\n        /* \"#utility.yul\":1739:1878   */\n    tag_67:\n        /* \"#utility.yul\":1785:1790   */\n      0x00\n        /* \"#utility.yul\":1823:1829   */\n      dup2\n        /* \"#utility.yul\":1810:1830   */\n      calldataload\n        /* \"#utility.yul\":1801:1830   */\n      swap1\n      pop\n        /* \"#utility.yul\":1839:1872   */\n      tag_106\n        /* \"#utility.yul\":1866:1871   */\n      dup2\n        /* \"#utility.yul\":1839:1872   */\n      tag_66\n      jump\t// in\n    tag_106:\n        /* \"#utility.yul\":1739:1878   */\n      swap3\n      swap2\n      pop\n      pop\n      jump\t// out\n        /* \"#utility.yul\":1884:2213   */\n    tag_17:\n        /* \"#utility.yul\":1943:1949   */\n      0x00\n        /* \"#utility.yul\":1992:1994   */\n      0x20\n        /* \"#utility.yul\":1980:1989   */\n      dup3\n        /* \"#utility.yul\":1971:1978   */\n      dup5\n        /* \"#utility.yul\":1967:1990   */\n      sub\n        /* \"#utility.yul\":1963:1995   */\n      slt\n        /* \"#utility.yul\":1960:2079   */\n      iszero\n      tag_108\n      jumpi\n        /* \"#utility.yul\":1998:2077   */\n      tag_109\n      tag_58\n      jump\t// in\n    tag_109:\n        /* \"#utility.yul\":1960:2079   */\n    tag_108:\n        /* \"#utility.yul\":2118:2119   */\n      0x00\n        /* \"#utility.yul\":2143:2196   */\n      tag_110\n        /* \"#utility.yul\":2188:2195   */\n      dup5\n        /* \"#utility.yul\":2179:2185   */\n      dup3\n        /* \"#utility.yul\":2168:2177   */\n      dup6\n        /* \"#utility.yul\":2164:2186   */\n      add\n        /* \"#utility.yul\":2143:2196   */\n      tag_67\n      jump\t// in\n    tag_110:\n        /* \"#utility.yul\":2133:2196   */\n      swap2\n      pop\n        /* \"#utility.yul\":2089:2206   */\n      pop\n        /* \"#utility.yul\":1884:2213   */\n      swap3\n      swap2\n      pop\n      pop\n      jump\t// out\n        /* \"#utility.yul\":2219:2337   */\n    tag_68:\n        /* \"#utility.yul\":2306:2330   */\n      tag_112\n        /* \"#utility.yul\":2324:2329   */\n      dup2\n        /* \"#utility.yul\":2306:2330   */\n      tag_60\n      jump\t// in\n    tag_112:\n        /* \"#utility.yul\":2301:2304   */\n      dup3\n        /* \"#utility.yul\":2294:2331   */\n      mstore\n        /* \"#utility.yul\":2219:2337   */\n      pop\n      pop\n      jump\t// out\n        /* \"#utility.yul\":2343:2565   */\n    tag_20:\n        /* \"#utility.yul\":2436:2440   */\n      0x00\n        /* \"#utility.yul\":2474:2476   */\n      0x20\n        /* \"#utility.yul\":2463:2472   */\n      dup3\n        /* \"#utility.yul\":2459:2477   */\n      add\n        /* \"#utility.yul\":2451:2477   */\n      swap1\n      pop\n        /* \"#utility.yul\":2487:2558   */\n      tag_114\n        /* \"#utility.yul\":2555:2556   */\n      0x00\n        /* \"#utility.yul\":2544:2553   */\n      dup4\n        /* \"#utility.yul\":2540:2557   */\n      add\n        /* \"#utility.yul\":2531:2537   */\n      dup5\n        /* \"#utility.yul\":2487:2558   */\n      tag_68\n      jump\t// in\n    tag_114:\n        /* \"#utility.yul\":2343:2565   */\n      swap3\n      swap2\n      pop\n      pop\n      jump\t// out\n        /* \"#utility.yul\":2571:2740   */\n    tag_69:\n        /* \"#utility.yul\":2655:2666   */\n      0x00\n        /* \"#utility.yul\":2689:2695   */\n      dup3\n        /* \"#utility.yul\":2684:2687   */\n      dup3\n        /* \"#utility.yul\":2677:2696   */\n      mstore\n        /* \"#utility.yul\":2729:2733   */\n      0x20\n        /* \"#utility.yul\":2724:2727   */\n      dup3\n        /* \"#utility.yul\":2720:2734   */\n      add\n        /* \"#utility.yul\":2705:2734   */\n      swap1\n      pop\n        /* \"#utility.yul\":2571:2740   */\n      swap3\n      swap2\n      pop\n      pop\n      jump\t// out\n        /* \"#utility.yul\":2746:2920   */\n    tag_70:\n        /* \"#utility.yul\":2886:2912   */\n      0x646f65736e27742073617469736679206d79206e656564200000000000000000\n        /* \"#utility.yul\":2882:2883   */\n      0x00\n        /* \"#utility.yul\":2874:2880   */\n      dup3\n        /* \"#utility.yul\":2870:2884   */\n      add\n        /* \"#utility.yul\":2863:2913   */\n      mstore\n        /* \"#utility.yul\":2746:2920   */\n      pop\n      jump\t// out\n        /* \"#utility.yul\":2926:3292   */\n    tag_71:\n        /* \"#utility.yul\":3068:3071   */\n      0x00\n        /* \"#utility.yul\":3089:3156   */\n      tag_118\n        /* \"#utility.yul\":3153:3155   */\n      0x18\n        /* \"#utility.yul\":3148:3151   */\n      dup4\n        /* \"#utility.yul\":3089:3156   */\n      tag_69\n      jump\t// in\n    tag_118:\n        /* \"#utility.yul\":3082:3156   */\n      swap2\n      pop\n        /* \"#utility.yul\":3165:3258   */\n      tag_119\n        /* \"#utility.yul\":3254:3257   */\n      dup3\n        /* \"#utility.yul\":3165:3258   */\n      tag_70\n      jump\t// in\n    tag_119:\n        /* \"#utility.yul\":3283:3285   */\n      0x20\n        /* \"#utility.yul\":3278:3281   */\n      dup3\n        /* \"#utility.yul\":3274:3286   */\n      add\n        /* \"#utility.yul\":3267:3286   */\n      swap1\n      pop\n        /* \"#utility.yul\":2926:3292   */\n      swap2\n      swap1\n      pop\n      jump\t// out\n        /* \"#utility.yul\":3298:3717   */\n    tag_39:\n        /* \"#utility.yul\":3464:3468   */\n      0x00\n        /* \"#utility.yul\":3502:3504   */\n      0x20\n        /* \"#utility.yul\":3491:3500   */\n      dup3\n        /* \"#utility.yul\":3487:3505   */\n      add\n        /* \"#utility.yul\":3479:3505   */\n      swap1\n      pop\n        /* \"#utility.yul\":3551:3560   */\n      dup2\n        /* \"#utility.yul\":3545:3549   */\n      dup2\n        /* \"#utility.yul\":3541:3561   */\n      sub\n        /* \"#utility.yul\":3537:3538   */\n      0x00\n        /* \"#utility.yul\":3526:3535   */\n      dup4\n        /* \"#utility.yul\":3522:3539   */\n      add\n        /* \"#utility.yul\":3515:3562   */\n      mstore\n        /* \"#utility.yul\":3579:3710   */\n      tag_121\n        /* \"#utility.yul\":3705:3709   */\n      dup2\n        /* \"#utility.yul\":3579:3710   */\n      tag_71\n      jump\t// in\n    tag_121:\n        /* \"#utility.yul\":3571:3710   */\n      swap1\n      pop\n        /* \"#utility.yul\":3298:3717   */\n      swap2\n      swap1\n      pop\n      jump\t// out\n        /* \"#utility.yul\":3723:3903   */\n    tag_72:\n        /* \"#utility.yul\":3771:3848   */\n      0x4e487b7100000000000000000000000000000000000000000000000000000000\n        /* \"#utility.yul\":3768:3769   */\n      0x00\n        /* \"#utility.yul\":3761:3849   */\n      mstore\n        /* \"#utility.yul\":3868:3872   */\n      0x11\n        /* \"#utility.yul\":3865:3866   */\n      0x04\n        /* \"#utility.yul\":3858:3873   */\n      mstore\n        /* \"#utility.yul\":3892:3896   */\n      0x24\n        /* \"#utility.yul\":3889:3890   */\n      0x00\n        /* \"#utility.yul\":3882:3897   */\n      revert\n        /* \"#utility.yul\":3909:4100   */\n    tag_42:\n        /* \"#utility.yul\":3949:3952   */\n      0x00\n        /* \"#utility.yul\":3968:3988   */\n      tag_124\n        /* \"#utility.yul\":3986:3987   */\n      dup3\n        /* \"#utility.yul\":3968:3988   */\n      tag_60\n      jump\t// in\n    tag_124:\n        /* \"#utility.yul\":3963:3988   */\n      swap2\n      pop\n        /* \"#utility.yul\":4002:4022   */\n      tag_125\n        /* \"#utility.yul\":4020:4021   */\n      dup4\n        /* \"#utility.yul\":4002:4022   */\n      tag_60\n      jump\t// in\n    tag_125:\n        /* \"#utility.yul\":3997:4022   */\n      swap3\n      pop\n        /* \"#utility.yul\":4045:4046   */\n      dup3\n        /* \"#utility.yul\":4042:4043   */\n      dup3\n        /* \"#utility.yul\":4038:4047   */\n      add\n        /* \"#utility.yul\":4031:4047   */\n      swap1\n      pop\n        /* \"#utility.yul\":4066:4069   */\n      dup1\n        /* \"#utility.yul\":4063:4064   */\n      dup3\n        /* \"#utility.yul\":4060:4070   */\n      gt\n        /* \"#utility.yul\":4057:4093   */\n      iszero\n      tag_126\n      jumpi\n        /* \"#utility.yul\":4073:4091   */\n      tag_127\n      tag_72\n      jump\t// in\n    tag_127:\n        /* \"#utility.yul\":4057:4093   */\n    tag_126:\n        /* \"#utility.yul\":3909:4100   */\n      swap3\n      swap2\n      pop\n      pop\n      jump\t// out\n        /* \"#utility.yul\":4106:4516   */\n    tag_47:\n        /* \"#utility.yul\":4146:4153   */\n      0x00\n        /* \"#utility.yul\":4169:4189   */\n      tag_129\n        /* \"#utility.yul\":4187:4188   */\n      dup3\n        /* \"#utility.yul\":4169:4189   */\n      tag_60\n      jump\t// in\n    tag_129:\n        /* \"#utility.yul\":4164:4189   */\n      swap2\n      pop\n        /* \"#utility.yul\":4203:4223   */\n      tag_130\n        /* \"#utility.yul\":4221:4222   */\n      dup4\n        /* \"#utility.yul\":4203:4223   */\n      tag_60\n      jump\t// in\n    tag_130:\n        /* \"#utility.yul\":4198:4223   */\n      swap3\n      pop\n        /* \"#utility.yul\":4258:4259   */\n      dup3\n        /* \"#utility.yul\":4255:4256   */\n      dup3\n        /* \"#utility.yul\":4251:4260   */\n      mul\n        /* \"#utility.yul\":4280:4310   */\n      tag_131\n        /* \"#utility.yul\":4298:4309   */\n      dup2\n        /* \"#utility.yul\":4280:4310   */\n      tag_60\n      jump\t// in\n    tag_131:\n        /* \"#utility.yul\":4269:4310   */\n      swap2\n      pop\n        /* \"#utility.yul\":4459:4460   */\n      dup3\n        /* \"#utility.yul\":4450:4457   */\n      dup3\n        /* \"#utility.yul\":4446:4461   */\n      div\n        /* \"#utility.yul\":4443:4444   */\n      dup5\n        /* \"#utility.yul\":4440:4462   */\n      eq\n        /* \"#utility.yul\":4420:4421   */\n      dup4\n        /* \"#utility.yul\":4413:4422   */\n      iszero\n        /* \"#utility.yul\":4393:4476   */\n      or\n        /* \"#utility.yul\":4370:4509   */\n      tag_132\n      jumpi\n        /* \"#utility.yul\":4489:4507   */\n      tag_133\n      tag_72\n      jump\t// in\n    tag_133:\n        /* \"#utility.yul\":4370:4509   */\n    tag_132:\n        /* \"#utility.yul\":4154:4516   */\n      pop\n        /* \"#utility.yul\":4106:4516   */\n      swap3\n      swap2\n      pop\n      pop\n      jump\t// out\n        /* \"#utility.yul\":4522:4702   */\n    tag_73:\n        /* \"#utility.yul\":4570:4647   */\n      0x4e487b7100000000000000000000000000000000000000000000000000000000\n        /* \"#utility.yul\":4567:4568   */\n      0x00\n        /* \"#utility.yul\":4560:4648   */\n      mstore\n        /* \"#utility.yul\":4667:4671   */\n      0x12\n        /* \"#utility.yul\":4664:4665   */\n      0x04\n        /* \"#utility.yul\":4657:4672   */\n      mstore\n        /* \"#utility.yul\":4691:4695   */\n      0x24\n        /* \"#utility.yul\":4688:4689   */\n      0x00\n        /* \"#utility.yul\":4681:4696   */\n      revert\n        /* \"#utility.yul\":4708:4893   */\n    tag_49:\n        /* \"#utility.yul\":4748:4749   */\n      0x00\n        /* \"#utility.yul\":4765:4785   */\n      tag_136\n        /* \"#utility.yul\":4783:4784   */\n      dup3\n        /* \"#utility.yul\":4765:4785   */\n      tag_60\n      jump\t// in\n    tag_136:\n        /* \"#utility.yul\":4760:4785   */\n      swap2\n      pop\n        /* \"#utility.yul\":4799:4819   */\n      tag_137\n        /* \"#utility.yul\":4817:4818   */\n      dup4\n        /* \"#utility.yul\":4799:4819   */\n      tag_60\n      jump\t// in\n    tag_137:\n        /* \"#utility.yul\":4794:4819   */\n      swap3\n      pop\n        /* \"#utility.yul\":4838:4839   */\n      dup3\n        /* \"#utility.yul\":4828:4863   */\n      tag_138\n      jumpi\n        /* \"#utility.yul\":4843:4861   */\n      tag_139\n      tag_73\n      jump\t// in\n    tag_139:\n        /* \"#utility.yul\":4828:4863   */\n    tag_138:\n        /* \"#utility.yul\":4885:4886   */\n      dup3\n        /* \"#utility.yul\":4882:4883   */\n      dup3\n        /* \"#utility.yul\":4878:4887   */\n      div\n        /* \"#utility.yul\":4873:4887   */\n      swap1\n      pop\n        /* \"#utility.yul\":4708:4893   */\n      swap3\n      swap2\n      pop\n      pop\n      jump\t// out\n        /* \"#utility.yul\":4899:5004   */\n    tag_74:\n        /* \"#utility.yul\":4935:4942   */\n      0x00\n        /* \"#utility.yul\":4975:4997   */\n      0xffffffffffffffffffff\n        /* \"#utility.yul\":4968:4973   */\n      dup3\n        /* \"#utility.yul\":4964:4998   */\n      and\n        /* \"#utility.yul\":4953:4998   */\n      swap1\n      pop\n        /* \"#utility.yul\":4899:5004   */\n      swap2\n      swap1\n      pop\n      jump\t// out\n        /* \"#utility.yul\":5010:5130   */\n    tag_75:\n        /* \"#utility.yul\":5082:5105   */\n      tag_142\n        /* \"#utility.yul\":5099:5104   */\n      dup2\n        /* \"#utility.yul\":5082:5105   */\n      tag_74\n      jump\t// in\n    tag_142:\n        /* \"#utility.yul\":5075:5080   */\n      dup2\n        /* \"#utility.yul\":5072:5106   */\n      eq\n        /* \"#utility.yul\":5062:5124   */\n      tag_143\n      jumpi\n        /* \"#utility.yul\":5120:5121   */\n      0x00\n        /* \"#utility.yul\":5117:5118   */\n      dup1\n        /* \"#utility.yul\":5110:5122   */\n      revert\n        /* \"#utility.yul\":5062:5124   */\n    tag_143:\n        /* \"#utility.yul\":5010:5130   */\n      pop\n      jump\t// out\n        /* \"#utility.yul\":5136:5277   */\n    tag_76:\n        /* \"#utility.yul\":5192:5197   */\n      0x00\n        /* \"#utility.yul\":5223:5229   */\n      dup2\n        /* \"#utility.yul\":5217:5230   */\n      mload\n        /* \"#utility.yul\":5208:5230   */\n      swap1\n      pop\n        /* \"#utility.yul\":5239:5271   */\n      tag_145\n        /* \"#utility.yul\":5265:5270   */\n      dup2\n        /* \"#utility.yul\":5239:5271   */\n      tag_75\n      jump\t// in\n    tag_145:\n        /* \"#utility.yul\":5136:5277   */\n      swap3\n      swap2\n      pop\n      pop\n      jump\t// out\n        /* \"#utility.yul\":5283:5359   */\n    tag_77:\n        /* \"#utility.yul\":5319:5326   */\n      0x00\n        /* \"#utility.yul\":5348:5353   */\n      dup2\n        /* \"#utility.yul\":5337:5353   */\n      swap1\n      pop\n        /* \"#utility.yul\":5283:5359   */\n      swap2\n      swap1\n      pop\n      jump\t// out\n        /* \"#utility.yul\":5365:5485   */\n    tag_78:\n        /* \"#utility.yul\":5437:5460   */\n      tag_148\n        /* \"#utility.yul\":5454:5459   */\n      dup2\n        /* \"#utility.yul\":5437:5460   */\n      tag_77\n      jump\t// in\n    tag_148:\n        /* \"#utility.yul\":5430:5435   */\n      dup2\n        /* \"#utility.yul\":5427:5461   */\n      eq\n        /* \"#utility.yul\":5417:5479   */\n      tag_149\n      jumpi\n        /* \"#utility.yul\":5475:5476   */\n      0x00\n        /* \"#utility.yul\":5472:5473   */\n      dup1\n        /* \"#utility.yul\":5465:5477   */\n      revert\n        /* \"#utility.yul\":5417:5479   */\n    tag_149:\n        /* \"#utility.yul\":5365:5485   */\n      pop\n      jump\t// out\n        /* \"#utility.yul\":5491:5632   */\n    tag_79:\n        /* \"#utility.yul\":5547:5552   */\n      0x00\n        /* \"#utility.yul\":5578:5584   */\n      dup2\n        /* \"#utility.yul\":5572:5585   */\n      mload\n        /* \"#utility.yul\":5563:5585   */\n      swap1\n      pop\n        /* \"#utility.yul\":5594:5626   */\n      tag_151\n        /* \"#utility.yul\":5620:5625   */\n      dup2\n        /* \"#utility.yul\":5594:5626   */\n      tag_78\n      jump\t// in\n    tag_151:\n        /* \"#utility.yul\":5491:5632   */\n      swap3\n      swap2\n      pop\n      pop\n      jump\t// out\n        /* \"#utility.yul\":5638:5781   */\n    tag_80:\n        /* \"#utility.yul\":5695:5700   */\n      0x00\n        /* \"#utility.yul\":5726:5732   */\n      dup2\n        /* \"#utility.yul\":5720:5733   */\n      mload\n        /* \"#utility.yul\":5711:5733   */\n      swap1\n      pop\n        /* \"#utility.yul\":5742:5775   */\n      tag_153\n        /* \"#utility.yul\":5769:5774   */\n      dup2\n        /* \"#utility.yul\":5742:5775   */\n      tag_61\n      jump\t// in\n    tag_153:\n        /* \"#utility.yul\":5638:5781   */\n      swap3\n      swap2\n      pop\n      pop\n      jump\t// out\n        /* \"#utility.yul\":5787:6758   */\n    tag_54:\n        /* \"#utility.yul\":5890:5896   */\n      0x00\n        /* \"#utility.yul\":5898:5904   */\n      dup1\n        /* \"#utility.yul\":5906:5912   */\n      0x00\n        /* \"#utility.yul\":5914:5920   */\n      dup1\n        /* \"#utility.yul\":5922:5928   */\n      0x00\n        /* \"#utility.yul\":5971:5974   */\n      0xa0\n        /* \"#utility.yul\":5959:5968   */\n      dup7\n        /* \"#utility.yul\":5950:5957   */\n      dup9\n        /* \"#utility.yul\":5946:5969   */\n      sub\n        /* \"#utility.yul\":5942:5975   */\n      slt\n        /* \"#utility.yul\":5939:6059   */\n      iszero\n      tag_155\n      jumpi\n        /* \"#utility.yul\":5978:6057   */\n      tag_156\n      tag_58\n      jump\t// in\n    tag_156:\n        /* \"#utility.yul\":5939:6059   */\n    tag_155:\n        /* \"#utility.yul\":6098:6099   */\n      0x00\n        /* \"#utility.yul\":6123:6186   */\n      tag_157\n        /* \"#utility.yul\":6178:6185   */\n      dup9\n        /* \"#utility.yul\":6169:6175   */\n      dup3\n        /* \"#utility.yul\":6158:6167   */\n      dup10\n        /* \"#utility.yul\":6154:6176   */\n      add\n        /* \"#utility.yul\":6123:6186   */\n      tag_76\n      jump\t// in\n    tag_157:\n        /* \"#utility.yul\":6113:6186   */\n      swap6\n      pop\n        /* \"#utility.yul\":6069:6196   */\n      pop\n        /* \"#utility.yul\":6235:6237   */\n      0x20\n        /* \"#utility.yul\":6261:6324   */\n      tag_158\n        /* \"#utility.yul\":6316:6323   */\n      dup9\n        /* \"#utility.yul\":6307:6313   */\n      dup3\n        /* \"#utility.yul\":6296:6305   */\n      dup10\n        /* \"#utility.yul\":6292:6314   */\n      add\n        /* \"#utility.yul\":6261:6324   */\n      tag_79\n      jump\t// in\n    tag_158:\n        /* \"#utility.yul\":6251:6324   */\n      swap5\n      pop\n        /* \"#utility.yul\":6206:6334   */\n      pop\n        /* \"#utility.yul\":6373:6375   */\n      0x40\n        /* \"#utility.yul\":6399:6463   */\n      tag_159\n        /* \"#utility.yul\":6455:6462   */\n      dup9\n        /* \"#utility.yul\":6446:6452   */\n      dup3\n        /* \"#utility.yul\":6435:6444   */\n      dup10\n        /* \"#utility.yul\":6431:6453   */\n      add\n        /* \"#utility.yul\":6399:6463   */\n      tag_80\n      jump\t// in\n    tag_159:\n        /* \"#utility.yul\":6389:6463   */\n      swap4\n      pop\n        /* \"#utility.yul\":6344:6473   */\n      pop\n        /* \"#utility.yul\":6512:6514   */\n      0x60\n        /* \"#utility.yul\":6538:6602   */\n      tag_160\n        /* \"#utility.yul\":6594:6601   */\n      dup9\n        /* \"#utility.yul\":6585:6591   */\n      dup3\n        /* \"#utility.yul\":6574:6583   */\n      dup10\n        /* \"#utility.yul\":6570:6592   */\n      add\n        /* \"#utility.yul\":6538:6602   */\n      tag_80\n      jump\t// in\n    tag_160:\n        /* \"#utility.yul\":6528:6602   */\n      swap3\n      pop\n        /* \"#utility.yul\":6483:6612   */\n      pop\n        /* \"#utility.yul\":6651:6654   */\n      0x80\n        /* \"#utility.yul\":6678:6741   */\n      tag_161\n        /* \"#utility.yul\":6733:6740   */\n      dup9\n        /* \"#utility.yul\":6724:6730   */\n      dup3\n        /* \"#utility.yul\":6713:6722   */\n      dup10\n        /* \"#utility.yul\":6709:6731   */\n      add\n        /* \"#utility.yul\":6678:6741   */\n      tag_76\n      jump\t// in\n    tag_161:\n        /* \"#utility.yul\":6668:6741   */\n      swap2\n      pop\n        /* \"#utility.yul\":6622:6751   */\n      pop\n        /* \"#utility.yul\":5787:6758   */\n      swap3\n      swap6\n      pop\n      swap3\n      swap6\n      swap1\n      swap4\n      pop\n      jump\t// out\n        /* \"#utility.yul\":6764:7320   */\n    tag_56:\n        /* \"#utility.yul\":6803:6810   */\n      0x00\n        /* \"#utility.yul\":6826:6845   */\n      tag_163\n        /* \"#utility.yul\":6843:6844   */\n      dup3\n        /* \"#utility.yul\":6826:6845   */\n      tag_77\n      jump\t// in\n    tag_163:\n        /* \"#utility.yul\":6821:6845   */\n      swap2\n      pop\n        /* \"#utility.yul\":6859:6878   */\n      tag_164\n        /* \"#utility.yul\":6876:6877   */\n      dup4\n        /* \"#utility.yul\":6859:6878   */\n      tag_77\n      jump\t// in\n    tag_164:\n        /* \"#utility.yul\":6854:6878   */\n      swap3\n      pop\n        /* \"#utility.yul\":6913:6914   */\n      dup3\n        /* \"#utility.yul\":6910:6911   */\n      dup3\n        /* \"#utility.yul\":6906:6915   */\n      mul\n        /* \"#utility.yul\":6935:6964   */\n      tag_165\n        /* \"#utility.yul\":6952:6963   */\n      dup2\n        /* \"#utility.yul\":6935:6964   */\n      tag_77\n      jump\t// in\n    tag_165:\n        /* \"#utility.yul\":6924:6964   */\n      swap2\n      pop\n        /* \"#utility.yul\":7022:7088   */\n      0x8000000000000000000000000000000000000000000000000000000000000000\n        /* \"#utility.yul\":7019:7020   */\n      dup5\n        /* \"#utility.yul\":7016:7089   */\n      eq\n        /* \"#utility.yul\":7012:7013   */\n      0x00\n        /* \"#utility.yul\":7009:7010   */\n      dup5\n        /* \"#utility.yul\":7005:7014   */\n      slt\n        /* \"#utility.yul\":7001:7090   */\n      and\n        /* \"#utility.yul\":6998:7113   */\n      iszero\n      tag_166\n      jumpi\n        /* \"#utility.yul\":7093:7111   */\n      tag_167\n      tag_72\n      jump\t// in\n    tag_167:\n        /* \"#utility.yul\":6998:7113   */\n    tag_166:\n        /* \"#utility.yul\":7263:7264   */\n      dup3\n        /* \"#utility.yul\":7254:7261   */\n      dup3\n        /* \"#utility.yul\":7249:7265   */\n      sdiv\n        /* \"#utility.yul\":7246:7247   */\n      dup5\n        /* \"#utility.yul\":7243:7266   */\n      eq\n        /* \"#utility.yul\":7223:7224   */\n      dup4\n        /* \"#utility.yul\":7216:7225   */\n      iszero\n        /* \"#utility.yul\":7196:7280   */\n      or\n        /* \"#utility.yul\":7173:7313   */\n      tag_168\n      jumpi\n        /* \"#utility.yul\":7293:7311   */\n      tag_169\n      tag_72\n      jump\t// in\n    tag_169:\n        /* \"#utility.yul\":7173:7313   */\n    tag_168:\n        /* \"#utility.yul\":6811:7320   */\n      pop\n        /* \"#utility.yul\":6764:7320   */\n      swap3\n      swap2\n      pop\n      pop\n      jump\t// out\n\n    auxdata: 0xa26469706673582212202f11d71ff5be5547fddde57cf4e4e0b053364bc3476c4cb802230ca9948994dd64736f6c63430008180033\n}\n",
				"bytecode": {
					"linkReferences": {},
					"object": "6080604052674563918244f400005f5534801561001a575f80fd5b506107ee806100285f395ff3fe608060405260043610610049575f3560e01c80631f2c92381461004d578063221ace14146100895780633430a88c146100c55780635b18056b146100ef578063d1d9165d14610119575b5f80fd5b348015610058575f80fd5b50610073600480360381019061006e91906103cf565b610123565b6040516100809190610439565b60405180910390f35b348015610094575f80fd5b506100af60048036038101906100aa919061047c565b61015e565b6040516100bc91906104b6565b60405180910390f35b3480156100d0575f80fd5b506100d9610173565b6040516100e691906104b6565b60405180910390f35b3480156100fa575f80fd5b50610103610178565b60405161011091906104b6565b60405180910390f35b610121610184565b005b60018181548110610132575f80fd5b905f5260205f20015f915054906101000a900473ffffffffffffffffffffffffffffffffffffffff1681565b6002602052805f5260405f205f915090505481565b5f5481565b5f600180549050905090565b5f5461018f346102bb565b116101cf576040517f08c379a00000000000000000000000000000000000000000000000000000000081526004016101c690610529565b60405180910390fd5b600133908060018154018082558091505060019003905f5260205f20015f9091909190916101000a81548173ffffffffffffffffffffffffffffffffffffffff021916908373ffffffffffffffffffffffffffffffffffffffff1602179055503460025f3373ffffffffffffffffffffffffffffffffffffffff1673ffffffffffffffffffffffffffffffffffffffff1681526020019081526020015f20546102789190610574565b60025f3373ffffffffffffffffffffffffffffffffffffffff1673ffffffffffffffffffffffffffffffffffffffff1681526020019081526020015f2081905550565b5f806102c56102f3565b90505f670de0b6b3a764000082856102dd91906105a7565b6102e79190610615565b90508092505050919050565b5f8073694aa1769357215de4fac081bf1f309adc32530690505f8173ffffffffffffffffffffffffffffffffffffffff1663feaf968c6040518163ffffffff1660e01b815260040160a060405180830381865afa158015610356573d5f803e3d5ffd5b505050506040513d601f19601f8201168201806040525081019061037a91906106cb565b5050509150506402540be400816103919190610742565b9250505090565b5f80fd5b5f819050919050565b6103ae8161039c565b81146103b8575f80fd5b50565b5f813590506103c9816103a5565b92915050565b5f602082840312156103e4576103e3610398565b5b5f6103f1848285016103bb565b91505092915050565b5f73ffffffffffffffffffffffffffffffffffffffff82169050919050565b5f610423826103fa565b9050919050565b61043381610419565b82525050565b5f60208201905061044c5f83018461042a565b92915050565b61045b81610419565b8114610465575f80fd5b50565b5f8135905061047681610452565b92915050565b5f6020828403121561049157610490610398565b5b5f61049e84828501610468565b91505092915050565b6104b08161039c565b82525050565b5f6020820190506104c95f8301846104a7565b92915050565b5f82825260208201905092915050565b7f646f65736e27742073617469736679206d79206e6565642000000000000000005f82015250565b5f6105136018836104cf565b915061051e826104df565b602082019050919050565b5f6020820190508181035f83015261054081610507565b9050919050565b7f4e487b71000000000000000000000000000000000000000000000000000000005f52601160045260245ffd5b5f61057e8261039c565b91506105898361039c565b92508282019050808211156105a1576105a0610547565b5b92915050565b5f6105b18261039c565b91506105bc8361039c565b92508282026105ca8161039c565b915082820484148315176105e1576105e0610547565b5b5092915050565b7f4e487b71000000000000000000000000000000000000000000000000000000005f52601260045260245ffd5b5f61061f8261039c565b915061062a8361039c565b92508261063a576106396105e8565b5b828204905092915050565b5f69ffffffffffffffffffff82169050919050565b61066381610645565b811461066d575f80fd5b50565b5f8151905061067e8161065a565b92915050565b5f819050919050565b61069681610684565b81146106a0575f80fd5b50565b5f815190506106b18161068d565b92915050565b5f815190506106c5816103a5565b92915050565b5f805f805f60a086880312156106e4576106e3610398565b5b5f6106f188828901610670565b9550506020610702888289016106a3565b9450506040610713888289016106b7565b9350506060610724888289016106b7565b925050608061073588828901610670565b9150509295509295909350565b5f61074c82610684565b915061075783610684565b925082820261076581610684565b91507f800000000000000000000000000000000000000000000000000000000000000084145f8412161561079c5761079b610547565b5b82820584148315176107b1576107b0610547565b5b509291505056fea26469706673582212202f11d71ff5be5547fddde57cf4e4e0b053364bc3476c4cb802230ca9948994dd64736f6c63430008180033",
					"opcodes": "PUSH1 0x80 PUSH1 0x40 MSTORE PUSH8 0x4563918244F40000 PUSH0 SSTORE CALLVALUE DUP1 ISZERO PUSH2 0x1A JUMPI PUSH0 DUP1 REVERT JUMPDEST POP PUSH2 0x7EE DUP1 PUSH2 0x28 PUSH0 CODECOPY PUSH0 RETURN INVALID PUSH1 0x80 PUSH1 0x40 MSTORE PUSH1 0x4 CALLDATASIZE LT PUSH2 0x49 JUMPI PUSH0 CALLDATALOAD PUSH1 0xE0 SHR DUP1 PUSH4 0x1F2C9238 EQ PUSH2 0x4D JUMPI DUP1 PUSH4 0x221ACE14 EQ PUSH2 0x89 JUMPI DUP1 PUSH4 0x3430A88C EQ PUSH2 0xC5 JUMPI DUP1 PUSH4 0x5B18056B EQ PUSH2 0xEF JUMPI DUP1 PUSH4 0xD1D9165D EQ PUSH2 0x119 JUMPI JUMPDEST PUSH0 DUP1 REVERT JUMPDEST CALLVALUE DUP1 ISZERO PUSH2 0x58 JUMPI PUSH0 DUP1 REVERT JUMPDEST POP PUSH2 0x73 PUSH1 0x4 DUP1 CALLDATASIZE SUB DUP2 ADD SWAP1 PUSH2 0x6E SWAP2 SWAP1 PUSH2 0x3CF JUMP JUMPDEST PUSH2 0x123 JUMP JUMPDEST PUSH1 0x40 MLOAD PUSH2 0x80 SWAP2 SWAP1 PUSH2 0x439 JUMP JUMPDEST PUSH1 0x40 MLOAD DUP1 SWAP2 SUB SWAP1 RETURN JUMPDEST CALLVALUE DUP1 ISZERO PUSH2 0x94 JUMPI PUSH0 DUP1 REVERT JUMPDEST POP PUSH2 0xAF PUSH1 0x4 DUP1 CALLDATASIZE SUB DUP2 ADD SWAP1 PUSH2 0xAA SWAP2 SWAP1 PUSH2 0x47C JUMP JUMPDEST PUSH2 0x15E JUMP JUMPDEST PUSH1 0x40 MLOAD PUSH2 0xBC SWAP2 SWAP1 PUSH2 0x4B6 JUMP JUMPDEST PUSH1 0x40 MLOAD DUP1 SWAP2 SUB SWAP1 RETURN JUMPDEST CALLVALUE DUP1 ISZERO PUSH2 0xD0 JUMPI PUSH0 DUP1 REVERT JUMPDEST POP PUSH2 0xD9 PUSH2 0x173 JUMP JUMPDEST PUSH1 0x40 MLOAD PUSH2 0xE6 SWAP2 SWAP1 PUSH2 0x4B6 JUMP JUMPDEST PUSH1 0x40 MLOAD DUP1 SWAP2 SUB SWAP1 RETURN JUMPDEST CALLVALUE DUP1 ISZERO PUSH2 0xFA JUMPI PUSH0 DUP1 REVERT JUMPDEST POP PUSH2 0x103 PUSH2 0x178 JUMP JUMPDEST PUSH1 0x40 MLOAD PUSH2 0x110 SWAP2 SWAP1 PUSH2 0x4B6 JUMP JUMPDEST PUSH1 0x40 MLOAD DUP1 SWAP2 SUB SWAP1 RETURN JUMPDEST PUSH2 0x121 PUSH2 0x184 JUMP JUMPDEST STOP JUMPDEST PUSH1 0x1 DUP2 DUP2 SLOAD DUP2 LT PUSH2 0x132 JUMPI PUSH0 DUP1 REVERT JUMPDEST SWAP1 PUSH0 MSTORE PUSH1 0x20 PUSH0 KECCAK256 ADD PUSH0 SWAP2 POP SLOAD SWAP1 PUSH2 0x100 EXP SWAP1 DIV PUSH20 0xFFFFFFFFFFFFFFFFFFFFFFFFFFFFFFFFFFFFFFFF AND DUP2 JUMP JUMPDEST PUSH1 0x2 PUSH1 0x20 MSTORE DUP1 PUSH0 MSTORE PUSH1 0x40 PUSH0 KECCAK256 PUSH0 SWAP2 POP SWAP1 POP SLOAD DUP2 JUMP JUMPDEST PUSH0 SLOAD DUP2 JUMP JUMPDEST PUSH0 PUSH1 0x1 DUP1 SLOAD SWAP1 POP SWAP1 POP SWAP1 JUMP JUMPDEST PUSH0 SLOAD PUSH2 0x18F CALLVALUE PUSH2 0x2BB JUMP JUMPDEST GT PUSH2 0x1CF JUMPI PUSH1 0x40 MLOAD PUSH32 0x8C379A000000000000000000000000000000000000000000000000000000000 DUP2 MSTORE PUSH1 0x4 ADD PUSH2 0x1C6 SWAP1 PUSH2 0x529 JUMP JUMPDEST PUSH1 0x40 MLOAD DUP1 SWAP2 SUB SWAP1 REVERT JUMPDEST PUSH1 0x1 CALLER SWAP1 DUP1 PUSH1 0x1 DUP2 SLOAD ADD DUP1 DUP3 SSTORE DUP1 SWAP2 POP POP PUSH1 0x1 SWAP1 SUB SWAP1 PUSH0 MSTORE PUSH1 0x20 PUSH0 KECCAK256 ADD PUSH0 SWAP1 SWAP2 SWAP1 SWAP2 SWAP1 SWAP2 PUSH2 0x100 EXP DUP2 SLOAD DUP2 PUSH20 0xFFFFFFFFFFFFFFFFFFFFFFFFFFFFFFFFFFFFFFFF MUL NOT AND SWAP1 DUP4 PUSH20 0xFFFFFFFFFFFFFFFFFFFFFFFFFFFFFFFFFFFFFFFF AND MUL OR SWAP1 SSTORE POP CALLVALUE PUSH1 0x2 PUSH0 CALLER PUSH20 0xFFFFFFFFFFFFFFFFFFFFFFFFFFFFFFFFFFFFFFFF AND PUSH20 0xFFFFFFFFFFFFFFFFFFFFFFFFFFFFFFFFFFFFFFFF AND DUP2 MSTORE PUSH1 0x20 ADD SWAP1 DUP2 MSTORE PUSH1 0x20 ADD PUSH0 KECCAK256 SLOAD PUSH2 0x278 SWAP2 SWAP1 PUSH2 0x574 JUMP JUMPDEST PUSH1 0x2 PUSH0 CALLER PUSH20 0xFFFFFFFFFFFFFFFFFFFFFFFFFFFFFFFFFFFFFFFF AND PUSH20 0xFFFFFFFFFFFFFFFFFFFFFFFFFFFFFFFFFFFFFFFF AND DUP2 MSTORE PUSH1 0x20 ADD SWAP1 DUP2 MSTORE PUSH1 0x20 ADD PUSH0 KECCAK256 DUP2 SWAP1 SSTORE POP JUMP JUMPDEST PUSH0 DUP1 PUSH2 0x2C5 PUSH2 0x2F3 JUMP JUMPDEST SWAP1 POP PUSH0 PUSH8 0xDE0B6B3A7640000 DUP3 DUP6 PUSH2 0x2DD SWAP2 SWAP1 PUSH2 0x5A7 JUMP JUMPDEST PUSH2 0x2E7 SWAP2 SWAP1 PUSH2 0x615 JUMP JUMPDEST SWAP1 POP DUP1 SWAP3 POP POP POP SWAP2 SWAP1 POP JUMP JUMPDEST PUSH0 DUP1 PUSH20 0x694AA1769357215DE4FAC081BF1F309ADC325306 SWAP1 POP PUSH0 DUP2 PUSH20 0xFFFFFFFFFFFFFFFFFFFFFFFFFFFFFFFFFFFFFFFF AND PUSH4 0xFEAF968C PUSH1 0x40 MLOAD DUP2 PUSH4 0xFFFFFFFF AND PUSH1 0xE0 SHL DUP2 MSTORE PUSH1 0x4 ADD PUSH1 0xA0 PUSH1 0x40 MLOAD DUP1 DUP4 SUB DUP2 DUP7 GAS STATICCALL ISZERO DUP1 ISZERO PUSH2 0x356 JUMPI RETURNDATASIZE PUSH0 DUP1 RETURNDATACOPY RETURNDATASIZE PUSH0 REVERT JUMPDEST POP POP POP POP PUSH1 0x40 MLOAD RETURNDATASIZE PUSH1 0x1F NOT PUSH1 0x1F DUP3 ADD AND DUP3 ADD DUP1 PUSH1 0x40 MSTORE POP DUP2 ADD SWAP1 PUSH2 0x37A SWAP2 SWAP1 PUSH2 0x6CB JUMP JUMPDEST POP POP POP SWAP2 POP POP PUSH5 0x2540BE400 DUP2 PUSH2 0x391 SWAP2 SWAP1 PUSH2 0x742 JUMP JUMPDEST SWAP3 POP POP POP SWAP1 JUMP JUMPDEST PUSH0 DUP1 REVERT JUMPDEST PUSH0 DUP2 SWAP1 POP SWAP2 SWAP1 POP JUMP JUMPDEST PUSH2 0x3AE DUP2 PUSH2 0x39C JUMP JUMPDEST DUP2 EQ PUSH2 0x3B8 JUMPI PUSH0 DUP1 REVERT JUMPDEST POP JUMP JUMPDEST PUSH0 DUP2 CALLDATALOAD SWAP1 POP PUSH2 0x3C9 DUP2 PUSH2 0x3A5 JUMP JUMPDEST SWAP3 SWAP2 POP POP JUMP JUMPDEST PUSH0 PUSH1 0x20 DUP3 DUP5 SUB SLT ISZERO PUSH2 0x3E4 JUMPI PUSH2 0x3E3 PUSH2 0x398 JUMP JUMPDEST JUMPDEST PUSH0 PUSH2 0x3F1 DUP5 DUP3 DUP6 ADD PUSH2 0x3BB JUMP JUMPDEST SWAP2 POP POP SWAP3 SWAP2 POP POP JUMP JUMPDEST PUSH0 PUSH20 0xFFFFFFFFFFFFFFFFFFFFFFFFFFFFFFFFFFFFFFFF DUP3 AND SWAP1 POP SWAP2 SWAP1 POP JUMP JUMPDEST PUSH0 PUSH2 0x423 DUP3 PUSH2 0x3FA JUMP JUMPDEST SWAP1 POP SWAP2 SWAP1 POP JUMP JUMPDEST PUSH2 0x433 DUP2 PUSH2 0x419 JUMP JUMPDEST DUP3 MSTORE POP POP JUMP JUMPDEST PUSH0 PUSH1 0x20 DUP3 ADD SWAP1 POP PUSH2 0x44C PUSH0 DUP4 ADD DUP5 PUSH2 0x42A JUMP JUMPDEST SWAP3 SWAP2 POP POP JUMP JUMPDEST PUSH2 0x45B DUP2 PUSH2 0x419 JUMP JUMPDEST DUP2 EQ PUSH2 0x465 JUMPI PUSH0 DUP1 REVERT JUMPDEST POP JUMP JUMPDEST PUSH0 DUP2 CALLDATALOAD SWAP1 POP PUSH2 0x476 DUP2 PUSH2 0x452 JUMP JUMPDEST SWAP3 SWAP2 POP POP JUMP JUMPDEST PUSH0 PUSH1 0x20 DUP3 DUP5 SUB SLT ISZERO PUSH2 0x491 JUMPI PUSH2 0x490 PUSH2 0x398 JUMP JUMPDEST JUMPDEST PUSH0 PUSH2 0x49E DUP5 DUP3 DUP6 ADD PUSH2 0x468 JUMP JUMPDEST SWAP2 POP POP SWAP3 SWAP2 POP POP JUMP JUMPDEST PUSH2 0x4B0 DUP2 PUSH2 0x39C JUMP JUMPDEST DUP3 MSTORE POP POP JUMP JUMPDEST PUSH0 PUSH1 0x20 DUP3 ADD SWAP1 POP PUSH2 0x4C9 PUSH0 DUP4 ADD DUP5 PUSH2 0x4A7 JUMP JUMPDEST SWAP3 SWAP2 POP POP JUMP JUMPDEST PUSH0 DUP3 DUP3 MSTORE PUSH1 0x20 DUP3 ADD SWAP1 POP SWAP3 SWAP2 POP POP JUMP JUMPDEST PUSH32 0x646F65736E27742073617469736679206D79206E656564200000000000000000 PUSH0 DUP3 ADD MSTORE POP JUMP JUMPDEST PUSH0 PUSH2 0x513 PUSH1 0x18 DUP4 PUSH2 0x4CF JUMP JUMPDEST SWAP2 POP PUSH2 0x51E DUP3 PUSH2 0x4DF JUMP JUMPDEST PUSH1 0x20 DUP3 ADD SWAP1 POP SWAP2 SWAP1 POP JUMP JUMPDEST PUSH0 PUSH1 0x20 DUP3 ADD SWAP1 POP DUP2 DUP2 SUB PUSH0 DUP4 ADD MSTORE PUSH2 0x540 DUP2 PUSH2 0x507 JUMP JUMPDEST SWAP1 POP SWAP2 SWAP1 POP JUMP JUMPDEST PUSH32 0x4E487B7100000000000000000000000000000000000000000000000000000000 PUSH0 MSTORE PUSH1 0x11 PUSH1 0x4 MSTORE PUSH1 0x24 PUSH0 REVERT JUMPDEST PUSH0 PUSH2 0x57E DUP3 PUSH2 0x39C JUMP JUMPDEST SWAP2 POP PUSH2 0x589 DUP4 PUSH2 0x39C JUMP JUMPDEST SWAP3 POP DUP3 DUP3 ADD SWAP1 POP DUP1 DUP3 GT ISZERO PUSH2 0x5A1 JUMPI PUSH2 0x5A0 PUSH2 0x547 JUMP JUMPDEST JUMPDEST SWAP3 SWAP2 POP POP JUMP JUMPDEST PUSH0 PUSH2 0x5B1 DUP3 PUSH2 0x39C JUMP JUMPDEST SWAP2 POP PUSH2 0x5BC DUP4 PUSH2 0x39C JUMP JUMPDEST SWAP3 POP DUP3 DUP3 MUL PUSH2 0x5CA DUP2 PUSH2 0x39C JUMP JUMPDEST SWAP2 POP DUP3 DUP3 DIV DUP5 EQ DUP4 ISZERO OR PUSH2 0x5E1 JUMPI PUSH2 0x5E0 PUSH2 0x547 JUMP JUMPDEST JUMPDEST POP SWAP3 SWAP2 POP POP JUMP JUMPDEST PUSH32 0x4E487B7100000000000000000000000000000000000000000000000000000000 PUSH0 MSTORE PUSH1 0x12 PUSH1 0x4 MSTORE PUSH1 0x24 PUSH0 REVERT JUMPDEST PUSH0 PUSH2 0x61F DUP3 PUSH2 0x39C JUMP JUMPDEST SWAP2 POP PUSH2 0x62A DUP4 PUSH2 0x39C JUMP JUMPDEST SWAP3 POP DUP3 PUSH2 0x63A JUMPI PUSH2 0x639 PUSH2 0x5E8 JUMP JUMPDEST JUMPDEST DUP3 DUP3 DIV SWAP1 POP SWAP3 SWAP2 POP POP JUMP JUMPDEST PUSH0 PUSH10 0xFFFFFFFFFFFFFFFFFFFF DUP3 AND SWAP1 POP SWAP2 SWAP1 POP JUMP JUMPDEST PUSH2 0x663 DUP2 PUSH2 0x645 JUMP JUMPDEST DUP2 EQ PUSH2 0x66D JUMPI PUSH0 DUP1 REVERT JUMPDEST POP JUMP JUMPDEST PUSH0 DUP2 MLOAD SWAP1 POP PUSH2 0x67E DUP2 PUSH2 0x65A JUMP JUMPDEST SWAP3 SWAP2 POP POP JUMP JUMPDEST PUSH0 DUP2 SWAP1 POP SWAP2 SWAP1 POP JUMP JUMPDEST PUSH2 0x696 DUP2 PUSH2 0x684 JUMP JUMPDEST DUP2 EQ PUSH2 0x6A0 JUMPI PUSH0 DUP1 REVERT JUMPDEST POP JUMP JUMPDEST PUSH0 DUP2 MLOAD SWAP1 POP PUSH2 0x6B1 DUP2 PUSH2 0x68D JUMP JUMPDEST SWAP3 SWAP2 POP POP JUMP JUMPDEST PUSH0 DUP2 MLOAD SWAP1 POP PUSH2 0x6C5 DUP2 PUSH2 0x3A5 JUMP JUMPDEST SWAP3 SWAP2 POP POP JUMP JUMPDEST PUSH0 DUP1 PUSH0 DUP1 PUSH0 PUSH1 0xA0 DUP7 DUP9 SUB SLT ISZERO PUSH2 0x6E4 JUMPI PUSH2 0x6E3 PUSH2 0x398 JUMP JUMPDEST JUMPDEST PUSH0 PUSH2 0x6F1 DUP9 DUP3 DUP10 ADD PUSH2 0x670 JUMP JUMPDEST SWAP6 POP POP PUSH1 0x20 PUSH2 0x702 DUP9 DUP3 DUP10 ADD PUSH2 0x6A3 JUMP JUMPDEST SWAP5 POP POP PUSH1 0x40 PUSH2 0x713 DUP9 DUP3 DUP10 ADD PUSH2 0x6B7 JUMP JUMPDEST SWAP4 POP POP PUSH1 0x60 PUSH2 0x724 DUP9 DUP3 DUP10 ADD PUSH2 0x6B7 JUMP JUMPDEST SWAP3 POP POP PUSH1 0x80 PUSH2 0x735 DUP9 DUP3 DUP10 ADD PUSH2 0x670 JUMP JUMPDEST SWAP2 POP POP SWAP3 SWAP6 POP SWAP3 SWAP6 SWAP1 SWAP4 POP JUMP JUMPDEST PUSH0 PUSH2 0x74C DUP3 PUSH2 0x684 JUMP JUMPDEST SWAP2 POP PUSH2 0x757 DUP4 PUSH2 0x684 JUMP JUMPDEST SWAP3 POP DUP3 DUP3 MUL PUSH2 0x765 DUP2 PUSH2 0x684 JUMP JUMPDEST SWAP2 POP PUSH32 0x8000000000000000000000000000000000000000000000000000000000000000 DUP5 EQ PUSH0 DUP5 SLT AND ISZERO PUSH2 0x79C JUMPI PUSH2 0x79B PUSH2 0x547 JUMP JUMPDEST JUMPDEST DUP3 DUP3 SDIV DUP5 EQ DUP4 ISZERO OR PUSH2 0x7B1 JUMPI PUSH2 0x7B0 PUSH2 0x547 JUMP JUMPDEST JUMPDEST POP SWAP3 SWAP2 POP POP JUMP INVALID LOG2 PUSH5 0x6970667358 0x22 SLT KECCAK256 0x2F GT 0xD7 0x1F CREATE2 0xBE SSTORE SELFBALANCE REVERT 0xDD 0xE5 PUSH29 0xF4E4E0B053364BC3476C4CB802230CA9948994DD64736F6C6343000818 STOP CALLER "
				},
				"gasEstimates": {
					"creation": {
						"codeDepositCost": "406000",
						"executionCost": "22546",
						"totalCost": "428546"
					},
					"external": {
						"addresstoAmountfunded(address)": "2802",
						"contributionCount()": "2484",
						"funder(uint256)": "4922",
						"fundme()": "infinite",
						"minimumUSD()": "2446"
					}
				},
				"methodIdentifiers": {
					"addresstoAmountfunded(address)": "221ace14",
					"contributionCount()": "5b18056b",
					"funder(uint256)": "1f2c9238",
					"fundme()": "d1d9165d",
					"minimumUSD()": "3430a88c"
				}
			},
			"storageLayout": {
				"storage": [
					{
						"astId": 55,
						"contract": "contracts/fundme.sol:Fundme",
						"label": "minimumUSD",
						"offset": 0,
						"slot": "0",
						"type": "t_uint256"
					},
					{
						"astId": 58,
						"contract": "contracts/fundme.sol:Fundme",
						"label": "funder",
						"offset": 0,
						"slot": "1",
						"type": "t_array(t_address)dyn_storage"
					},
					{
						"astId": 62,
						"contract": "contracts/fundme.sol:Fundme",
						"label": "addresstoAmountfunded",
						"offset": 0,
						"slot": "2",
						"type": "t_mapping(t_address,t_uint256)"
					}
				],
				"types": {
					"t_address": {
						"encoding": "inplace",
						"label": "address",
						"numberOfBytes": "20"
					},
					"t_array(t_address)dyn_storage": {
						"base": "t_address",
						"encoding": "dynamic_array",
						"label": "address[]",
						"numberOfBytes": "32"
					},
					"t_mapping(t_address,t_uint256)": {
						"encoding": "mapping",
						"key": "t_address",
						"label": "mapping(address => uint256)",
						"numberOfBytes": "32",
						"value": "t_uint256"
					},
					"t_uint256": {
						"encoding": "inplace",
						"label": "uint256",
						"numberOfBytes": "32"
					}
				}
			},
			"userdoc": {
				"kind": "user",
				"methods": {},
				"version": 1
			}
		}
	}
}