{
	"contracts/exercise_on_fundme.sol": {
		"Fundme": {
			"abi": [
				{
					"inputs": [],
					"name": "addingtoarray",
					"outputs": [],
					"stateMutability": "nonpayable",
					"type": "function"
				},
				{
					"inputs": [],
					"name": "executeAfter",
					"outputs": [
						{
							"internalType": "uint256",
							"name": "",
							"type": "uint256"
						}
					],
					"stateMutability": "view",
					"type": "function"
				},
				{
					"inputs": [
						{
							"internalType": "uint256",
							"name": "",
							"type": "uint256"
						}
					],
					"name": "firstone",
					"outputs": [
						{
							"internalType": "address",
							"name": "",
							"type": "address"
						}
					],
					"stateMutability": "view",
					"type": "function"
				},
				{
					"inputs": [],
					"name": "fundme",
					"outputs": [],
					"stateMutability": "payable",
					"type": "function"
				},
				{
					"inputs": [
						{
							"internalType": "uint256",
							"name": "USDAmount",
							"type": "uint256"
						}
					],
					"name": "getConversionrate",
					"outputs": [
						{
							"internalType": "uint256",
							"name": "",
							"type": "uint256"
						}
					],
					"stateMutability": "view",
					"type": "function"
				},
				{
					"inputs": [],
					"name": "getDecimals",
					"outputs": [
						{
							"internalType": "uint8",
							"name": "",
							"type": "uint8"
						}
					],
					"stateMutability": "view",
					"type": "function"
				},
				{
					"inputs": [],
					"name": "getLatestBTCPriceInETH",
					"outputs": [
						{
							"internalType": "uint256",
							"name": "",
							"type": "uint256"
						}
					],
					"stateMutability": "view",
					"type": "function"
				},
				{
					"inputs": [],
					"name": "getPrice",
					"outputs": [
						{
							"internalType": "uint256",
							"name": "",
							"type": "uint256"
						}
					],
					"stateMutability": "view",
					"type": "function"
				},
				{
					"inputs": [],
					"name": "minimumETH",
					"outputs": [
						{
							"internalType": "uint256",
							"name": "",
							"type": "uint256"
						}
					],
					"stateMutability": "view",
					"type": "function"
				},
				{
					"inputs": [
						{
							"internalType": "uint256",
							"name": "",
							"type": "uint256"
						}
					],
					"name": "pushthenumber",
					"outputs": [
						{
							"internalType": "uint256",
							"name": "",
							"type": "uint256"
						}
					],
					"stateMutability": "view",
					"type": "function"
				},
				{
					"inputs": [],
					"name": "retrieve",
					"outputs": [
						{
							"internalType": "uint256[]",
							"name": "",
							"type": "uint256[]"
						}
					],
					"stateMutability": "view",
					"type": "function"
				},
				{
					"inputs": [
						{
							"internalType": "uint256",
							"name": "_timeInSeconds",
							"type": "uint256"
						}
					],
					"name": "setExecutionTime",
					"outputs": [],
					"stateMutability": "nonpayable",
					"type": "function"
				},
				{
					"inputs": [],
					"name": "timeRestrictedFunction",
					"outputs": [
						{
							"internalType": "string",
							"name": "",
							"type": "string"
						}
					],
					"stateMutability": "view",
					"type": "function"
				},
				{
					"inputs": [],
					"name": "withdrawonlyfirstaccountremix",
					"outputs": [],
					"stateMutability": "view",
					"type": "function"
				}
			],
			"devdoc": {
				"kind": "dev",
				"methods": {},
				"version": 1
			},
			"evm": {
				"assembly": "    /* \"contracts/exercise_on_fundme.sol\":355:3074  contract Fundme{... */\n  mstore(0x40, 0x80)\n    /* \"contracts/exercise_on_fundme.sol\":404:408  1e18 */\n  0x0de0b6b3a7640000\n    /* \"contracts/exercise_on_fundme.sol\":377:408  uint256 public minimumETH =1e18 */\n  0x00\n  sstore\n    /* \"contracts/exercise_on_fundme.sol\":355:3074  contract Fundme{... */\n  callvalue\n  dup1\n  iszero\n  tag_1\n  jumpi\n  0x00\n  dup1\n  revert\ntag_1:\n  pop\n  dataSize(sub_0)\n  dup1\n  dataOffset(sub_0)\n  0x00\n  codecopy\n  0x00\n  return\nstop\n\nsub_0: assembly {\n        /* \"contracts/exercise_on_fundme.sol\":355:3074  contract Fundme{... */\n      mstore(0x40, 0x80)\n      jumpi(tag_1, lt(calldatasize, 0x04))\n      shr(0xe0, calldataload(0x00))\n      dup1\n      0xd1d9165d\n      gt\n      tag_16\n      jumpi\n      dup1\n      0xe351332c\n      gt\n      tag_17\n      jumpi\n      dup1\n      0xe351332c\n      eq\n      tag_12\n      jumpi\n      dup1\n      0xf0141d84\n      eq\n      tag_13\n      jumpi\n      dup1\n      0xf3aaee9d\n      eq\n      tag_14\n      jumpi\n      dup1\n      0xfb146a06\n      eq\n      tag_15\n      jumpi\n      jump(tag_1)\n    tag_17:\n      dup1\n      0xd1d9165d\n      eq\n      tag_9\n      jumpi\n      dup1\n      0xdd2b47db\n      eq\n      tag_10\n      jumpi\n      dup1\n      0xe06314ec\n      eq\n      tag_11\n      jumpi\n      jump(tag_1)\n    tag_16:\n      dup1\n      0x6aa9ecd3\n      gt\n      tag_18\n      jumpi\n      dup1\n      0x6aa9ecd3\n      eq\n      tag_5\n      jumpi\n      dup1\n      0x89ffce48\n      eq\n      tag_6\n      jumpi\n      dup1\n      0x98d5fdca\n      eq\n      tag_7\n      jumpi\n      dup1\n      0xb285ad3c\n      eq\n      tag_8\n      jumpi\n      jump(tag_1)\n    tag_18:\n      dup1\n      0x2e01594f\n      eq\n      tag_2\n      jumpi\n      dup1\n      0x2e64cec1\n      eq\n      tag_3\n      jumpi\n      dup1\n      0x62b8d693\n      eq\n      tag_4\n      jumpi\n    tag_1:\n      0x00\n      dup1\n      revert\n        /* \"contracts/exercise_on_fundme.sol\":1991:2152  function addingtoarray() public timerestricted  {... */\n    tag_2:\n      callvalue\n      dup1\n      iszero\n      tag_19\n      jumpi\n      0x00\n      dup1\n      revert\n    tag_19:\n      pop\n      tag_20\n      tag_21\n      jump\t// in\n    tag_20:\n      stop\n        /* \"contracts/exercise_on_fundme.sol\":2162:2259  function retrieve() public view returns (uint256[] memory){... */\n    tag_3:\n      callvalue\n      dup1\n      iszero\n      tag_22\n      jumpi\n      0x00\n      dup1\n      revert\n    tag_22:\n      pop\n      tag_23\n      tag_24\n      jump\t// in\n    tag_23:\n      mload(0x40)\n      tag_25\n      swap2\n      swap1\n      tag_26\n      jump\t// in\n    tag_25:\n      mload(0x40)\n      dup1\n      swap2\n      sub\n      swap1\n      return\n        /* \"contracts/exercise_on_fundme.sol\":2474:2596  function setExecutionTime(uint256 _timeInSeconds) public {... */\n    tag_4:\n      callvalue\n      dup1\n      iszero\n      tag_27\n      jumpi\n      0x00\n      dup1\n      revert\n    tag_27:\n      pop\n      tag_28\n      0x04\n      dup1\n      calldatasize\n      sub\n      dup2\n      add\n      swap1\n      tag_29\n      swap2\n      swap1\n      tag_30\n      jump\t// in\n    tag_29:\n      tag_31\n      jump\t// in\n    tag_28:\n      stop\n        /* \"contracts/exercise_on_fundme.sol\":452:478  address [] public firstone */\n    tag_5:\n      callvalue\n      dup1\n      iszero\n      tag_32\n      jumpi\n      0x00\n      dup1\n      revert\n    tag_32:\n      pop\n      tag_33\n      0x04\n      dup1\n      calldatasize\n      sub\n      dup2\n      add\n      swap1\n      tag_34\n      swap2\n      swap1\n      tag_30\n      jump\t// in\n    tag_34:\n      tag_35\n      jump\t// in\n    tag_33:\n      mload(0x40)\n      tag_36\n      swap2\n      swap1\n      tag_37\n      jump\t// in\n    tag_36:\n      mload(0x40)\n      dup1\n      swap2\n      sub\n      swap1\n      return\n        /* \"contracts/exercise_on_fundme.sol\":415:445  uint256[] public pushthenumber */\n    tag_6:\n      callvalue\n      dup1\n      iszero\n      tag_38\n      jumpi\n      0x00\n      dup1\n      revert\n    tag_38:\n      pop\n      tag_39\n      0x04\n      dup1\n      calldatasize\n      sub\n      dup2\n      add\n      swap1\n      tag_40\n      swap2\n      swap1\n      tag_30\n      jump\t// in\n    tag_40:\n      tag_41\n      jump\t// in\n    tag_39:\n      mload(0x40)\n      tag_42\n      swap2\n      swap1\n      tag_43\n      jump\t// in\n    tag_42:\n      mload(0x40)\n      dup1\n      swap2\n      sub\n      swap1\n      return\n        /* \"contracts/exercise_on_fundme.sol\":848:1265  function getPrice () public view returns(uint256){... */\n    tag_7:\n      callvalue\n      dup1\n      iszero\n      tag_44\n      jumpi\n      0x00\n      dup1\n      revert\n    tag_44:\n      pop\n      tag_45\n      tag_46\n      jump\t// in\n    tag_45:\n      mload(0x40)\n      tag_47\n      swap2\n      swap1\n      tag_43\n      jump\t// in\n    tag_47:\n      mload(0x40)\n      dup1\n      swap2\n      sub\n      swap1\n      return\n        /* \"contracts/exercise_on_fundme.sol\":377:408  uint256 public minimumETH =1e18 */\n    tag_8:\n      callvalue\n      dup1\n      iszero\n      tag_48\n      jumpi\n      0x00\n      dup1\n      revert\n    tag_48:\n      pop\n      tag_49\n      tag_50\n      jump\t// in\n    tag_49:\n      mload(0x40)\n      tag_51\n      swap2\n      swap1\n      tag_43\n      jump\t// in\n    tag_51:\n      mload(0x40)\n      dup1\n      swap2\n      sub\n      swap1\n      return\n        /* \"contracts/exercise_on_fundme.sol\":523:840  function fundme () public payable {... */\n    tag_9:\n      tag_52\n      tag_53\n      jump\t// in\n    tag_52:\n      stop\n        /* \"contracts/exercise_on_fundme.sol\":1685:1981  function getLatestBTCPriceInETH() public view returns(uint256){... */\n    tag_10:\n      callvalue\n      dup1\n      iszero\n      tag_54\n      jumpi\n      0x00\n      dup1\n      revert\n    tag_54:\n      pop\n      tag_55\n      tag_56\n      jump\t// in\n    tag_55:\n      mload(0x40)\n      tag_57\n      swap2\n      swap1\n      tag_43\n      jump\t// in\n    tag_57:\n      mload(0x40)\n      dup1\n      swap2\n      sub\n      swap1\n      return\n        /* \"contracts/exercise_on_fundme.sol\":2672:2929  function timeRestrictedFunction() public view returns (string memory) {... */\n    tag_11:\n      callvalue\n      dup1\n      iszero\n      tag_58\n      jumpi\n      0x00\n      dup1\n      revert\n    tag_58:\n      pop\n      tag_59\n      tag_60\n      jump\t// in\n    tag_59:\n      mload(0x40)\n      tag_61\n      swap2\n      swap1\n      tag_62\n      jump\t// in\n    tag_61:\n      mload(0x40)\n      dup1\n      swap2\n      sub\n      swap1\n      return\n        /* \"contracts/exercise_on_fundme.sol\":1273:1359  function getConversionrate(uint256 USDAmount) public view returns(uint256){... */\n    tag_12:\n      callvalue\n      dup1\n      iszero\n      tag_63\n      jumpi\n      0x00\n      dup1\n      revert\n    tag_63:\n      pop\n      tag_64\n      0x04\n      dup1\n      calldatasize\n      sub\n      dup2\n      add\n      swap1\n      tag_65\n      swap2\n      swap1\n      tag_30\n      jump\t// in\n    tag_65:\n      tag_66\n      jump\t// in\n    tag_64:\n      mload(0x40)\n      tag_67\n      swap2\n      swap1\n      tag_43\n      jump\t// in\n    tag_67:\n      mload(0x40)\n      dup1\n      swap2\n      sub\n      swap1\n      return\n        /* \"contracts/exercise_on_fundme.sol\":1365:1517  function getDecimals() public view returns (uint8){... */\n    tag_13:\n      callvalue\n      dup1\n      iszero\n      tag_68\n      jumpi\n      0x00\n      dup1\n      revert\n    tag_68:\n      pop\n      tag_69\n      tag_70\n      jump\t// in\n    tag_69:\n      mload(0x40)\n      tag_71\n      swap2\n      swap1\n      tag_72\n      jump\t// in\n    tag_71:\n      mload(0x40)\n      dup1\n      swap2\n      sub\n      swap1\n      return\n        /* \"contracts/exercise_on_fundme.sol\":487:514  uint256 public executeAfter */\n    tag_14:\n      callvalue\n      dup1\n      iszero\n      tag_73\n      jumpi\n      0x00\n      dup1\n      revert\n    tag_73:\n      pop\n      tag_74\n      tag_75\n      jump\t// in\n    tag_74:\n      mload(0x40)\n      tag_76\n      swap2\n      swap1\n      tag_43\n      jump\t// in\n    tag_76:\n      mload(0x40)\n      dup1\n      swap2\n      sub\n      swap1\n      return\n        /* \"contracts/exercise_on_fundme.sol\":1525:1677  function withdrawonlyfirstaccountremix() public view{... */\n    tag_15:\n      callvalue\n      dup1\n      iszero\n      tag_77\n      jumpi\n      0x00\n      dup1\n      revert\n    tag_77:\n      pop\n      tag_78\n      tag_79\n      jump\t// in\n    tag_78:\n      stop\n        /* \"contracts/exercise_on_fundme.sol\":1991:2152  function addingtoarray() public timerestricted  {... */\n    tag_21:\n        /* \"contracts/exercise_on_fundme.sol\":2998:3010  executeAfter */\n      sload(0x03)\n        /* \"contracts/exercise_on_fundme.sol\":2982:2997  block.timestamp */\n      timestamp\n        /* \"contracts/exercise_on_fundme.sol\":2982:3010  block.timestamp>executeAfter */\n      gt\n        /* \"contracts/exercise_on_fundme.sol\":2974:3045  require(block.timestamp>executeAfter,\"please wait for time completion\") */\n      tag_81\n      jumpi\n      mload(0x40)\n      0x08c379a000000000000000000000000000000000000000000000000000000000\n      dup2\n      mstore\n      0x04\n      add\n      tag_82\n      swap1\n      tag_83\n      jump\t// in\n    tag_82:\n      mload(0x40)\n      dup1\n      swap2\n      sub\n      swap1\n      revert\n    tag_81:\n        /* \"contracts/exercise_on_fundme.sol\":2054:2068  uint256 number */\n      0x00\n        /* \"contracts/exercise_on_fundme.sol\":2050:2145  for(uint256 number=0; number<10; number++){... */\n    tag_85:\n        /* \"contracts/exercise_on_fundme.sol\":2079:2081  10 */\n      0x0a\n        /* \"contracts/exercise_on_fundme.sol\":2072:2078  number */\n      dup2\n        /* \"contracts/exercise_on_fundme.sol\":2072:2081  number<10 */\n      lt\n        /* \"contracts/exercise_on_fundme.sol\":2050:2145  for(uint256 number=0; number<10; number++){... */\n      iszero\n      tag_86\n      jumpi\n        /* \"contracts/exercise_on_fundme.sol\":2107:2120  pushthenumber */\n      0x01\n        /* \"contracts/exercise_on_fundme.sol\":2126:2132  number */\n      dup2\n        /* \"contracts/exercise_on_fundme.sol\":2107:2133  pushthenumber.push(number) */\n      swap1\n      dup1\n      0x01\n      dup2\n      sload\n      add\n      dup1\n      dup3\n      sstore\n      dup1\n      swap2\n      pop\n      pop\n      0x01\n      swap1\n      sub\n      swap1\n      0x00\n      mstore\n      keccak256(0x00, 0x20)\n      add\n      0x00\n      swap1\n      swap2\n      swap1\n      swap2\n      swap1\n      swap2\n      pop\n      sstore\n        /* \"contracts/exercise_on_fundme.sol\":2083:2091  number++ */\n      dup1\n      dup1\n      0x01\n      add\n      swap2\n      pop\n      pop\n        /* \"contracts/exercise_on_fundme.sol\":2050:2145  for(uint256 number=0; number<10; number++){... */\n      jump(tag_85)\n    tag_86:\n      pop\n        /* \"contracts/exercise_on_fundme.sol\":1991:2152  function addingtoarray() public timerestricted  {... */\n      jump\t// out\n        /* \"contracts/exercise_on_fundme.sol\":2162:2259  function retrieve() public view returns (uint256[] memory){... */\n    tag_24:\n        /* \"contracts/exercise_on_fundme.sol\":2203:2219  uint256[] memory */\n      0x60\n        /* \"contracts/exercise_on_fundme.sol\":2238:2251  pushthenumber */\n      0x01\n        /* \"contracts/exercise_on_fundme.sol\":2231:2251  return pushthenumber */\n      dup1\n      sload\n      dup1\n      0x20\n      mul\n      0x20\n      add\n      mload(0x40)\n      swap1\n      dup2\n      add\n      0x40\n      mstore\n      dup1\n      swap3\n      swap2\n      swap1\n      dup2\n      dup2\n      mstore\n      0x20\n      add\n      dup3\n      dup1\n      sload\n      dup1\n      iszero\n      tag_90\n      jumpi\n      0x20\n      mul\n      dup3\n      add\n      swap2\n      swap1\n      0x00\n      mstore\n      keccak256(0x00, 0x20)\n      swap1\n    tag_91:\n      dup2\n      sload\n      dup2\n      mstore\n      0x20\n      add\n      swap1\n      0x01\n      add\n      swap1\n      dup1\n      dup4\n      gt\n      tag_91\n      jumpi\n    tag_90:\n      pop\n      pop\n      pop\n      pop\n      pop\n      swap1\n      pop\n        /* \"contracts/exercise_on_fundme.sol\":2162:2259  function retrieve() public view returns (uint256[] memory){... */\n      swap1\n      jump\t// out\n        /* \"contracts/exercise_on_fundme.sol\":2474:2596  function setExecutionTime(uint256 _timeInSeconds) public {... */\n    tag_31:\n        /* \"contracts/exercise_on_fundme.sol\":2574:2588  _timeInSeconds */\n      dup1\n        /* \"contracts/exercise_on_fundme.sol\":2556:2571  block.timestamp */\n      timestamp\n        /* \"contracts/exercise_on_fundme.sol\":2556:2588  block.timestamp + _timeInSeconds */\n      tag_93\n      swap2\n      swap1\n      tag_94\n      jump\t// in\n    tag_93:\n        /* \"contracts/exercise_on_fundme.sol\":2542:2554  executeAfter */\n      0x03\n        /* \"contracts/exercise_on_fundme.sol\":2542:2588  executeAfter= block.timestamp + _timeInSeconds */\n      dup2\n      swap1\n      sstore\n      pop\n        /* \"contracts/exercise_on_fundme.sol\":2474:2596  function setExecutionTime(uint256 _timeInSeconds) public {... */\n      pop\n      jump\t// out\n        /* \"contracts/exercise_on_fundme.sol\":452:478  address [] public firstone */\n    tag_35:\n      0x02\n      dup2\n      dup2\n      sload\n      dup2\n      lt\n      tag_95\n      jumpi\n      0x00\n      dup1\n      revert\n    tag_95:\n      swap1\n      0x00\n      mstore\n      keccak256(0x00, 0x20)\n      add\n      0x00\n      swap2\n      pop\n      sload\n      swap1\n      0x0100\n      exp\n      swap1\n      div\n      0xffffffffffffffffffffffffffffffffffffffff\n      and\n      dup2\n      jump\t// out\n        /* \"contracts/exercise_on_fundme.sol\":415:445  uint256[] public pushthenumber */\n    tag_41:\n      0x01\n      dup2\n      dup2\n      sload\n      dup2\n      lt\n      tag_97\n      jumpi\n      0x00\n      dup1\n      revert\n    tag_97:\n      swap1\n      0x00\n      mstore\n      keccak256(0x00, 0x20)\n      add\n      0x00\n      swap2\n      pop\n      swap1\n      pop\n      sload\n      dup2\n      jump\t// out\n        /* \"contracts/exercise_on_fundme.sol\":848:1265  function getPrice () public view returns(uint256){... */\n    tag_46:\n        /* \"contracts/exercise_on_fundme.sol\":889:896  uint256 */\n      0x00\n        /* \"contracts/exercise_on_fundme.sol\":1041:1072  AggregatorV3Interface pricefeed */\n      dup1\n        /* \"contracts/exercise_on_fundme.sol\":1096:1138  0x694AA1769357215DE4FAC081bf1f309aDC325306 */\n      0x694aa1769357215de4fac081bf1f309adc325306\n        /* \"contracts/exercise_on_fundme.sol\":1041:1139  AggregatorV3Interface pricefeed= AggregatorV3Interface(0x694AA1769357215DE4FAC081bf1f309aDC325306) */\n      swap1\n      pop\n        /* \"contracts/exercise_on_fundme.sol\":1152:1165  int256 answer */\n      0x00\n        /* \"contracts/exercise_on_fundme.sol\":1172:1181  pricefeed */\n      dup2\n        /* \"contracts/exercise_on_fundme.sol\":1172:1197  pricefeed.latestRoundData */\n      0xffffffffffffffffffffffffffffffffffffffff\n      and\n      0xfeaf968c\n        /* \"contracts/exercise_on_fundme.sol\":1172:1199  pricefeed.latestRoundData() */\n      mload(0x40)\n      dup2\n      0xffffffff\n      and\n      0xe0\n      shl\n      dup2\n      mstore\n      0x04\n      add\n      0xa0\n      mload(0x40)\n      dup1\n      dup4\n      sub\n      dup2\n      dup7\n      gas\n      staticcall\n      iszero\n      dup1\n      iszero\n      tag_101\n      jumpi\n      returndatasize\n      0x00\n      dup1\n      returndatacopy\n      revert(0x00, returndatasize)\n    tag_101:\n      pop\n      pop\n      pop\n      pop\n      mload(0x40)\n      returndatasize\n      not(0x1f)\n      0x1f\n      dup3\n      add\n      and\n      dup3\n      add\n      dup1\n      0x40\n      mstore\n      pop\n      dup2\n      add\n      swap1\n      tag_102\n      swap2\n      swap1\n      tag_103\n      jump\t// in\n    tag_102:\n        /* \"contracts/exercise_on_fundme.sol\":1150:1199  (,int256 answer,,,) = pricefeed.latestRoundData() */\n      pop\n      pop\n      pop\n      swap2\n      pop\n      pop\n        /* \"contracts/exercise_on_fundme.sol\":1252:1256  1e10 */\n      0x02540be400\n        /* \"contracts/exercise_on_fundme.sol\":1245:1251  answer */\n      dup2\n        /* \"contracts/exercise_on_fundme.sol\":1245:1256  answer*1e10 */\n      tag_104\n      swap2\n      swap1\n      tag_105\n      jump\t// in\n    tag_104:\n        /* \"contracts/exercise_on_fundme.sol\":1230:1257  return uint256(answer*1e10) */\n      swap3\n      pop\n      pop\n      pop\n        /* \"contracts/exercise_on_fundme.sol\":848:1265  function getPrice () public view returns(uint256){... */\n      swap1\n      jump\t// out\n        /* \"contracts/exercise_on_fundme.sol\":377:408  uint256 public minimumETH =1e18 */\n    tag_50:\n      sload(0x00)\n      dup2\n      jump\t// out\n        /* \"contracts/exercise_on_fundme.sol\":523:840  function fundme () public payable {... */\n    tag_53:\n        /* \"contracts/exercise_on_fundme.sol\":741:751  minimumETH */\n      sload(0x00)\n        /* \"contracts/exercise_on_fundme.sol\":734:738  1e10 */\n      0x02540be400\n        /* \"contracts/exercise_on_fundme.sol\":705:733  getConversionrate(msg.value) */\n      tag_107\n        /* \"contracts/exercise_on_fundme.sol\":723:732  msg.value */\n      callvalue\n        /* \"contracts/exercise_on_fundme.sol\":705:722  getConversionrate */\n      tag_66\n        /* \"contracts/exercise_on_fundme.sol\":705:733  getConversionrate(msg.value) */\n      jump\t// in\n    tag_107:\n        /* \"contracts/exercise_on_fundme.sol\":705:738  getConversionrate(msg.value)/1e10 */\n      tag_108\n      swap2\n      swap1\n      tag_109\n      jump\t// in\n    tag_108:\n        /* \"contracts/exercise_on_fundme.sol\":705:751  getConversionrate(msg.value)/1e10 > minimumETH */\n      gt\n        /* \"contracts/exercise_on_fundme.sol\":697:780  require(getConversionrate(msg.value)/1e10 > minimumETH, \"doesn't satisfy my need \") */\n      tag_110\n      jumpi\n      mload(0x40)\n      0x08c379a000000000000000000000000000000000000000000000000000000000\n      dup2\n      mstore\n      0x04\n      add\n      tag_111\n      swap1\n      tag_112\n      jump\t// in\n    tag_111:\n      mload(0x40)\n      dup1\n      swap2\n      sub\n      swap1\n      revert\n    tag_110:\n        /* \"contracts/exercise_on_fundme.sol\":523:840  function fundme () public payable {... */\n      jump\t// out\n        /* \"contracts/exercise_on_fundme.sol\":1685:1981  function getLatestBTCPriceInETH() public view returns(uint256){... */\n    tag_56:\n        /* \"contracts/exercise_on_fundme.sol\":1739:1746  uint256 */\n      0x00\n        /* \"contracts/exercise_on_fundme.sol\":1758:1789  AggregatorV3Interface pricefeed */\n      dup1\n        /* \"contracts/exercise_on_fundme.sol\":1813:1855  0x5fb1616F78dA7aFC9FF79e0371741a747D2a7F22 */\n      0x5fb1616f78da7afc9ff79e0371741a747d2a7f22\n        /* \"contracts/exercise_on_fundme.sol\":1758:1856  AggregatorV3Interface pricefeed= AggregatorV3Interface(0x5fb1616F78dA7aFC9FF79e0371741a747D2a7F22) */\n      swap1\n      pop\n        /* \"contracts/exercise_on_fundme.sol\":1869:1882  int256 answer */\n      0x00\n        /* \"contracts/exercise_on_fundme.sol\":1889:1898  pricefeed */\n      dup2\n        /* \"contracts/exercise_on_fundme.sol\":1889:1914  pricefeed.latestRoundData */\n      0xffffffffffffffffffffffffffffffffffffffff\n      and\n      0xfeaf968c\n        /* \"contracts/exercise_on_fundme.sol\":1889:1916  pricefeed.latestRoundData() */\n      mload(0x40)\n      dup2\n      0xffffffff\n      and\n      0xe0\n      shl\n      dup2\n      mstore\n      0x04\n      add\n      0xa0\n      mload(0x40)\n      dup1\n      dup4\n      sub\n      dup2\n      dup7\n      gas\n      staticcall\n      iszero\n      dup1\n      iszero\n      tag_115\n      jumpi\n      returndatasize\n      0x00\n      dup1\n      returndatacopy\n      revert(0x00, returndatasize)\n    tag_115:\n      pop\n      pop\n      pop\n      pop\n      mload(0x40)\n      returndatasize\n      not(0x1f)\n      0x1f\n      dup3\n      add\n      and\n      dup3\n      add\n      dup1\n      0x40\n      mstore\n      pop\n      dup2\n      add\n      swap1\n      tag_116\n      swap2\n      swap1\n      tag_103\n      jump\t// in\n    tag_116:\n        /* \"contracts/exercise_on_fundme.sol\":1867:1916  (,int256 answer,,,) = pricefeed.latestRoundData() */\n      pop\n      pop\n      pop\n      swap2\n      pop\n      pop\n        /* \"contracts/exercise_on_fundme.sol\":1962:1968  answer */\n      dup1\n        /* \"contracts/exercise_on_fundme.sol\":1947:1969  return uint256(answer) */\n      swap3\n      pop\n      pop\n      pop\n        /* \"contracts/exercise_on_fundme.sol\":1685:1981  function getLatestBTCPriceInETH() public view returns(uint256){... */\n      swap1\n      jump\t// out\n        /* \"contracts/exercise_on_fundme.sol\":2672:2929  function timeRestrictedFunction() public view returns (string memory) {... */\n    tag_60:\n        /* \"contracts/exercise_on_fundme.sol\":2727:2740  string memory */\n      0x60\n        /* \"contracts/exercise_on_fundme.sol\":2780:2792  executeAfter */\n      sload(0x03)\n        /* \"contracts/exercise_on_fundme.sol\":2761:2776  block.timestamp */\n      timestamp\n        /* \"contracts/exercise_on_fundme.sol\":2761:2792  block.timestamp >= executeAfter */\n      lt\n      iszero\n        /* \"contracts/exercise_on_fundme.sol\":2753:2842  require(block.timestamp >= executeAfter, \"Function cannot be executed yet. Please wait.\") */\n      tag_118\n      jumpi\n      mload(0x40)\n      0x08c379a000000000000000000000000000000000000000000000000000000000\n      dup2\n      mstore\n      0x04\n      add\n      tag_119\n      swap1\n      tag_120\n      jump\t// in\n    tag_119:\n      mload(0x40)\n      dup1\n      swap2\n      sub\n      swap1\n      revert\n    tag_118:\n        /* \"contracts/exercise_on_fundme.sol\":2881:2921  return \"Function executed successfully!\" */\n      mload(0x40)\n      dup1\n      0x40\n      add\n      0x40\n      mstore\n      dup1\n      0x1f\n      dup2\n      mstore\n      0x20\n      add\n      0x46756e6374696f6e206578656375746564207375636365737366756c6c792100\n      dup2\n      mstore\n      pop\n      swap1\n      pop\n        /* \"contracts/exercise_on_fundme.sol\":2672:2929  function timeRestrictedFunction() public view returns (string memory) {... */\n      swap1\n      jump\t// out\n        /* \"contracts/exercise_on_fundme.sol\":1273:1359  function getConversionrate(uint256 USDAmount) public view returns(uint256){... */\n    tag_66:\n        /* \"contracts/exercise_on_fundme.sol\":1339:1346  uint256 */\n      0x00\n        /* \"contracts/exercise_on_fundme.sol\":1273:1359  function getConversionrate(uint256 USDAmount) public view returns(uint256){... */\n      swap2\n      swap1\n      pop\n      jump\t// out\n        /* \"contracts/exercise_on_fundme.sol\":1365:1517  function getDecimals() public view returns (uint8){... */\n    tag_70:\n        /* \"contracts/exercise_on_fundme.sol\":1409:1414  uint8 */\n      0x00\n        /* \"contracts/exercise_on_fundme.sol\":1455:1497  0x694AA1769357215DE4FAC081bf1f309aDC325306 */\n      0x694aa1769357215de4fac081bf1f309adc325306\n        /* \"contracts/exercise_on_fundme.sol\":1433:1507  AggregatorV3Interface(0x694AA1769357215DE4FAC081bf1f309aDC325306).decimals */\n      0xffffffffffffffffffffffffffffffffffffffff\n      and\n      0x313ce567\n        /* \"contracts/exercise_on_fundme.sol\":1433:1509  AggregatorV3Interface(0x694AA1769357215DE4FAC081bf1f309aDC325306).decimals() */\n      mload(0x40)\n      dup2\n      0xffffffff\n      and\n      0xe0\n      shl\n      dup2\n      mstore\n      0x04\n      add\n      0x20\n      mload(0x40)\n      dup1\n      dup4\n      sub\n      dup2\n      dup7\n      gas\n      staticcall\n      iszero\n      dup1\n      iszero\n      tag_124\n      jumpi\n      returndatasize\n      0x00\n      dup1\n      returndatacopy\n      revert(0x00, returndatasize)\n    tag_124:\n      pop\n      pop\n      pop\n      pop\n      mload(0x40)\n      returndatasize\n      not(0x1f)\n      0x1f\n      dup3\n      add\n      and\n      dup3\n      add\n      dup1\n      0x40\n      mstore\n      pop\n      dup2\n      add\n      swap1\n      tag_125\n      swap2\n      swap1\n      tag_126\n      jump\t// in\n    tag_125:\n        /* \"contracts/exercise_on_fundme.sol\":1426:1509  return AggregatorV3Interface(0x694AA1769357215DE4FAC081bf1f309aDC325306).decimals() */\n      swap1\n      pop\n        /* \"contracts/exercise_on_fundme.sol\":1365:1517  function getDecimals() public view returns (uint8){... */\n      swap1\n      jump\t// out\n        /* \"contracts/exercise_on_fundme.sol\":487:514  uint256 public executeAfter */\n    tag_75:\n      sload(0x03)\n      dup2\n      jump\t// out\n        /* \"contracts/exercise_on_fundme.sol\":1525:1677  function withdrawonlyfirstaccountremix() public view{... */\n    tag_79:\n        /* \"contracts/exercise_on_fundme.sol\":1610:1618  firstone */\n      0x02\n        /* \"contracts/exercise_on_fundme.sol\":1619:1620  0 */\n      0x00\n        /* \"contracts/exercise_on_fundme.sol\":1610:1621  firstone[0] */\n      dup2\n      sload\n      dup2\n      lt\n      tag_128\n      jumpi\n      tag_129\n      tag_130\n      jump\t// in\n    tag_129:\n    tag_128:\n      swap1\n      0x00\n      mstore\n      keccak256(0x00, 0x20)\n      add\n      0x00\n      swap1\n      sload\n      swap1\n      0x0100\n      exp\n      swap1\n      div\n      0xffffffffffffffffffffffffffffffffffffffff\n      and\n        /* \"contracts/exercise_on_fundme.sol\":1596:1621  msg.sender == firstone[0] */\n      0xffffffffffffffffffffffffffffffffffffffff\n      and\n        /* \"contracts/exercise_on_fundme.sol\":1596:1606  msg.sender */\n      caller\n        /* \"contracts/exercise_on_fundme.sol\":1596:1621  msg.sender == firstone[0] */\n      0xffffffffffffffffffffffffffffffffffffffff\n      and\n      eq\n        /* \"contracts/exercise_on_fundme.sol\":1588:1667  require(msg.sender == firstone[0],\"only first sender can withdraw their funds\") */\n      tag_132\n      jumpi\n      mload(0x40)\n      0x08c379a000000000000000000000000000000000000000000000000000000000\n      dup2\n      mstore\n      0x04\n      add\n      tag_133\n      swap1\n      tag_134\n      jump\t// in\n    tag_133:\n      mload(0x40)\n      dup1\n      swap2\n      sub\n      swap1\n      revert\n    tag_132:\n        /* \"contracts/exercise_on_fundme.sol\":1525:1677  function withdrawonlyfirstaccountremix() public view{... */\n      jump\t// out\n        /* \"#utility.yul\":7:121   */\n    tag_135:\n        /* \"#utility.yul\":74:80   */\n      0x00\n        /* \"#utility.yul\":108:113   */\n      dup2\n        /* \"#utility.yul\":102:114   */\n      mload\n        /* \"#utility.yul\":92:114   */\n      swap1\n      pop\n        /* \"#utility.yul\":7:121   */\n      swap2\n      swap1\n      pop\n      jump\t// out\n        /* \"#utility.yul\":127:311   */\n    tag_136:\n        /* \"#utility.yul\":226:237   */\n      0x00\n        /* \"#utility.yul\":260:266   */\n      dup3\n        /* \"#utility.yul\":255:258   */\n      dup3\n        /* \"#utility.yul\":248:267   */\n      mstore\n        /* \"#utility.yul\":300:304   */\n      0x20\n        /* \"#utility.yul\":295:298   */\n      dup3\n        /* \"#utility.yul\":291:305   */\n      add\n        /* \"#utility.yul\":276:305   */\n      swap1\n      pop\n        /* \"#utility.yul\":127:311   */\n      swap3\n      swap2\n      pop\n      pop\n      jump\t// out\n        /* \"#utility.yul\":317:449   */\n    tag_137:\n        /* \"#utility.yul\":384:388   */\n      0x00\n        /* \"#utility.yul\":407:410   */\n      dup2\n        /* \"#utility.yul\":399:410   */\n      swap1\n      pop\n        /* \"#utility.yul\":437:441   */\n      0x20\n        /* \"#utility.yul\":432:435   */\n      dup3\n        /* \"#utility.yul\":428:442   */\n      add\n        /* \"#utility.yul\":420:442   */\n      swap1\n      pop\n        /* \"#utility.yul\":317:449   */\n      swap2\n      swap1\n      pop\n      jump\t// out\n        /* \"#utility.yul\":455:532   */\n    tag_138:\n        /* \"#utility.yul\":492:499   */\n      0x00\n        /* \"#utility.yul\":521:526   */\n      dup2\n        /* \"#utility.yul\":510:526   */\n      swap1\n      pop\n        /* \"#utility.yul\":455:532   */\n      swap2\n      swap1\n      pop\n      jump\t// out\n        /* \"#utility.yul\":538:646   */\n    tag_139:\n        /* \"#utility.yul\":615:639   */\n      tag_184\n        /* \"#utility.yul\":633:638   */\n      dup2\n        /* \"#utility.yul\":615:639   */\n      tag_138\n      jump\t// in\n    tag_184:\n        /* \"#utility.yul\":610:613   */\n      dup3\n        /* \"#utility.yul\":603:640   */\n      mstore\n        /* \"#utility.yul\":538:646   */\n      pop\n      pop\n      jump\t// out\n        /* \"#utility.yul\":652:831   */\n    tag_140:\n        /* \"#utility.yul\":721:731   */\n      0x00\n        /* \"#utility.yul\":742:788   */\n      tag_186\n        /* \"#utility.yul\":784:787   */\n      dup4\n        /* \"#utility.yul\":776:782   */\n      dup4\n        /* \"#utility.yul\":742:788   */\n      tag_139\n      jump\t// in\n    tag_186:\n        /* \"#utility.yul\":820:824   */\n      0x20\n        /* \"#utility.yul\":815:818   */\n      dup4\n        /* \"#utility.yul\":811:825   */\n      add\n        /* \"#utility.yul\":797:825   */\n      swap1\n      pop\n        /* \"#utility.yul\":652:831   */\n      swap3\n      swap2\n      pop\n      pop\n      jump\t// out\n        /* \"#utility.yul\":837:950   */\n    tag_141:\n        /* \"#utility.yul\":907:911   */\n      0x00\n        /* \"#utility.yul\":939:943   */\n      0x20\n        /* \"#utility.yul\":934:937   */\n      dup3\n        /* \"#utility.yul\":930:944   */\n      add\n        /* \"#utility.yul\":922:944   */\n      swap1\n      pop\n        /* \"#utility.yul\":837:950   */\n      swap2\n      swap1\n      pop\n      jump\t// out\n        /* \"#utility.yul\":986:1718   */\n    tag_142:\n        /* \"#utility.yul\":1105:1108   */\n      0x00\n        /* \"#utility.yul\":1134:1188   */\n      tag_189\n        /* \"#utility.yul\":1182:1187   */\n      dup3\n        /* \"#utility.yul\":1134:1188   */\n      tag_135\n      jump\t// in\n    tag_189:\n        /* \"#utility.yul\":1204:1290   */\n      tag_190\n        /* \"#utility.yul\":1283:1289   */\n      dup2\n        /* \"#utility.yul\":1278:1281   */\n      dup6\n        /* \"#utility.yul\":1204:1290   */\n      tag_136\n      jump\t// in\n    tag_190:\n        /* \"#utility.yul\":1197:1290   */\n      swap4\n      pop\n        /* \"#utility.yul\":1314:1370   */\n      tag_191\n        /* \"#utility.yul\":1364:1369   */\n      dup4\n        /* \"#utility.yul\":1314:1370   */\n      tag_137\n      jump\t// in\n    tag_191:\n        /* \"#utility.yul\":1393:1400   */\n      dup1\n        /* \"#utility.yul\":1424:1425   */\n      0x00\n        /* \"#utility.yul\":1409:1693   */\n    tag_192:\n        /* \"#utility.yul\":1434:1440   */\n      dup4\n        /* \"#utility.yul\":1431:1432   */\n      dup2\n        /* \"#utility.yul\":1428:1441   */\n      lt\n        /* \"#utility.yul\":1409:1693   */\n      iszero\n      tag_194\n      jumpi\n        /* \"#utility.yul\":1510:1516   */\n      dup2\n        /* \"#utility.yul\":1504:1517   */\n      mload\n        /* \"#utility.yul\":1537:1600   */\n      tag_195\n        /* \"#utility.yul\":1596:1599   */\n      dup9\n        /* \"#utility.yul\":1581:1594   */\n      dup3\n        /* \"#utility.yul\":1537:1600   */\n      tag_140\n      jump\t// in\n    tag_195:\n        /* \"#utility.yul\":1530:1600   */\n      swap8\n      pop\n        /* \"#utility.yul\":1623:1683   */\n      tag_196\n        /* \"#utility.yul\":1676:1682   */\n      dup4\n        /* \"#utility.yul\":1623:1683   */\n      tag_141\n      jump\t// in\n    tag_196:\n        /* \"#utility.yul\":1613:1683   */\n      swap3\n      pop\n        /* \"#utility.yul\":1469:1693   */\n      pop\n        /* \"#utility.yul\":1456:1457   */\n      0x01\n        /* \"#utility.yul\":1453:1454   */\n      dup2\n        /* \"#utility.yul\":1449:1458   */\n      add\n        /* \"#utility.yul\":1444:1458   */\n      swap1\n      pop\n        /* \"#utility.yul\":1409:1693   */\n      jump(tag_192)\n    tag_194:\n        /* \"#utility.yul\":1413:1427   */\n      pop\n        /* \"#utility.yul\":1709:1712   */\n      dup6\n        /* \"#utility.yul\":1702:1712   */\n      swap4\n      pop\n        /* \"#utility.yul\":1110:1718   */\n      pop\n      pop\n      pop\n        /* \"#utility.yul\":986:1718   */\n      swap3\n      swap2\n      pop\n      pop\n      jump\t// out\n        /* \"#utility.yul\":1724:2097   */\n    tag_26:\n        /* \"#utility.yul\":1867:1871   */\n      0x00\n        /* \"#utility.yul\":1905:1907   */\n      0x20\n        /* \"#utility.yul\":1894:1903   */\n      dup3\n        /* \"#utility.yul\":1890:1908   */\n      add\n        /* \"#utility.yul\":1882:1908   */\n      swap1\n      pop\n        /* \"#utility.yul\":1954:1963   */\n      dup2\n        /* \"#utility.yul\":1948:1952   */\n      dup2\n        /* \"#utility.yul\":1944:1964   */\n      sub\n        /* \"#utility.yul\":1940:1941   */\n      0x00\n        /* \"#utility.yul\":1929:1938   */\n      dup4\n        /* \"#utility.yul\":1925:1942   */\n      add\n        /* \"#utility.yul\":1918:1965   */\n      mstore\n        /* \"#utility.yul\":1982:2090   */\n      tag_198\n        /* \"#utility.yul\":2085:2089   */\n      dup2\n        /* \"#utility.yul\":2076:2082   */\n      dup5\n        /* \"#utility.yul\":1982:2090   */\n      tag_142\n      jump\t// in\n    tag_198:\n        /* \"#utility.yul\":1974:2090   */\n      swap1\n      pop\n        /* \"#utility.yul\":1724:2097   */\n      swap3\n      swap2\n      pop\n      pop\n      jump\t// out\n        /* \"#utility.yul\":2184:2301   */\n    tag_144:\n        /* \"#utility.yul\":2293:2294   */\n      0x00\n        /* \"#utility.yul\":2290:2291   */\n      dup1\n        /* \"#utility.yul\":2283:2295   */\n      revert\n        /* \"#utility.yul\":2430:2552   */\n    tag_146:\n        /* \"#utility.yul\":2503:2527   */\n      tag_203\n        /* \"#utility.yul\":2521:2526   */\n      dup2\n        /* \"#utility.yul\":2503:2527   */\n      tag_138\n      jump\t// in\n    tag_203:\n        /* \"#utility.yul\":2496:2501   */\n      dup2\n        /* \"#utility.yul\":2493:2528   */\n      eq\n        /* \"#utility.yul\":2483:2546   */\n      tag_204\n      jumpi\n        /* \"#utility.yul\":2542:2543   */\n      0x00\n        /* \"#utility.yul\":2539:2540   */\n      dup1\n        /* \"#utility.yul\":2532:2544   */\n      revert\n        /* \"#utility.yul\":2483:2546   */\n    tag_204:\n        /* \"#utility.yul\":2430:2552   */\n      pop\n      jump\t// out\n        /* \"#utility.yul\":2558:2697   */\n    tag_147:\n        /* \"#utility.yul\":2604:2609   */\n      0x00\n        /* \"#utility.yul\":2642:2648   */\n      dup2\n        /* \"#utility.yul\":2629:2649   */\n      calldataload\n        /* \"#utility.yul\":2620:2649   */\n      swap1\n      pop\n        /* \"#utility.yul\":2658:2691   */\n      tag_206\n        /* \"#utility.yul\":2685:2690   */\n      dup2\n        /* \"#utility.yul\":2658:2691   */\n      tag_146\n      jump\t// in\n    tag_206:\n        /* \"#utility.yul\":2558:2697   */\n      swap3\n      swap2\n      pop\n      pop\n      jump\t// out\n        /* \"#utility.yul\":2703:3032   */\n    tag_30:\n        /* \"#utility.yul\":2762:2768   */\n      0x00\n        /* \"#utility.yul\":2811:2813   */\n      0x20\n        /* \"#utility.yul\":2799:2808   */\n      dup3\n        /* \"#utility.yul\":2790:2797   */\n      dup5\n        /* \"#utility.yul\":2786:2809   */\n      sub\n        /* \"#utility.yul\":2782:2814   */\n      slt\n        /* \"#utility.yul\":2779:2898   */\n      iszero\n      tag_208\n      jumpi\n        /* \"#utility.yul\":2817:2896   */\n      tag_209\n      tag_144\n      jump\t// in\n    tag_209:\n        /* \"#utility.yul\":2779:2898   */\n    tag_208:\n        /* \"#utility.yul\":2937:2938   */\n      0x00\n        /* \"#utility.yul\":2962:3015   */\n      tag_210\n        /* \"#utility.yul\":3007:3014   */\n      dup5\n        /* \"#utility.yul\":2998:3004   */\n      dup3\n        /* \"#utility.yul\":2987:2996   */\n      dup6\n        /* \"#utility.yul\":2983:3005   */\n      add\n        /* \"#utility.yul\":2962:3015   */\n      tag_147\n      jump\t// in\n    tag_210:\n        /* \"#utility.yul\":2952:3015   */\n      swap2\n      pop\n        /* \"#utility.yul\":2908:3025   */\n      pop\n        /* \"#utility.yul\":2703:3032   */\n      swap3\n      swap2\n      pop\n      pop\n      jump\t// out\n        /* \"#utility.yul\":3038:3164   */\n    tag_148:\n        /* \"#utility.yul\":3075:3082   */\n      0x00\n        /* \"#utility.yul\":3115:3157   */\n      0xffffffffffffffffffffffffffffffffffffffff\n        /* \"#utility.yul\":3108:3113   */\n      dup3\n        /* \"#utility.yul\":3104:3158   */\n      and\n        /* \"#utility.yul\":3093:3158   */\n      swap1\n      pop\n        /* \"#utility.yul\":3038:3164   */\n      swap2\n      swap1\n      pop\n      jump\t// out\n        /* \"#utility.yul\":3170:3266   */\n    tag_149:\n        /* \"#utility.yul\":3207:3214   */\n      0x00\n        /* \"#utility.yul\":3236:3260   */\n      tag_213\n        /* \"#utility.yul\":3254:3259   */\n      dup3\n        /* \"#utility.yul\":3236:3260   */\n      tag_148\n      jump\t// in\n    tag_213:\n        /* \"#utility.yul\":3225:3260   */\n      swap1\n      pop\n        /* \"#utility.yul\":3170:3266   */\n      swap2\n      swap1\n      pop\n      jump\t// out\n        /* \"#utility.yul\":3272:3390   */\n    tag_150:\n        /* \"#utility.yul\":3359:3383   */\n      tag_215\n        /* \"#utility.yul\":3377:3382   */\n      dup2\n        /* \"#utility.yul\":3359:3383   */\n      tag_149\n      jump\t// in\n    tag_215:\n        /* \"#utility.yul\":3354:3357   */\n      dup3\n        /* \"#utility.yul\":3347:3384   */\n      mstore\n        /* \"#utility.yul\":3272:3390   */\n      pop\n      pop\n      jump\t// out\n        /* \"#utility.yul\":3396:3618   */\n    tag_37:\n        /* \"#utility.yul\":3489:3493   */\n      0x00\n        /* \"#utility.yul\":3527:3529   */\n      0x20\n        /* \"#utility.yul\":3516:3525   */\n      dup3\n        /* \"#utility.yul\":3512:3530   */\n      add\n        /* \"#utility.yul\":3504:3530   */\n      swap1\n      pop\n        /* \"#utility.yul\":3540:3611   */\n      tag_217\n        /* \"#utility.yul\":3608:3609   */\n      0x00\n        /* \"#utility.yul\":3597:3606   */\n      dup4\n        /* \"#utility.yul\":3593:3610   */\n      add\n        /* \"#utility.yul\":3584:3590   */\n      dup5\n        /* \"#utility.yul\":3540:3611   */\n      tag_150\n      jump\t// in\n    tag_217:\n        /* \"#utility.yul\":3396:3618   */\n      swap3\n      swap2\n      pop\n      pop\n      jump\t// out\n        /* \"#utility.yul\":3624:3742   */\n    tag_151:\n        /* \"#utility.yul\":3711:3735   */\n      tag_219\n        /* \"#utility.yul\":3729:3734   */\n      dup2\n        /* \"#utility.yul\":3711:3735   */\n      tag_138\n      jump\t// in\n    tag_219:\n        /* \"#utility.yul\":3706:3709   */\n      dup3\n        /* \"#utility.yul\":3699:3736   */\n      mstore\n        /* \"#utility.yul\":3624:3742   */\n      pop\n      pop\n      jump\t// out\n        /* \"#utility.yul\":3748:3970   */\n    tag_43:\n        /* \"#utility.yul\":3841:3845   */\n      0x00\n        /* \"#utility.yul\":3879:3881   */\n      0x20\n        /* \"#utility.yul\":3868:3877   */\n      dup3\n        /* \"#utility.yul\":3864:3882   */\n      add\n        /* \"#utility.yul\":3856:3882   */\n      swap1\n      pop\n        /* \"#utility.yul\":3892:3963   */\n      tag_221\n        /* \"#utility.yul\":3960:3961   */\n      0x00\n        /* \"#utility.yul\":3949:3958   */\n      dup4\n        /* \"#utility.yul\":3945:3962   */\n      add\n        /* \"#utility.yul\":3936:3942   */\n      dup5\n        /* \"#utility.yul\":3892:3963   */\n      tag_151\n      jump\t// in\n    tag_221:\n        /* \"#utility.yul\":3748:3970   */\n      swap3\n      swap2\n      pop\n      pop\n      jump\t// out\n        /* \"#utility.yul\":3976:4075   */\n    tag_152:\n        /* \"#utility.yul\":4028:4034   */\n      0x00\n        /* \"#utility.yul\":4062:4067   */\n      dup2\n        /* \"#utility.yul\":4056:4068   */\n      mload\n        /* \"#utility.yul\":4046:4068   */\n      swap1\n      pop\n        /* \"#utility.yul\":3976:4075   */\n      swap2\n      swap1\n      pop\n      jump\t// out\n        /* \"#utility.yul\":4081:4250   */\n    tag_153:\n        /* \"#utility.yul\":4165:4176   */\n      0x00\n        /* \"#utility.yul\":4199:4205   */\n      dup3\n        /* \"#utility.yul\":4194:4197   */\n      dup3\n        /* \"#utility.yul\":4187:4206   */\n      mstore\n        /* \"#utility.yul\":4239:4243   */\n      0x20\n        /* \"#utility.yul\":4234:4237   */\n      dup3\n        /* \"#utility.yul\":4230:4244   */\n      add\n        /* \"#utility.yul\":4215:4244   */\n      swap1\n      pop\n        /* \"#utility.yul\":4081:4250   */\n      swap3\n      swap2\n      pop\n      pop\n      jump\t// out\n        /* \"#utility.yul\":4256:4502   */\n    tag_154:\n        /* \"#utility.yul\":4337:4338   */\n      0x00\n        /* \"#utility.yul\":4347:4460   */\n    tag_225:\n        /* \"#utility.yul\":4361:4367   */\n      dup4\n        /* \"#utility.yul\":4358:4359   */\n      dup2\n        /* \"#utility.yul\":4355:4368   */\n      lt\n        /* \"#utility.yul\":4347:4460   */\n      iszero\n      tag_227\n      jumpi\n        /* \"#utility.yul\":4446:4447   */\n      dup1\n        /* \"#utility.yul\":4441:4444   */\n      dup3\n        /* \"#utility.yul\":4437:4448   */\n      add\n        /* \"#utility.yul\":4431:4449   */\n      mload\n        /* \"#utility.yul\":4427:4428   */\n      dup2\n        /* \"#utility.yul\":4422:4425   */\n      dup5\n        /* \"#utility.yul\":4418:4429   */\n      add\n        /* \"#utility.yul\":4411:4450   */\n      mstore\n        /* \"#utility.yul\":4383:4385   */\n      0x20\n        /* \"#utility.yul\":4380:4381   */\n      dup2\n        /* \"#utility.yul\":4376:4386   */\n      add\n        /* \"#utility.yul\":4371:4386   */\n      swap1\n      pop\n        /* \"#utility.yul\":4347:4460   */\n      jump(tag_225)\n    tag_227:\n        /* \"#utility.yul\":4494:4495   */\n      0x00\n        /* \"#utility.yul\":4485:4491   */\n      dup5\n        /* \"#utility.yul\":4480:4483   */\n      dup5\n        /* \"#utility.yul\":4476:4492   */\n      add\n        /* \"#utility.yul\":4469:4496   */\n      mstore\n        /* \"#utility.yul\":4318:4502   */\n      pop\n        /* \"#utility.yul\":4256:4502   */\n      pop\n      pop\n      pop\n      jump\t// out\n        /* \"#utility.yul\":4508:4610   */\n    tag_155:\n        /* \"#utility.yul\":4549:4555   */\n      0x00\n        /* \"#utility.yul\":4600:4602   */\n      0x1f\n        /* \"#utility.yul\":4596:4603   */\n      not\n        /* \"#utility.yul\":4591:4593   */\n      0x1f\n        /* \"#utility.yul\":4584:4589   */\n      dup4\n        /* \"#utility.yul\":4580:4594   */\n      add\n        /* \"#utility.yul\":4576:4604   */\n      and\n        /* \"#utility.yul\":4566:4604   */\n      swap1\n      pop\n        /* \"#utility.yul\":4508:4610   */\n      swap2\n      swap1\n      pop\n      jump\t// out\n        /* \"#utility.yul\":4616:4993   */\n    tag_156:\n        /* \"#utility.yul\":4704:4707   */\n      0x00\n        /* \"#utility.yul\":4732:4771   */\n      tag_230\n        /* \"#utility.yul\":4765:4770   */\n      dup3\n        /* \"#utility.yul\":4732:4771   */\n      tag_152\n      jump\t// in\n    tag_230:\n        /* \"#utility.yul\":4787:4858   */\n      tag_231\n        /* \"#utility.yul\":4851:4857   */\n      dup2\n        /* \"#utility.yul\":4846:4849   */\n      dup6\n        /* \"#utility.yul\":4787:4858   */\n      tag_153\n      jump\t// in\n    tag_231:\n        /* \"#utility.yul\":4780:4858   */\n      swap4\n      pop\n        /* \"#utility.yul\":4867:4932   */\n      tag_232\n        /* \"#utility.yul\":4925:4931   */\n      dup2\n        /* \"#utility.yul\":4920:4923   */\n      dup6\n        /* \"#utility.yul\":4913:4917   */\n      0x20\n        /* \"#utility.yul\":4906:4911   */\n      dup7\n        /* \"#utility.yul\":4902:4918   */\n      add\n        /* \"#utility.yul\":4867:4932   */\n      tag_154\n      jump\t// in\n    tag_232:\n        /* \"#utility.yul\":4957:4986   */\n      tag_233\n        /* \"#utility.yul\":4979:4985   */\n      dup2\n        /* \"#utility.yul\":4957:4986   */\n      tag_155\n      jump\t// in\n    tag_233:\n        /* \"#utility.yul\":4952:4955   */\n      dup5\n        /* \"#utility.yul\":4948:4987   */\n      add\n        /* \"#utility.yul\":4941:4987   */\n      swap2\n      pop\n        /* \"#utility.yul\":4708:4993   */\n      pop\n        /* \"#utility.yul\":4616:4993   */\n      swap3\n      swap2\n      pop\n      pop\n      jump\t// out\n        /* \"#utility.yul\":4999:5312   */\n    tag_62:\n        /* \"#utility.yul\":5112:5116   */\n      0x00\n        /* \"#utility.yul\":5150:5152   */\n      0x20\n        /* \"#utility.yul\":5139:5148   */\n      dup3\n        /* \"#utility.yul\":5135:5153   */\n      add\n        /* \"#utility.yul\":5127:5153   */\n      swap1\n      pop\n        /* \"#utility.yul\":5199:5208   */\n      dup2\n        /* \"#utility.yul\":5193:5197   */\n      dup2\n        /* \"#utility.yul\":5189:5209   */\n      sub\n        /* \"#utility.yul\":5185:5186   */\n      0x00\n        /* \"#utility.yul\":5174:5183   */\n      dup4\n        /* \"#utility.yul\":5170:5187   */\n      add\n        /* \"#utility.yul\":5163:5210   */\n      mstore\n        /* \"#utility.yul\":5227:5305   */\n      tag_235\n        /* \"#utility.yul\":5300:5304   */\n      dup2\n        /* \"#utility.yul\":5291:5297   */\n      dup5\n        /* \"#utility.yul\":5227:5305   */\n      tag_156\n      jump\t// in\n    tag_235:\n        /* \"#utility.yul\":5219:5305   */\n      swap1\n      pop\n        /* \"#utility.yul\":4999:5312   */\n      swap3\n      swap2\n      pop\n      pop\n      jump\t// out\n        /* \"#utility.yul\":5318:5404   */\n    tag_157:\n        /* \"#utility.yul\":5353:5360   */\n      0x00\n        /* \"#utility.yul\":5393:5397   */\n      0xff\n        /* \"#utility.yul\":5386:5391   */\n      dup3\n        /* \"#utility.yul\":5382:5398   */\n      and\n        /* \"#utility.yul\":5371:5398   */\n      swap1\n      pop\n        /* \"#utility.yul\":5318:5404   */\n      swap2\n      swap1\n      pop\n      jump\t// out\n        /* \"#utility.yul\":5410:5522   */\n    tag_158:\n        /* \"#utility.yul\":5493:5515   */\n      tag_238\n        /* \"#utility.yul\":5509:5514   */\n      dup2\n        /* \"#utility.yul\":5493:5515   */\n      tag_157\n      jump\t// in\n    tag_238:\n        /* \"#utility.yul\":5488:5491   */\n      dup3\n        /* \"#utility.yul\":5481:5516   */\n      mstore\n        /* \"#utility.yul\":5410:5522   */\n      pop\n      pop\n      jump\t// out\n        /* \"#utility.yul\":5528:5742   */\n    tag_72:\n        /* \"#utility.yul\":5617:5621   */\n      0x00\n        /* \"#utility.yul\":5655:5657   */\n      0x20\n        /* \"#utility.yul\":5644:5653   */\n      dup3\n        /* \"#utility.yul\":5640:5658   */\n      add\n        /* \"#utility.yul\":5632:5658   */\n      swap1\n      pop\n        /* \"#utility.yul\":5668:5735   */\n      tag_240\n        /* \"#utility.yul\":5732:5733   */\n      0x00\n        /* \"#utility.yul\":5721:5730   */\n      dup4\n        /* \"#utility.yul\":5717:5734   */\n      add\n        /* \"#utility.yul\":5708:5714   */\n      dup5\n        /* \"#utility.yul\":5668:5735   */\n      tag_158\n      jump\t// in\n    tag_240:\n        /* \"#utility.yul\":5528:5742   */\n      swap3\n      swap2\n      pop\n      pop\n      jump\t// out\n        /* \"#utility.yul\":5748:5929   */\n    tag_159:\n        /* \"#utility.yul\":5888:5921   */\n      0x706c65617365207761697420666f722074696d6520636f6d706c6574696f6e00\n        /* \"#utility.yul\":5884:5885   */\n      0x00\n        /* \"#utility.yul\":5876:5882   */\n      dup3\n        /* \"#utility.yul\":5872:5886   */\n      add\n        /* \"#utility.yul\":5865:5922   */\n      mstore\n        /* \"#utility.yul\":5748:5929   */\n      pop\n      jump\t// out\n        /* \"#utility.yul\":5935:6301   */\n    tag_160:\n        /* \"#utility.yul\":6077:6080   */\n      0x00\n        /* \"#utility.yul\":6098:6165   */\n      tag_243\n        /* \"#utility.yul\":6162:6164   */\n      0x1f\n        /* \"#utility.yul\":6157:6160   */\n      dup4\n        /* \"#utility.yul\":6098:6165   */\n      tag_153\n      jump\t// in\n    tag_243:\n        /* \"#utility.yul\":6091:6165   */\n      swap2\n      pop\n        /* \"#utility.yul\":6174:6267   */\n      tag_244\n        /* \"#utility.yul\":6263:6266   */\n      dup3\n        /* \"#utility.yul\":6174:6267   */\n      tag_159\n      jump\t// in\n    tag_244:\n        /* \"#utility.yul\":6292:6294   */\n      0x20\n        /* \"#utility.yul\":6287:6290   */\n      dup3\n        /* \"#utility.yul\":6283:6295   */\n      add\n        /* \"#utility.yul\":6276:6295   */\n      swap1\n      pop\n        /* \"#utility.yul\":5935:6301   */\n      swap2\n      swap1\n      pop\n      jump\t// out\n        /* \"#utility.yul\":6307:6726   */\n    tag_83:\n        /* \"#utility.yul\":6473:6477   */\n      0x00\n        /* \"#utility.yul\":6511:6513   */\n      0x20\n        /* \"#utility.yul\":6500:6509   */\n      dup3\n        /* \"#utility.yul\":6496:6514   */\n      add\n        /* \"#utility.yul\":6488:6514   */\n      swap1\n      pop\n        /* \"#utility.yul\":6560:6569   */\n      dup2\n        /* \"#utility.yul\":6554:6558   */\n      dup2\n        /* \"#utility.yul\":6550:6570   */\n      sub\n        /* \"#utility.yul\":6546:6547   */\n      0x00\n        /* \"#utility.yul\":6535:6544   */\n      dup4\n        /* \"#utility.yul\":6531:6548   */\n      add\n        /* \"#utility.yul\":6524:6571   */\n      mstore\n        /* \"#utility.yul\":6588:6719   */\n      tag_246\n        /* \"#utility.yul\":6714:6718   */\n      dup2\n        /* \"#utility.yul\":6588:6719   */\n      tag_160\n      jump\t// in\n    tag_246:\n        /* \"#utility.yul\":6580:6719   */\n      swap1\n      pop\n        /* \"#utility.yul\":6307:6726   */\n      swap2\n      swap1\n      pop\n      jump\t// out\n        /* \"#utility.yul\":6732:6912   */\n    tag_161:\n        /* \"#utility.yul\":6780:6857   */\n      0x4e487b7100000000000000000000000000000000000000000000000000000000\n        /* \"#utility.yul\":6777:6778   */\n      0x00\n        /* \"#utility.yul\":6770:6858   */\n      mstore\n        /* \"#utility.yul\":6877:6881   */\n      0x11\n        /* \"#utility.yul\":6874:6875   */\n      0x04\n        /* \"#utility.yul\":6867:6882   */\n      mstore\n        /* \"#utility.yul\":6901:6905   */\n      0x24\n        /* \"#utility.yul\":6898:6899   */\n      0x00\n        /* \"#utility.yul\":6891:6906   */\n      revert\n        /* \"#utility.yul\":6918:7109   */\n    tag_94:\n        /* \"#utility.yul\":6958:6961   */\n      0x00\n        /* \"#utility.yul\":6977:6997   */\n      tag_249\n        /* \"#utility.yul\":6995:6996   */\n      dup3\n        /* \"#utility.yul\":6977:6997   */\n      tag_138\n      jump\t// in\n    tag_249:\n        /* \"#utility.yul\":6972:6997   */\n      swap2\n      pop\n        /* \"#utility.yul\":7011:7031   */\n      tag_250\n        /* \"#utility.yul\":7029:7030   */\n      dup4\n        /* \"#utility.yul\":7011:7031   */\n      tag_138\n      jump\t// in\n    tag_250:\n        /* \"#utility.yul\":7006:7031   */\n      swap3\n      pop\n        /* \"#utility.yul\":7054:7055   */\n      dup3\n        /* \"#utility.yul\":7051:7052   */\n      dup3\n        /* \"#utility.yul\":7047:7056   */\n      add\n        /* \"#utility.yul\":7040:7056   */\n      swap1\n      pop\n        /* \"#utility.yul\":7075:7078   */\n      dup1\n        /* \"#utility.yul\":7072:7073   */\n      dup3\n        /* \"#utility.yul\":7069:7079   */\n      gt\n        /* \"#utility.yul\":7066:7102   */\n      iszero\n      tag_251\n      jumpi\n        /* \"#utility.yul\":7082:7100   */\n      tag_252\n      tag_161\n      jump\t// in\n    tag_252:\n        /* \"#utility.yul\":7066:7102   */\n    tag_251:\n        /* \"#utility.yul\":6918:7109   */\n      swap3\n      swap2\n      pop\n      pop\n      jump\t// out\n        /* \"#utility.yul\":7115:7220   */\n    tag_162:\n        /* \"#utility.yul\":7151:7158   */\n      0x00\n        /* \"#utility.yul\":7191:7213   */\n      0xffffffffffffffffffff\n        /* \"#utility.yul\":7184:7189   */\n      dup3\n        /* \"#utility.yul\":7180:7214   */\n      and\n        /* \"#utility.yul\":7169:7214   */\n      swap1\n      pop\n        /* \"#utility.yul\":7115:7220   */\n      swap2\n      swap1\n      pop\n      jump\t// out\n        /* \"#utility.yul\":7226:7346   */\n    tag_163:\n        /* \"#utility.yul\":7298:7321   */\n      tag_255\n        /* \"#utility.yul\":7315:7320   */\n      dup2\n        /* \"#utility.yul\":7298:7321   */\n      tag_162\n      jump\t// in\n    tag_255:\n        /* \"#utility.yul\":7291:7296   */\n      dup2\n        /* \"#utility.yul\":7288:7322   */\n      eq\n        /* \"#utility.yul\":7278:7340   */\n      tag_256\n      jumpi\n        /* \"#utility.yul\":7336:7337   */\n      0x00\n        /* \"#utility.yul\":7333:7334   */\n      dup1\n        /* \"#utility.yul\":7326:7338   */\n      revert\n        /* \"#utility.yul\":7278:7340   */\n    tag_256:\n        /* \"#utility.yul\":7226:7346   */\n      pop\n      jump\t// out\n        /* \"#utility.yul\":7352:7493   */\n    tag_164:\n        /* \"#utility.yul\":7408:7413   */\n      0x00\n        /* \"#utility.yul\":7439:7445   */\n      dup2\n        /* \"#utility.yul\":7433:7446   */\n      mload\n        /* \"#utility.yul\":7424:7446   */\n      swap1\n      pop\n        /* \"#utility.yul\":7455:7487   */\n      tag_258\n        /* \"#utility.yul\":7481:7486   */\n      dup2\n        /* \"#utility.yul\":7455:7487   */\n      tag_163\n      jump\t// in\n    tag_258:\n        /* \"#utility.yul\":7352:7493   */\n      swap3\n      swap2\n      pop\n      pop\n      jump\t// out\n        /* \"#utility.yul\":7499:7575   */\n    tag_165:\n        /* \"#utility.yul\":7535:7542   */\n      0x00\n        /* \"#utility.yul\":7564:7569   */\n      dup2\n        /* \"#utility.yul\":7553:7569   */\n      swap1\n      pop\n        /* \"#utility.yul\":7499:7575   */\n      swap2\n      swap1\n      pop\n      jump\t// out\n        /* \"#utility.yul\":7581:7701   */\n    tag_166:\n        /* \"#utility.yul\":7653:7676   */\n      tag_261\n        /* \"#utility.yul\":7670:7675   */\n      dup2\n        /* \"#utility.yul\":7653:7676   */\n      tag_165\n      jump\t// in\n    tag_261:\n        /* \"#utility.yul\":7646:7651   */\n      dup2\n        /* \"#utility.yul\":7643:7677   */\n      eq\n        /* \"#utility.yul\":7633:7695   */\n      tag_262\n      jumpi\n        /* \"#utility.yul\":7691:7692   */\n      0x00\n        /* \"#utility.yul\":7688:7689   */\n      dup1\n        /* \"#utility.yul\":7681:7693   */\n      revert\n        /* \"#utility.yul\":7633:7695   */\n    tag_262:\n        /* \"#utility.yul\":7581:7701   */\n      pop\n      jump\t// out\n        /* \"#utility.yul\":7707:7848   */\n    tag_167:\n        /* \"#utility.yul\":7763:7768   */\n      0x00\n        /* \"#utility.yul\":7794:7800   */\n      dup2\n        /* \"#utility.yul\":7788:7801   */\n      mload\n        /* \"#utility.yul\":7779:7801   */\n      swap1\n      pop\n        /* \"#utility.yul\":7810:7842   */\n      tag_264\n        /* \"#utility.yul\":7836:7841   */\n      dup2\n        /* \"#utility.yul\":7810:7842   */\n      tag_166\n      jump\t// in\n    tag_264:\n        /* \"#utility.yul\":7707:7848   */\n      swap3\n      swap2\n      pop\n      pop\n      jump\t// out\n        /* \"#utility.yul\":7854:7997   */\n    tag_168:\n        /* \"#utility.yul\":7911:7916   */\n      0x00\n        /* \"#utility.yul\":7942:7948   */\n      dup2\n        /* \"#utility.yul\":7936:7949   */\n      mload\n        /* \"#utility.yul\":7927:7949   */\n      swap1\n      pop\n        /* \"#utility.yul\":7958:7991   */\n      tag_266\n        /* \"#utility.yul\":7985:7990   */\n      dup2\n        /* \"#utility.yul\":7958:7991   */\n      tag_146\n      jump\t// in\n    tag_266:\n        /* \"#utility.yul\":7854:7997   */\n      swap3\n      swap2\n      pop\n      pop\n      jump\t// out\n        /* \"#utility.yul\":8003:8974   */\n    tag_103:\n        /* \"#utility.yul\":8106:8112   */\n      0x00\n        /* \"#utility.yul\":8114:8120   */\n      dup1\n        /* \"#utility.yul\":8122:8128   */\n      0x00\n        /* \"#utility.yul\":8130:8136   */\n      dup1\n        /* \"#utility.yul\":8138:8144   */\n      0x00\n        /* \"#utility.yul\":8187:8190   */\n      0xa0\n        /* \"#utility.yul\":8175:8184   */\n      dup7\n        /* \"#utility.yul\":8166:8173   */\n      dup9\n        /* \"#utility.yul\":8162:8185   */\n      sub\n        /* \"#utility.yul\":8158:8191   */\n      slt\n        /* \"#utility.yul\":8155:8275   */\n      iszero\n      tag_268\n      jumpi\n        /* \"#utility.yul\":8194:8273   */\n      tag_269\n      tag_144\n      jump\t// in\n    tag_269:\n        /* \"#utility.yul\":8155:8275   */\n    tag_268:\n        /* \"#utility.yul\":8314:8315   */\n      0x00\n        /* \"#utility.yul\":8339:8402   */\n      tag_270\n        /* \"#utility.yul\":8394:8401   */\n      dup9\n        /* \"#utility.yul\":8385:8391   */\n      dup3\n        /* \"#utility.yul\":8374:8383   */\n      dup10\n        /* \"#utility.yul\":8370:8392   */\n      add\n        /* \"#utility.yul\":8339:8402   */\n      tag_164\n      jump\t// in\n    tag_270:\n        /* \"#utility.yul\":8329:8402   */\n      swap6\n      pop\n        /* \"#utility.yul\":8285:8412   */\n      pop\n        /* \"#utility.yul\":8451:8453   */\n      0x20\n        /* \"#utility.yul\":8477:8540   */\n      tag_271\n        /* \"#utility.yul\":8532:8539   */\n      dup9\n        /* \"#utility.yul\":8523:8529   */\n      dup3\n        /* \"#utility.yul\":8512:8521   */\n      dup10\n        /* \"#utility.yul\":8508:8530   */\n      add\n        /* \"#utility.yul\":8477:8540   */\n      tag_167\n      jump\t// in\n    tag_271:\n        /* \"#utility.yul\":8467:8540   */\n      swap5\n      pop\n        /* \"#utility.yul\":8422:8550   */\n      pop\n        /* \"#utility.yul\":8589:8591   */\n      0x40\n        /* \"#utility.yul\":8615:8679   */\n      tag_272\n        /* \"#utility.yul\":8671:8678   */\n      dup9\n        /* \"#utility.yul\":8662:8668   */\n      dup3\n        /* \"#utility.yul\":8651:8660   */\n      dup10\n        /* \"#utility.yul\":8647:8669   */\n      add\n        /* \"#utility.yul\":8615:8679   */\n      tag_168\n      jump\t// in\n    tag_272:\n        /* \"#utility.yul\":8605:8679   */\n      swap4\n      pop\n        /* \"#utility.yul\":8560:8689   */\n      pop\n        /* \"#utility.yul\":8728:8730   */\n      0x60\n        /* \"#utility.yul\":8754:8818   */\n      tag_273\n        /* \"#utility.yul\":8810:8817   */\n      dup9\n        /* \"#utility.yul\":8801:8807   */\n      dup3\n        /* \"#utility.yul\":8790:8799   */\n      dup10\n        /* \"#utility.yul\":8786:8808   */\n      add\n        /* \"#utility.yul\":8754:8818   */\n      tag_168\n      jump\t// in\n    tag_273:\n        /* \"#utility.yul\":8744:8818   */\n      swap3\n      pop\n        /* \"#utility.yul\":8699:8828   */\n      pop\n        /* \"#utility.yul\":8867:8870   */\n      0x80\n        /* \"#utility.yul\":8894:8957   */\n      tag_274\n        /* \"#utility.yul\":8949:8956   */\n      dup9\n        /* \"#utility.yul\":8940:8946   */\n      dup3\n        /* \"#utility.yul\":8929:8938   */\n      dup10\n        /* \"#utility.yul\":8925:8947   */\n      add\n        /* \"#utility.yul\":8894:8957   */\n      tag_164\n      jump\t// in\n    tag_274:\n        /* \"#utility.yul\":8884:8957   */\n      swap2\n      pop\n        /* \"#utility.yul\":8838:8967   */\n      pop\n        /* \"#utility.yul\":8003:8974   */\n      swap3\n      swap6\n      pop\n      swap3\n      swap6\n      swap1\n      swap4\n      pop\n      jump\t// out\n        /* \"#utility.yul\":8980:9536   */\n    tag_105:\n        /* \"#utility.yul\":9019:9026   */\n      0x00\n        /* \"#utility.yul\":9042:9061   */\n      tag_276\n        /* \"#utility.yul\":9059:9060   */\n      dup3\n        /* \"#utility.yul\":9042:9061   */\n      tag_165\n      jump\t// in\n    tag_276:\n        /* \"#utility.yul\":9037:9061   */\n      swap2\n      pop\n        /* \"#utility.yul\":9075:9094   */\n      tag_277\n        /* \"#utility.yul\":9092:9093   */\n      dup4\n        /* \"#utility.yul\":9075:9094   */\n      tag_165\n      jump\t// in\n    tag_277:\n        /* \"#utility.yul\":9070:9094   */\n      swap3\n      pop\n        /* \"#utility.yul\":9129:9130   */\n      dup3\n        /* \"#utility.yul\":9126:9127   */\n      dup3\n        /* \"#utility.yul\":9122:9131   */\n      mul\n        /* \"#utility.yul\":9151:9180   */\n      tag_278\n        /* \"#utility.yul\":9168:9179   */\n      dup2\n        /* \"#utility.yul\":9151:9180   */\n      tag_165\n      jump\t// in\n    tag_278:\n        /* \"#utility.yul\":9140:9180   */\n      swap2\n      pop\n        /* \"#utility.yul\":9238:9304   */\n      0x8000000000000000000000000000000000000000000000000000000000000000\n        /* \"#utility.yul\":9235:9236   */\n      dup5\n        /* \"#utility.yul\":9232:9305   */\n      eq\n        /* \"#utility.yul\":9228:9229   */\n      0x00\n        /* \"#utility.yul\":9225:9226   */\n      dup5\n        /* \"#utility.yul\":9221:9230   */\n      slt\n        /* \"#utility.yul\":9217:9306   */\n      and\n        /* \"#utility.yul\":9214:9329   */\n      iszero\n      tag_279\n      jumpi\n        /* \"#utility.yul\":9309:9327   */\n      tag_280\n      tag_161\n      jump\t// in\n    tag_280:\n        /* \"#utility.yul\":9214:9329   */\n    tag_279:\n        /* \"#utility.yul\":9479:9480   */\n      dup3\n        /* \"#utility.yul\":9470:9477   */\n      dup3\n        /* \"#utility.yul\":9465:9481   */\n      sdiv\n        /* \"#utility.yul\":9462:9463   */\n      dup5\n        /* \"#utility.yul\":9459:9482   */\n      eq\n        /* \"#utility.yul\":9439:9440   */\n      dup4\n        /* \"#utility.yul\":9432:9441   */\n      iszero\n        /* \"#utility.yul\":9412:9496   */\n      or\n        /* \"#utility.yul\":9389:9529   */\n      tag_281\n      jumpi\n        /* \"#utility.yul\":9509:9527   */\n      tag_282\n      tag_161\n      jump\t// in\n    tag_282:\n        /* \"#utility.yul\":9389:9529   */\n    tag_281:\n        /* \"#utility.yul\":9027:9536   */\n      pop\n        /* \"#utility.yul\":8980:9536   */\n      swap3\n      swap2\n      pop\n      pop\n      jump\t// out\n        /* \"#utility.yul\":9542:9722   */\n    tag_169:\n        /* \"#utility.yul\":9590:9667   */\n      0x4e487b7100000000000000000000000000000000000000000000000000000000\n        /* \"#utility.yul\":9587:9588   */\n      0x00\n        /* \"#utility.yul\":9580:9668   */\n      mstore\n        /* \"#utility.yul\":9687:9691   */\n      0x12\n        /* \"#utility.yul\":9684:9685   */\n      0x04\n        /* \"#utility.yul\":9677:9692   */\n      mstore\n        /* \"#utility.yul\":9711:9715   */\n      0x24\n        /* \"#utility.yul\":9708:9709   */\n      0x00\n        /* \"#utility.yul\":9701:9716   */\n      revert\n        /* \"#utility.yul\":9728:9913   */\n    tag_109:\n        /* \"#utility.yul\":9768:9769   */\n      0x00\n        /* \"#utility.yul\":9785:9805   */\n      tag_285\n        /* \"#utility.yul\":9803:9804   */\n      dup3\n        /* \"#utility.yul\":9785:9805   */\n      tag_138\n      jump\t// in\n    tag_285:\n        /* \"#utility.yul\":9780:9805   */\n      swap2\n      pop\n        /* \"#utility.yul\":9819:9839   */\n      tag_286\n        /* \"#utility.yul\":9837:9838   */\n      dup4\n        /* \"#utility.yul\":9819:9839   */\n      tag_138\n      jump\t// in\n    tag_286:\n        /* \"#utility.yul\":9814:9839   */\n      swap3\n      pop\n        /* \"#utility.yul\":9858:9859   */\n      dup3\n        /* \"#utility.yul\":9848:9883   */\n      tag_287\n      jumpi\n        /* \"#utility.yul\":9863:9881   */\n      tag_288\n      tag_169\n      jump\t// in\n    tag_288:\n        /* \"#utility.yul\":9848:9883   */\n    tag_287:\n        /* \"#utility.yul\":9905:9906   */\n      dup3\n        /* \"#utility.yul\":9902:9903   */\n      dup3\n        /* \"#utility.yul\":9898:9907   */\n      div\n        /* \"#utility.yul\":9893:9907   */\n      swap1\n      pop\n        /* \"#utility.yul\":9728:9913   */\n      swap3\n      swap2\n      pop\n      pop\n      jump\t// out\n        /* \"#utility.yul\":9919:10093   */\n    tag_170:\n        /* \"#utility.yul\":10059:10085   */\n      0x646f65736e27742073617469736679206d79206e656564200000000000000000\n        /* \"#utility.yul\":10055:10056   */\n      0x00\n        /* \"#utility.yul\":10047:10053   */\n      dup3\n        /* \"#utility.yul\":10043:10057   */\n      add\n        /* \"#utility.yul\":10036:10086   */\n      mstore\n        /* \"#utility.yul\":9919:10093   */\n      pop\n      jump\t// out\n        /* \"#utility.yul\":10099:10465   */\n    tag_171:\n        /* \"#utility.yul\":10241:10244   */\n      0x00\n        /* \"#utility.yul\":10262:10329   */\n      tag_291\n        /* \"#utility.yul\":10326:10328   */\n      0x18\n        /* \"#utility.yul\":10321:10324   */\n      dup4\n        /* \"#utility.yul\":10262:10329   */\n      tag_153\n      jump\t// in\n    tag_291:\n        /* \"#utility.yul\":10255:10329   */\n      swap2\n      pop\n        /* \"#utility.yul\":10338:10431   */\n      tag_292\n        /* \"#utility.yul\":10427:10430   */\n      dup3\n        /* \"#utility.yul\":10338:10431   */\n      tag_170\n      jump\t// in\n    tag_292:\n        /* \"#utility.yul\":10456:10458   */\n      0x20\n        /* \"#utility.yul\":10451:10454   */\n      dup3\n        /* \"#utility.yul\":10447:10459   */\n      add\n        /* \"#utility.yul\":10440:10459   */\n      swap1\n      pop\n        /* \"#utility.yul\":10099:10465   */\n      swap2\n      swap1\n      pop\n      jump\t// out\n        /* \"#utility.yul\":10471:10890   */\n    tag_112:\n        /* \"#utility.yul\":10637:10641   */\n      0x00\n        /* \"#utility.yul\":10675:10677   */\n      0x20\n        /* \"#utility.yul\":10664:10673   */\n      dup3\n        /* \"#utility.yul\":10660:10678   */\n      add\n        /* \"#utility.yul\":10652:10678   */\n      swap1\n      pop\n        /* \"#utility.yul\":10724:10733   */\n      dup2\n        /* \"#utility.yul\":10718:10722   */\n      dup2\n        /* \"#utility.yul\":10714:10734   */\n      sub\n        /* \"#utility.yul\":10710:10711   */\n      0x00\n        /* \"#utility.yul\":10699:10708   */\n      dup4\n        /* \"#utility.yul\":10695:10712   */\n      add\n        /* \"#utility.yul\":10688:10735   */\n      mstore\n        /* \"#utility.yul\":10752:10883   */\n      tag_294\n        /* \"#utility.yul\":10878:10882   */\n      dup2\n        /* \"#utility.yul\":10752:10883   */\n      tag_171\n      jump\t// in\n    tag_294:\n        /* \"#utility.yul\":10744:10883   */\n      swap1\n      pop\n        /* \"#utility.yul\":10471:10890   */\n      swap2\n      swap1\n      pop\n      jump\t// out\n        /* \"#utility.yul\":10896:11128   */\n    tag_172:\n        /* \"#utility.yul\":11036:11070   */\n      0x46756e6374696f6e2063616e6e6f74206265206578656375746564207965742e\n        /* \"#utility.yul\":11032:11033   */\n      0x00\n        /* \"#utility.yul\":11024:11030   */\n      dup3\n        /* \"#utility.yul\":11020:11034   */\n      add\n        /* \"#utility.yul\":11013:11071   */\n      mstore\n        /* \"#utility.yul\":11105:11120   */\n      0x20506c6561736520776169742e00000000000000000000000000000000000000\n        /* \"#utility.yul\":11100:11102   */\n      0x20\n        /* \"#utility.yul\":11092:11098   */\n      dup3\n        /* \"#utility.yul\":11088:11103   */\n      add\n        /* \"#utility.yul\":11081:11121   */\n      mstore\n        /* \"#utility.yul\":10896:11128   */\n      pop\n      jump\t// out\n        /* \"#utility.yul\":11134:11500   */\n    tag_173:\n        /* \"#utility.yul\":11276:11279   */\n      0x00\n        /* \"#utility.yul\":11297:11364   */\n      tag_297\n        /* \"#utility.yul\":11361:11363   */\n      0x2d\n        /* \"#utility.yul\":11356:11359   */\n      dup4\n        /* \"#utility.yul\":11297:11364   */\n      tag_153\n      jump\t// in\n    tag_297:\n        /* \"#utility.yul\":11290:11364   */\n      swap2\n      pop\n        /* \"#utility.yul\":11373:11466   */\n      tag_298\n        /* \"#utility.yul\":11462:11465   */\n      dup3\n        /* \"#utility.yul\":11373:11466   */\n      tag_172\n      jump\t// in\n    tag_298:\n        /* \"#utility.yul\":11491:11493   */\n      0x40\n        /* \"#utility.yul\":11486:11489   */\n      dup3\n        /* \"#utility.yul\":11482:11494   */\n      add\n        /* \"#utility.yul\":11475:11494   */\n      swap1\n      pop\n        /* \"#utility.yul\":11134:11500   */\n      swap2\n      swap1\n      pop\n      jump\t// out\n        /* \"#utility.yul\":11506:11925   */\n    tag_120:\n        /* \"#utility.yul\":11672:11676   */\n      0x00\n        /* \"#utility.yul\":11710:11712   */\n      0x20\n        /* \"#utility.yul\":11699:11708   */\n      dup3\n        /* \"#utility.yul\":11695:11713   */\n      add\n        /* \"#utility.yul\":11687:11713   */\n      swap1\n      pop\n        /* \"#utility.yul\":11759:11768   */\n      dup2\n        /* \"#utility.yul\":11753:11757   */\n      dup2\n        /* \"#utility.yul\":11749:11769   */\n      sub\n        /* \"#utility.yul\":11745:11746   */\n      0x00\n        /* \"#utility.yul\":11734:11743   */\n      dup4\n        /* \"#utility.yul\":11730:11747   */\n      add\n        /* \"#utility.yul\":11723:11770   */\n      mstore\n        /* \"#utility.yul\":11787:11918   */\n      tag_300\n        /* \"#utility.yul\":11913:11917   */\n      dup2\n        /* \"#utility.yul\":11787:11918   */\n      tag_173\n      jump\t// in\n    tag_300:\n        /* \"#utility.yul\":11779:11918   */\n      swap1\n      pop\n        /* \"#utility.yul\":11506:11925   */\n      swap2\n      swap1\n      pop\n      jump\t// out\n        /* \"#utility.yul\":11931:12049   */\n    tag_174:\n        /* \"#utility.yul\":12002:12024   */\n      tag_302\n        /* \"#utility.yul\":12018:12023   */\n      dup2\n        /* \"#utility.yul\":12002:12024   */\n      tag_157\n      jump\t// in\n    tag_302:\n        /* \"#utility.yul\":11995:12000   */\n      dup2\n        /* \"#utility.yul\":11992:12025   */\n      eq\n        /* \"#utility.yul\":11982:12043   */\n      tag_303\n      jumpi\n        /* \"#utility.yul\":12039:12040   */\n      0x00\n        /* \"#utility.yul\":12036:12037   */\n      dup1\n        /* \"#utility.yul\":12029:12041   */\n      revert\n        /* \"#utility.yul\":11982:12043   */\n    tag_303:\n        /* \"#utility.yul\":11931:12049   */\n      pop\n      jump\t// out\n        /* \"#utility.yul\":12055:12194   */\n    tag_175:\n        /* \"#utility.yul\":12110:12115   */\n      0x00\n        /* \"#utility.yul\":12141:12147   */\n      dup2\n        /* \"#utility.yul\":12135:12148   */\n      mload\n        /* \"#utility.yul\":12126:12148   */\n      swap1\n      pop\n        /* \"#utility.yul\":12157:12188   */\n      tag_305\n        /* \"#utility.yul\":12182:12187   */\n      dup2\n        /* \"#utility.yul\":12157:12188   */\n      tag_174\n      jump\t// in\n    tag_305:\n        /* \"#utility.yul\":12055:12194   */\n      swap3\n      swap2\n      pop\n      pop\n      jump\t// out\n        /* \"#utility.yul\":12200:12547   */\n    tag_126:\n        /* \"#utility.yul\":12268:12274   */\n      0x00\n        /* \"#utility.yul\":12317:12319   */\n      0x20\n        /* \"#utility.yul\":12305:12314   */\n      dup3\n        /* \"#utility.yul\":12296:12303   */\n      dup5\n        /* \"#utility.yul\":12292:12315   */\n      sub\n        /* \"#utility.yul\":12288:12320   */\n      slt\n        /* \"#utility.yul\":12285:12404   */\n      iszero\n      tag_307\n      jumpi\n        /* \"#utility.yul\":12323:12402   */\n      tag_308\n      tag_144\n      jump\t// in\n    tag_308:\n        /* \"#utility.yul\":12285:12404   */\n    tag_307:\n        /* \"#utility.yul\":12443:12444   */\n      0x00\n        /* \"#utility.yul\":12468:12530   */\n      tag_309\n        /* \"#utility.yul\":12522:12529   */\n      dup5\n        /* \"#utility.yul\":12513:12519   */\n      dup3\n        /* \"#utility.yul\":12502:12511   */\n      dup6\n        /* \"#utility.yul\":12498:12520   */\n      add\n        /* \"#utility.yul\":12468:12530   */\n      tag_175\n      jump\t// in\n    tag_309:\n        /* \"#utility.yul\":12458:12530   */\n      swap2\n      pop\n        /* \"#utility.yul\":12414:12540   */\n      pop\n        /* \"#utility.yul\":12200:12547   */\n      swap3\n      swap2\n      pop\n      pop\n      jump\t// out\n        /* \"#utility.yul\":12553:12733   */\n    tag_130:\n        /* \"#utility.yul\":12601:12678   */\n      0x4e487b7100000000000000000000000000000000000000000000000000000000\n        /* \"#utility.yul\":12598:12599   */\n      0x00\n        /* \"#utility.yul\":12591:12679   */\n      mstore\n        /* \"#utility.yul\":12698:12702   */\n      0x32\n        /* \"#utility.yul\":12695:12696   */\n      0x04\n        /* \"#utility.yul\":12688:12703   */\n      mstore\n        /* \"#utility.yul\":12722:12726   */\n      0x24\n        /* \"#utility.yul\":12719:12720   */\n      0x00\n        /* \"#utility.yul\":12712:12727   */\n      revert\n        /* \"#utility.yul\":12739:12968   */\n    tag_176:\n        /* \"#utility.yul\":12879:12913   */\n      0x6f6e6c792066697273742073656e6465722063616e2077697468647261772074\n        /* \"#utility.yul\":12875:12876   */\n      0x00\n        /* \"#utility.yul\":12867:12873   */\n      dup3\n        /* \"#utility.yul\":12863:12877   */\n      add\n        /* \"#utility.yul\":12856:12914   */\n      mstore\n        /* \"#utility.yul\":12948:12960   */\n      0x686569722066756e647300000000000000000000000000000000000000000000\n        /* \"#utility.yul\":12943:12945   */\n      0x20\n        /* \"#utility.yul\":12935:12941   */\n      dup3\n        /* \"#utility.yul\":12931:12946   */\n      add\n        /* \"#utility.yul\":12924:12961   */\n      mstore\n        /* \"#utility.yul\":12739:12968   */\n      pop\n      jump\t// out\n        /* \"#utility.yul\":12974:13340   */\n    tag_177:\n        /* \"#utility.yul\":13116:13119   */\n      0x00\n        /* \"#utility.yul\":13137:13204   */\n      tag_313\n        /* \"#utility.yul\":13201:13203   */\n      0x2a\n        /* \"#utility.yul\":13196:13199   */\n      dup4\n        /* \"#utility.yul\":13137:13204   */\n      tag_153\n      jump\t// in\n    tag_313:\n        /* \"#utility.yul\":13130:13204   */\n      swap2\n      pop\n        /* \"#utility.yul\":13213:13306   */\n      tag_314\n        /* \"#utility.yul\":13302:13305   */\n      dup3\n        /* \"#utility.yul\":13213:13306   */\n      tag_176\n      jump\t// in\n    tag_314:\n        /* \"#utility.yul\":13331:13333   */\n      0x40\n        /* \"#utility.yul\":13326:13329   */\n      dup3\n        /* \"#utility.yul\":13322:13334   */\n      add\n        /* \"#utility.yul\":13315:13334   */\n      swap1\n      pop\n        /* \"#utility.yul\":12974:13340   */\n      swap2\n      swap1\n      pop\n      jump\t// out\n        /* \"#utility.yul\":13346:13765   */\n    tag_134:\n        /* \"#utility.yul\":13512:13516   */\n      0x00\n        /* \"#utility.yul\":13550:13552   */\n      0x20\n        /* \"#utility.yul\":13539:13548   */\n      dup3\n        /* \"#utility.yul\":13535:13553   */\n      add\n        /* \"#utility.yul\":13527:13553   */\n      swap1\n      pop\n        /* \"#utility.yul\":13599:13608   */\n      dup2\n        /* \"#utility.yul\":13593:13597   */\n      dup2\n        /* \"#utility.yul\":13589:13609   */\n      sub\n        /* \"#utility.yul\":13585:13586   */\n      0x00\n        /* \"#utility.yul\":13574:13583   */\n      dup4\n        /* \"#utility.yul\":13570:13587   */\n      add\n        /* \"#utility.yul\":13563:13610   */\n      mstore\n        /* \"#utility.yul\":13627:13758   */\n      tag_316\n        /* \"#utility.yul\":13753:13757   */\n      dup2\n        /* \"#utility.yul\":13627:13758   */\n      tag_177\n      jump\t// in\n    tag_316:\n        /* \"#utility.yul\":13619:13758   */\n      swap1\n      pop\n        /* \"#utility.yul\":13346:13765   */\n      swap2\n      swap1\n      pop\n      jump\t// out\n\n    auxdata: 0xa26469706673582212205924c92680c5998a418d35d12a286ce111d868e026c5b2ae4e1ad1bb49132b6664736f6c63430008180033\n}\n",
				"bytecode": {
					"linkReferences": {},
					"object": "6080604052670de0b6b3a76400005f5534801561001a575f80fd5b50610f2a806100285f395ff3fe6080604052600436106100dc575f3560e01c8063d1d9165d1161007e578063e351332c11610058578063e351332c14610272578063f0141d84146102ae578063f3aaee9d146102d8578063fb146a0614610302576100dc565b8063d1d9165d14610214578063dd2b47db1461021e578063e06314ec14610248576100dc565b80636aa9ecd3116100ba5780636aa9ecd31461014857806389ffce481461018457806398d5fdca146101c0578063b285ad3c146101ea576100dc565b80632e01594f146100e05780632e64cec1146100f657806362b8d69314610120575b5f80fd5b3480156100eb575f80fd5b506100f4610318565b005b348015610101575f80fd5b5061010a61039d565b604051610117919061087f565b60405180910390f35b34801561012b575f80fd5b50610146600480360381019061014191906108cd565b6103f3565b005b348015610153575f80fd5b5061016e600480360381019061016991906108cd565b610408565b60405161017b9190610937565b60405180910390f35b34801561018f575f80fd5b506101aa60048036038101906101a591906108cd565b610443565b6040516101b7919061095f565b60405180910390f35b3480156101cb575f80fd5b506101d4610463565b6040516101e1919061095f565b60405180910390f35b3480156101f5575f80fd5b506101fe610508565b60405161020b919061095f565b60405180910390f35b61021c61050d565b005b348015610229575f80fd5b5061023261056a565b60405161023f919061095f565b60405180910390f35b348015610253575f80fd5b5061025c6105ff565b6040516102699190610a02565b60405180910390f35b34801561027d575f80fd5b50610298600480360381019061029391906108cd565b610681565b6040516102a5919061095f565b60405180910390f35b3480156102b9575f80fd5b506102c2610687565b6040516102cf9190610a3d565b60405180910390f35b3480156102e3575f80fd5b506102ec61070e565b6040516102f9919061095f565b60405180910390f35b34801561030d575f80fd5b50610316610714565b005b600354421161035c576040517f08c379a000000000000000000000000000000000000000000000000000000000815260040161035390610aa0565b60405180910390fd5b5f5b600a81101561039a57600181908060018154018082558091505060019003905f5260205f20015f9091909190915055808060010191505061035e565b50565b606060018054806020026020016040519081016040528092919081815260200182805480156103e957602002820191905f5260205f20905b8154815260200190600101908083116103d5575b5050505050905090565b80426103ff9190610aeb565b60038190555050565b60028181548110610417575f80fd5b905f5260205f20015f915054906101000a900473ffffffffffffffffffffffffffffffffffffffff1681565b60018181548110610452575f80fd5b905f5260205f20015f915090505481565b5f8073694aa1769357215de4fac081bf1f309adc32530690505f8173ffffffffffffffffffffffffffffffffffffffff1663feaf968c6040518163ffffffff1660e01b815260040160a060405180830381865afa1580156104c6573d5f803e3d5ffd5b505050506040513d601f19601f820116820180604052508101906104ea9190610ba4565b5050509150506402540be400816105019190610c1b565b9250505090565b5f5481565b5f546402540be40061051e34610681565b6105289190610cbe565b11610568576040517f08c379a000000000000000000000000000000000000000000000000000000000815260040161055f90610d38565b60405180910390fd5b565b5f80735fb1616f78da7afc9ff79e0371741a747d2a7f2290505f8173ffffffffffffffffffffffffffffffffffffffff1663feaf968c6040518163ffffffff1660e01b815260040160a060405180830381865afa1580156105cd573d5f803e3d5ffd5b505050506040513d601f19601f820116820180604052508101906105f19190610ba4565b505050915050809250505090565b6060600354421015610646576040517f08c379a000000000000000000000000000000000000000000000000000000000815260040161063d90610dc6565b60405180910390fd5b6040518060400160405280601f81526020017f46756e6374696f6e206578656375746564207375636365737366756c6c792100815250905090565b5f919050565b5f73694aa1769357215de4fac081bf1f309adc32530673ffffffffffffffffffffffffffffffffffffffff1663313ce5676040518163ffffffff1660e01b8152600401602060405180830381865afa1580156106e5573d5f803e3d5ffd5b505050506040513d601f19601f820116820180604052508101906107099190610e0e565b905090565b60035481565b60025f8154811061072857610727610e39565b5b905f5260205f20015f9054906101000a900473ffffffffffffffffffffffffffffffffffffffff1673ffffffffffffffffffffffffffffffffffffffff163373ffffffffffffffffffffffffffffffffffffffff16146107bd576040517f08c379a00000000000000000000000000000000000000000000000000000000081526004016107b490610ed6565b60405180910390fd5b565b5f81519050919050565b5f82825260208201905092915050565b5f819050602082019050919050565b5f819050919050565b6107fa816107e8565b82525050565b5f61080b83836107f1565b60208301905092915050565b5f602082019050919050565b5f61082d826107bf565b61083781856107c9565b9350610842836107d9565b805f5b838110156108725781516108598882610800565b975061086483610817565b925050600181019050610845565b5085935050505092915050565b5f6020820190508181035f8301526108978184610823565b905092915050565b5f80fd5b6108ac816107e8565b81146108b6575f80fd5b50565b5f813590506108c7816108a3565b92915050565b5f602082840312156108e2576108e161089f565b5b5f6108ef848285016108b9565b91505092915050565b5f73ffffffffffffffffffffffffffffffffffffffff82169050919050565b5f610921826108f8565b9050919050565b61093181610917565b82525050565b5f60208201905061094a5f830184610928565b92915050565b610959816107e8565b82525050565b5f6020820190506109725f830184610950565b92915050565b5f81519050919050565b5f82825260208201905092915050565b5f5b838110156109af578082015181840152602081019050610994565b5f8484015250505050565b5f601f19601f8301169050919050565b5f6109d482610978565b6109de8185610982565b93506109ee818560208601610992565b6109f7816109ba565b840191505092915050565b5f6020820190508181035f830152610a1a81846109ca565b905092915050565b5f60ff82169050919050565b610a3781610a22565b82525050565b5f602082019050610a505f830184610a2e565b92915050565b7f706c65617365207761697420666f722074696d6520636f6d706c6574696f6e005f82015250565b5f610a8a601f83610982565b9150610a9582610a56565b602082019050919050565b5f6020820190508181035f830152610ab781610a7e565b9050919050565b7f4e487b71000000000000000000000000000000000000000000000000000000005f52601160045260245ffd5b5f610af5826107e8565b9150610b00836107e8565b9250828201905080821115610b1857610b17610abe565b5b92915050565b5f69ffffffffffffffffffff82169050919050565b610b3c81610b1e565b8114610b46575f80fd5b50565b5f81519050610b5781610b33565b92915050565b5f819050919050565b610b6f81610b5d565b8114610b79575f80fd5b50565b5f81519050610b8a81610b66565b92915050565b5f81519050610b9e816108a3565b92915050565b5f805f805f60a08688031215610bbd57610bbc61089f565b5b5f610bca88828901610b49565b9550506020610bdb88828901610b7c565b9450506040610bec88828901610b90565b9350506060610bfd88828901610b90565b9250506080610c0e88828901610b49565b9150509295509295909350565b5f610c2582610b5d565b9150610c3083610b5d565b9250828202610c3e81610b5d565b91507f800000000000000000000000000000000000000000000000000000000000000084145f84121615610c7557610c74610abe565b5b8282058414831517610c8a57610c89610abe565b5b5092915050565b7f4e487b71000000000000000000000000000000000000000000000000000000005f52601260045260245ffd5b5f610cc8826107e8565b9150610cd3836107e8565b925082610ce357610ce2610c91565b5b828204905092915050565b7f646f65736e27742073617469736679206d79206e6565642000000000000000005f82015250565b5f610d22601883610982565b9150610d2d82610cee565b602082019050919050565b5f6020820190508181035f830152610d4f81610d16565b9050919050565b7f46756e6374696f6e2063616e6e6f74206265206578656375746564207965742e5f8201527f20506c6561736520776169742e00000000000000000000000000000000000000602082015250565b5f610db0602d83610982565b9150610dbb82610d56565b604082019050919050565b5f6020820190508181035f830152610ddd81610da4565b9050919050565b610ded81610a22565b8114610df7575f80fd5b50565b5f81519050610e0881610de4565b92915050565b5f60208284031215610e2357610e2261089f565b5b5f610e3084828501610dfa565b91505092915050565b7f4e487b71000000000000000000000000000000000000000000000000000000005f52603260045260245ffd5b7f6f6e6c792066697273742073656e6465722063616e20776974686472617720745f8201527f686569722066756e647300000000000000000000000000000000000000000000602082015250565b5f610ec0602a83610982565b9150610ecb82610e66565b604082019050919050565b5f6020820190508181035f830152610eed81610eb4565b905091905056fea26469706673582212205924c92680c5998a418d35d12a286ce111d868e026c5b2ae4e1ad1bb49132b6664736f6c63430008180033",
					"opcodes": "PUSH1 0x80 PUSH1 0x40 MSTORE PUSH8 0xDE0B6B3A7640000 PUSH0 SSTORE CALLVALUE DUP1 ISZERO PUSH2 0x1A JUMPI PUSH0 DUP1 REVERT JUMPDEST POP PUSH2 0xF2A DUP1 PUSH2 0x28 PUSH0 CODECOPY PUSH0 RETURN INVALID PUSH1 0x80 PUSH1 0x40 MSTORE PUSH1 0x4 CALLDATASIZE LT PUSH2 0xDC JUMPI PUSH0 CALLDATALOAD PUSH1 0xE0 SHR DUP1 PUSH4 0xD1D9165D GT PUSH2 0x7E JUMPI DUP1 PUSH4 0xE351332C GT PUSH2 0x58 JUMPI DUP1 PUSH4 0xE351332C EQ PUSH2 0x272 JUMPI DUP1 PUSH4 0xF0141D84 EQ PUSH2 0x2AE JUMPI DUP1 PUSH4 0xF3AAEE9D EQ PUSH2 0x2D8 JUMPI DUP1 PUSH4 0xFB146A06 EQ PUSH2 0x302 JUMPI PUSH2 0xDC JUMP JUMPDEST DUP1 PUSH4 0xD1D9165D EQ PUSH2 0x214 JUMPI DUP1 PUSH4 0xDD2B47DB EQ PUSH2 0x21E JUMPI DUP1 PUSH4 0xE06314EC EQ PUSH2 0x248 JUMPI PUSH2 0xDC JUMP JUMPDEST DUP1 PUSH4 0x6AA9ECD3 GT PUSH2 0xBA JUMPI DUP1 PUSH4 0x6AA9ECD3 EQ PUSH2 0x148 JUMPI DUP1 PUSH4 0x89FFCE48 EQ PUSH2 0x184 JUMPI DUP1 PUSH4 0x98D5FDCA EQ PUSH2 0x1C0 JUMPI DUP1 PUSH4 0xB285AD3C EQ PUSH2 0x1EA JUMPI PUSH2 0xDC JUMP JUMPDEST DUP1 PUSH4 0x2E01594F EQ PUSH2 0xE0 JUMPI DUP1 PUSH4 0x2E64CEC1 EQ PUSH2 0xF6 JUMPI DUP1 PUSH4 0x62B8D693 EQ PUSH2 0x120 JUMPI JUMPDEST PUSH0 DUP1 REVERT JUMPDEST CALLVALUE DUP1 ISZERO PUSH2 0xEB JUMPI PUSH0 DUP1 REVERT JUMPDEST POP PUSH2 0xF4 PUSH2 0x318 JUMP JUMPDEST STOP JUMPDEST CALLVALUE DUP1 ISZERO PUSH2 0x101 JUMPI PUSH0 DUP1 REVERT JUMPDEST POP PUSH2 0x10A PUSH2 0x39D JUMP JUMPDEST PUSH1 0x40 MLOAD PUSH2 0x117 SWAP2 SWAP1 PUSH2 0x87F JUMP JUMPDEST PUSH1 0x40 MLOAD DUP1 SWAP2 SUB SWAP1 RETURN JUMPDEST CALLVALUE DUP1 ISZERO PUSH2 0x12B JUMPI PUSH0 DUP1 REVERT JUMPDEST POP PUSH2 0x146 PUSH1 0x4 DUP1 CALLDATASIZE SUB DUP2 ADD SWAP1 PUSH2 0x141 SWAP2 SWAP1 PUSH2 0x8CD JUMP JUMPDEST PUSH2 0x3F3 JUMP JUMPDEST STOP JUMPDEST CALLVALUE DUP1 ISZERO PUSH2 0x153 JUMPI PUSH0 DUP1 REVERT JUMPDEST POP PUSH2 0x16E PUSH1 0x4 DUP1 CALLDATASIZE SUB DUP2 ADD SWAP1 PUSH2 0x169 SWAP2 SWAP1 PUSH2 0x8CD JUMP JUMPDEST PUSH2 0x408 JUMP JUMPDEST PUSH1 0x40 MLOAD PUSH2 0x17B SWAP2 SWAP1 PUSH2 0x937 JUMP JUMPDEST PUSH1 0x40 MLOAD DUP1 SWAP2 SUB SWAP1 RETURN JUMPDEST CALLVALUE DUP1 ISZERO PUSH2 0x18F JUMPI PUSH0 DUP1 REVERT JUMPDEST POP PUSH2 0x1AA PUSH1 0x4 DUP1 CALLDATASIZE SUB DUP2 ADD SWAP1 PUSH2 0x1A5 SWAP2 SWAP1 PUSH2 0x8CD JUMP JUMPDEST PUSH2 0x443 JUMP JUMPDEST PUSH1 0x40 MLOAD PUSH2 0x1B7 SWAP2 SWAP1 PUSH2 0x95F JUMP JUMPDEST PUSH1 0x40 MLOAD DUP1 SWAP2 SUB SWAP1 RETURN JUMPDEST CALLVALUE DUP1 ISZERO PUSH2 0x1CB JUMPI PUSH0 DUP1 REVERT JUMPDEST POP PUSH2 0x1D4 PUSH2 0x463 JUMP JUMPDEST PUSH1 0x40 MLOAD PUSH2 0x1E1 SWAP2 SWAP1 PUSH2 0x95F JUMP JUMPDEST PUSH1 0x40 MLOAD DUP1 SWAP2 SUB SWAP1 RETURN JUMPDEST CALLVALUE DUP1 ISZERO PUSH2 0x1F5 JUMPI PUSH0 DUP1 REVERT JUMPDEST POP PUSH2 0x1FE PUSH2 0x508 JUMP JUMPDEST PUSH1 0x40 MLOAD PUSH2 0x20B SWAP2 SWAP1 PUSH2 0x95F JUMP JUMPDEST PUSH1 0x40 MLOAD DUP1 SWAP2 SUB SWAP1 RETURN JUMPDEST PUSH2 0x21C PUSH2 0x50D JUMP JUMPDEST STOP JUMPDEST CALLVALUE DUP1 ISZERO PUSH2 0x229 JUMPI PUSH0 DUP1 REVERT JUMPDEST POP PUSH2 0x232 PUSH2 0x56A JUMP JUMPDEST PUSH1 0x40 MLOAD PUSH2 0x23F SWAP2 SWAP1 PUSH2 0x95F JUMP JUMPDEST PUSH1 0x40 MLOAD DUP1 SWAP2 SUB SWAP1 RETURN JUMPDEST CALLVALUE DUP1 ISZERO PUSH2 0x253 JUMPI PUSH0 DUP1 REVERT JUMPDEST POP PUSH2 0x25C PUSH2 0x5FF JUMP JUMPDEST PUSH1 0x40 MLOAD PUSH2 0x269 SWAP2 SWAP1 PUSH2 0xA02 JUMP JUMPDEST PUSH1 0x40 MLOAD DUP1 SWAP2 SUB SWAP1 RETURN JUMPDEST CALLVALUE DUP1 ISZERO PUSH2 0x27D JUMPI PUSH0 DUP1 REVERT JUMPDEST POP PUSH2 0x298 PUSH1 0x4 DUP1 CALLDATASIZE SUB DUP2 ADD SWAP1 PUSH2 0x293 SWAP2 SWAP1 PUSH2 0x8CD JUMP JUMPDEST PUSH2 0x681 JUMP JUMPDEST PUSH1 0x40 MLOAD PUSH2 0x2A5 SWAP2 SWAP1 PUSH2 0x95F JUMP JUMPDEST PUSH1 0x40 MLOAD DUP1 SWAP2 SUB SWAP1 RETURN JUMPDEST CALLVALUE DUP1 ISZERO PUSH2 0x2B9 JUMPI PUSH0 DUP1 REVERT JUMPDEST POP PUSH2 0x2C2 PUSH2 0x687 JUMP JUMPDEST PUSH1 0x40 MLOAD PUSH2 0x2CF SWAP2 SWAP1 PUSH2 0xA3D JUMP JUMPDEST PUSH1 0x40 MLOAD DUP1 SWAP2 SUB SWAP1 RETURN JUMPDEST CALLVALUE DUP1 ISZERO PUSH2 0x2E3 JUMPI PUSH0 DUP1 REVERT JUMPDEST POP PUSH2 0x2EC PUSH2 0x70E JUMP JUMPDEST PUSH1 0x40 MLOAD PUSH2 0x2F9 SWAP2 SWAP1 PUSH2 0x95F JUMP JUMPDEST PUSH1 0x40 MLOAD DUP1 SWAP2 SUB SWAP1 RETURN JUMPDEST CALLVALUE DUP1 ISZERO PUSH2 0x30D JUMPI PUSH0 DUP1 REVERT JUMPDEST POP PUSH2 0x316 PUSH2 0x714 JUMP JUMPDEST STOP JUMPDEST PUSH1 0x3 SLOAD TIMESTAMP GT PUSH2 0x35C JUMPI PUSH1 0x40 MLOAD PUSH32 0x8C379A000000000000000000000000000000000000000000000000000000000 DUP2 MSTORE PUSH1 0x4 ADD PUSH2 0x353 SWAP1 PUSH2 0xAA0 JUMP JUMPDEST PUSH1 0x40 MLOAD DUP1 SWAP2 SUB SWAP1 REVERT JUMPDEST PUSH0 JUMPDEST PUSH1 0xA DUP2 LT ISZERO PUSH2 0x39A JUMPI PUSH1 0x1 DUP2 SWAP1 DUP1 PUSH1 0x1 DUP2 SLOAD ADD DUP1 DUP3 SSTORE DUP1 SWAP2 POP POP PUSH1 0x1 SWAP1 SUB SWAP1 PUSH0 MSTORE PUSH1 0x20 PUSH0 KECCAK256 ADD PUSH0 SWAP1 SWAP2 SWAP1 SWAP2 SWAP1 SWAP2 POP SSTORE DUP1 DUP1 PUSH1 0x1 ADD SWAP2 POP POP PUSH2 0x35E JUMP JUMPDEST POP JUMP JUMPDEST PUSH1 0x60 PUSH1 0x1 DUP1 SLOAD DUP1 PUSH1 0x20 MUL PUSH1 0x20 ADD PUSH1 0x40 MLOAD SWAP1 DUP2 ADD PUSH1 0x40 MSTORE DUP1 SWAP3 SWAP2 SWAP1 DUP2 DUP2 MSTORE PUSH1 0x20 ADD DUP3 DUP1 SLOAD DUP1 ISZERO PUSH2 0x3E9 JUMPI PUSH1 0x20 MUL DUP3 ADD SWAP2 SWAP1 PUSH0 MSTORE PUSH1 0x20 PUSH0 KECCAK256 SWAP1 JUMPDEST DUP2 SLOAD DUP2 MSTORE PUSH1 0x20 ADD SWAP1 PUSH1 0x1 ADD SWAP1 DUP1 DUP4 GT PUSH2 0x3D5 JUMPI JUMPDEST POP POP POP POP POP SWAP1 POP SWAP1 JUMP JUMPDEST DUP1 TIMESTAMP PUSH2 0x3FF SWAP2 SWAP1 PUSH2 0xAEB JUMP JUMPDEST PUSH1 0x3 DUP2 SWAP1 SSTORE POP POP JUMP JUMPDEST PUSH1 0x2 DUP2 DUP2 SLOAD DUP2 LT PUSH2 0x417 JUMPI PUSH0 DUP1 REVERT JUMPDEST SWAP1 PUSH0 MSTORE PUSH1 0x20 PUSH0 KECCAK256 ADD PUSH0 SWAP2 POP SLOAD SWAP1 PUSH2 0x100 EXP SWAP1 DIV PUSH20 0xFFFFFFFFFFFFFFFFFFFFFFFFFFFFFFFFFFFFFFFF AND DUP2 JUMP JUMPDEST PUSH1 0x1 DUP2 DUP2 SLOAD DUP2 LT PUSH2 0x452 JUMPI PUSH0 DUP1 REVERT JUMPDEST SWAP1 PUSH0 MSTORE PUSH1 0x20 PUSH0 KECCAK256 ADD PUSH0 SWAP2 POP SWAP1 POP SLOAD DUP2 JUMP JUMPDEST PUSH0 DUP1 PUSH20 0x694AA1769357215DE4FAC081BF1F309ADC325306 SWAP1 POP PUSH0 DUP2 PUSH20 0xFFFFFFFFFFFFFFFFFFFFFFFFFFFFFFFFFFFFFFFF AND PUSH4 0xFEAF968C PUSH1 0x40 MLOAD DUP2 PUSH4 0xFFFFFFFF AND PUSH1 0xE0 SHL DUP2 MSTORE PUSH1 0x4 ADD PUSH1 0xA0 PUSH1 0x40 MLOAD DUP1 DUP4 SUB DUP2 DUP7 GAS STATICCALL ISZERO DUP1 ISZERO PUSH2 0x4C6 JUMPI RETURNDATASIZE PUSH0 DUP1 RETURNDATACOPY RETURNDATASIZE PUSH0 REVERT JUMPDEST POP POP POP POP PUSH1 0x40 MLOAD RETURNDATASIZE PUSH1 0x1F NOT PUSH1 0x1F DUP3 ADD AND DUP3 ADD DUP1 PUSH1 0x40 MSTORE POP DUP2 ADD SWAP1 PUSH2 0x4EA SWAP2 SWAP1 PUSH2 0xBA4 JUMP JUMPDEST POP POP POP SWAP2 POP POP PUSH5 0x2540BE400 DUP2 PUSH2 0x501 SWAP2 SWAP1 PUSH2 0xC1B JUMP JUMPDEST SWAP3 POP POP POP SWAP1 JUMP JUMPDEST PUSH0 SLOAD DUP2 JUMP JUMPDEST PUSH0 SLOAD PUSH5 0x2540BE400 PUSH2 0x51E CALLVALUE PUSH2 0x681 JUMP JUMPDEST PUSH2 0x528 SWAP2 SWAP1 PUSH2 0xCBE JUMP JUMPDEST GT PUSH2 0x568 JUMPI PUSH1 0x40 MLOAD PUSH32 0x8C379A000000000000000000000000000000000000000000000000000000000 DUP2 MSTORE PUSH1 0x4 ADD PUSH2 0x55F SWAP1 PUSH2 0xD38 JUMP JUMPDEST PUSH1 0x40 MLOAD DUP1 SWAP2 SUB SWAP1 REVERT JUMPDEST JUMP JUMPDEST PUSH0 DUP1 PUSH20 0x5FB1616F78DA7AFC9FF79E0371741A747D2A7F22 SWAP1 POP PUSH0 DUP2 PUSH20 0xFFFFFFFFFFFFFFFFFFFFFFFFFFFFFFFFFFFFFFFF AND PUSH4 0xFEAF968C PUSH1 0x40 MLOAD DUP2 PUSH4 0xFFFFFFFF AND PUSH1 0xE0 SHL DUP2 MSTORE PUSH1 0x4 ADD PUSH1 0xA0 PUSH1 0x40 MLOAD DUP1 DUP4 SUB DUP2 DUP7 GAS STATICCALL ISZERO DUP1 ISZERO PUSH2 0x5CD JUMPI RETURNDATASIZE PUSH0 DUP1 RETURNDATACOPY RETURNDATASIZE PUSH0 REVERT JUMPDEST POP POP POP POP PUSH1 0x40 MLOAD RETURNDATASIZE PUSH1 0x1F NOT PUSH1 0x1F DUP3 ADD AND DUP3 ADD DUP1 PUSH1 0x40 MSTORE POP DUP2 ADD SWAP1 PUSH2 0x5F1 SWAP2 SWAP1 PUSH2 0xBA4 JUMP JUMPDEST POP POP POP SWAP2 POP POP DUP1 SWAP3 POP POP POP SWAP1 JUMP JUMPDEST PUSH1 0x60 PUSH1 0x3 SLOAD TIMESTAMP LT ISZERO PUSH2 0x646 JUMPI PUSH1 0x40 MLOAD PUSH32 0x8C379A000000000000000000000000000000000000000000000000000000000 DUP2 MSTORE PUSH1 0x4 ADD PUSH2 0x63D SWAP1 PUSH2 0xDC6 JUMP JUMPDEST PUSH1 0x40 MLOAD DUP1 SWAP2 SUB SWAP1 REVERT JUMPDEST PUSH1 0x40 MLOAD DUP1 PUSH1 0x40 ADD PUSH1 0x40 MSTORE DUP1 PUSH1 0x1F DUP2 MSTORE PUSH1 0x20 ADD PUSH32 0x46756E6374696F6E206578656375746564207375636365737366756C6C792100 DUP2 MSTORE POP SWAP1 POP SWAP1 JUMP JUMPDEST PUSH0 SWAP2 SWAP1 POP JUMP JUMPDEST PUSH0 PUSH20 0x694AA1769357215DE4FAC081BF1F309ADC325306 PUSH20 0xFFFFFFFFFFFFFFFFFFFFFFFFFFFFFFFFFFFFFFFF AND PUSH4 0x313CE567 PUSH1 0x40 MLOAD DUP2 PUSH4 0xFFFFFFFF AND PUSH1 0xE0 SHL DUP2 MSTORE PUSH1 0x4 ADD PUSH1 0x20 PUSH1 0x40 MLOAD DUP1 DUP4 SUB DUP2 DUP7 GAS STATICCALL ISZERO DUP1 ISZERO PUSH2 0x6E5 JUMPI RETURNDATASIZE PUSH0 DUP1 RETURNDATACOPY RETURNDATASIZE PUSH0 REVERT JUMPDEST POP POP POP POP PUSH1 0x40 MLOAD RETURNDATASIZE PUSH1 0x1F NOT PUSH1 0x1F DUP3 ADD AND DUP3 ADD DUP1 PUSH1 0x40 MSTORE POP DUP2 ADD SWAP1 PUSH2 0x709 SWAP2 SWAP1 PUSH2 0xE0E JUMP JUMPDEST SWAP1 POP SWAP1 JUMP JUMPDEST PUSH1 0x3 SLOAD DUP2 JUMP JUMPDEST PUSH1 0x2 PUSH0 DUP2 SLOAD DUP2 LT PUSH2 0x728 JUMPI PUSH2 0x727 PUSH2 0xE39 JUMP JUMPDEST JUMPDEST SWAP1 PUSH0 MSTORE PUSH1 0x20 PUSH0 KECCAK256 ADD PUSH0 SWAP1 SLOAD SWAP1 PUSH2 0x100 EXP SWAP1 DIV PUSH20 0xFFFFFFFFFFFFFFFFFFFFFFFFFFFFFFFFFFFFFFFF AND PUSH20 0xFFFFFFFFFFFFFFFFFFFFFFFFFFFFFFFFFFFFFFFF AND CALLER PUSH20 0xFFFFFFFFFFFFFFFFFFFFFFFFFFFFFFFFFFFFFFFF AND EQ PUSH2 0x7BD JUMPI PUSH1 0x40 MLOAD PUSH32 0x8C379A000000000000000000000000000000000000000000000000000000000 DUP2 MSTORE PUSH1 0x4 ADD PUSH2 0x7B4 SWAP1 PUSH2 0xED6 JUMP JUMPDEST PUSH1 0x40 MLOAD DUP1 SWAP2 SUB SWAP1 REVERT JUMPDEST JUMP JUMPDEST PUSH0 DUP2 MLOAD SWAP1 POP SWAP2 SWAP1 POP JUMP JUMPDEST PUSH0 DUP3 DUP3 MSTORE PUSH1 0x20 DUP3 ADD SWAP1 POP SWAP3 SWAP2 POP POP JUMP JUMPDEST PUSH0 DUP2 SWAP1 POP PUSH1 0x20 DUP3 ADD SWAP1 POP SWAP2 SWAP1 POP JUMP JUMPDEST PUSH0 DUP2 SWAP1 POP SWAP2 SWAP1 POP JUMP JUMPDEST PUSH2 0x7FA DUP2 PUSH2 0x7E8 JUMP JUMPDEST DUP3 MSTORE POP POP JUMP JUMPDEST PUSH0 PUSH2 0x80B DUP4 DUP4 PUSH2 0x7F1 JUMP JUMPDEST PUSH1 0x20 DUP4 ADD SWAP1 POP SWAP3 SWAP2 POP POP JUMP JUMPDEST PUSH0 PUSH1 0x20 DUP3 ADD SWAP1 POP SWAP2 SWAP1 POP JUMP JUMPDEST PUSH0 PUSH2 0x82D DUP3 PUSH2 0x7BF JUMP JUMPDEST PUSH2 0x837 DUP2 DUP6 PUSH2 0x7C9 JUMP JUMPDEST SWAP4 POP PUSH2 0x842 DUP4 PUSH2 0x7D9 JUMP JUMPDEST DUP1 PUSH0 JUMPDEST DUP4 DUP2 LT ISZERO PUSH2 0x872 JUMPI DUP2 MLOAD PUSH2 0x859 DUP9 DUP3 PUSH2 0x800 JUMP JUMPDEST SWAP8 POP PUSH2 0x864 DUP4 PUSH2 0x817 JUMP JUMPDEST SWAP3 POP POP PUSH1 0x1 DUP2 ADD SWAP1 POP PUSH2 0x845 JUMP JUMPDEST POP DUP6 SWAP4 POP POP POP POP SWAP3 SWAP2 POP POP JUMP JUMPDEST PUSH0 PUSH1 0x20 DUP3 ADD SWAP1 POP DUP2 DUP2 SUB PUSH0 DUP4 ADD MSTORE PUSH2 0x897 DUP2 DUP5 PUSH2 0x823 JUMP JUMPDEST SWAP1 POP SWAP3 SWAP2 POP POP JUMP JUMPDEST PUSH0 DUP1 REVERT JUMPDEST PUSH2 0x8AC DUP2 PUSH2 0x7E8 JUMP JUMPDEST DUP2 EQ PUSH2 0x8B6 JUMPI PUSH0 DUP1 REVERT JUMPDEST POP JUMP JUMPDEST PUSH0 DUP2 CALLDATALOAD SWAP1 POP PUSH2 0x8C7 DUP2 PUSH2 0x8A3 JUMP JUMPDEST SWAP3 SWAP2 POP POP JUMP JUMPDEST PUSH0 PUSH1 0x20 DUP3 DUP5 SUB SLT ISZERO PUSH2 0x8E2 JUMPI PUSH2 0x8E1 PUSH2 0x89F JUMP JUMPDEST JUMPDEST PUSH0 PUSH2 0x8EF DUP5 DUP3 DUP6 ADD PUSH2 0x8B9 JUMP JUMPDEST SWAP2 POP POP SWAP3 SWAP2 POP POP JUMP JUMPDEST PUSH0 PUSH20 0xFFFFFFFFFFFFFFFFFFFFFFFFFFFFFFFFFFFFFFFF DUP3 AND SWAP1 POP SWAP2 SWAP1 POP JUMP JUMPDEST PUSH0 PUSH2 0x921 DUP3 PUSH2 0x8F8 JUMP JUMPDEST SWAP1 POP SWAP2 SWAP1 POP JUMP JUMPDEST PUSH2 0x931 DUP2 PUSH2 0x917 JUMP JUMPDEST DUP3 MSTORE POP POP JUMP JUMPDEST PUSH0 PUSH1 0x20 DUP3 ADD SWAP1 POP PUSH2 0x94A PUSH0 DUP4 ADD DUP5 PUSH2 0x928 JUMP JUMPDEST SWAP3 SWAP2 POP POP JUMP JUMPDEST PUSH2 0x959 DUP2 PUSH2 0x7E8 JUMP JUMPDEST DUP3 MSTORE POP POP JUMP JUMPDEST PUSH0 PUSH1 0x20 DUP3 ADD SWAP1 POP PUSH2 0x972 PUSH0 DUP4 ADD DUP5 PUSH2 0x950 JUMP JUMPDEST SWAP3 SWAP2 POP POP JUMP JUMPDEST PUSH0 DUP2 MLOAD SWAP1 POP SWAP2 SWAP1 POP JUMP JUMPDEST PUSH0 DUP3 DUP3 MSTORE PUSH1 0x20 DUP3 ADD SWAP1 POP SWAP3 SWAP2 POP POP JUMP JUMPDEST PUSH0 JUMPDEST DUP4 DUP2 LT ISZERO PUSH2 0x9AF JUMPI DUP1 DUP3 ADD MLOAD DUP2 DUP5 ADD MSTORE PUSH1 0x20 DUP2 ADD SWAP1 POP PUSH2 0x994 JUMP JUMPDEST PUSH0 DUP5 DUP5 ADD MSTORE POP POP POP POP JUMP JUMPDEST PUSH0 PUSH1 0x1F NOT PUSH1 0x1F DUP4 ADD AND SWAP1 POP SWAP2 SWAP1 POP JUMP JUMPDEST PUSH0 PUSH2 0x9D4 DUP3 PUSH2 0x978 JUMP JUMPDEST PUSH2 0x9DE DUP2 DUP6 PUSH2 0x982 JUMP JUMPDEST SWAP4 POP PUSH2 0x9EE DUP2 DUP6 PUSH1 0x20 DUP7 ADD PUSH2 0x992 JUMP JUMPDEST PUSH2 0x9F7 DUP2 PUSH2 0x9BA JUMP JUMPDEST DUP5 ADD SWAP2 POP POP SWAP3 SWAP2 POP POP JUMP JUMPDEST PUSH0 PUSH1 0x20 DUP3 ADD SWAP1 POP DUP2 DUP2 SUB PUSH0 DUP4 ADD MSTORE PUSH2 0xA1A DUP2 DUP5 PUSH2 0x9CA JUMP JUMPDEST SWAP1 POP SWAP3 SWAP2 POP POP JUMP JUMPDEST PUSH0 PUSH1 0xFF DUP3 AND SWAP1 POP SWAP2 SWAP1 POP JUMP JUMPDEST PUSH2 0xA37 DUP2 PUSH2 0xA22 JUMP JUMPDEST DUP3 MSTORE POP POP JUMP JUMPDEST PUSH0 PUSH1 0x20 DUP3 ADD SWAP1 POP PUSH2 0xA50 PUSH0 DUP4 ADD DUP5 PUSH2 0xA2E JUMP JUMPDEST SWAP3 SWAP2 POP POP JUMP JUMPDEST PUSH32 0x706C65617365207761697420666F722074696D6520636F6D706C6574696F6E00 PUSH0 DUP3 ADD MSTORE POP JUMP JUMPDEST PUSH0 PUSH2 0xA8A PUSH1 0x1F DUP4 PUSH2 0x982 JUMP JUMPDEST SWAP2 POP PUSH2 0xA95 DUP3 PUSH2 0xA56 JUMP JUMPDEST PUSH1 0x20 DUP3 ADD SWAP1 POP SWAP2 SWAP1 POP JUMP JUMPDEST PUSH0 PUSH1 0x20 DUP3 ADD SWAP1 POP DUP2 DUP2 SUB PUSH0 DUP4 ADD MSTORE PUSH2 0xAB7 DUP2 PUSH2 0xA7E JUMP JUMPDEST SWAP1 POP SWAP2 SWAP1 POP JUMP JUMPDEST PUSH32 0x4E487B7100000000000000000000000000000000000000000000000000000000 PUSH0 MSTORE PUSH1 0x11 PUSH1 0x4 MSTORE PUSH1 0x24 PUSH0 REVERT JUMPDEST PUSH0 PUSH2 0xAF5 DUP3 PUSH2 0x7E8 JUMP JUMPDEST SWAP2 POP PUSH2 0xB00 DUP4 PUSH2 0x7E8 JUMP JUMPDEST SWAP3 POP DUP3 DUP3 ADD SWAP1 POP DUP1 DUP3 GT ISZERO PUSH2 0xB18 JUMPI PUSH2 0xB17 PUSH2 0xABE JUMP JUMPDEST JUMPDEST SWAP3 SWAP2 POP POP JUMP JUMPDEST PUSH0 PUSH10 0xFFFFFFFFFFFFFFFFFFFF DUP3 AND SWAP1 POP SWAP2 SWAP1 POP JUMP JUMPDEST PUSH2 0xB3C DUP2 PUSH2 0xB1E JUMP JUMPDEST DUP2 EQ PUSH2 0xB46 JUMPI PUSH0 DUP1 REVERT JUMPDEST POP JUMP JUMPDEST PUSH0 DUP2 MLOAD SWAP1 POP PUSH2 0xB57 DUP2 PUSH2 0xB33 JUMP JUMPDEST SWAP3 SWAP2 POP POP JUMP JUMPDEST PUSH0 DUP2 SWAP1 POP SWAP2 SWAP1 POP JUMP JUMPDEST PUSH2 0xB6F DUP2 PUSH2 0xB5D JUMP JUMPDEST DUP2 EQ PUSH2 0xB79 JUMPI PUSH0 DUP1 REVERT JUMPDEST POP JUMP JUMPDEST PUSH0 DUP2 MLOAD SWAP1 POP PUSH2 0xB8A DUP2 PUSH2 0xB66 JUMP JUMPDEST SWAP3 SWAP2 POP POP JUMP JUMPDEST PUSH0 DUP2 MLOAD SWAP1 POP PUSH2 0xB9E DUP2 PUSH2 0x8A3 JUMP JUMPDEST SWAP3 SWAP2 POP POP JUMP JUMPDEST PUSH0 DUP1 PUSH0 DUP1 PUSH0 PUSH1 0xA0 DUP7 DUP9 SUB SLT ISZERO PUSH2 0xBBD JUMPI PUSH2 0xBBC PUSH2 0x89F JUMP JUMPDEST JUMPDEST PUSH0 PUSH2 0xBCA DUP9 DUP3 DUP10 ADD PUSH2 0xB49 JUMP JUMPDEST SWAP6 POP POP PUSH1 0x20 PUSH2 0xBDB DUP9 DUP3 DUP10 ADD PUSH2 0xB7C JUMP JUMPDEST SWAP5 POP POP PUSH1 0x40 PUSH2 0xBEC DUP9 DUP3 DUP10 ADD PUSH2 0xB90 JUMP JUMPDEST SWAP4 POP POP PUSH1 0x60 PUSH2 0xBFD DUP9 DUP3 DUP10 ADD PUSH2 0xB90 JUMP JUMPDEST SWAP3 POP POP PUSH1 0x80 PUSH2 0xC0E DUP9 DUP3 DUP10 ADD PUSH2 0xB49 JUMP JUMPDEST SWAP2 POP POP SWAP3 SWAP6 POP SWAP3 SWAP6 SWAP1 SWAP4 POP JUMP JUMPDEST PUSH0 PUSH2 0xC25 DUP3 PUSH2 0xB5D JUMP JUMPDEST SWAP2 POP PUSH2 0xC30 DUP4 PUSH2 0xB5D JUMP JUMPDEST SWAP3 POP DUP3 DUP3 MUL PUSH2 0xC3E DUP2 PUSH2 0xB5D JUMP JUMPDEST SWAP2 POP PUSH32 0x8000000000000000000000000000000000000000000000000000000000000000 DUP5 EQ PUSH0 DUP5 SLT AND ISZERO PUSH2 0xC75 JUMPI PUSH2 0xC74 PUSH2 0xABE JUMP JUMPDEST JUMPDEST DUP3 DUP3 SDIV DUP5 EQ DUP4 ISZERO OR PUSH2 0xC8A JUMPI PUSH2 0xC89 PUSH2 0xABE JUMP JUMPDEST JUMPDEST POP SWAP3 SWAP2 POP POP JUMP JUMPDEST PUSH32 0x4E487B7100000000000000000000000000000000000000000000000000000000 PUSH0 MSTORE PUSH1 0x12 PUSH1 0x4 MSTORE PUSH1 0x24 PUSH0 REVERT JUMPDEST PUSH0 PUSH2 0xCC8 DUP3 PUSH2 0x7E8 JUMP JUMPDEST SWAP2 POP PUSH2 0xCD3 DUP4 PUSH2 0x7E8 JUMP JUMPDEST SWAP3 POP DUP3 PUSH2 0xCE3 JUMPI PUSH2 0xCE2 PUSH2 0xC91 JUMP JUMPDEST JUMPDEST DUP3 DUP3 DIV SWAP1 POP SWAP3 SWAP2 POP POP JUMP JUMPDEST PUSH32 0x646F65736E27742073617469736679206D79206E656564200000000000000000 PUSH0 DUP3 ADD MSTORE POP JUMP JUMPDEST PUSH0 PUSH2 0xD22 PUSH1 0x18 DUP4 PUSH2 0x982 JUMP JUMPDEST SWAP2 POP PUSH2 0xD2D DUP3 PUSH2 0xCEE JUMP JUMPDEST PUSH1 0x20 DUP3 ADD SWAP1 POP SWAP2 SWAP1 POP JUMP JUMPDEST PUSH0 PUSH1 0x20 DUP3 ADD SWAP1 POP DUP2 DUP2 SUB PUSH0 DUP4 ADD MSTORE PUSH2 0xD4F DUP2 PUSH2 0xD16 JUMP JUMPDEST SWAP1 POP SWAP2 SWAP1 POP JUMP JUMPDEST PUSH32 0x46756E6374696F6E2063616E6E6F74206265206578656375746564207965742E PUSH0 DUP3 ADD MSTORE PUSH32 0x20506C6561736520776169742E00000000000000000000000000000000000000 PUSH1 0x20 DUP3 ADD MSTORE POP JUMP JUMPDEST PUSH0 PUSH2 0xDB0 PUSH1 0x2D DUP4 PUSH2 0x982 JUMP JUMPDEST SWAP2 POP PUSH2 0xDBB DUP3 PUSH2 0xD56 JUMP JUMPDEST PUSH1 0x40 DUP3 ADD SWAP1 POP SWAP2 SWAP1 POP JUMP JUMPDEST PUSH0 PUSH1 0x20 DUP3 ADD SWAP1 POP DUP2 DUP2 SUB PUSH0 DUP4 ADD MSTORE PUSH2 0xDDD DUP2 PUSH2 0xDA4 JUMP JUMPDEST SWAP1 POP SWAP2 SWAP1 POP JUMP JUMPDEST PUSH2 0xDED DUP2 PUSH2 0xA22 JUMP JUMPDEST DUP2 EQ PUSH2 0xDF7 JUMPI PUSH0 DUP1 REVERT JUMPDEST POP JUMP JUMPDEST PUSH0 DUP2 MLOAD SWAP1 POP PUSH2 0xE08 DUP2 PUSH2 0xDE4 JUMP JUMPDEST SWAP3 SWAP2 POP POP JUMP JUMPDEST PUSH0 PUSH1 0x20 DUP3 DUP5 SUB SLT ISZERO PUSH2 0xE23 JUMPI PUSH2 0xE22 PUSH2 0x89F JUMP JUMPDEST JUMPDEST PUSH0 PUSH2 0xE30 DUP5 DUP3 DUP6 ADD PUSH2 0xDFA JUMP JUMPDEST SWAP2 POP POP SWAP3 SWAP2 POP POP JUMP JUMPDEST PUSH32 0x4E487B7100000000000000000000000000000000000000000000000000000000 PUSH0 MSTORE PUSH1 0x32 PUSH1 0x4 MSTORE PUSH1 0x24 PUSH0 REVERT JUMPDEST PUSH32 0x6F6E6C792066697273742073656E6465722063616E2077697468647261772074 PUSH0 DUP3 ADD MSTORE PUSH32 0x686569722066756E647300000000000000000000000000000000000000000000 PUSH1 0x20 DUP3 ADD MSTORE POP JUMP JUMPDEST PUSH0 PUSH2 0xEC0 PUSH1 0x2A DUP4 PUSH2 0x982 JUMP JUMPDEST SWAP2 POP PUSH2 0xECB DUP3 PUSH2 0xE66 JUMP JUMPDEST PUSH1 0x40 DUP3 ADD SWAP1 POP SWAP2 SWAP1 POP JUMP JUMPDEST PUSH0 PUSH1 0x20 DUP3 ADD SWAP1 POP DUP2 DUP2 SUB PUSH0 DUP4 ADD MSTORE PUSH2 0xEED DUP2 PUSH2 0xEB4 JUMP JUMPDEST SWAP1 POP SWAP2 SWAP1 POP JUMP INVALID LOG2 PUSH5 0x6970667358 0x22 SLT KECCAK256 MSIZE 0x24 0xC9 0x26 DUP1 0xC5 SWAP10 DUP11 COINBASE DUP14 CALLDATALOAD 0xD1 0x2A 0x28 PUSH13 0xE111D868E026C5B2AE4E1AD1BB BLOBHASH SGT 0x2B PUSH7 0x64736F6C634300 ADDMOD XOR STOP CALLER "
				},
				"gasEstimates": {
					"creation": {
						"codeDepositCost": "776400",
						"executionCost": "22915",
						"totalCost": "799315"
					},
					"external": {
						"addingtoarray()": "infinite",
						"executeAfter()": "2491",
						"firstone(uint256)": "4967",
						"fundme()": "infinite",
						"getConversionrate(uint256)": "infinite",
						"getDecimals()": "infinite",
						"getLatestBTCPriceInETH()": "infinite",
						"getPrice()": "infinite",
						"minimumETH()": "2513",
						"pushthenumber(uint256)": "infinite",
						"retrieve()": "infinite",
						"setExecutionTime(uint256)": "infinite",
						"timeRestrictedFunction()": "infinite",
						"withdrawonlyfirstaccountremix()": "4879"
					}
				},
				"methodIdentifiers": {
					"addingtoarray()": "2e01594f",
					"executeAfter()": "f3aaee9d",
					"firstone(uint256)": "6aa9ecd3",
					"fundme()": "d1d9165d",
					"getConversionrate(uint256)": "e351332c",
					"getDecimals()": "f0141d84",
					"getLatestBTCPriceInETH()": "dd2b47db",
					"getPrice()": "98d5fdca",
					"minimumETH()": "b285ad3c",
					"pushthenumber(uint256)": "89ffce48",
					"retrieve()": "2e64cec1",
					"setExecutionTime(uint256)": "62b8d693",
					"timeRestrictedFunction()": "e06314ec",
					"withdrawonlyfirstaccountremix()": "fb146a06"
				}
			},
			"storageLayout": {
				"storage": [
					{
						"astId": 52,
						"contract": "contracts/exercise_on_fundme.sol:Fundme",
						"label": "minimumETH",
						"offset": 0,
						"slot": "0",
						"type": "t_uint256"
					},
					{
						"astId": 55,
						"contract": "contracts/exercise_on_fundme.sol:Fundme",
						"label": "pushthenumber",
						"offset": 0,
						"slot": "1",
						"type": "t_array(t_uint256)dyn_storage"
					},
					{
						"astId": 58,
						"contract": "contracts/exercise_on_fundme.sol:Fundme",
						"label": "firstone",
						"offset": 0,
						"slot": "2",
						"type": "t_array(t_address)dyn_storage"
					},
					{
						"astId": 60,
						"contract": "contracts/exercise_on_fundme.sol:Fundme",
						"label": "executeAfter",
						"offset": 0,
						"slot": "3",
						"type": "t_uint256"
					}
				],
				"types": {
					"t_address": {
						"encoding": "inplace",
						"label": "address",
						"numberOfBytes": "20"
					},
					"t_array(t_address)dyn_storage": {
						"base": "t_address",
						"encoding": "dynamic_array",
						"label": "address[]",
						"numberOfBytes": "32"
					},
					"t_array(t_uint256)dyn_storage": {
						"base": "t_uint256",
						"encoding": "dynamic_array",
						"label": "uint256[]",
						"numberOfBytes": "32"
					},
					"t_uint256": {
						"encoding": "inplace",
						"label": "uint256",
						"numberOfBytes": "32"
					}
				}
			},
			"userdoc": {
				"kind": "user",
				"methods": {},
				"version": 1
			}
		}
	}
}