{
	"contracts/fundme.sol": {
		"Fundme": {
			"abi": [
				{
					"inputs": [
						{
							"internalType": "address",
							"name": "funder",
							"type": "address"
						}
					],
					"name": "addresstoAmountfunded",
					"outputs": [
						{
							"internalType": "uint256",
							"name": "amountfunded",
							"type": "uint256"
						}
					],
					"stateMutability": "view",
					"type": "function"
				},
				{
					"inputs": [],
					"name": "calculatesum",
					"outputs": [
						{
							"internalType": "uint256",
							"name": "",
							"type": "uint256"
						}
					],
					"stateMutability": "pure",
					"type": "function"
				},
				{
					"inputs": [],
					"name": "contributionCount",
					"outputs": [
						{
							"internalType": "uint256",
							"name": "",
							"type": "uint256"
						}
					],
					"stateMutability": "view",
					"type": "function"
				},
				{
					"inputs": [
						{
							"internalType": "uint256",
							"name": "",
							"type": "uint256"
						}
					],
					"name": "funder",
					"outputs": [
						{
							"internalType": "address",
							"name": "",
							"type": "address"
						}
					],
					"stateMutability": "view",
					"type": "function"
				},
				{
					"inputs": [],
					"name": "fundme",
					"outputs": [],
					"stateMutability": "payable",
					"type": "function"
				},
				{
					"inputs": [],
					"name": "minimumUSD",
					"outputs": [
						{
							"internalType": "uint256",
							"name": "",
							"type": "uint256"
						}
					],
					"stateMutability": "view",
					"type": "function"
				},
				{
					"inputs": [],
					"name": "withdraw",
					"outputs": [],
					"stateMutability": "nonpayable",
					"type": "function"
				}
			],
			"devdoc": {
				"kind": "dev",
				"methods": {},
				"version": 1
			},
			"evm": {
				"assembly": "    /* \"contracts/fundme.sol\":865:2085  contract Fundme{... */\n  mstore(0x40, 0x80)\n    /* \"contracts/fundme.sol\":992:996  5e18 */\n  0x4563918244f40000\n    /* \"contracts/fundme.sol\":965:996  uint256 public minimumUSD =5e18 */\n  0x00\n  sstore\n    /* \"contracts/fundme.sol\":865:2085  contract Fundme{... */\n  callvalue\n  dup1\n  iszero\n  tag_1\n  jumpi\n  0x00\n  dup1\n  revert\ntag_1:\n  pop\n  dataSize(sub_0)\n  dup1\n  dataOffset(sub_0)\n  0x00\n  codecopy\n  0x00\n  return\nstop\n\nsub_0: assembly {\n        /* \"contracts/fundme.sol\":865:2085  contract Fundme{... */\n      mstore(0x40, 0x80)\n      jumpi(tag_1, lt(calldatasize, 0x04))\n      shr(0xe0, calldataload(0x00))\n      dup1\n      0x3430a88c\n      gt\n      tag_9\n      jumpi\n      dup1\n      0x3430a88c\n      eq\n      tag_5\n      jumpi\n      dup1\n      0x3ccfd60b\n      eq\n      tag_6\n      jumpi\n      dup1\n      0x5b18056b\n      eq\n      tag_7\n      jumpi\n      dup1\n      0xd1d9165d\n      eq\n      tag_8\n      jumpi\n      jump(tag_1)\n    tag_9:\n      dup1\n      0x1f2c9238\n      eq\n      tag_2\n      jumpi\n      dup1\n      0x221ace14\n      eq\n      tag_3\n      jumpi\n      dup1\n      0x288c3d17\n      eq\n      tag_4\n      jumpi\n    tag_1:\n      0x00\n      dup1\n      revert\n        /* \"contracts/fundme.sol\":1005:1028  address[] public funder */\n    tag_2:\n      callvalue\n      dup1\n      iszero\n      tag_10\n      jumpi\n      0x00\n      dup1\n      revert\n    tag_10:\n      pop\n      tag_11\n      0x04\n      dup1\n      calldatasize\n      sub\n      dup2\n      add\n      swap1\n      tag_12\n      swap2\n      swap1\n      tag_13\n      jump\t// in\n    tag_12:\n      tag_14\n      jump\t// in\n    tag_11:\n      mload(0x40)\n      tag_15\n      swap2\n      swap1\n      tag_16\n      jump\t// in\n    tag_15:\n      mload(0x40)\n      dup1\n      swap2\n      sub\n      swap1\n      return\n        /* \"contracts/fundme.sol\":1037:1115  mapping (address funder => uint256 amountfunded ) public addresstoAmountfunded */\n    tag_3:\n      callvalue\n      dup1\n      iszero\n      tag_17\n      jumpi\n      0x00\n      dup1\n      revert\n    tag_17:\n      pop\n      tag_18\n      0x04\n      dup1\n      calldatasize\n      sub\n      dup2\n      add\n      swap1\n      tag_19\n      swap2\n      swap1\n      tag_20\n      jump\t// in\n    tag_19:\n      tag_21\n      jump\t// in\n    tag_18:\n      mload(0x40)\n      tag_22\n      swap2\n      swap1\n      tag_23\n      jump\t// in\n    tag_22:\n      mload(0x40)\n      dup1\n      swap2\n      sub\n      swap1\n      return\n        /* \"contracts/fundme.sol\":1679:1846  function calculatesum() public pure returns (uint256){... */\n    tag_4:\n      callvalue\n      dup1\n      iszero\n      tag_24\n      jumpi\n      0x00\n      dup1\n      revert\n    tag_24:\n      pop\n      tag_25\n      tag_26\n      jump\t// in\n    tag_25:\n      mload(0x40)\n      tag_27\n      swap2\n      swap1\n      tag_23\n      jump\t// in\n    tag_27:\n      mload(0x40)\n      dup1\n      swap2\n      sub\n      swap1\n      return\n        /* \"contracts/fundme.sol\":965:996  uint256 public minimumUSD =5e18 */\n    tag_5:\n      callvalue\n      dup1\n      iszero\n      tag_28\n      jumpi\n      0x00\n      dup1\n      revert\n    tag_28:\n      pop\n      tag_29\n      tag_30\n      jump\t// in\n    tag_29:\n      mload(0x40)\n      tag_31\n      swap2\n      swap1\n      tag_23\n      jump\t// in\n    tag_31:\n      mload(0x40)\n      dup1\n      swap2\n      sub\n      swap1\n      return\n        /* \"contracts/fundme.sol\":1854:2080  function withdraw() public {... */\n    tag_6:\n      callvalue\n      dup1\n      iszero\n      tag_32\n      jumpi\n      0x00\n      dup1\n      revert\n    tag_32:\n      pop\n      tag_33\n      tag_34\n      jump\t// in\n    tag_33:\n      stop\n        /* \"contracts/fundme.sol\":1575:1671  function contributionCount() public view returns(uint256){... */\n    tag_7:\n      callvalue\n      dup1\n      iszero\n      tag_35\n      jumpi\n      0x00\n      dup1\n      revert\n    tag_35:\n      pop\n      tag_36\n      tag_37\n      jump\t// in\n    tag_36:\n      mload(0x40)\n      tag_38\n      swap2\n      swap1\n      tag_23\n      jump\t// in\n    tag_38:\n      mload(0x40)\n      dup1\n      swap2\n      sub\n      swap1\n      return\n        /* \"contracts/fundme.sol\":1124:1563  function fundme () public payable {... */\n    tag_8:\n      tag_39\n      tag_40\n      jump\t// in\n    tag_39:\n      stop\n        /* \"contracts/fundme.sol\":1005:1028  address[] public funder */\n    tag_14:\n      0x01\n      dup2\n      dup2\n      sload\n      dup2\n      lt\n      tag_41\n      jumpi\n      0x00\n      dup1\n      revert\n    tag_41:\n      swap1\n      0x00\n      mstore\n      keccak256(0x00, 0x20)\n      add\n      0x00\n      swap2\n      pop\n      sload\n      swap1\n      0x0100\n      exp\n      swap1\n      div\n      0xffffffffffffffffffffffffffffffffffffffff\n      and\n      dup2\n      jump\t// out\n        /* \"contracts/fundme.sol\":1037:1115  mapping (address funder => uint256 amountfunded ) public addresstoAmountfunded */\n    tag_21:\n      mstore(0x20, 0x02)\n      dup1\n      0x00\n      mstore\n      keccak256(0x00, 0x40)\n      0x00\n      swap2\n      pop\n      swap1\n      pop\n      sload\n      dup2\n      jump\t// out\n        /* \"contracts/fundme.sol\":1679:1846  function calculatesum() public pure returns (uint256){... */\n    tag_26:\n        /* \"contracts/fundme.sol\":1724:1731  uint256 */\n      0x00\n        /* \"contracts/fundme.sol\":1743:1752  uint256 a */\n      dup1\n        /* \"contracts/fundme.sol\":1755:1757  27 */\n      0x1b\n        /* \"contracts/fundme.sol\":1743:1757  uint256 a = 27 */\n      swap1\n      pop\n        /* \"contracts/fundme.sol\":1768:1777  uint256 b */\n      0x00\n        /* \"contracts/fundme.sol\":1780:1782  13 */\n      0x0d\n        /* \"contracts/fundme.sol\":1768:1782  uint256 b = 13 */\n      swap1\n      pop\n        /* \"contracts/fundme.sol\":1793:1804  uint256 sum */\n      0x00\n        /* \"contracts/fundme.sol\":1807:1815  a.add(b) */\n      tag_44\n        /* \"contracts/fundme.sol\":1813:1814  b */\n      dup3\n        /* \"contracts/fundme.sol\":1807:1808  a */\n      dup5\n        /* \"contracts/fundme.sol\":1807:1812  a.add */\n      tag_45\n      swap1\n        /* \"contracts/fundme.sol\":1807:1815  a.add(b) */\n      swap2\n      swap1\n      0xffffffff\n      and\n      jump\t// in\n    tag_44:\n        /* \"contracts/fundme.sol\":1793:1815  uint256 sum = a.add(b) */\n      swap1\n      pop\n        /* \"contracts/fundme.sol\":1833:1836  sum */\n      dup1\n        /* \"contracts/fundme.sol\":1826:1836  return sum */\n      swap4\n      pop\n      pop\n      pop\n      pop\n        /* \"contracts/fundme.sol\":1679:1846  function calculatesum() public pure returns (uint256){... */\n      swap1\n      jump\t// out\n        /* \"contracts/fundme.sol\":965:996  uint256 public minimumUSD =5e18 */\n    tag_30:\n      sload(0x00)\n      dup2\n      jump\t// out\n        /* \"contracts/fundme.sol\":1854:2080  function withdraw() public {... */\n    tag_34:\n        /* \"contracts/fundme.sol\":1896:1915  uint256 funderIndex */\n      0x00\n        /* \"contracts/fundme.sol\":1892:2073  for(uint256 funderIndex = 0; funderIndex<funder.length; funderIndex++){... */\n    tag_47:\n        /* \"contracts/fundme.sol\":1933:1939  funder */\n      0x01\n        /* \"contracts/fundme.sol\":1933:1946  funder.length */\n      dup1\n      sload\n      swap1\n      pop\n        /* \"contracts/fundme.sol\":1921:1932  funderIndex */\n      dup2\n        /* \"contracts/fundme.sol\":1921:1946  funderIndex<funder.length */\n      lt\n        /* \"contracts/fundme.sol\":1892:2073  for(uint256 funderIndex = 0; funderIndex<funder.length; funderIndex++){... */\n      iszero\n      tag_48\n      jumpi\n        /* \"contracts/fundme.sol\":1977:1992  address funders */\n      0x00\n        /* \"contracts/fundme.sol\":1995:2001  funder */\n      0x01\n        /* \"contracts/fundme.sol\":2002:2013  funderIndex */\n      dup3\n        /* \"contracts/fundme.sol\":1995:2014  funder[funderIndex] */\n      dup2\n      sload\n      dup2\n      lt\n      tag_50\n      jumpi\n      tag_51\n      tag_52\n      jump\t// in\n    tag_51:\n    tag_50:\n      swap1\n      0x00\n      mstore\n      keccak256(0x00, 0x20)\n      add\n      0x00\n      swap1\n      sload\n      swap1\n      0x0100\n      exp\n      swap1\n      div\n      0xffffffffffffffffffffffffffffffffffffffff\n      and\n        /* \"contracts/fundme.sol\":1977:2014  address funders = funder[funderIndex] */\n      swap1\n      pop\n        /* \"contracts/fundme.sol\":2060:2061  0 */\n      0x00\n        /* \"contracts/fundme.sol\":2029:2050  addresstoAmountfunded */\n      0x02\n        /* \"contracts/fundme.sol\":2029:2059  addresstoAmountfunded[funders] */\n      0x00\n        /* \"contracts/fundme.sol\":2051:2058  funders */\n      dup4\n        /* \"contracts/fundme.sol\":2029:2059  addresstoAmountfunded[funders] */\n      0xffffffffffffffffffffffffffffffffffffffff\n      and\n      0xffffffffffffffffffffffffffffffffffffffff\n      and\n      dup2\n      mstore\n      0x20\n      add\n      swap1\n      dup2\n      mstore\n      0x20\n      add\n      0x00\n      keccak256\n        /* \"contracts/fundme.sol\":2029:2061  addresstoAmountfunded[funders]=0 */\n      dup2\n      swap1\n      sstore\n      pop\n        /* \"contracts/fundme.sol\":1962:2073  {... */\n      pop\n        /* \"contracts/fundme.sol\":1948:1961  funderIndex++ */\n      dup1\n      dup1\n      0x01\n      add\n      swap2\n      pop\n      pop\n        /* \"contracts/fundme.sol\":1892:2073  for(uint256 funderIndex = 0; funderIndex<funder.length; funderIndex++){... */\n      jump(tag_47)\n    tag_48:\n      pop\n        /* \"contracts/fundme.sol\":1854:2080  function withdraw() public {... */\n      jump\t// out\n        /* \"contracts/fundme.sol\":1575:1671  function contributionCount() public view returns(uint256){... */\n    tag_37:\n        /* \"contracts/fundme.sol\":1624:1631  uint256 */\n      0x00\n        /* \"contracts/fundme.sol\":1650:1656  funder */\n      0x01\n        /* \"contracts/fundme.sol\":1650:1663  funder.length */\n      dup1\n      sload\n      swap1\n      pop\n        /* \"contracts/fundme.sol\":1643:1663  return funder.length */\n      swap1\n      pop\n        /* \"contracts/fundme.sol\":1575:1671  function contributionCount() public view returns(uint256){... */\n      swap1\n      jump\t// out\n        /* \"contracts/fundme.sol\":1124:1563  function fundme () public payable {... */\n    tag_40:\n        /* \"contracts/fundme.sol\":1338:1348  minimumUSD */\n      sload(0x00)\n        /* \"contracts/fundme.sol\":1306:1335  msg.value.getConversionrate() */\n      tag_56\n        /* \"contracts/fundme.sol\":1306:1315  msg.value */\n      callvalue\n        /* \"contracts/fundme.sol\":1306:1333  msg.value.getConversionrate */\n      tag_57\n        /* \"contracts/fundme.sol\":1306:1335  msg.value.getConversionrate() */\n      jump\t// in\n    tag_56:\n        /* \"contracts/fundme.sol\":1306:1348  msg.value.getConversionrate() > minimumUSD */\n      gt\n        /* \"contracts/fundme.sol\":1298:1377  require(msg.value.getConversionrate() > minimumUSD, \"doesn't satisfy my need \") */\n      tag_58\n      jumpi\n      mload(0x40)\n      0x08c379a000000000000000000000000000000000000000000000000000000000\n      dup2\n      mstore\n      0x04\n      add\n      tag_59\n      swap1\n      tag_60\n      jump\t// in\n    tag_59:\n      mload(0x40)\n      dup1\n      swap2\n      sub\n      swap1\n      revert\n    tag_58:\n        /* \"contracts/fundme.sol\":1389:1395  funder */\n      0x01\n        /* \"contracts/fundme.sol\":1401:1411  msg.sender */\n      caller\n        /* \"contracts/fundme.sol\":1389:1412  funder.push(msg.sender) */\n      swap1\n      dup1\n      0x01\n      dup2\n      sload\n      add\n      dup1\n      dup3\n      sstore\n      dup1\n      swap2\n      pop\n      pop\n      0x01\n      swap1\n      sub\n      swap1\n      0x00\n      mstore\n      keccak256(0x00, 0x20)\n      add\n      0x00\n      swap1\n      swap2\n      swap1\n      swap2\n      swap1\n      swap2\n      0x0100\n      exp\n      dup2\n      sload\n      dup2\n      0xffffffffffffffffffffffffffffffffffffffff\n      mul\n      not\n      and\n      swap1\n      dup4\n      0xffffffffffffffffffffffffffffffffffffffff\n      and\n      mul\n      or\n      swap1\n      sstore\n      pop\n        /* \"contracts/fundme.sol\":1495:1504  msg.value */\n      callvalue\n        /* \"contracts/fundme.sol\":1459:1480  addresstoAmountfunded */\n      0x02\n        /* \"contracts/fundme.sol\":1459:1492  addresstoAmountfunded[msg.sender] */\n      0x00\n        /* \"contracts/fundme.sol\":1481:1491  msg.sender */\n      caller\n        /* \"contracts/fundme.sol\":1459:1492  addresstoAmountfunded[msg.sender] */\n      0xffffffffffffffffffffffffffffffffffffffff\n      and\n      0xffffffffffffffffffffffffffffffffffffffff\n      and\n      dup2\n      mstore\n      0x20\n      add\n      swap1\n      dup2\n      mstore\n      0x20\n      add\n      0x00\n      keccak256\n      sload\n        /* \"contracts/fundme.sol\":1459:1504  addresstoAmountfunded[msg.sender] + msg.value */\n      tag_62\n      swap2\n      swap1\n      tag_63\n      jump\t// in\n    tag_62:\n        /* \"contracts/fundme.sol\":1423:1444  addresstoAmountfunded */\n      0x02\n        /* \"contracts/fundme.sol\":1423:1456  addresstoAmountfunded[msg.sender] */\n      0x00\n        /* \"contracts/fundme.sol\":1445:1455  msg.sender */\n      caller\n        /* \"contracts/fundme.sol\":1423:1456  addresstoAmountfunded[msg.sender] */\n      0xffffffffffffffffffffffffffffffffffffffff\n      and\n      0xffffffffffffffffffffffffffffffffffffffff\n      and\n      dup2\n      mstore\n      0x20\n      add\n      swap1\n      dup2\n      mstore\n      0x20\n      add\n      0x00\n      keccak256\n        /* \"contracts/fundme.sol\":1423:1504  addresstoAmountfunded[msg.sender] = addresstoAmountfunded[msg.sender] + msg.value */\n      dup2\n      swap1\n      sstore\n      pop\n        /* \"contracts/fundme.sol\":1124:1563  function fundme () public payable {... */\n      jump\t// out\n        /* \"contracts/mathslibrary.sol\":96:258  function add(uint256 _first, uint256 _second) internal pure returns(uint256){... */\n    tag_45:\n        /* \"contracts/mathslibrary.sol\":164:171  uint256 */\n      0x00\n        /* \"contracts/mathslibrary.sol\":183:202  uint256 addednumber */\n      dup1\n        /* \"contracts/mathslibrary.sol\":214:221  _second */\n      dup3\n        /* \"contracts/mathslibrary.sol\":205:211  _first */\n      dup5\n        /* \"contracts/mathslibrary.sol\":205:221  _first + _second */\n      tag_65\n      swap2\n      swap1\n      tag_63\n      jump\t// in\n    tag_65:\n        /* \"contracts/mathslibrary.sol\":183:221  uint256 addednumber = _first + _second */\n      swap1\n      pop\n        /* \"contracts/mathslibrary.sol\":239:250  addednumber */\n      dup1\n        /* \"contracts/mathslibrary.sol\":232:250  return addednumber */\n      swap2\n      pop\n      pop\n        /* \"contracts/mathslibrary.sol\":96:258  function add(uint256 _first, uint256 _second) internal pure returns(uint256){... */\n      swap3\n      swap2\n      pop\n      pop\n      jump\t// out\n        /* \"contracts/priceconverter.sol\":631:911  function getConversionrate(uint256 ethAmount) internal  view returns(uint256) {... */\n    tag_57:\n        /* \"contracts/priceconverter.sol\":700:707  uint256 */\n      0x00\n        /* \"contracts/priceconverter.sol\":779:795  uint256 ethprice */\n      dup1\n        /* \"contracts/priceconverter.sol\":798:808  getPrice() */\n      tag_67\n        /* \"contracts/priceconverter.sol\":798:806  getPrice */\n      tag_68\n        /* \"contracts/priceconverter.sol\":798:808  getPrice() */\n      jump\t// in\n    tag_67:\n        /* \"contracts/priceconverter.sol\":779:808  uint256 ethprice = getPrice() */\n      swap1\n      pop\n        /* \"contracts/priceconverter.sol\":819:841  uint256 ethAmountInUSD */\n      0x00\n        /* \"contracts/priceconverter.sol\":865:869  1e18 */\n      0x0de0b6b3a7640000\n        /* \"contracts/priceconverter.sol\":855:863  ethprice */\n      dup3\n        /* \"contracts/priceconverter.sol\":845:854  ethAmount */\n      dup6\n        /* \"contracts/priceconverter.sol\":845:863  ethAmount*ethprice */\n      tag_69\n      swap2\n      swap1\n      tag_70\n      jump\t// in\n    tag_69:\n        /* \"contracts/priceconverter.sol\":844:869  (ethAmount*ethprice)/1e18 */\n      tag_71\n      swap2\n      swap1\n      tag_72\n      jump\t// in\n    tag_71:\n        /* \"contracts/priceconverter.sol\":819:869  uint256 ethAmountInUSD = (ethAmount*ethprice)/1e18 */\n      swap1\n      pop\n        /* \"contracts/priceconverter.sol\":889:903  ethAmountInUSD */\n      dup1\n        /* \"contracts/priceconverter.sol\":882:903  return ethAmountInUSD */\n      swap3\n      pop\n      pop\n      pop\n        /* \"contracts/priceconverter.sol\":631:911  function getConversionrate(uint256 ethAmount) internal  view returns(uint256) {... */\n      swap2\n      swap1\n      pop\n      jump\t// out\n        /* \"contracts/priceconverter.sol\":205:623  function getPrice () internal view returns(uint256){... */\n    tag_68:\n        /* \"contracts/priceconverter.sol\":248:255  uint256 */\n      0x00\n        /* \"contracts/priceconverter.sol\":399:430  AggregatorV3Interface pricefeed */\n      dup1\n        /* \"contracts/priceconverter.sol\":454:496  0x694AA1769357215DE4FAC081bf1f309aDC325306 */\n      0x694aa1769357215de4fac081bf1f309adc325306\n        /* \"contracts/priceconverter.sol\":399:497  AggregatorV3Interface pricefeed= AggregatorV3Interface(0x694AA1769357215DE4FAC081bf1f309aDC325306) */\n      swap1\n      pop\n        /* \"contracts/priceconverter.sol\":510:523  int256 answer */\n      0x00\n        /* \"contracts/priceconverter.sol\":530:539  pricefeed */\n      dup2\n        /* \"contracts/priceconverter.sol\":530:555  pricefeed.latestRoundData */\n      0xffffffffffffffffffffffffffffffffffffffff\n      and\n      0xfeaf968c\n        /* \"contracts/priceconverter.sol\":530:557  pricefeed.latestRoundData() */\n      mload(0x40)\n      dup2\n      0xffffffff\n      and\n      0xe0\n      shl\n      dup2\n      mstore\n      0x04\n      add\n      0xa0\n      mload(0x40)\n      dup1\n      dup4\n      sub\n      dup2\n      dup7\n      gas\n      staticcall\n      iszero\n      dup1\n      iszero\n      tag_75\n      jumpi\n      returndatasize\n      0x00\n      dup1\n      returndatacopy\n      revert(0x00, returndatasize)\n    tag_75:\n      pop\n      pop\n      pop\n      pop\n      mload(0x40)\n      returndatasize\n      not(0x1f)\n      0x1f\n      dup3\n      add\n      and\n      dup3\n      add\n      dup1\n      0x40\n      mstore\n      pop\n      dup2\n      add\n      swap1\n      tag_76\n      swap2\n      swap1\n      tag_77\n      jump\t// in\n    tag_76:\n        /* \"contracts/priceconverter.sol\":508:557  (,int256 answer,,,) = pricefeed.latestRoundData() */\n      pop\n      pop\n      pop\n      swap2\n      pop\n      pop\n        /* \"contracts/priceconverter.sol\":610:614  1e10 */\n      0x02540be400\n        /* \"contracts/priceconverter.sol\":603:609  answer */\n      dup2\n        /* \"contracts/priceconverter.sol\":603:614  answer*1e10 */\n      tag_78\n      swap2\n      swap1\n      tag_79\n      jump\t// in\n    tag_78:\n        /* \"contracts/priceconverter.sol\":588:615  return uint256(answer*1e10) */\n      swap3\n      pop\n      pop\n      pop\n        /* \"contracts/priceconverter.sol\":205:623  function getPrice () internal view returns(uint256){... */\n      swap1\n      jump\t// out\n        /* \"#utility.yul\":88:205   */\n    tag_81:\n        /* \"#utility.yul\":197:198   */\n      0x00\n        /* \"#utility.yul\":194:195   */\n      dup1\n        /* \"#utility.yul\":187:199   */\n      revert\n        /* \"#utility.yul\":334:411   */\n    tag_83:\n        /* \"#utility.yul\":371:378   */\n      0x00\n        /* \"#utility.yul\":400:405   */\n      dup2\n        /* \"#utility.yul\":389:405   */\n      swap1\n      pop\n        /* \"#utility.yul\":334:411   */\n      swap2\n      swap1\n      pop\n      jump\t// out\n        /* \"#utility.yul\":417:539   */\n    tag_84:\n        /* \"#utility.yul\":490:514   */\n      tag_110\n        /* \"#utility.yul\":508:513   */\n      dup2\n        /* \"#utility.yul\":490:514   */\n      tag_83\n      jump\t// in\n    tag_110:\n        /* \"#utility.yul\":483:488   */\n      dup2\n        /* \"#utility.yul\":480:515   */\n      eq\n        /* \"#utility.yul\":470:533   */\n      tag_111\n      jumpi\n        /* \"#utility.yul\":529:530   */\n      0x00\n        /* \"#utility.yul\":526:527   */\n      dup1\n        /* \"#utility.yul\":519:531   */\n      revert\n        /* \"#utility.yul\":470:533   */\n    tag_111:\n        /* \"#utility.yul\":417:539   */\n      pop\n      jump\t// out\n        /* \"#utility.yul\":545:684   */\n    tag_85:\n        /* \"#utility.yul\":591:596   */\n      0x00\n        /* \"#utility.yul\":629:635   */\n      dup2\n        /* \"#utility.yul\":616:636   */\n      calldataload\n        /* \"#utility.yul\":607:636   */\n      swap1\n      pop\n        /* \"#utility.yul\":645:678   */\n      tag_113\n        /* \"#utility.yul\":672:677   */\n      dup2\n        /* \"#utility.yul\":645:678   */\n      tag_84\n      jump\t// in\n    tag_113:\n        /* \"#utility.yul\":545:684   */\n      swap3\n      swap2\n      pop\n      pop\n      jump\t// out\n        /* \"#utility.yul\":690:1019   */\n    tag_13:\n        /* \"#utility.yul\":749:755   */\n      0x00\n        /* \"#utility.yul\":798:800   */\n      0x20\n        /* \"#utility.yul\":786:795   */\n      dup3\n        /* \"#utility.yul\":777:784   */\n      dup5\n        /* \"#utility.yul\":773:796   */\n      sub\n        /* \"#utility.yul\":769:801   */\n      slt\n        /* \"#utility.yul\":766:885   */\n      iszero\n      tag_115\n      jumpi\n        /* \"#utility.yul\":804:883   */\n      tag_116\n      tag_81\n      jump\t// in\n    tag_116:\n        /* \"#utility.yul\":766:885   */\n    tag_115:\n        /* \"#utility.yul\":924:925   */\n      0x00\n        /* \"#utility.yul\":949:1002   */\n      tag_117\n        /* \"#utility.yul\":994:1001   */\n      dup5\n        /* \"#utility.yul\":985:991   */\n      dup3\n        /* \"#utility.yul\":974:983   */\n      dup6\n        /* \"#utility.yul\":970:992   */\n      add\n        /* \"#utility.yul\":949:1002   */\n      tag_85\n      jump\t// in\n    tag_117:\n        /* \"#utility.yul\":939:1002   */\n      swap2\n      pop\n        /* \"#utility.yul\":895:1012   */\n      pop\n        /* \"#utility.yul\":690:1019   */\n      swap3\n      swap2\n      pop\n      pop\n      jump\t// out\n        /* \"#utility.yul\":1025:1151   */\n    tag_86:\n        /* \"#utility.yul\":1062:1069   */\n      0x00\n        /* \"#utility.yul\":1102:1144   */\n      0xffffffffffffffffffffffffffffffffffffffff\n        /* \"#utility.yul\":1095:1100   */\n      dup3\n        /* \"#utility.yul\":1091:1145   */\n      and\n        /* \"#utility.yul\":1080:1145   */\n      swap1\n      pop\n        /* \"#utility.yul\":1025:1151   */\n      swap2\n      swap1\n      pop\n      jump\t// out\n        /* \"#utility.yul\":1157:1253   */\n    tag_87:\n        /* \"#utility.yul\":1194:1201   */\n      0x00\n        /* \"#utility.yul\":1223:1247   */\n      tag_120\n        /* \"#utility.yul\":1241:1246   */\n      dup3\n        /* \"#utility.yul\":1223:1247   */\n      tag_86\n      jump\t// in\n    tag_120:\n        /* \"#utility.yul\":1212:1247   */\n      swap1\n      pop\n        /* \"#utility.yul\":1157:1253   */\n      swap2\n      swap1\n      pop\n      jump\t// out\n        /* \"#utility.yul\":1259:1377   */\n    tag_88:\n        /* \"#utility.yul\":1346:1370   */\n      tag_122\n        /* \"#utility.yul\":1364:1369   */\n      dup2\n        /* \"#utility.yul\":1346:1370   */\n      tag_87\n      jump\t// in\n    tag_122:\n        /* \"#utility.yul\":1341:1344   */\n      dup3\n        /* \"#utility.yul\":1334:1371   */\n      mstore\n        /* \"#utility.yul\":1259:1377   */\n      pop\n      pop\n      jump\t// out\n        /* \"#utility.yul\":1383:1605   */\n    tag_16:\n        /* \"#utility.yul\":1476:1480   */\n      0x00\n        /* \"#utility.yul\":1514:1516   */\n      0x20\n        /* \"#utility.yul\":1503:1512   */\n      dup3\n        /* \"#utility.yul\":1499:1517   */\n      add\n        /* \"#utility.yul\":1491:1517   */\n      swap1\n      pop\n        /* \"#utility.yul\":1527:1598   */\n      tag_124\n        /* \"#utility.yul\":1595:1596   */\n      0x00\n        /* \"#utility.yul\":1584:1593   */\n      dup4\n        /* \"#utility.yul\":1580:1597   */\n      add\n        /* \"#utility.yul\":1571:1577   */\n      dup5\n        /* \"#utility.yul\":1527:1598   */\n      tag_88\n      jump\t// in\n    tag_124:\n        /* \"#utility.yul\":1383:1605   */\n      swap3\n      swap2\n      pop\n      pop\n      jump\t// out\n        /* \"#utility.yul\":1611:1733   */\n    tag_89:\n        /* \"#utility.yul\":1684:1708   */\n      tag_126\n        /* \"#utility.yul\":1702:1707   */\n      dup2\n        /* \"#utility.yul\":1684:1708   */\n      tag_87\n      jump\t// in\n    tag_126:\n        /* \"#utility.yul\":1677:1682   */\n      dup2\n        /* \"#utility.yul\":1674:1709   */\n      eq\n        /* \"#utility.yul\":1664:1727   */\n      tag_127\n      jumpi\n        /* \"#utility.yul\":1723:1724   */\n      0x00\n        /* \"#utility.yul\":1720:1721   */\n      dup1\n        /* \"#utility.yul\":1713:1725   */\n      revert\n        /* \"#utility.yul\":1664:1727   */\n    tag_127:\n        /* \"#utility.yul\":1611:1733   */\n      pop\n      jump\t// out\n        /* \"#utility.yul\":1739:1878   */\n    tag_90:\n        /* \"#utility.yul\":1785:1790   */\n      0x00\n        /* \"#utility.yul\":1823:1829   */\n      dup2\n        /* \"#utility.yul\":1810:1830   */\n      calldataload\n        /* \"#utility.yul\":1801:1830   */\n      swap1\n      pop\n        /* \"#utility.yul\":1839:1872   */\n      tag_129\n        /* \"#utility.yul\":1866:1871   */\n      dup2\n        /* \"#utility.yul\":1839:1872   */\n      tag_89\n      jump\t// in\n    tag_129:\n        /* \"#utility.yul\":1739:1878   */\n      swap3\n      swap2\n      pop\n      pop\n      jump\t// out\n        /* \"#utility.yul\":1884:2213   */\n    tag_20:\n        /* \"#utility.yul\":1943:1949   */\n      0x00\n        /* \"#utility.yul\":1992:1994   */\n      0x20\n        /* \"#utility.yul\":1980:1989   */\n      dup3\n        /* \"#utility.yul\":1971:1978   */\n      dup5\n        /* \"#utility.yul\":1967:1990   */\n      sub\n        /* \"#utility.yul\":1963:1995   */\n      slt\n        /* \"#utility.yul\":1960:2079   */\n      iszero\n      tag_131\n      jumpi\n        /* \"#utility.yul\":1998:2077   */\n      tag_132\n      tag_81\n      jump\t// in\n    tag_132:\n        /* \"#utility.yul\":1960:2079   */\n    tag_131:\n        /* \"#utility.yul\":2118:2119   */\n      0x00\n        /* \"#utility.yul\":2143:2196   */\n      tag_133\n        /* \"#utility.yul\":2188:2195   */\n      dup5\n        /* \"#utility.yul\":2179:2185   */\n      dup3\n        /* \"#utility.yul\":2168:2177   */\n      dup6\n        /* \"#utility.yul\":2164:2186   */\n      add\n        /* \"#utility.yul\":2143:2196   */\n      tag_90\n      jump\t// in\n    tag_133:\n        /* \"#utility.yul\":2133:2196   */\n      swap2\n      pop\n        /* \"#utility.yul\":2089:2206   */\n      pop\n        /* \"#utility.yul\":1884:2213   */\n      swap3\n      swap2\n      pop\n      pop\n      jump\t// out\n        /* \"#utility.yul\":2219:2337   */\n    tag_91:\n        /* \"#utility.yul\":2306:2330   */\n      tag_135\n        /* \"#utility.yul\":2324:2329   */\n      dup2\n        /* \"#utility.yul\":2306:2330   */\n      tag_83\n      jump\t// in\n    tag_135:\n        /* \"#utility.yul\":2301:2304   */\n      dup3\n        /* \"#utility.yul\":2294:2331   */\n      mstore\n        /* \"#utility.yul\":2219:2337   */\n      pop\n      pop\n      jump\t// out\n        /* \"#utility.yul\":2343:2565   */\n    tag_23:\n        /* \"#utility.yul\":2436:2440   */\n      0x00\n        /* \"#utility.yul\":2474:2476   */\n      0x20\n        /* \"#utility.yul\":2463:2472   */\n      dup3\n        /* \"#utility.yul\":2459:2477   */\n      add\n        /* \"#utility.yul\":2451:2477   */\n      swap1\n      pop\n        /* \"#utility.yul\":2487:2558   */\n      tag_137\n        /* \"#utility.yul\":2555:2556   */\n      0x00\n        /* \"#utility.yul\":2544:2553   */\n      dup4\n        /* \"#utility.yul\":2540:2557   */\n      add\n        /* \"#utility.yul\":2531:2537   */\n      dup5\n        /* \"#utility.yul\":2487:2558   */\n      tag_91\n      jump\t// in\n    tag_137:\n        /* \"#utility.yul\":2343:2565   */\n      swap3\n      swap2\n      pop\n      pop\n      jump\t// out\n        /* \"#utility.yul\":2571:2751   */\n    tag_52:\n        /* \"#utility.yul\":2619:2696   */\n      0x4e487b7100000000000000000000000000000000000000000000000000000000\n        /* \"#utility.yul\":2616:2617   */\n      0x00\n        /* \"#utility.yul\":2609:2697   */\n      mstore\n        /* \"#utility.yul\":2716:2720   */\n      0x32\n        /* \"#utility.yul\":2713:2714   */\n      0x04\n        /* \"#utility.yul\":2706:2721   */\n      mstore\n        /* \"#utility.yul\":2740:2744   */\n      0x24\n        /* \"#utility.yul\":2737:2738   */\n      0x00\n        /* \"#utility.yul\":2730:2745   */\n      revert\n        /* \"#utility.yul\":2757:2926   */\n    tag_92:\n        /* \"#utility.yul\":2841:2852   */\n      0x00\n        /* \"#utility.yul\":2875:2881   */\n      dup3\n        /* \"#utility.yul\":2870:2873   */\n      dup3\n        /* \"#utility.yul\":2863:2882   */\n      mstore\n        /* \"#utility.yul\":2915:2919   */\n      0x20\n        /* \"#utility.yul\":2910:2913   */\n      dup3\n        /* \"#utility.yul\":2906:2920   */\n      add\n        /* \"#utility.yul\":2891:2920   */\n      swap1\n      pop\n        /* \"#utility.yul\":2757:2926   */\n      swap3\n      swap2\n      pop\n      pop\n      jump\t// out\n        /* \"#utility.yul\":2932:3106   */\n    tag_93:\n        /* \"#utility.yul\":3072:3098   */\n      0x646f65736e27742073617469736679206d79206e656564200000000000000000\n        /* \"#utility.yul\":3068:3069   */\n      0x00\n        /* \"#utility.yul\":3060:3066   */\n      dup3\n        /* \"#utility.yul\":3056:3070   */\n      add\n        /* \"#utility.yul\":3049:3099   */\n      mstore\n        /* \"#utility.yul\":2932:3106   */\n      pop\n      jump\t// out\n        /* \"#utility.yul\":3112:3478   */\n    tag_94:\n        /* \"#utility.yul\":3254:3257   */\n      0x00\n        /* \"#utility.yul\":3275:3342   */\n      tag_142\n        /* \"#utility.yul\":3339:3341   */\n      0x18\n        /* \"#utility.yul\":3334:3337   */\n      dup4\n        /* \"#utility.yul\":3275:3342   */\n      tag_92\n      jump\t// in\n    tag_142:\n        /* \"#utility.yul\":3268:3342   */\n      swap2\n      pop\n        /* \"#utility.yul\":3351:3444   */\n      tag_143\n        /* \"#utility.yul\":3440:3443   */\n      dup3\n        /* \"#utility.yul\":3351:3444   */\n      tag_93\n      jump\t// in\n    tag_143:\n        /* \"#utility.yul\":3469:3471   */\n      0x20\n        /* \"#utility.yul\":3464:3467   */\n      dup3\n        /* \"#utility.yul\":3460:3472   */\n      add\n        /* \"#utility.yul\":3453:3472   */\n      swap1\n      pop\n        /* \"#utility.yul\":3112:3478   */\n      swap2\n      swap1\n      pop\n      jump\t// out\n        /* \"#utility.yul\":3484:3903   */\n    tag_60:\n        /* \"#utility.yul\":3650:3654   */\n      0x00\n        /* \"#utility.yul\":3688:3690   */\n      0x20\n        /* \"#utility.yul\":3677:3686   */\n      dup3\n        /* \"#utility.yul\":3673:3691   */\n      add\n        /* \"#utility.yul\":3665:3691   */\n      swap1\n      pop\n        /* \"#utility.yul\":3737:3746   */\n      dup2\n        /* \"#utility.yul\":3731:3735   */\n      dup2\n        /* \"#utility.yul\":3727:3747   */\n      sub\n        /* \"#utility.yul\":3723:3724   */\n      0x00\n        /* \"#utility.yul\":3712:3721   */\n      dup4\n        /* \"#utility.yul\":3708:3725   */\n      add\n        /* \"#utility.yul\":3701:3748   */\n      mstore\n        /* \"#utility.yul\":3765:3896   */\n      tag_145\n        /* \"#utility.yul\":3891:3895   */\n      dup2\n        /* \"#utility.yul\":3765:3896   */\n      tag_94\n      jump\t// in\n    tag_145:\n        /* \"#utility.yul\":3757:3896   */\n      swap1\n      pop\n        /* \"#utility.yul\":3484:3903   */\n      swap2\n      swap1\n      pop\n      jump\t// out\n        /* \"#utility.yul\":3909:4089   */\n    tag_95:\n        /* \"#utility.yul\":3957:4034   */\n      0x4e487b7100000000000000000000000000000000000000000000000000000000\n        /* \"#utility.yul\":3954:3955   */\n      0x00\n        /* \"#utility.yul\":3947:4035   */\n      mstore\n        /* \"#utility.yul\":4054:4058   */\n      0x11\n        /* \"#utility.yul\":4051:4052   */\n      0x04\n        /* \"#utility.yul\":4044:4059   */\n      mstore\n        /* \"#utility.yul\":4078:4082   */\n      0x24\n        /* \"#utility.yul\":4075:4076   */\n      0x00\n        /* \"#utility.yul\":4068:4083   */\n      revert\n        /* \"#utility.yul\":4095:4286   */\n    tag_63:\n        /* \"#utility.yul\":4135:4138   */\n      0x00\n        /* \"#utility.yul\":4154:4174   */\n      tag_148\n        /* \"#utility.yul\":4172:4173   */\n      dup3\n        /* \"#utility.yul\":4154:4174   */\n      tag_83\n      jump\t// in\n    tag_148:\n        /* \"#utility.yul\":4149:4174   */\n      swap2\n      pop\n        /* \"#utility.yul\":4188:4208   */\n      tag_149\n        /* \"#utility.yul\":4206:4207   */\n      dup4\n        /* \"#utility.yul\":4188:4208   */\n      tag_83\n      jump\t// in\n    tag_149:\n        /* \"#utility.yul\":4183:4208   */\n      swap3\n      pop\n        /* \"#utility.yul\":4231:4232   */\n      dup3\n        /* \"#utility.yul\":4228:4229   */\n      dup3\n        /* \"#utility.yul\":4224:4233   */\n      add\n        /* \"#utility.yul\":4217:4233   */\n      swap1\n      pop\n        /* \"#utility.yul\":4252:4255   */\n      dup1\n        /* \"#utility.yul\":4249:4250   */\n      dup3\n        /* \"#utility.yul\":4246:4256   */\n      gt\n        /* \"#utility.yul\":4243:4279   */\n      iszero\n      tag_150\n      jumpi\n        /* \"#utility.yul\":4259:4277   */\n      tag_151\n      tag_95\n      jump\t// in\n    tag_151:\n        /* \"#utility.yul\":4243:4279   */\n    tag_150:\n        /* \"#utility.yul\":4095:4286   */\n      swap3\n      swap2\n      pop\n      pop\n      jump\t// out\n        /* \"#utility.yul\":4292:4702   */\n    tag_70:\n        /* \"#utility.yul\":4332:4339   */\n      0x00\n        /* \"#utility.yul\":4355:4375   */\n      tag_153\n        /* \"#utility.yul\":4373:4374   */\n      dup3\n        /* \"#utility.yul\":4355:4375   */\n      tag_83\n      jump\t// in\n    tag_153:\n        /* \"#utility.yul\":4350:4375   */\n      swap2\n      pop\n        /* \"#utility.yul\":4389:4409   */\n      tag_154\n        /* \"#utility.yul\":4407:4408   */\n      dup4\n        /* \"#utility.yul\":4389:4409   */\n      tag_83\n      jump\t// in\n    tag_154:\n        /* \"#utility.yul\":4384:4409   */\n      swap3\n      pop\n        /* \"#utility.yul\":4444:4445   */\n      dup3\n        /* \"#utility.yul\":4441:4442   */\n      dup3\n        /* \"#utility.yul\":4437:4446   */\n      mul\n        /* \"#utility.yul\":4466:4496   */\n      tag_155\n        /* \"#utility.yul\":4484:4495   */\n      dup2\n        /* \"#utility.yul\":4466:4496   */\n      tag_83\n      jump\t// in\n    tag_155:\n        /* \"#utility.yul\":4455:4496   */\n      swap2\n      pop\n        /* \"#utility.yul\":4645:4646   */\n      dup3\n        /* \"#utility.yul\":4636:4643   */\n      dup3\n        /* \"#utility.yul\":4632:4647   */\n      div\n        /* \"#utility.yul\":4629:4630   */\n      dup5\n        /* \"#utility.yul\":4626:4648   */\n      eq\n        /* \"#utility.yul\":4606:4607   */\n      dup4\n        /* \"#utility.yul\":4599:4608   */\n      iszero\n        /* \"#utility.yul\":4579:4662   */\n      or\n        /* \"#utility.yul\":4556:4695   */\n      tag_156\n      jumpi\n        /* \"#utility.yul\":4675:4693   */\n      tag_157\n      tag_95\n      jump\t// in\n    tag_157:\n        /* \"#utility.yul\":4556:4695   */\n    tag_156:\n        /* \"#utility.yul\":4340:4702   */\n      pop\n        /* \"#utility.yul\":4292:4702   */\n      swap3\n      swap2\n      pop\n      pop\n      jump\t// out\n        /* \"#utility.yul\":4708:4888   */\n    tag_96:\n        /* \"#utility.yul\":4756:4833   */\n      0x4e487b7100000000000000000000000000000000000000000000000000000000\n        /* \"#utility.yul\":4753:4754   */\n      0x00\n        /* \"#utility.yul\":4746:4834   */\n      mstore\n        /* \"#utility.yul\":4853:4857   */\n      0x12\n        /* \"#utility.yul\":4850:4851   */\n      0x04\n        /* \"#utility.yul\":4843:4858   */\n      mstore\n        /* \"#utility.yul\":4877:4881   */\n      0x24\n        /* \"#utility.yul\":4874:4875   */\n      0x00\n        /* \"#utility.yul\":4867:4882   */\n      revert\n        /* \"#utility.yul\":4894:5079   */\n    tag_72:\n        /* \"#utility.yul\":4934:4935   */\n      0x00\n        /* \"#utility.yul\":4951:4971   */\n      tag_160\n        /* \"#utility.yul\":4969:4970   */\n      dup3\n        /* \"#utility.yul\":4951:4971   */\n      tag_83\n      jump\t// in\n    tag_160:\n        /* \"#utility.yul\":4946:4971   */\n      swap2\n      pop\n        /* \"#utility.yul\":4985:5005   */\n      tag_161\n        /* \"#utility.yul\":5003:5004   */\n      dup4\n        /* \"#utility.yul\":4985:5005   */\n      tag_83\n      jump\t// in\n    tag_161:\n        /* \"#utility.yul\":4980:5005   */\n      swap3\n      pop\n        /* \"#utility.yul\":5024:5025   */\n      dup3\n        /* \"#utility.yul\":5014:5049   */\n      tag_162\n      jumpi\n        /* \"#utility.yul\":5029:5047   */\n      tag_163\n      tag_96\n      jump\t// in\n    tag_163:\n        /* \"#utility.yul\":5014:5049   */\n    tag_162:\n        /* \"#utility.yul\":5071:5072   */\n      dup3\n        /* \"#utility.yul\":5068:5069   */\n      dup3\n        /* \"#utility.yul\":5064:5073   */\n      div\n        /* \"#utility.yul\":5059:5073   */\n      swap1\n      pop\n        /* \"#utility.yul\":4894:5079   */\n      swap3\n      swap2\n      pop\n      pop\n      jump\t// out\n        /* \"#utility.yul\":5085:5190   */\n    tag_97:\n        /* \"#utility.yul\":5121:5128   */\n      0x00\n        /* \"#utility.yul\":5161:5183   */\n      0xffffffffffffffffffff\n        /* \"#utility.yul\":5154:5159   */\n      dup3\n        /* \"#utility.yul\":5150:5184   */\n      and\n        /* \"#utility.yul\":5139:5184   */\n      swap1\n      pop\n        /* \"#utility.yul\":5085:5190   */\n      swap2\n      swap1\n      pop\n      jump\t// out\n        /* \"#utility.yul\":5196:5316   */\n    tag_98:\n        /* \"#utility.yul\":5268:5291   */\n      tag_166\n        /* \"#utility.yul\":5285:5290   */\n      dup2\n        /* \"#utility.yul\":5268:5291   */\n      tag_97\n      jump\t// in\n    tag_166:\n        /* \"#utility.yul\":5261:5266   */\n      dup2\n        /* \"#utility.yul\":5258:5292   */\n      eq\n        /* \"#utility.yul\":5248:5310   */\n      tag_167\n      jumpi\n        /* \"#utility.yul\":5306:5307   */\n      0x00\n        /* \"#utility.yul\":5303:5304   */\n      dup1\n        /* \"#utility.yul\":5296:5308   */\n      revert\n        /* \"#utility.yul\":5248:5310   */\n    tag_167:\n        /* \"#utility.yul\":5196:5316   */\n      pop\n      jump\t// out\n        /* \"#utility.yul\":5322:5463   */\n    tag_99:\n        /* \"#utility.yul\":5378:5383   */\n      0x00\n        /* \"#utility.yul\":5409:5415   */\n      dup2\n        /* \"#utility.yul\":5403:5416   */\n      mload\n        /* \"#utility.yul\":5394:5416   */\n      swap1\n      pop\n        /* \"#utility.yul\":5425:5457   */\n      tag_169\n        /* \"#utility.yul\":5451:5456   */\n      dup2\n        /* \"#utility.yul\":5425:5457   */\n      tag_98\n      jump\t// in\n    tag_169:\n        /* \"#utility.yul\":5322:5463   */\n      swap3\n      swap2\n      pop\n      pop\n      jump\t// out\n        /* \"#utility.yul\":5469:5545   */\n    tag_100:\n        /* \"#utility.yul\":5505:5512   */\n      0x00\n        /* \"#utility.yul\":5534:5539   */\n      dup2\n        /* \"#utility.yul\":5523:5539   */\n      swap1\n      pop\n        /* \"#utility.yul\":5469:5545   */\n      swap2\n      swap1\n      pop\n      jump\t// out\n        /* \"#utility.yul\":5551:5671   */\n    tag_101:\n        /* \"#utility.yul\":5623:5646   */\n      tag_172\n        /* \"#utility.yul\":5640:5645   */\n      dup2\n        /* \"#utility.yul\":5623:5646   */\n      tag_100\n      jump\t// in\n    tag_172:\n        /* \"#utility.yul\":5616:5621   */\n      dup2\n        /* \"#utility.yul\":5613:5647   */\n      eq\n        /* \"#utility.yul\":5603:5665   */\n      tag_173\n      jumpi\n        /* \"#utility.yul\":5661:5662   */\n      0x00\n        /* \"#utility.yul\":5658:5659   */\n      dup1\n        /* \"#utility.yul\":5651:5663   */\n      revert\n        /* \"#utility.yul\":5603:5665   */\n    tag_173:\n        /* \"#utility.yul\":5551:5671   */\n      pop\n      jump\t// out\n        /* \"#utility.yul\":5677:5818   */\n    tag_102:\n        /* \"#utility.yul\":5733:5738   */\n      0x00\n        /* \"#utility.yul\":5764:5770   */\n      dup2\n        /* \"#utility.yul\":5758:5771   */\n      mload\n        /* \"#utility.yul\":5749:5771   */\n      swap1\n      pop\n        /* \"#utility.yul\":5780:5812   */\n      tag_175\n        /* \"#utility.yul\":5806:5811   */\n      dup2\n        /* \"#utility.yul\":5780:5812   */\n      tag_101\n      jump\t// in\n    tag_175:\n        /* \"#utility.yul\":5677:5818   */\n      swap3\n      swap2\n      pop\n      pop\n      jump\t// out\n        /* \"#utility.yul\":5824:5967   */\n    tag_103:\n        /* \"#utility.yul\":5881:5886   */\n      0x00\n        /* \"#utility.yul\":5912:5918   */\n      dup2\n        /* \"#utility.yul\":5906:5919   */\n      mload\n        /* \"#utility.yul\":5897:5919   */\n      swap1\n      pop\n        /* \"#utility.yul\":5928:5961   */\n      tag_177\n        /* \"#utility.yul\":5955:5960   */\n      dup2\n        /* \"#utility.yul\":5928:5961   */\n      tag_84\n      jump\t// in\n    tag_177:\n        /* \"#utility.yul\":5824:5967   */\n      swap3\n      swap2\n      pop\n      pop\n      jump\t// out\n        /* \"#utility.yul\":5973:6944   */\n    tag_77:\n        /* \"#utility.yul\":6076:6082   */\n      0x00\n        /* \"#utility.yul\":6084:6090   */\n      dup1\n        /* \"#utility.yul\":6092:6098   */\n      0x00\n        /* \"#utility.yul\":6100:6106   */\n      dup1\n        /* \"#utility.yul\":6108:6114   */\n      0x00\n        /* \"#utility.yul\":6157:6160   */\n      0xa0\n        /* \"#utility.yul\":6145:6154   */\n      dup7\n        /* \"#utility.yul\":6136:6143   */\n      dup9\n        /* \"#utility.yul\":6132:6155   */\n      sub\n        /* \"#utility.yul\":6128:6161   */\n      slt\n        /* \"#utility.yul\":6125:6245   */\n      iszero\n      tag_179\n      jumpi\n        /* \"#utility.yul\":6164:6243   */\n      tag_180\n      tag_81\n      jump\t// in\n    tag_180:\n        /* \"#utility.yul\":6125:6245   */\n    tag_179:\n        /* \"#utility.yul\":6284:6285   */\n      0x00\n        /* \"#utility.yul\":6309:6372   */\n      tag_181\n        /* \"#utility.yul\":6364:6371   */\n      dup9\n        /* \"#utility.yul\":6355:6361   */\n      dup3\n        /* \"#utility.yul\":6344:6353   */\n      dup10\n        /* \"#utility.yul\":6340:6362   */\n      add\n        /* \"#utility.yul\":6309:6372   */\n      tag_99\n      jump\t// in\n    tag_181:\n        /* \"#utility.yul\":6299:6372   */\n      swap6\n      pop\n        /* \"#utility.yul\":6255:6382   */\n      pop\n        /* \"#utility.yul\":6421:6423   */\n      0x20\n        /* \"#utility.yul\":6447:6510   */\n      tag_182\n        /* \"#utility.yul\":6502:6509   */\n      dup9\n        /* \"#utility.yul\":6493:6499   */\n      dup3\n        /* \"#utility.yul\":6482:6491   */\n      dup10\n        /* \"#utility.yul\":6478:6500   */\n      add\n        /* \"#utility.yul\":6447:6510   */\n      tag_102\n      jump\t// in\n    tag_182:\n        /* \"#utility.yul\":6437:6510   */\n      swap5\n      pop\n        /* \"#utility.yul\":6392:6520   */\n      pop\n        /* \"#utility.yul\":6559:6561   */\n      0x40\n        /* \"#utility.yul\":6585:6649   */\n      tag_183\n        /* \"#utility.yul\":6641:6648   */\n      dup9\n        /* \"#utility.yul\":6632:6638   */\n      dup3\n        /* \"#utility.yul\":6621:6630   */\n      dup10\n        /* \"#utility.yul\":6617:6639   */\n      add\n        /* \"#utility.yul\":6585:6649   */\n      tag_103\n      jump\t// in\n    tag_183:\n        /* \"#utility.yul\":6575:6649   */\n      swap4\n      pop\n        /* \"#utility.yul\":6530:6659   */\n      pop\n        /* \"#utility.yul\":6698:6700   */\n      0x60\n        /* \"#utility.yul\":6724:6788   */\n      tag_184\n        /* \"#utility.yul\":6780:6787   */\n      dup9\n        /* \"#utility.yul\":6771:6777   */\n      dup3\n        /* \"#utility.yul\":6760:6769   */\n      dup10\n        /* \"#utility.yul\":6756:6778   */\n      add\n        /* \"#utility.yul\":6724:6788   */\n      tag_103\n      jump\t// in\n    tag_184:\n        /* \"#utility.yul\":6714:6788   */\n      swap3\n      pop\n        /* \"#utility.yul\":6669:6798   */\n      pop\n        /* \"#utility.yul\":6837:6840   */\n      0x80\n        /* \"#utility.yul\":6864:6927   */\n      tag_185\n        /* \"#utility.yul\":6919:6926   */\n      dup9\n        /* \"#utility.yul\":6910:6916   */\n      dup3\n        /* \"#utility.yul\":6899:6908   */\n      dup10\n        /* \"#utility.yul\":6895:6917   */\n      add\n        /* \"#utility.yul\":6864:6927   */\n      tag_99\n      jump\t// in\n    tag_185:\n        /* \"#utility.yul\":6854:6927   */\n      swap2\n      pop\n        /* \"#utility.yul\":6808:6937   */\n      pop\n        /* \"#utility.yul\":5973:6944   */\n      swap3\n      swap6\n      pop\n      swap3\n      swap6\n      swap1\n      swap4\n      pop\n      jump\t// out\n        /* \"#utility.yul\":6950:7506   */\n    tag_79:\n        /* \"#utility.yul\":6989:6996   */\n      0x00\n        /* \"#utility.yul\":7012:7031   */\n      tag_187\n        /* \"#utility.yul\":7029:7030   */\n      dup3\n        /* \"#utility.yul\":7012:7031   */\n      tag_100\n      jump\t// in\n    tag_187:\n        /* \"#utility.yul\":7007:7031   */\n      swap2\n      pop\n        /* \"#utility.yul\":7045:7064   */\n      tag_188\n        /* \"#utility.yul\":7062:7063   */\n      dup4\n        /* \"#utility.yul\":7045:7064   */\n      tag_100\n      jump\t// in\n    tag_188:\n        /* \"#utility.yul\":7040:7064   */\n      swap3\n      pop\n        /* \"#utility.yul\":7099:7100   */\n      dup3\n        /* \"#utility.yul\":7096:7097   */\n      dup3\n        /* \"#utility.yul\":7092:7101   */\n      mul\n        /* \"#utility.yul\":7121:7150   */\n      tag_189\n        /* \"#utility.yul\":7138:7149   */\n      dup2\n        /* \"#utility.yul\":7121:7150   */\n      tag_100\n      jump\t// in\n    tag_189:\n        /* \"#utility.yul\":7110:7150   */\n      swap2\n      pop\n        /* \"#utility.yul\":7208:7274   */\n      0x8000000000000000000000000000000000000000000000000000000000000000\n        /* \"#utility.yul\":7205:7206   */\n      dup5\n        /* \"#utility.yul\":7202:7275   */\n      eq\n        /* \"#utility.yul\":7198:7199   */\n      0x00\n        /* \"#utility.yul\":7195:7196   */\n      dup5\n        /* \"#utility.yul\":7191:7200   */\n      slt\n        /* \"#utility.yul\":7187:7276   */\n      and\n        /* \"#utility.yul\":7184:7299   */\n      iszero\n      tag_190\n      jumpi\n        /* \"#utility.yul\":7279:7297   */\n      tag_191\n      tag_95\n      jump\t// in\n    tag_191:\n        /* \"#utility.yul\":7184:7299   */\n    tag_190:\n        /* \"#utility.yul\":7449:7450   */\n      dup3\n        /* \"#utility.yul\":7440:7447   */\n      dup3\n        /* \"#utility.yul\":7435:7451   */\n      sdiv\n        /* \"#utility.yul\":7432:7433   */\n      dup5\n        /* \"#utility.yul\":7429:7452   */\n      eq\n        /* \"#utility.yul\":7409:7410   */\n      dup4\n        /* \"#utility.yul\":7402:7411   */\n      iszero\n        /* \"#utility.yul\":7382:7466   */\n      or\n        /* \"#utility.yul\":7359:7499   */\n      tag_192\n      jumpi\n        /* \"#utility.yul\":7479:7497   */\n      tag_193\n      tag_95\n      jump\t// in\n    tag_193:\n        /* \"#utility.yul\":7359:7499   */\n    tag_192:\n        /* \"#utility.yul\":6997:7506   */\n      pop\n        /* \"#utility.yul\":6950:7506   */\n      swap3\n      swap2\n      pop\n      pop\n      jump\t// out\n\n    auxdata: 0xa2646970667358221220abc2a763a2fd2551c8b985606f30149e35d74e7c5683d4e373f9825742f862ad64736f6c63430008180033\n}\n",
				"bytecode": {
					"linkReferences": {},
					"object": "6080604052674563918244f400005f5534801561001a575f80fd5b50610966806100285f395ff3fe60806040526004361061006f575f3560e01c80633430a88c1161004d5780633430a88c146101155780633ccfd60b1461013f5780635b18056b14610155578063d1d9165d1461017f5761006f565b80631f2c923814610073578063221ace14146100af578063288c3d17146100eb575b5f80fd5b34801561007e575f80fd5b506100996004803603810190610094919061051a565b610189565b6040516100a69190610584565b60405180910390f35b3480156100ba575f80fd5b506100d560048036038101906100d091906105c7565b6101c4565b6040516100e29190610601565b60405180910390f35b3480156100f6575f80fd5b506100ff6101d9565b60405161010c9190610601565b60405180910390f35b348015610120575f80fd5b50610129610203565b6040516101369190610601565b60405180910390f35b34801561014a575f80fd5b50610153610208565b005b348015610160575f80fd5b506101696102a9565b6040516101769190610601565b60405180910390f35b6101876102b5565b005b60018181548110610198575f80fd5b905f5260205f20015f915054906101000a900473ffffffffffffffffffffffffffffffffffffffff1681565b6002602052805f5260405f205f915090505481565b5f80601b90505f600d90505f6101f882846103ec90919063ffffffff16565b905080935050505090565b5f5481565b5f5b6001805490508110156102a6575f6001828154811061022c5761022b61061a565b5b905f5260205f20015f9054906101000a900473ffffffffffffffffffffffffffffffffffffffff1690505f60025f8373ffffffffffffffffffffffffffffffffffffffff1673ffffffffffffffffffffffffffffffffffffffff1681526020019081526020015f208190555050808060010191505061020a565b50565b5f600180549050905090565b5f546102c034610406565b11610300576040517f08c379a00000000000000000000000000000000000000000000000000000000081526004016102f7906106a1565b60405180910390fd5b600133908060018154018082558091505060019003905f5260205f20015f9091909190916101000a81548173ffffffffffffffffffffffffffffffffffffffff021916908373ffffffffffffffffffffffffffffffffffffffff1602179055503460025f3373ffffffffffffffffffffffffffffffffffffffff1673ffffffffffffffffffffffffffffffffffffffff1681526020019081526020015f20546103a991906106ec565b60025f3373ffffffffffffffffffffffffffffffffffffffff1673ffffffffffffffffffffffffffffffffffffffff1681526020019081526020015f2081905550565b5f8082846103fa91906106ec565b90508091505092915050565b5f8061041061043e565b90505f670de0b6b3a76400008285610428919061071f565b610432919061078d565b90508092505050919050565b5f8073694aa1769357215de4fac081bf1f309adc32530690505f8173ffffffffffffffffffffffffffffffffffffffff1663feaf968c6040518163ffffffff1660e01b815260040160a060405180830381865afa1580156104a1573d5f803e3d5ffd5b505050506040513d601f19601f820116820180604052508101906104c59190610843565b5050509150506402540be400816104dc91906108ba565b9250505090565b5f80fd5b5f819050919050565b6104f9816104e7565b8114610503575f80fd5b50565b5f81359050610514816104f0565b92915050565b5f6020828403121561052f5761052e6104e3565b5b5f61053c84828501610506565b91505092915050565b5f73ffffffffffffffffffffffffffffffffffffffff82169050919050565b5f61056e82610545565b9050919050565b61057e81610564565b82525050565b5f6020820190506105975f830184610575565b92915050565b6105a681610564565b81146105b0575f80fd5b50565b5f813590506105c18161059d565b92915050565b5f602082840312156105dc576105db6104e3565b5b5f6105e9848285016105b3565b91505092915050565b6105fb816104e7565b82525050565b5f6020820190506106145f8301846105f2565b92915050565b7f4e487b71000000000000000000000000000000000000000000000000000000005f52603260045260245ffd5b5f82825260208201905092915050565b7f646f65736e27742073617469736679206d79206e6565642000000000000000005f82015250565b5f61068b601883610647565b915061069682610657565b602082019050919050565b5f6020820190508181035f8301526106b88161067f565b9050919050565b7f4e487b71000000000000000000000000000000000000000000000000000000005f52601160045260245ffd5b5f6106f6826104e7565b9150610701836104e7565b9250828201905080821115610719576107186106bf565b5b92915050565b5f610729826104e7565b9150610734836104e7565b9250828202610742816104e7565b91508282048414831517610759576107586106bf565b5b5092915050565b7f4e487b71000000000000000000000000000000000000000000000000000000005f52601260045260245ffd5b5f610797826104e7565b91506107a2836104e7565b9250826107b2576107b1610760565b5b828204905092915050565b5f69ffffffffffffffffffff82169050919050565b6107db816107bd565b81146107e5575f80fd5b50565b5f815190506107f6816107d2565b92915050565b5f819050919050565b61080e816107fc565b8114610818575f80fd5b50565b5f8151905061082981610805565b92915050565b5f8151905061083d816104f0565b92915050565b5f805f805f60a0868803121561085c5761085b6104e3565b5b5f610869888289016107e8565b955050602061087a8882890161081b565b945050604061088b8882890161082f565b935050606061089c8882890161082f565b92505060806108ad888289016107e8565b9150509295509295909350565b5f6108c4826107fc565b91506108cf836107fc565b92508282026108dd816107fc565b91507f800000000000000000000000000000000000000000000000000000000000000084145f84121615610914576109136106bf565b5b8282058414831517610929576109286106bf565b5b509291505056fea2646970667358221220abc2a763a2fd2551c8b985606f30149e35d74e7c5683d4e373f9825742f862ad64736f6c63430008180033",
					"opcodes": "PUSH1 0x80 PUSH1 0x40 MSTORE PUSH8 0x4563918244F40000 PUSH0 SSTORE CALLVALUE DUP1 ISZERO PUSH2 0x1A JUMPI PUSH0 DUP1 REVERT JUMPDEST POP PUSH2 0x966 DUP1 PUSH2 0x28 PUSH0 CODECOPY PUSH0 RETURN INVALID PUSH1 0x80 PUSH1 0x40 MSTORE PUSH1 0x4 CALLDATASIZE LT PUSH2 0x6F JUMPI PUSH0 CALLDATALOAD PUSH1 0xE0 SHR DUP1 PUSH4 0x3430A88C GT PUSH2 0x4D JUMPI DUP1 PUSH4 0x3430A88C EQ PUSH2 0x115 JUMPI DUP1 PUSH4 0x3CCFD60B EQ PUSH2 0x13F JUMPI DUP1 PUSH4 0x5B18056B EQ PUSH2 0x155 JUMPI DUP1 PUSH4 0xD1D9165D EQ PUSH2 0x17F JUMPI PUSH2 0x6F JUMP JUMPDEST DUP1 PUSH4 0x1F2C9238 EQ PUSH2 0x73 JUMPI DUP1 PUSH4 0x221ACE14 EQ PUSH2 0xAF JUMPI DUP1 PUSH4 0x288C3D17 EQ PUSH2 0xEB JUMPI JUMPDEST PUSH0 DUP1 REVERT JUMPDEST CALLVALUE DUP1 ISZERO PUSH2 0x7E JUMPI PUSH0 DUP1 REVERT JUMPDEST POP PUSH2 0x99 PUSH1 0x4 DUP1 CALLDATASIZE SUB DUP2 ADD SWAP1 PUSH2 0x94 SWAP2 SWAP1 PUSH2 0x51A JUMP JUMPDEST PUSH2 0x189 JUMP JUMPDEST PUSH1 0x40 MLOAD PUSH2 0xA6 SWAP2 SWAP1 PUSH2 0x584 JUMP JUMPDEST PUSH1 0x40 MLOAD DUP1 SWAP2 SUB SWAP1 RETURN JUMPDEST CALLVALUE DUP1 ISZERO PUSH2 0xBA JUMPI PUSH0 DUP1 REVERT JUMPDEST POP PUSH2 0xD5 PUSH1 0x4 DUP1 CALLDATASIZE SUB DUP2 ADD SWAP1 PUSH2 0xD0 SWAP2 SWAP1 PUSH2 0x5C7 JUMP JUMPDEST PUSH2 0x1C4 JUMP JUMPDEST PUSH1 0x40 MLOAD PUSH2 0xE2 SWAP2 SWAP1 PUSH2 0x601 JUMP JUMPDEST PUSH1 0x40 MLOAD DUP1 SWAP2 SUB SWAP1 RETURN JUMPDEST CALLVALUE DUP1 ISZERO PUSH2 0xF6 JUMPI PUSH0 DUP1 REVERT JUMPDEST POP PUSH2 0xFF PUSH2 0x1D9 JUMP JUMPDEST PUSH1 0x40 MLOAD PUSH2 0x10C SWAP2 SWAP1 PUSH2 0x601 JUMP JUMPDEST PUSH1 0x40 MLOAD DUP1 SWAP2 SUB SWAP1 RETURN JUMPDEST CALLVALUE DUP1 ISZERO PUSH2 0x120 JUMPI PUSH0 DUP1 REVERT JUMPDEST POP PUSH2 0x129 PUSH2 0x203 JUMP JUMPDEST PUSH1 0x40 MLOAD PUSH2 0x136 SWAP2 SWAP1 PUSH2 0x601 JUMP JUMPDEST PUSH1 0x40 MLOAD DUP1 SWAP2 SUB SWAP1 RETURN JUMPDEST CALLVALUE DUP1 ISZERO PUSH2 0x14A JUMPI PUSH0 DUP1 REVERT JUMPDEST POP PUSH2 0x153 PUSH2 0x208 JUMP JUMPDEST STOP JUMPDEST CALLVALUE DUP1 ISZERO PUSH2 0x160 JUMPI PUSH0 DUP1 REVERT JUMPDEST POP PUSH2 0x169 PUSH2 0x2A9 JUMP JUMPDEST PUSH1 0x40 MLOAD PUSH2 0x176 SWAP2 SWAP1 PUSH2 0x601 JUMP JUMPDEST PUSH1 0x40 MLOAD DUP1 SWAP2 SUB SWAP1 RETURN JUMPDEST PUSH2 0x187 PUSH2 0x2B5 JUMP JUMPDEST STOP JUMPDEST PUSH1 0x1 DUP2 DUP2 SLOAD DUP2 LT PUSH2 0x198 JUMPI PUSH0 DUP1 REVERT JUMPDEST SWAP1 PUSH0 MSTORE PUSH1 0x20 PUSH0 KECCAK256 ADD PUSH0 SWAP2 POP SLOAD SWAP1 PUSH2 0x100 EXP SWAP1 DIV PUSH20 0xFFFFFFFFFFFFFFFFFFFFFFFFFFFFFFFFFFFFFFFF AND DUP2 JUMP JUMPDEST PUSH1 0x2 PUSH1 0x20 MSTORE DUP1 PUSH0 MSTORE PUSH1 0x40 PUSH0 KECCAK256 PUSH0 SWAP2 POP SWAP1 POP SLOAD DUP2 JUMP JUMPDEST PUSH0 DUP1 PUSH1 0x1B SWAP1 POP PUSH0 PUSH1 0xD SWAP1 POP PUSH0 PUSH2 0x1F8 DUP3 DUP5 PUSH2 0x3EC SWAP1 SWAP2 SWAP1 PUSH4 0xFFFFFFFF AND JUMP JUMPDEST SWAP1 POP DUP1 SWAP4 POP POP POP POP SWAP1 JUMP JUMPDEST PUSH0 SLOAD DUP2 JUMP JUMPDEST PUSH0 JUMPDEST PUSH1 0x1 DUP1 SLOAD SWAP1 POP DUP2 LT ISZERO PUSH2 0x2A6 JUMPI PUSH0 PUSH1 0x1 DUP3 DUP2 SLOAD DUP2 LT PUSH2 0x22C JUMPI PUSH2 0x22B PUSH2 0x61A JUMP JUMPDEST JUMPDEST SWAP1 PUSH0 MSTORE PUSH1 0x20 PUSH0 KECCAK256 ADD PUSH0 SWAP1 SLOAD SWAP1 PUSH2 0x100 EXP SWAP1 DIV PUSH20 0xFFFFFFFFFFFFFFFFFFFFFFFFFFFFFFFFFFFFFFFF AND SWAP1 POP PUSH0 PUSH1 0x2 PUSH0 DUP4 PUSH20 0xFFFFFFFFFFFFFFFFFFFFFFFFFFFFFFFFFFFFFFFF AND PUSH20 0xFFFFFFFFFFFFFFFFFFFFFFFFFFFFFFFFFFFFFFFF AND DUP2 MSTORE PUSH1 0x20 ADD SWAP1 DUP2 MSTORE PUSH1 0x20 ADD PUSH0 KECCAK256 DUP2 SWAP1 SSTORE POP POP DUP1 DUP1 PUSH1 0x1 ADD SWAP2 POP POP PUSH2 0x20A JUMP JUMPDEST POP JUMP JUMPDEST PUSH0 PUSH1 0x1 DUP1 SLOAD SWAP1 POP SWAP1 POP SWAP1 JUMP JUMPDEST PUSH0 SLOAD PUSH2 0x2C0 CALLVALUE PUSH2 0x406 JUMP JUMPDEST GT PUSH2 0x300 JUMPI PUSH1 0x40 MLOAD PUSH32 0x8C379A000000000000000000000000000000000000000000000000000000000 DUP2 MSTORE PUSH1 0x4 ADD PUSH2 0x2F7 SWAP1 PUSH2 0x6A1 JUMP JUMPDEST PUSH1 0x40 MLOAD DUP1 SWAP2 SUB SWAP1 REVERT JUMPDEST PUSH1 0x1 CALLER SWAP1 DUP1 PUSH1 0x1 DUP2 SLOAD ADD DUP1 DUP3 SSTORE DUP1 SWAP2 POP POP PUSH1 0x1 SWAP1 SUB SWAP1 PUSH0 MSTORE PUSH1 0x20 PUSH0 KECCAK256 ADD PUSH0 SWAP1 SWAP2 SWAP1 SWAP2 SWAP1 SWAP2 PUSH2 0x100 EXP DUP2 SLOAD DUP2 PUSH20 0xFFFFFFFFFFFFFFFFFFFFFFFFFFFFFFFFFFFFFFFF MUL NOT AND SWAP1 DUP4 PUSH20 0xFFFFFFFFFFFFFFFFFFFFFFFFFFFFFFFFFFFFFFFF AND MUL OR SWAP1 SSTORE POP CALLVALUE PUSH1 0x2 PUSH0 CALLER PUSH20 0xFFFFFFFFFFFFFFFFFFFFFFFFFFFFFFFFFFFFFFFF AND PUSH20 0xFFFFFFFFFFFFFFFFFFFFFFFFFFFFFFFFFFFFFFFF AND DUP2 MSTORE PUSH1 0x20 ADD SWAP1 DUP2 MSTORE PUSH1 0x20 ADD PUSH0 KECCAK256 SLOAD PUSH2 0x3A9 SWAP2 SWAP1 PUSH2 0x6EC JUMP JUMPDEST PUSH1 0x2 PUSH0 CALLER PUSH20 0xFFFFFFFFFFFFFFFFFFFFFFFFFFFFFFFFFFFFFFFF AND PUSH20 0xFFFFFFFFFFFFFFFFFFFFFFFFFFFFFFFFFFFFFFFF AND DUP2 MSTORE PUSH1 0x20 ADD SWAP1 DUP2 MSTORE PUSH1 0x20 ADD PUSH0 KECCAK256 DUP2 SWAP1 SSTORE POP JUMP JUMPDEST PUSH0 DUP1 DUP3 DUP5 PUSH2 0x3FA SWAP2 SWAP1 PUSH2 0x6EC JUMP JUMPDEST SWAP1 POP DUP1 SWAP2 POP POP SWAP3 SWAP2 POP POP JUMP JUMPDEST PUSH0 DUP1 PUSH2 0x410 PUSH2 0x43E JUMP JUMPDEST SWAP1 POP PUSH0 PUSH8 0xDE0B6B3A7640000 DUP3 DUP6 PUSH2 0x428 SWAP2 SWAP1 PUSH2 0x71F JUMP JUMPDEST PUSH2 0x432 SWAP2 SWAP1 PUSH2 0x78D JUMP JUMPDEST SWAP1 POP DUP1 SWAP3 POP POP POP SWAP2 SWAP1 POP JUMP JUMPDEST PUSH0 DUP1 PUSH20 0x694AA1769357215DE4FAC081BF1F309ADC325306 SWAP1 POP PUSH0 DUP2 PUSH20 0xFFFFFFFFFFFFFFFFFFFFFFFFFFFFFFFFFFFFFFFF AND PUSH4 0xFEAF968C PUSH1 0x40 MLOAD DUP2 PUSH4 0xFFFFFFFF AND PUSH1 0xE0 SHL DUP2 MSTORE PUSH1 0x4 ADD PUSH1 0xA0 PUSH1 0x40 MLOAD DUP1 DUP4 SUB DUP2 DUP7 GAS STATICCALL ISZERO DUP1 ISZERO PUSH2 0x4A1 JUMPI RETURNDATASIZE PUSH0 DUP1 RETURNDATACOPY RETURNDATASIZE PUSH0 REVERT JUMPDEST POP POP POP POP PUSH1 0x40 MLOAD RETURNDATASIZE PUSH1 0x1F NOT PUSH1 0x1F DUP3 ADD AND DUP3 ADD DUP1 PUSH1 0x40 MSTORE POP DUP2 ADD SWAP1 PUSH2 0x4C5 SWAP2 SWAP1 PUSH2 0x843 JUMP JUMPDEST POP POP POP SWAP2 POP POP PUSH5 0x2540BE400 DUP2 PUSH2 0x4DC SWAP2 SWAP1 PUSH2 0x8BA JUMP JUMPDEST SWAP3 POP POP POP SWAP1 JUMP JUMPDEST PUSH0 DUP1 REVERT JUMPDEST PUSH0 DUP2 SWAP1 POP SWAP2 SWAP1 POP JUMP JUMPDEST PUSH2 0x4F9 DUP2 PUSH2 0x4E7 JUMP JUMPDEST DUP2 EQ PUSH2 0x503 JUMPI PUSH0 DUP1 REVERT JUMPDEST POP JUMP JUMPDEST PUSH0 DUP2 CALLDATALOAD SWAP1 POP PUSH2 0x514 DUP2 PUSH2 0x4F0 JUMP JUMPDEST SWAP3 SWAP2 POP POP JUMP JUMPDEST PUSH0 PUSH1 0x20 DUP3 DUP5 SUB SLT ISZERO PUSH2 0x52F JUMPI PUSH2 0x52E PUSH2 0x4E3 JUMP JUMPDEST JUMPDEST PUSH0 PUSH2 0x53C DUP5 DUP3 DUP6 ADD PUSH2 0x506 JUMP JUMPDEST SWAP2 POP POP SWAP3 SWAP2 POP POP JUMP JUMPDEST PUSH0 PUSH20 0xFFFFFFFFFFFFFFFFFFFFFFFFFFFFFFFFFFFFFFFF DUP3 AND SWAP1 POP SWAP2 SWAP1 POP JUMP JUMPDEST PUSH0 PUSH2 0x56E DUP3 PUSH2 0x545 JUMP JUMPDEST SWAP1 POP SWAP2 SWAP1 POP JUMP JUMPDEST PUSH2 0x57E DUP2 PUSH2 0x564 JUMP JUMPDEST DUP3 MSTORE POP POP JUMP JUMPDEST PUSH0 PUSH1 0x20 DUP3 ADD SWAP1 POP PUSH2 0x597 PUSH0 DUP4 ADD DUP5 PUSH2 0x575 JUMP JUMPDEST SWAP3 SWAP2 POP POP JUMP JUMPDEST PUSH2 0x5A6 DUP2 PUSH2 0x564 JUMP JUMPDEST DUP2 EQ PUSH2 0x5B0 JUMPI PUSH0 DUP1 REVERT JUMPDEST POP JUMP JUMPDEST PUSH0 DUP2 CALLDATALOAD SWAP1 POP PUSH2 0x5C1 DUP2 PUSH2 0x59D JUMP JUMPDEST SWAP3 SWAP2 POP POP JUMP JUMPDEST PUSH0 PUSH1 0x20 DUP3 DUP5 SUB SLT ISZERO PUSH2 0x5DC JUMPI PUSH2 0x5DB PUSH2 0x4E3 JUMP JUMPDEST JUMPDEST PUSH0 PUSH2 0x5E9 DUP5 DUP3 DUP6 ADD PUSH2 0x5B3 JUMP JUMPDEST SWAP2 POP POP SWAP3 SWAP2 POP POP JUMP JUMPDEST PUSH2 0x5FB DUP2 PUSH2 0x4E7 JUMP JUMPDEST DUP3 MSTORE POP POP JUMP JUMPDEST PUSH0 PUSH1 0x20 DUP3 ADD SWAP1 POP PUSH2 0x614 PUSH0 DUP4 ADD DUP5 PUSH2 0x5F2 JUMP JUMPDEST SWAP3 SWAP2 POP POP JUMP JUMPDEST PUSH32 0x4E487B7100000000000000000000000000000000000000000000000000000000 PUSH0 MSTORE PUSH1 0x32 PUSH1 0x4 MSTORE PUSH1 0x24 PUSH0 REVERT JUMPDEST PUSH0 DUP3 DUP3 MSTORE PUSH1 0x20 DUP3 ADD SWAP1 POP SWAP3 SWAP2 POP POP JUMP JUMPDEST PUSH32 0x646F65736E27742073617469736679206D79206E656564200000000000000000 PUSH0 DUP3 ADD MSTORE POP JUMP JUMPDEST PUSH0 PUSH2 0x68B PUSH1 0x18 DUP4 PUSH2 0x647 JUMP JUMPDEST SWAP2 POP PUSH2 0x696 DUP3 PUSH2 0x657 JUMP JUMPDEST PUSH1 0x20 DUP3 ADD SWAP1 POP SWAP2 SWAP1 POP JUMP JUMPDEST PUSH0 PUSH1 0x20 DUP3 ADD SWAP1 POP DUP2 DUP2 SUB PUSH0 DUP4 ADD MSTORE PUSH2 0x6B8 DUP2 PUSH2 0x67F JUMP JUMPDEST SWAP1 POP SWAP2 SWAP1 POP JUMP JUMPDEST PUSH32 0x4E487B7100000000000000000000000000000000000000000000000000000000 PUSH0 MSTORE PUSH1 0x11 PUSH1 0x4 MSTORE PUSH1 0x24 PUSH0 REVERT JUMPDEST PUSH0 PUSH2 0x6F6 DUP3 PUSH2 0x4E7 JUMP JUMPDEST SWAP2 POP PUSH2 0x701 DUP4 PUSH2 0x4E7 JUMP JUMPDEST SWAP3 POP DUP3 DUP3 ADD SWAP1 POP DUP1 DUP3 GT ISZERO PUSH2 0x719 JUMPI PUSH2 0x718 PUSH2 0x6BF JUMP JUMPDEST JUMPDEST SWAP3 SWAP2 POP POP JUMP JUMPDEST PUSH0 PUSH2 0x729 DUP3 PUSH2 0x4E7 JUMP JUMPDEST SWAP2 POP PUSH2 0x734 DUP4 PUSH2 0x4E7 JUMP JUMPDEST SWAP3 POP DUP3 DUP3 MUL PUSH2 0x742 DUP2 PUSH2 0x4E7 JUMP JUMPDEST SWAP2 POP DUP3 DUP3 DIV DUP5 EQ DUP4 ISZERO OR PUSH2 0x759 JUMPI PUSH2 0x758 PUSH2 0x6BF JUMP JUMPDEST JUMPDEST POP SWAP3 SWAP2 POP POP JUMP JUMPDEST PUSH32 0x4E487B7100000000000000000000000000000000000000000000000000000000 PUSH0 MSTORE PUSH1 0x12 PUSH1 0x4 MSTORE PUSH1 0x24 PUSH0 REVERT JUMPDEST PUSH0 PUSH2 0x797 DUP3 PUSH2 0x4E7 JUMP JUMPDEST SWAP2 POP PUSH2 0x7A2 DUP4 PUSH2 0x4E7 JUMP JUMPDEST SWAP3 POP DUP3 PUSH2 0x7B2 JUMPI PUSH2 0x7B1 PUSH2 0x760 JUMP JUMPDEST JUMPDEST DUP3 DUP3 DIV SWAP1 POP SWAP3 SWAP2 POP POP JUMP JUMPDEST PUSH0 PUSH10 0xFFFFFFFFFFFFFFFFFFFF DUP3 AND SWAP1 POP SWAP2 SWAP1 POP JUMP JUMPDEST PUSH2 0x7DB DUP2 PUSH2 0x7BD JUMP JUMPDEST DUP2 EQ PUSH2 0x7E5 JUMPI PUSH0 DUP1 REVERT JUMPDEST POP JUMP JUMPDEST PUSH0 DUP2 MLOAD SWAP1 POP PUSH2 0x7F6 DUP2 PUSH2 0x7D2 JUMP JUMPDEST SWAP3 SWAP2 POP POP JUMP JUMPDEST PUSH0 DUP2 SWAP1 POP SWAP2 SWAP1 POP JUMP JUMPDEST PUSH2 0x80E DUP2 PUSH2 0x7FC JUMP JUMPDEST DUP2 EQ PUSH2 0x818 JUMPI PUSH0 DUP1 REVERT JUMPDEST POP JUMP JUMPDEST PUSH0 DUP2 MLOAD SWAP1 POP PUSH2 0x829 DUP2 PUSH2 0x805 JUMP JUMPDEST SWAP3 SWAP2 POP POP JUMP JUMPDEST PUSH0 DUP2 MLOAD SWAP1 POP PUSH2 0x83D DUP2 PUSH2 0x4F0 JUMP JUMPDEST SWAP3 SWAP2 POP POP JUMP JUMPDEST PUSH0 DUP1 PUSH0 DUP1 PUSH0 PUSH1 0xA0 DUP7 DUP9 SUB SLT ISZERO PUSH2 0x85C JUMPI PUSH2 0x85B PUSH2 0x4E3 JUMP JUMPDEST JUMPDEST PUSH0 PUSH2 0x869 DUP9 DUP3 DUP10 ADD PUSH2 0x7E8 JUMP JUMPDEST SWAP6 POP POP PUSH1 0x20 PUSH2 0x87A DUP9 DUP3 DUP10 ADD PUSH2 0x81B JUMP JUMPDEST SWAP5 POP POP PUSH1 0x40 PUSH2 0x88B DUP9 DUP3 DUP10 ADD PUSH2 0x82F JUMP JUMPDEST SWAP4 POP POP PUSH1 0x60 PUSH2 0x89C DUP9 DUP3 DUP10 ADD PUSH2 0x82F JUMP JUMPDEST SWAP3 POP POP PUSH1 0x80 PUSH2 0x8AD DUP9 DUP3 DUP10 ADD PUSH2 0x7E8 JUMP JUMPDEST SWAP2 POP POP SWAP3 SWAP6 POP SWAP3 SWAP6 SWAP1 SWAP4 POP JUMP JUMPDEST PUSH0 PUSH2 0x8C4 DUP3 PUSH2 0x7FC JUMP JUMPDEST SWAP2 POP PUSH2 0x8CF DUP4 PUSH2 0x7FC JUMP JUMPDEST SWAP3 POP DUP3 DUP3 MUL PUSH2 0x8DD DUP2 PUSH2 0x7FC JUMP JUMPDEST SWAP2 POP PUSH32 0x8000000000000000000000000000000000000000000000000000000000000000 DUP5 EQ PUSH0 DUP5 SLT AND ISZERO PUSH2 0x914 JUMPI PUSH2 0x913 PUSH2 0x6BF JUMP JUMPDEST JUMPDEST DUP3 DUP3 SDIV DUP5 EQ DUP4 ISZERO OR PUSH2 0x929 JUMPI PUSH2 0x928 PUSH2 0x6BF JUMP JUMPDEST JUMPDEST POP SWAP3 SWAP2 POP POP JUMP INVALID LOG2 PUSH5 0x6970667358 0x22 SLT KECCAK256 0xAB 0xC2 0xA7 PUSH4 0xA2FD2551 0xC8 0xB9 DUP6 PUSH1 0x6F ADDRESS EQ SWAP15 CALLDATALOAD 0xD7 0x4E PUSH29 0x5683D4E373F9825742F862AD64736F6C63430008180033000000000000 "
				},
				"gasEstimates": {
					"creation": {
						"codeDepositCost": "481200",
						"executionCost": "22621",
						"totalCost": "503821"
					},
					"external": {
						"addresstoAmountfunded(address)": "2825",
						"calculatesum()": "infinite",
						"contributionCount()": "2484",
						"funder(uint256)": "4945",
						"fundme()": "infinite",
						"minimumUSD()": "2424",
						"withdraw()": "infinite"
					}
				},
				"methodIdentifiers": {
					"addresstoAmountfunded(address)": "221ace14",
					"calculatesum()": "288c3d17",
					"contributionCount()": "5b18056b",
					"funder(uint256)": "1f2c9238",
					"fundme()": "d1d9165d",
					"minimumUSD()": "3430a88c",
					"withdraw()": "3ccfd60b"
				}
			},
			"storageLayout": {
				"storage": [
					{
						"astId": 59,
						"contract": "contracts/fundme.sol:Fundme",
						"label": "minimumUSD",
						"offset": 0,
						"slot": "0",
						"type": "t_uint256"
					},
					{
						"astId": 62,
						"contract": "contracts/fundme.sol:Fundme",
						"label": "funder",
						"offset": 0,
						"slot": "1",
						"type": "t_array(t_address)dyn_storage"
					},
					{
						"astId": 66,
						"contract": "contracts/fundme.sol:Fundme",
						"label": "addresstoAmountfunded",
						"offset": 0,
						"slot": "2",
						"type": "t_mapping(t_address,t_uint256)"
					}
				],
				"types": {
					"t_address": {
						"encoding": "inplace",
						"label": "address",
						"numberOfBytes": "20"
					},
					"t_array(t_address)dyn_storage": {
						"base": "t_address",
						"encoding": "dynamic_array",
						"label": "address[]",
						"numberOfBytes": "32"
					},
					"t_mapping(t_address,t_uint256)": {
						"encoding": "mapping",
						"key": "t_address",
						"label": "mapping(address => uint256)",
						"numberOfBytes": "32",
						"value": "t_uint256"
					},
					"t_uint256": {
						"encoding": "inplace",
						"label": "uint256",
						"numberOfBytes": "32"
					}
				}
			},
			"userdoc": {
				"kind": "user",
				"methods": {},
				"version": 1
			}
		}
	}
}