{
	"contracts/fundme.sol": {
		"Fundme": {
			"abi": [
				{
					"inputs": [
						{
							"internalType": "uint256",
							"name": "usdAmount",
							"type": "uint256"
						},
						{
							"internalType": "uint256",
							"name": "ethPrice",
							"type": "uint256"
						}
					],
					"name": "convertUsdToEth",
					"outputs": [
						{
							"internalType": "uint256",
							"name": "",
							"type": "uint256"
						}
					],
					"stateMutability": "pure",
					"type": "function"
				},
				{
					"inputs": [],
					"name": "fundme",
					"outputs": [],
					"stateMutability": "payable",
					"type": "function"
				},
				{
					"inputs": [
						{
							"internalType": "uint256",
							"name": "ethAmount",
							"type": "uint256"
						}
					],
					"name": "getConversionrate",
					"outputs": [
						{
							"internalType": "uint256",
							"name": "",
							"type": "uint256"
						}
					],
					"stateMutability": "view",
					"type": "function"
				},
				{
					"inputs": [],
					"name": "getDecimals",
					"outputs": [
						{
							"internalType": "uint8",
							"name": "",
							"type": "uint8"
						}
					],
					"stateMutability": "view",
					"type": "function"
				},
				{
					"inputs": [],
					"name": "getLatestBTCPriceInETH",
					"outputs": [
						{
							"internalType": "uint256",
							"name": "",
							"type": "uint256"
						}
					],
					"stateMutability": "view",
					"type": "function"
				},
				{
					"inputs": [],
					"name": "getPrice",
					"outputs": [
						{
							"internalType": "uint256",
							"name": "",
							"type": "uint256"
						}
					],
					"stateMutability": "view",
					"type": "function"
				},
				{
					"inputs": [],
					"name": "getVersion",
					"outputs": [
						{
							"internalType": "uint256",
							"name": "",
							"type": "uint256"
						}
					],
					"stateMutability": "view",
					"type": "function"
				},
				{
					"inputs": [],
					"name": "minimumUSD",
					"outputs": [
						{
							"internalType": "uint256",
							"name": "",
							"type": "uint256"
						}
					],
					"stateMutability": "view",
					"type": "function"
				}
			],
			"devdoc": {
				"kind": "dev",
				"methods": {},
				"version": 1
			},
			"evm": {
				"assembly": "    /* \"contracts/fundme.sol\":895:2886  contract Fundme{... */\n  mstore(0x40, 0x80)\n    /* \"contracts/fundme.sol\":944:948  5e18 */\n  0x4563918244f40000\n    /* \"contracts/fundme.sol\":917:948  uint256 public minimumUSD =5e18 */\n  0x00\n  sstore\n    /* \"contracts/fundme.sol\":895:2886  contract Fundme{... */\n  callvalue\n  dup1\n  iszero\n  tag_1\n  jumpi\n  0x00\n  dup1\n  revert\ntag_1:\n  pop\n  dataSize(sub_0)\n  dup1\n  dataOffset(sub_0)\n  0x00\n  codecopy\n  0x00\n  return\nstop\n\nsub_0: assembly {\n        /* \"contracts/fundme.sol\":895:2886  contract Fundme{... */\n      mstore(0x40, 0x80)\n      jumpi(tag_1, lt(calldatasize, 0x04))\n      shr(0xe0, calldataload(0x00))\n      dup1\n      0xd1d9165d\n      gt\n      tag_10\n      jumpi\n      dup1\n      0xd1d9165d\n      eq\n      tag_6\n      jumpi\n      dup1\n      0xdd2b47db\n      eq\n      tag_7\n      jumpi\n      dup1\n      0xe351332c\n      eq\n      tag_8\n      jumpi\n      dup1\n      0xf0141d84\n      eq\n      tag_9\n      jumpi\n      jump(tag_1)\n    tag_10:\n      dup1\n      0x0d8e6e2c\n      eq\n      tag_2\n      jumpi\n      dup1\n      0x3430a88c\n      eq\n      tag_3\n      jumpi\n      dup1\n      0x8897f2e1\n      eq\n      tag_4\n      jumpi\n      dup1\n      0x98d5fdca\n      eq\n      tag_5\n      jumpi\n    tag_1:\n      0x00\n      dup1\n      revert\n        /* \"contracts/fundme.sol\":2071:2223  function getVersion() public view returns (uint256){... */\n    tag_2:\n      callvalue\n      dup1\n      iszero\n      tag_11\n      jumpi\n      0x00\n      dup1\n      revert\n    tag_11:\n      pop\n      tag_12\n      tag_13\n      jump\t// in\n    tag_12:\n      mload(0x40)\n      tag_14\n      swap2\n      swap1\n      tag_15\n      jump\t// in\n    tag_14:\n      mload(0x40)\n      dup1\n      swap2\n      sub\n      swap1\n      return\n        /* \"contracts/fundme.sol\":917:948  uint256 public minimumUSD =5e18 */\n    tag_3:\n      callvalue\n      dup1\n      iszero\n      tag_16\n      jumpi\n      0x00\n      dup1\n      revert\n    tag_16:\n      pop\n      tag_17\n      tag_18\n      jump\t// in\n    tag_17:\n      mload(0x40)\n      tag_19\n      swap2\n      swap1\n      tag_15\n      jump\t// in\n    tag_19:\n      mload(0x40)\n      dup1\n      swap2\n      sub\n      swap1\n      return\n        /* \"contracts/fundme.sol\":2698:2881  function convertUsdToEth(uint256 usdAmount, uint256 ethPrice) public pure returns(uint256){... */\n    tag_4:\n      callvalue\n      dup1\n      iszero\n      tag_20\n      jumpi\n      0x00\n      dup1\n      revert\n    tag_20:\n      pop\n      tag_21\n      0x04\n      dup1\n      calldatasize\n      sub\n      dup2\n      add\n      swap1\n      tag_22\n      swap2\n      swap1\n      tag_23\n      jump\t// in\n    tag_22:\n      tag_24\n      jump\t// in\n    tag_21:\n      mload(0x40)\n      tag_25\n      swap2\n      swap1\n      tag_15\n      jump\t// in\n    tag_25:\n      mload(0x40)\n      dup1\n      swap2\n      sub\n      swap1\n      return\n        /* \"contracts/fundme.sol\":1281:1697  function getPrice () public view returns(uint256){... */\n    tag_5:\n      callvalue\n      dup1\n      iszero\n      tag_26\n      jumpi\n      0x00\n      dup1\n      revert\n    tag_26:\n      pop\n      tag_27\n      tag_28\n      jump\t// in\n    tag_27:\n      mload(0x40)\n      tag_29\n      swap2\n      swap1\n      tag_15\n      jump\t// in\n    tag_29:\n      mload(0x40)\n      dup1\n      swap2\n      sub\n      swap1\n      return\n        /* \"contracts/fundme.sol\":957:1269  function fundme () public payable {... */\n    tag_6:\n      tag_30\n      tag_31\n      jump\t// in\n    tag_30:\n      stop\n        /* \"contracts/fundme.sol\":2391:2690  function getLatestBTCPriceInETH() public view returns(uint256){... */\n    tag_7:\n      callvalue\n      dup1\n      iszero\n      tag_32\n      jumpi\n      0x00\n      dup1\n      revert\n    tag_32:\n      pop\n      tag_33\n      tag_34\n      jump\t// in\n    tag_33:\n      mload(0x40)\n      tag_35\n      swap2\n      swap1\n      tag_15\n      jump\t// in\n    tag_35:\n      mload(0x40)\n      dup1\n      swap2\n      sub\n      swap1\n      return\n        /* \"contracts/fundme.sol\":1705:1983  function getConversionrate(uint256 ethAmount) public  view returns(uint256) {... */\n    tag_8:\n      callvalue\n      dup1\n      iszero\n      tag_36\n      jumpi\n      0x00\n      dup1\n      revert\n    tag_36:\n      pop\n      tag_37\n      0x04\n      dup1\n      calldatasize\n      sub\n      dup2\n      add\n      swap1\n      tag_38\n      swap2\n      swap1\n      tag_39\n      jump\t// in\n    tag_38:\n      tag_40\n      jump\t// in\n    tag_37:\n      mload(0x40)\n      tag_41\n      swap2\n      swap1\n      tag_15\n      jump\t// in\n    tag_41:\n      mload(0x40)\n      dup1\n      swap2\n      sub\n      swap1\n      return\n        /* \"contracts/fundme.sol\":2231:2383  function getDecimals() public view returns (uint8){... */\n    tag_9:\n      callvalue\n      dup1\n      iszero\n      tag_42\n      jumpi\n      0x00\n      dup1\n      revert\n    tag_42:\n      pop\n      tag_43\n      tag_44\n      jump\t// in\n    tag_43:\n      mload(0x40)\n      tag_45\n      swap2\n      swap1\n      tag_46\n      jump\t// in\n    tag_45:\n      mload(0x40)\n      dup1\n      swap2\n      sub\n      swap1\n      return\n        /* \"contracts/fundme.sol\":2071:2223  function getVersion() public view returns (uint256){... */\n    tag_13:\n        /* \"contracts/fundme.sol\":2114:2121  uint256 */\n      0x00\n        /* \"contracts/fundme.sol\":2162:2204  0x694AA1769357215DE4FAC081bf1f309aDC325306 */\n      0x694aa1769357215de4fac081bf1f309adc325306\n        /* \"contracts/fundme.sol\":2140:2213  AggregatorV3Interface(0x694AA1769357215DE4FAC081bf1f309aDC325306).version */\n      0xffffffffffffffffffffffffffffffffffffffff\n      and\n      0x54fd4d50\n        /* \"contracts/fundme.sol\":2140:2215  AggregatorV3Interface(0x694AA1769357215DE4FAC081bf1f309aDC325306).version() */\n      mload(0x40)\n      dup2\n      0xffffffff\n      and\n      0xe0\n      shl\n      dup2\n      mstore\n      0x04\n      add\n      0x20\n      mload(0x40)\n      dup1\n      dup4\n      sub\n      dup2\n      dup7\n      gas\n      staticcall\n      iszero\n      dup1\n      iszero\n      tag_49\n      jumpi\n      returndatasize\n      0x00\n      dup1\n      returndatacopy\n      revert(0x00, returndatasize)\n    tag_49:\n      pop\n      pop\n      pop\n      pop\n      mload(0x40)\n      returndatasize\n      not(0x1f)\n      0x1f\n      dup3\n      add\n      and\n      dup3\n      add\n      dup1\n      0x40\n      mstore\n      pop\n      dup2\n      add\n      swap1\n      tag_50\n      swap2\n      swap1\n      tag_51\n      jump\t// in\n    tag_50:\n        /* \"contracts/fundme.sol\":2133:2215  return AggregatorV3Interface(0x694AA1769357215DE4FAC081bf1f309aDC325306).version() */\n      swap1\n      pop\n        /* \"contracts/fundme.sol\":2071:2223  function getVersion() public view returns (uint256){... */\n      swap1\n      jump\t// out\n        /* \"contracts/fundme.sol\":917:948  uint256 public minimumUSD =5e18 */\n    tag_18:\n      sload(0x00)\n      dup2\n      jump\t// out\n        /* \"contracts/fundme.sol\":2698:2881  function convertUsdToEth(uint256 usdAmount, uint256 ethPrice) public pure returns(uint256){... */\n    tag_24:\n        /* \"contracts/fundme.sol\":2780:2787  uint256 */\n      0x00\n        /* \"contracts/fundme.sol\":2799:2816  uint256 Ethamount */\n      dup1\n        /* \"contracts/fundme.sol\":2836:2844  ethPrice */\n      dup3\n        /* \"contracts/fundme.sol\":2830:2834  1e18 */\n      0x0de0b6b3a7640000\n        /* \"contracts/fundme.sol\":2820:2829  usdAmount */\n      dup6\n        /* \"contracts/fundme.sol\":2820:2834  usdAmount*1e18 */\n      tag_53\n      swap2\n      swap1\n      tag_54\n      jump\t// in\n    tag_53:\n        /* \"contracts/fundme.sol\":2819:2844  (usdAmount*1e18)/ethPrice */\n      tag_55\n      swap2\n      swap1\n      tag_56\n      jump\t// in\n    tag_55:\n        /* \"contracts/fundme.sol\":2799:2844  uint256 Ethamount = (usdAmount*1e18)/ethPrice */\n      swap1\n      pop\n        /* \"contracts/fundme.sol\":2864:2873  Ethamount */\n      dup1\n        /* \"contracts/fundme.sol\":2857:2873  return Ethamount */\n      swap2\n      pop\n      pop\n        /* \"contracts/fundme.sol\":2698:2881  function convertUsdToEth(uint256 usdAmount, uint256 ethPrice) public pure returns(uint256){... */\n      swap3\n      swap2\n      pop\n      pop\n      jump\t// out\n        /* \"contracts/fundme.sol\":1281:1697  function getPrice () public view returns(uint256){... */\n    tag_28:\n        /* \"contracts/fundme.sol\":1322:1329  uint256 */\n      0x00\n        /* \"contracts/fundme.sol\":1473:1504  AggregatorV3Interface pricefeed */\n      dup1\n        /* \"contracts/fundme.sol\":1528:1570  0x694AA1769357215DE4FAC081bf1f309aDC325306 */\n      0x694aa1769357215de4fac081bf1f309adc325306\n        /* \"contracts/fundme.sol\":1473:1571  AggregatorV3Interface pricefeed= AggregatorV3Interface(0x694AA1769357215DE4FAC081bf1f309aDC325306) */\n      swap1\n      pop\n        /* \"contracts/fundme.sol\":1584:1597  int256 answer */\n      0x00\n        /* \"contracts/fundme.sol\":1604:1613  pricefeed */\n      dup2\n        /* \"contracts/fundme.sol\":1604:1629  pricefeed.latestRoundData */\n      0xffffffffffffffffffffffffffffffffffffffff\n      and\n      0xfeaf968c\n        /* \"contracts/fundme.sol\":1604:1631  pricefeed.latestRoundData() */\n      mload(0x40)\n      dup2\n      0xffffffff\n      and\n      0xe0\n      shl\n      dup2\n      mstore\n      0x04\n      add\n      0xa0\n      mload(0x40)\n      dup1\n      dup4\n      sub\n      dup2\n      dup7\n      gas\n      staticcall\n      iszero\n      dup1\n      iszero\n      tag_59\n      jumpi\n      returndatasize\n      0x00\n      dup1\n      returndatacopy\n      revert(0x00, returndatasize)\n    tag_59:\n      pop\n      pop\n      pop\n      pop\n      mload(0x40)\n      returndatasize\n      not(0x1f)\n      0x1f\n      dup3\n      add\n      and\n      dup3\n      add\n      dup1\n      0x40\n      mstore\n      pop\n      dup2\n      add\n      swap1\n      tag_60\n      swap2\n      swap1\n      tag_61\n      jump\t// in\n    tag_60:\n        /* \"contracts/fundme.sol\":1582:1631  (,int256 answer,,,) = pricefeed.latestRoundData() */\n      pop\n      pop\n      pop\n      swap2\n      pop\n      pop\n        /* \"contracts/fundme.sol\":1684:1688  1e10 */\n      0x02540be400\n        /* \"contracts/fundme.sol\":1677:1683  answer */\n      dup2\n        /* \"contracts/fundme.sol\":1677:1688  answer*1e10 */\n      tag_62\n      swap2\n      swap1\n      tag_63\n      jump\t// in\n    tag_62:\n        /* \"contracts/fundme.sol\":1662:1689  return uint256(answer*1e10) */\n      swap3\n      pop\n      pop\n      pop\n        /* \"contracts/fundme.sol\":1281:1697  function getPrice () public view returns(uint256){... */\n      swap1\n      jump\t// out\n        /* \"contracts/fundme.sol\":957:1269  function fundme () public payable {... */\n    tag_31:\n        /* \"contracts/fundme.sol\":1170:1180  minimumUSD */\n      sload(0x00)\n        /* \"contracts/fundme.sol\":1139:1167  getConversionrate(msg.value) */\n      tag_65\n        /* \"contracts/fundme.sol\":1157:1166  msg.value */\n      callvalue\n        /* \"contracts/fundme.sol\":1139:1156  getConversionrate */\n      tag_40\n        /* \"contracts/fundme.sol\":1139:1167  getConversionrate(msg.value) */\n      jump\t// in\n    tag_65:\n        /* \"contracts/fundme.sol\":1139:1180  getConversionrate(msg.value) > minimumUSD */\n      gt\n        /* \"contracts/fundme.sol\":1131:1209  require(getConversionrate(msg.value) > minimumUSD, \"doesn't satisfy my need \") */\n      tag_66\n      jumpi\n      mload(0x40)\n      0x08c379a000000000000000000000000000000000000000000000000000000000\n      dup2\n      mstore\n      0x04\n      add\n      tag_67\n      swap1\n      tag_68\n      jump\t// in\n    tag_67:\n      mload(0x40)\n      dup1\n      swap2\n      sub\n      swap1\n      revert\n    tag_66:\n        /* \"contracts/fundme.sol\":957:1269  function fundme () public payable {... */\n      jump\t// out\n        /* \"contracts/fundme.sol\":2391:2690  function getLatestBTCPriceInETH() public view returns(uint256){... */\n    tag_34:\n        /* \"contracts/fundme.sol\":2445:2452  uint256 */\n      0x00\n        /* \"contracts/fundme.sol\":2464:2495  AggregatorV3Interface pricefeed */\n      dup1\n        /* \"contracts/fundme.sol\":2519:2561  0x5fb1616F78dA7aFC9FF79e0371741a747D2a7F22 */\n      0x5fb1616f78da7afc9ff79e0371741a747d2a7f22\n        /* \"contracts/fundme.sol\":2464:2562  AggregatorV3Interface pricefeed= AggregatorV3Interface(0x5fb1616F78dA7aFC9FF79e0371741a747D2a7F22) */\n      swap1\n      pop\n        /* \"contracts/fundme.sol\":2575:2588  int256 answer */\n      0x00\n        /* \"contracts/fundme.sol\":2595:2604  pricefeed */\n      dup2\n        /* \"contracts/fundme.sol\":2595:2620  pricefeed.latestRoundData */\n      0xffffffffffffffffffffffffffffffffffffffff\n      and\n      0xfeaf968c\n        /* \"contracts/fundme.sol\":2595:2622  pricefeed.latestRoundData() */\n      mload(0x40)\n      dup2\n      0xffffffff\n      and\n      0xe0\n      shl\n      dup2\n      mstore\n      0x04\n      add\n      0xa0\n      mload(0x40)\n      dup1\n      dup4\n      sub\n      dup2\n      dup7\n      gas\n      staticcall\n      iszero\n      dup1\n      iszero\n      tag_71\n      jumpi\n      returndatasize\n      0x00\n      dup1\n      returndatacopy\n      revert(0x00, returndatasize)\n    tag_71:\n      pop\n      pop\n      pop\n      pop\n      mload(0x40)\n      returndatasize\n      not(0x1f)\n      0x1f\n      dup3\n      add\n      and\n      dup3\n      add\n      dup1\n      0x40\n      mstore\n      pop\n      dup2\n      add\n      swap1\n      tag_72\n      swap2\n      swap1\n      tag_61\n      jump\t// in\n    tag_72:\n        /* \"contracts/fundme.sol\":2573:2622  (,int256 answer,,,) = pricefeed.latestRoundData() */\n      pop\n      pop\n      pop\n      swap2\n      pop\n      pop\n        /* \"contracts/fundme.sol\":2675:2679  1e10 */\n      0x02540be400\n        /* \"contracts/fundme.sol\":2668:2674  answer */\n      dup2\n        /* \"contracts/fundme.sol\":2668:2679  answer*1e10 */\n      tag_73\n      swap2\n      swap1\n      tag_63\n      jump\t// in\n    tag_73:\n        /* \"contracts/fundme.sol\":2653:2680  return uint256(answer*1e10) */\n      swap3\n      pop\n      pop\n      pop\n        /* \"contracts/fundme.sol\":2391:2690  function getLatestBTCPriceInETH() public view returns(uint256){... */\n      swap1\n      jump\t// out\n        /* \"contracts/fundme.sol\":1705:1983  function getConversionrate(uint256 ethAmount) public  view returns(uint256) {... */\n    tag_40:\n        /* \"contracts/fundme.sol\":1772:1779  uint256 */\n      0x00\n        /* \"contracts/fundme.sol\":1851:1867  uint256 ethprice */\n      dup1\n        /* \"contracts/fundme.sol\":1870:1880  getPrice() */\n      tag_75\n        /* \"contracts/fundme.sol\":1870:1878  getPrice */\n      tag_28\n        /* \"contracts/fundme.sol\":1870:1880  getPrice() */\n      jump\t// in\n    tag_75:\n        /* \"contracts/fundme.sol\":1851:1880  uint256 ethprice = getPrice() */\n      swap1\n      pop\n        /* \"contracts/fundme.sol\":1891:1913  uint256 ethAmountInUSD */\n      0x00\n        /* \"contracts/fundme.sol\":1937:1941  1e18 */\n      0x0de0b6b3a7640000\n        /* \"contracts/fundme.sol\":1927:1935  ethprice */\n      dup3\n        /* \"contracts/fundme.sol\":1917:1926  ethAmount */\n      dup6\n        /* \"contracts/fundme.sol\":1917:1935  ethAmount*ethprice */\n      tag_76\n      swap2\n      swap1\n      tag_54\n      jump\t// in\n    tag_76:\n        /* \"contracts/fundme.sol\":1916:1941  (ethAmount*ethprice)/1e18 */\n      tag_77\n      swap2\n      swap1\n      tag_56\n      jump\t// in\n    tag_77:\n        /* \"contracts/fundme.sol\":1891:1941  uint256 ethAmountInUSD = (ethAmount*ethprice)/1e18 */\n      swap1\n      pop\n        /* \"contracts/fundme.sol\":1961:1975  ethAmountInUSD */\n      dup1\n        /* \"contracts/fundme.sol\":1954:1975  return ethAmountInUSD */\n      swap3\n      pop\n      pop\n      pop\n        /* \"contracts/fundme.sol\":1705:1983  function getConversionrate(uint256 ethAmount) public  view returns(uint256) {... */\n      swap2\n      swap1\n      pop\n      jump\t// out\n        /* \"contracts/fundme.sol\":2231:2383  function getDecimals() public view returns (uint8){... */\n    tag_44:\n        /* \"contracts/fundme.sol\":2275:2280  uint8 */\n      0x00\n        /* \"contracts/fundme.sol\":2321:2363  0x694AA1769357215DE4FAC081bf1f309aDC325306 */\n      0x694aa1769357215de4fac081bf1f309adc325306\n        /* \"contracts/fundme.sol\":2299:2373  AggregatorV3Interface(0x694AA1769357215DE4FAC081bf1f309aDC325306).decimals */\n      0xffffffffffffffffffffffffffffffffffffffff\n      and\n      0x313ce567\n        /* \"contracts/fundme.sol\":2299:2375  AggregatorV3Interface(0x694AA1769357215DE4FAC081bf1f309aDC325306).decimals() */\n      mload(0x40)\n      dup2\n      0xffffffff\n      and\n      0xe0\n      shl\n      dup2\n      mstore\n      0x04\n      add\n      0x20\n      mload(0x40)\n      dup1\n      dup4\n      sub\n      dup2\n      dup7\n      gas\n      staticcall\n      iszero\n      dup1\n      iszero\n      tag_80\n      jumpi\n      returndatasize\n      0x00\n      dup1\n      returndatacopy\n      revert(0x00, returndatasize)\n    tag_80:\n      pop\n      pop\n      pop\n      pop\n      mload(0x40)\n      returndatasize\n      not(0x1f)\n      0x1f\n      dup3\n      add\n      and\n      dup3\n      add\n      dup1\n      0x40\n      mstore\n      pop\n      dup2\n      add\n      swap1\n      tag_81\n      swap2\n      swap1\n      tag_82\n      jump\t// in\n    tag_81:\n        /* \"contracts/fundme.sol\":2292:2375  return AggregatorV3Interface(0x694AA1769357215DE4FAC081bf1f309aDC325306).decimals() */\n      swap1\n      pop\n        /* \"contracts/fundme.sol\":2231:2383  function getDecimals() public view returns (uint8){... */\n      swap1\n      jump\t// out\n        /* \"#utility.yul\":7:84   */\n    tag_83:\n        /* \"#utility.yul\":44:51   */\n      0x00\n        /* \"#utility.yul\":73:78   */\n      dup2\n        /* \"#utility.yul\":62:78   */\n      swap1\n      pop\n        /* \"#utility.yul\":7:84   */\n      swap2\n      swap1\n      pop\n      jump\t// out\n        /* \"#utility.yul\":90:208   */\n    tag_84:\n        /* \"#utility.yul\":177:201   */\n      tag_109\n        /* \"#utility.yul\":195:200   */\n      dup2\n        /* \"#utility.yul\":177:201   */\n      tag_83\n      jump\t// in\n    tag_109:\n        /* \"#utility.yul\":172:175   */\n      dup3\n        /* \"#utility.yul\":165:202   */\n      mstore\n        /* \"#utility.yul\":90:208   */\n      pop\n      pop\n      jump\t// out\n        /* \"#utility.yul\":214:436   */\n    tag_15:\n        /* \"#utility.yul\":307:311   */\n      0x00\n        /* \"#utility.yul\":345:347   */\n      0x20\n        /* \"#utility.yul\":334:343   */\n      dup3\n        /* \"#utility.yul\":330:348   */\n      add\n        /* \"#utility.yul\":322:348   */\n      swap1\n      pop\n        /* \"#utility.yul\":358:429   */\n      tag_111\n        /* \"#utility.yul\":426:427   */\n      0x00\n        /* \"#utility.yul\":415:424   */\n      dup4\n        /* \"#utility.yul\":411:428   */\n      add\n        /* \"#utility.yul\":402:408   */\n      dup5\n        /* \"#utility.yul\":358:429   */\n      tag_84\n      jump\t// in\n    tag_111:\n        /* \"#utility.yul\":214:436   */\n      swap3\n      swap2\n      pop\n      pop\n      jump\t// out\n        /* \"#utility.yul\":523:640   */\n    tag_86:\n        /* \"#utility.yul\":632:633   */\n      0x00\n        /* \"#utility.yul\":629:630   */\n      dup1\n        /* \"#utility.yul\":622:634   */\n      revert\n        /* \"#utility.yul\":769:891   */\n    tag_88:\n        /* \"#utility.yul\":842:866   */\n      tag_116\n        /* \"#utility.yul\":860:865   */\n      dup2\n        /* \"#utility.yul\":842:866   */\n      tag_83\n      jump\t// in\n    tag_116:\n        /* \"#utility.yul\":835:840   */\n      dup2\n        /* \"#utility.yul\":832:867   */\n      eq\n        /* \"#utility.yul\":822:885   */\n      tag_117\n      jumpi\n        /* \"#utility.yul\":881:882   */\n      0x00\n        /* \"#utility.yul\":878:879   */\n      dup1\n        /* \"#utility.yul\":871:883   */\n      revert\n        /* \"#utility.yul\":822:885   */\n    tag_117:\n        /* \"#utility.yul\":769:891   */\n      pop\n      jump\t// out\n        /* \"#utility.yul\":897:1036   */\n    tag_89:\n        /* \"#utility.yul\":943:948   */\n      0x00\n        /* \"#utility.yul\":981:987   */\n      dup2\n        /* \"#utility.yul\":968:988   */\n      calldataload\n        /* \"#utility.yul\":959:988   */\n      swap1\n      pop\n        /* \"#utility.yul\":997:1030   */\n      tag_119\n        /* \"#utility.yul\":1024:1029   */\n      dup2\n        /* \"#utility.yul\":997:1030   */\n      tag_88\n      jump\t// in\n    tag_119:\n        /* \"#utility.yul\":897:1036   */\n      swap3\n      swap2\n      pop\n      pop\n      jump\t// out\n        /* \"#utility.yul\":1042:1516   */\n    tag_23:\n        /* \"#utility.yul\":1110:1116   */\n      0x00\n        /* \"#utility.yul\":1118:1124   */\n      dup1\n        /* \"#utility.yul\":1167:1169   */\n      0x40\n        /* \"#utility.yul\":1155:1164   */\n      dup4\n        /* \"#utility.yul\":1146:1153   */\n      dup6\n        /* \"#utility.yul\":1142:1165   */\n      sub\n        /* \"#utility.yul\":1138:1170   */\n      slt\n        /* \"#utility.yul\":1135:1254   */\n      iszero\n      tag_121\n      jumpi\n        /* \"#utility.yul\":1173:1252   */\n      tag_122\n      tag_86\n      jump\t// in\n    tag_122:\n        /* \"#utility.yul\":1135:1254   */\n    tag_121:\n        /* \"#utility.yul\":1293:1294   */\n      0x00\n        /* \"#utility.yul\":1318:1371   */\n      tag_123\n        /* \"#utility.yul\":1363:1370   */\n      dup6\n        /* \"#utility.yul\":1354:1360   */\n      dup3\n        /* \"#utility.yul\":1343:1352   */\n      dup7\n        /* \"#utility.yul\":1339:1361   */\n      add\n        /* \"#utility.yul\":1318:1371   */\n      tag_89\n      jump\t// in\n    tag_123:\n        /* \"#utility.yul\":1308:1371   */\n      swap3\n      pop\n        /* \"#utility.yul\":1264:1381   */\n      pop\n        /* \"#utility.yul\":1420:1422   */\n      0x20\n        /* \"#utility.yul\":1446:1499   */\n      tag_124\n        /* \"#utility.yul\":1491:1498   */\n      dup6\n        /* \"#utility.yul\":1482:1488   */\n      dup3\n        /* \"#utility.yul\":1471:1480   */\n      dup7\n        /* \"#utility.yul\":1467:1489   */\n      add\n        /* \"#utility.yul\":1446:1499   */\n      tag_89\n      jump\t// in\n    tag_124:\n        /* \"#utility.yul\":1436:1499   */\n      swap2\n      pop\n        /* \"#utility.yul\":1391:1509   */\n      pop\n        /* \"#utility.yul\":1042:1516   */\n      swap3\n      pop\n      swap3\n      swap1\n      pop\n      jump\t// out\n        /* \"#utility.yul\":1522:1851   */\n    tag_39:\n        /* \"#utility.yul\":1581:1587   */\n      0x00\n        /* \"#utility.yul\":1630:1632   */\n      0x20\n        /* \"#utility.yul\":1618:1627   */\n      dup3\n        /* \"#utility.yul\":1609:1616   */\n      dup5\n        /* \"#utility.yul\":1605:1628   */\n      sub\n        /* \"#utility.yul\":1601:1633   */\n      slt\n        /* \"#utility.yul\":1598:1717   */\n      iszero\n      tag_126\n      jumpi\n        /* \"#utility.yul\":1636:1715   */\n      tag_127\n      tag_86\n      jump\t// in\n    tag_127:\n        /* \"#utility.yul\":1598:1717   */\n    tag_126:\n        /* \"#utility.yul\":1756:1757   */\n      0x00\n        /* \"#utility.yul\":1781:1834   */\n      tag_128\n        /* \"#utility.yul\":1826:1833   */\n      dup5\n        /* \"#utility.yul\":1817:1823   */\n      dup3\n        /* \"#utility.yul\":1806:1815   */\n      dup6\n        /* \"#utility.yul\":1802:1824   */\n      add\n        /* \"#utility.yul\":1781:1834   */\n      tag_89\n      jump\t// in\n    tag_128:\n        /* \"#utility.yul\":1771:1834   */\n      swap2\n      pop\n        /* \"#utility.yul\":1727:1844   */\n      pop\n        /* \"#utility.yul\":1522:1851   */\n      swap3\n      swap2\n      pop\n      pop\n      jump\t// out\n        /* \"#utility.yul\":1857:1943   */\n    tag_90:\n        /* \"#utility.yul\":1892:1899   */\n      0x00\n        /* \"#utility.yul\":1932:1936   */\n      0xff\n        /* \"#utility.yul\":1925:1930   */\n      dup3\n        /* \"#utility.yul\":1921:1937   */\n      and\n        /* \"#utility.yul\":1910:1937   */\n      swap1\n      pop\n        /* \"#utility.yul\":1857:1943   */\n      swap2\n      swap1\n      pop\n      jump\t// out\n        /* \"#utility.yul\":1949:2061   */\n    tag_91:\n        /* \"#utility.yul\":2032:2054   */\n      tag_131\n        /* \"#utility.yul\":2048:2053   */\n      dup2\n        /* \"#utility.yul\":2032:2054   */\n      tag_90\n      jump\t// in\n    tag_131:\n        /* \"#utility.yul\":2027:2030   */\n      dup3\n        /* \"#utility.yul\":2020:2055   */\n      mstore\n        /* \"#utility.yul\":1949:2061   */\n      pop\n      pop\n      jump\t// out\n        /* \"#utility.yul\":2067:2281   */\n    tag_46:\n        /* \"#utility.yul\":2156:2160   */\n      0x00\n        /* \"#utility.yul\":2194:2196   */\n      0x20\n        /* \"#utility.yul\":2183:2192   */\n      dup3\n        /* \"#utility.yul\":2179:2197   */\n      add\n        /* \"#utility.yul\":2171:2197   */\n      swap1\n      pop\n        /* \"#utility.yul\":2207:2274   */\n      tag_133\n        /* \"#utility.yul\":2271:2272   */\n      0x00\n        /* \"#utility.yul\":2260:2269   */\n      dup4\n        /* \"#utility.yul\":2256:2273   */\n      add\n        /* \"#utility.yul\":2247:2253   */\n      dup5\n        /* \"#utility.yul\":2207:2274   */\n      tag_91\n      jump\t// in\n    tag_133:\n        /* \"#utility.yul\":2067:2281   */\n      swap3\n      swap2\n      pop\n      pop\n      jump\t// out\n        /* \"#utility.yul\":2287:2430   */\n    tag_92:\n        /* \"#utility.yul\":2344:2349   */\n      0x00\n        /* \"#utility.yul\":2375:2381   */\n      dup2\n        /* \"#utility.yul\":2369:2382   */\n      mload\n        /* \"#utility.yul\":2360:2382   */\n      swap1\n      pop\n        /* \"#utility.yul\":2391:2424   */\n      tag_135\n        /* \"#utility.yul\":2418:2423   */\n      dup2\n        /* \"#utility.yul\":2391:2424   */\n      tag_88\n      jump\t// in\n    tag_135:\n        /* \"#utility.yul\":2287:2430   */\n      swap3\n      swap2\n      pop\n      pop\n      jump\t// out\n        /* \"#utility.yul\":2436:2787   */\n    tag_51:\n        /* \"#utility.yul\":2506:2512   */\n      0x00\n        /* \"#utility.yul\":2555:2557   */\n      0x20\n        /* \"#utility.yul\":2543:2552   */\n      dup3\n        /* \"#utility.yul\":2534:2541   */\n      dup5\n        /* \"#utility.yul\":2530:2553   */\n      sub\n        /* \"#utility.yul\":2526:2558   */\n      slt\n        /* \"#utility.yul\":2523:2642   */\n      iszero\n      tag_137\n      jumpi\n        /* \"#utility.yul\":2561:2640   */\n      tag_138\n      tag_86\n      jump\t// in\n    tag_138:\n        /* \"#utility.yul\":2523:2642   */\n    tag_137:\n        /* \"#utility.yul\":2681:2682   */\n      0x00\n        /* \"#utility.yul\":2706:2770   */\n      tag_139\n        /* \"#utility.yul\":2762:2769   */\n      dup5\n        /* \"#utility.yul\":2753:2759   */\n      dup3\n        /* \"#utility.yul\":2742:2751   */\n      dup6\n        /* \"#utility.yul\":2738:2760   */\n      add\n        /* \"#utility.yul\":2706:2770   */\n      tag_92\n      jump\t// in\n    tag_139:\n        /* \"#utility.yul\":2696:2770   */\n      swap2\n      pop\n        /* \"#utility.yul\":2652:2780   */\n      pop\n        /* \"#utility.yul\":2436:2787   */\n      swap3\n      swap2\n      pop\n      pop\n      jump\t// out\n        /* \"#utility.yul\":2793:2973   */\n    tag_93:\n        /* \"#utility.yul\":2841:2918   */\n      0x4e487b7100000000000000000000000000000000000000000000000000000000\n        /* \"#utility.yul\":2838:2839   */\n      0x00\n        /* \"#utility.yul\":2831:2919   */\n      mstore\n        /* \"#utility.yul\":2938:2942   */\n      0x11\n        /* \"#utility.yul\":2935:2936   */\n      0x04\n        /* \"#utility.yul\":2928:2943   */\n      mstore\n        /* \"#utility.yul\":2962:2966   */\n      0x24\n        /* \"#utility.yul\":2959:2960   */\n      0x00\n        /* \"#utility.yul\":2952:2967   */\n      revert\n        /* \"#utility.yul\":2979:3389   */\n    tag_54:\n        /* \"#utility.yul\":3019:3026   */\n      0x00\n        /* \"#utility.yul\":3042:3062   */\n      tag_142\n        /* \"#utility.yul\":3060:3061   */\n      dup3\n        /* \"#utility.yul\":3042:3062   */\n      tag_83\n      jump\t// in\n    tag_142:\n        /* \"#utility.yul\":3037:3062   */\n      swap2\n      pop\n        /* \"#utility.yul\":3076:3096   */\n      tag_143\n        /* \"#utility.yul\":3094:3095   */\n      dup4\n        /* \"#utility.yul\":3076:3096   */\n      tag_83\n      jump\t// in\n    tag_143:\n        /* \"#utility.yul\":3071:3096   */\n      swap3\n      pop\n        /* \"#utility.yul\":3131:3132   */\n      dup3\n        /* \"#utility.yul\":3128:3129   */\n      dup3\n        /* \"#utility.yul\":3124:3133   */\n      mul\n        /* \"#utility.yul\":3153:3183   */\n      tag_144\n        /* \"#utility.yul\":3171:3182   */\n      dup2\n        /* \"#utility.yul\":3153:3183   */\n      tag_83\n      jump\t// in\n    tag_144:\n        /* \"#utility.yul\":3142:3183   */\n      swap2\n      pop\n        /* \"#utility.yul\":3332:3333   */\n      dup3\n        /* \"#utility.yul\":3323:3330   */\n      dup3\n        /* \"#utility.yul\":3319:3334   */\n      div\n        /* \"#utility.yul\":3316:3317   */\n      dup5\n        /* \"#utility.yul\":3313:3335   */\n      eq\n        /* \"#utility.yul\":3293:3294   */\n      dup4\n        /* \"#utility.yul\":3286:3295   */\n      iszero\n        /* \"#utility.yul\":3266:3349   */\n      or\n        /* \"#utility.yul\":3243:3382   */\n      tag_145\n      jumpi\n        /* \"#utility.yul\":3362:3380   */\n      tag_146\n      tag_93\n      jump\t// in\n    tag_146:\n        /* \"#utility.yul\":3243:3382   */\n    tag_145:\n        /* \"#utility.yul\":3027:3389   */\n      pop\n        /* \"#utility.yul\":2979:3389   */\n      swap3\n      swap2\n      pop\n      pop\n      jump\t// out\n        /* \"#utility.yul\":3395:3575   */\n    tag_94:\n        /* \"#utility.yul\":3443:3520   */\n      0x4e487b7100000000000000000000000000000000000000000000000000000000\n        /* \"#utility.yul\":3440:3441   */\n      0x00\n        /* \"#utility.yul\":3433:3521   */\n      mstore\n        /* \"#utility.yul\":3540:3544   */\n      0x12\n        /* \"#utility.yul\":3537:3538   */\n      0x04\n        /* \"#utility.yul\":3530:3545   */\n      mstore\n        /* \"#utility.yul\":3564:3568   */\n      0x24\n        /* \"#utility.yul\":3561:3562   */\n      0x00\n        /* \"#utility.yul\":3554:3569   */\n      revert\n        /* \"#utility.yul\":3581:3766   */\n    tag_56:\n        /* \"#utility.yul\":3621:3622   */\n      0x00\n        /* \"#utility.yul\":3638:3658   */\n      tag_149\n        /* \"#utility.yul\":3656:3657   */\n      dup3\n        /* \"#utility.yul\":3638:3658   */\n      tag_83\n      jump\t// in\n    tag_149:\n        /* \"#utility.yul\":3633:3658   */\n      swap2\n      pop\n        /* \"#utility.yul\":3672:3692   */\n      tag_150\n        /* \"#utility.yul\":3690:3691   */\n      dup4\n        /* \"#utility.yul\":3672:3692   */\n      tag_83\n      jump\t// in\n    tag_150:\n        /* \"#utility.yul\":3667:3692   */\n      swap3\n      pop\n        /* \"#utility.yul\":3711:3712   */\n      dup3\n        /* \"#utility.yul\":3701:3736   */\n      tag_151\n      jumpi\n        /* \"#utility.yul\":3716:3734   */\n      tag_152\n      tag_94\n      jump\t// in\n    tag_152:\n        /* \"#utility.yul\":3701:3736   */\n    tag_151:\n        /* \"#utility.yul\":3758:3759   */\n      dup3\n        /* \"#utility.yul\":3755:3756   */\n      dup3\n        /* \"#utility.yul\":3751:3760   */\n      div\n        /* \"#utility.yul\":3746:3760   */\n      swap1\n      pop\n        /* \"#utility.yul\":3581:3766   */\n      swap3\n      swap2\n      pop\n      pop\n      jump\t// out\n        /* \"#utility.yul\":3772:3877   */\n    tag_95:\n        /* \"#utility.yul\":3808:3815   */\n      0x00\n        /* \"#utility.yul\":3848:3870   */\n      0xffffffffffffffffffff\n        /* \"#utility.yul\":3841:3846   */\n      dup3\n        /* \"#utility.yul\":3837:3871   */\n      and\n        /* \"#utility.yul\":3826:3871   */\n      swap1\n      pop\n        /* \"#utility.yul\":3772:3877   */\n      swap2\n      swap1\n      pop\n      jump\t// out\n        /* \"#utility.yul\":3883:4003   */\n    tag_96:\n        /* \"#utility.yul\":3955:3978   */\n      tag_155\n        /* \"#utility.yul\":3972:3977   */\n      dup2\n        /* \"#utility.yul\":3955:3978   */\n      tag_95\n      jump\t// in\n    tag_155:\n        /* \"#utility.yul\":3948:3953   */\n      dup2\n        /* \"#utility.yul\":3945:3979   */\n      eq\n        /* \"#utility.yul\":3935:3997   */\n      tag_156\n      jumpi\n        /* \"#utility.yul\":3993:3994   */\n      0x00\n        /* \"#utility.yul\":3990:3991   */\n      dup1\n        /* \"#utility.yul\":3983:3995   */\n      revert\n        /* \"#utility.yul\":3935:3997   */\n    tag_156:\n        /* \"#utility.yul\":3883:4003   */\n      pop\n      jump\t// out\n        /* \"#utility.yul\":4009:4150   */\n    tag_97:\n        /* \"#utility.yul\":4065:4070   */\n      0x00\n        /* \"#utility.yul\":4096:4102   */\n      dup2\n        /* \"#utility.yul\":4090:4103   */\n      mload\n        /* \"#utility.yul\":4081:4103   */\n      swap1\n      pop\n        /* \"#utility.yul\":4112:4144   */\n      tag_158\n        /* \"#utility.yul\":4138:4143   */\n      dup2\n        /* \"#utility.yul\":4112:4144   */\n      tag_96\n      jump\t// in\n    tag_158:\n        /* \"#utility.yul\":4009:4150   */\n      swap3\n      swap2\n      pop\n      pop\n      jump\t// out\n        /* \"#utility.yul\":4156:4232   */\n    tag_98:\n        /* \"#utility.yul\":4192:4199   */\n      0x00\n        /* \"#utility.yul\":4221:4226   */\n      dup2\n        /* \"#utility.yul\":4210:4226   */\n      swap1\n      pop\n        /* \"#utility.yul\":4156:4232   */\n      swap2\n      swap1\n      pop\n      jump\t// out\n        /* \"#utility.yul\":4238:4358   */\n    tag_99:\n        /* \"#utility.yul\":4310:4333   */\n      tag_161\n        /* \"#utility.yul\":4327:4332   */\n      dup2\n        /* \"#utility.yul\":4310:4333   */\n      tag_98\n      jump\t// in\n    tag_161:\n        /* \"#utility.yul\":4303:4308   */\n      dup2\n        /* \"#utility.yul\":4300:4334   */\n      eq\n        /* \"#utility.yul\":4290:4352   */\n      tag_162\n      jumpi\n        /* \"#utility.yul\":4348:4349   */\n      0x00\n        /* \"#utility.yul\":4345:4346   */\n      dup1\n        /* \"#utility.yul\":4338:4350   */\n      revert\n        /* \"#utility.yul\":4290:4352   */\n    tag_162:\n        /* \"#utility.yul\":4238:4358   */\n      pop\n      jump\t// out\n        /* \"#utility.yul\":4364:4505   */\n    tag_100:\n        /* \"#utility.yul\":4420:4425   */\n      0x00\n        /* \"#utility.yul\":4451:4457   */\n      dup2\n        /* \"#utility.yul\":4445:4458   */\n      mload\n        /* \"#utility.yul\":4436:4458   */\n      swap1\n      pop\n        /* \"#utility.yul\":4467:4499   */\n      tag_164\n        /* \"#utility.yul\":4493:4498   */\n      dup2\n        /* \"#utility.yul\":4467:4499   */\n      tag_99\n      jump\t// in\n    tag_164:\n        /* \"#utility.yul\":4364:4505   */\n      swap3\n      swap2\n      pop\n      pop\n      jump\t// out\n        /* \"#utility.yul\":4511:5482   */\n    tag_61:\n        /* \"#utility.yul\":4614:4620   */\n      0x00\n        /* \"#utility.yul\":4622:4628   */\n      dup1\n        /* \"#utility.yul\":4630:4636   */\n      0x00\n        /* \"#utility.yul\":4638:4644   */\n      dup1\n        /* \"#utility.yul\":4646:4652   */\n      0x00\n        /* \"#utility.yul\":4695:4698   */\n      0xa0\n        /* \"#utility.yul\":4683:4692   */\n      dup7\n        /* \"#utility.yul\":4674:4681   */\n      dup9\n        /* \"#utility.yul\":4670:4693   */\n      sub\n        /* \"#utility.yul\":4666:4699   */\n      slt\n        /* \"#utility.yul\":4663:4783   */\n      iszero\n      tag_166\n      jumpi\n        /* \"#utility.yul\":4702:4781   */\n      tag_167\n      tag_86\n      jump\t// in\n    tag_167:\n        /* \"#utility.yul\":4663:4783   */\n    tag_166:\n        /* \"#utility.yul\":4822:4823   */\n      0x00\n        /* \"#utility.yul\":4847:4910   */\n      tag_168\n        /* \"#utility.yul\":4902:4909   */\n      dup9\n        /* \"#utility.yul\":4893:4899   */\n      dup3\n        /* \"#utility.yul\":4882:4891   */\n      dup10\n        /* \"#utility.yul\":4878:4900   */\n      add\n        /* \"#utility.yul\":4847:4910   */\n      tag_97\n      jump\t// in\n    tag_168:\n        /* \"#utility.yul\":4837:4910   */\n      swap6\n      pop\n        /* \"#utility.yul\":4793:4920   */\n      pop\n        /* \"#utility.yul\":4959:4961   */\n      0x20\n        /* \"#utility.yul\":4985:5048   */\n      tag_169\n        /* \"#utility.yul\":5040:5047   */\n      dup9\n        /* \"#utility.yul\":5031:5037   */\n      dup3\n        /* \"#utility.yul\":5020:5029   */\n      dup10\n        /* \"#utility.yul\":5016:5038   */\n      add\n        /* \"#utility.yul\":4985:5048   */\n      tag_100\n      jump\t// in\n    tag_169:\n        /* \"#utility.yul\":4975:5048   */\n      swap5\n      pop\n        /* \"#utility.yul\":4930:5058   */\n      pop\n        /* \"#utility.yul\":5097:5099   */\n      0x40\n        /* \"#utility.yul\":5123:5187   */\n      tag_170\n        /* \"#utility.yul\":5179:5186   */\n      dup9\n        /* \"#utility.yul\":5170:5176   */\n      dup3\n        /* \"#utility.yul\":5159:5168   */\n      dup10\n        /* \"#utility.yul\":5155:5177   */\n      add\n        /* \"#utility.yul\":5123:5187   */\n      tag_92\n      jump\t// in\n    tag_170:\n        /* \"#utility.yul\":5113:5187   */\n      swap4\n      pop\n        /* \"#utility.yul\":5068:5197   */\n      pop\n        /* \"#utility.yul\":5236:5238   */\n      0x60\n        /* \"#utility.yul\":5262:5326   */\n      tag_171\n        /* \"#utility.yul\":5318:5325   */\n      dup9\n        /* \"#utility.yul\":5309:5315   */\n      dup3\n        /* \"#utility.yul\":5298:5307   */\n      dup10\n        /* \"#utility.yul\":5294:5316   */\n      add\n        /* \"#utility.yul\":5262:5326   */\n      tag_92\n      jump\t// in\n    tag_171:\n        /* \"#utility.yul\":5252:5326   */\n      swap3\n      pop\n        /* \"#utility.yul\":5207:5336   */\n      pop\n        /* \"#utility.yul\":5375:5378   */\n      0x80\n        /* \"#utility.yul\":5402:5465   */\n      tag_172\n        /* \"#utility.yul\":5457:5464   */\n      dup9\n        /* \"#utility.yul\":5448:5454   */\n      dup3\n        /* \"#utility.yul\":5437:5446   */\n      dup10\n        /* \"#utility.yul\":5433:5455   */\n      add\n        /* \"#utility.yul\":5402:5465   */\n      tag_97\n      jump\t// in\n    tag_172:\n        /* \"#utility.yul\":5392:5465   */\n      swap2\n      pop\n        /* \"#utility.yul\":5346:5475   */\n      pop\n        /* \"#utility.yul\":4511:5482   */\n      swap3\n      swap6\n      pop\n      swap3\n      swap6\n      swap1\n      swap4\n      pop\n      jump\t// out\n        /* \"#utility.yul\":5488:6044   */\n    tag_63:\n        /* \"#utility.yul\":5527:5534   */\n      0x00\n        /* \"#utility.yul\":5550:5569   */\n      tag_174\n        /* \"#utility.yul\":5567:5568   */\n      dup3\n        /* \"#utility.yul\":5550:5569   */\n      tag_98\n      jump\t// in\n    tag_174:\n        /* \"#utility.yul\":5545:5569   */\n      swap2\n      pop\n        /* \"#utility.yul\":5583:5602   */\n      tag_175\n        /* \"#utility.yul\":5600:5601   */\n      dup4\n        /* \"#utility.yul\":5583:5602   */\n      tag_98\n      jump\t// in\n    tag_175:\n        /* \"#utility.yul\":5578:5602   */\n      swap3\n      pop\n        /* \"#utility.yul\":5637:5638   */\n      dup3\n        /* \"#utility.yul\":5634:5635   */\n      dup3\n        /* \"#utility.yul\":5630:5639   */\n      mul\n        /* \"#utility.yul\":5659:5688   */\n      tag_176\n        /* \"#utility.yul\":5676:5687   */\n      dup2\n        /* \"#utility.yul\":5659:5688   */\n      tag_98\n      jump\t// in\n    tag_176:\n        /* \"#utility.yul\":5648:5688   */\n      swap2\n      pop\n        /* \"#utility.yul\":5746:5812   */\n      0x8000000000000000000000000000000000000000000000000000000000000000\n        /* \"#utility.yul\":5743:5744   */\n      dup5\n        /* \"#utility.yul\":5740:5813   */\n      eq\n        /* \"#utility.yul\":5736:5737   */\n      0x00\n        /* \"#utility.yul\":5733:5734   */\n      dup5\n        /* \"#utility.yul\":5729:5738   */\n      slt\n        /* \"#utility.yul\":5725:5814   */\n      and\n        /* \"#utility.yul\":5722:5837   */\n      iszero\n      tag_177\n      jumpi\n        /* \"#utility.yul\":5817:5835   */\n      tag_178\n      tag_93\n      jump\t// in\n    tag_178:\n        /* \"#utility.yul\":5722:5837   */\n    tag_177:\n        /* \"#utility.yul\":5987:5988   */\n      dup3\n        /* \"#utility.yul\":5978:5985   */\n      dup3\n        /* \"#utility.yul\":5973:5989   */\n      sdiv\n        /* \"#utility.yul\":5970:5971   */\n      dup5\n        /* \"#utility.yul\":5967:5990   */\n      eq\n        /* \"#utility.yul\":5947:5948   */\n      dup4\n        /* \"#utility.yul\":5940:5949   */\n      iszero\n        /* \"#utility.yul\":5920:6004   */\n      or\n        /* \"#utility.yul\":5897:6037   */\n      tag_179\n      jumpi\n        /* \"#utility.yul\":6017:6035   */\n      tag_180\n      tag_93\n      jump\t// in\n    tag_180:\n        /* \"#utility.yul\":5897:6037   */\n    tag_179:\n        /* \"#utility.yul\":5535:6044   */\n      pop\n        /* \"#utility.yul\":5488:6044   */\n      swap3\n      swap2\n      pop\n      pop\n      jump\t// out\n        /* \"#utility.yul\":6050:6219   */\n    tag_101:\n        /* \"#utility.yul\":6134:6145   */\n      0x00\n        /* \"#utility.yul\":6168:6174   */\n      dup3\n        /* \"#utility.yul\":6163:6166   */\n      dup3\n        /* \"#utility.yul\":6156:6175   */\n      mstore\n        /* \"#utility.yul\":6208:6212   */\n      0x20\n        /* \"#utility.yul\":6203:6206   */\n      dup3\n        /* \"#utility.yul\":6199:6213   */\n      add\n        /* \"#utility.yul\":6184:6213   */\n      swap1\n      pop\n        /* \"#utility.yul\":6050:6219   */\n      swap3\n      swap2\n      pop\n      pop\n      jump\t// out\n        /* \"#utility.yul\":6225:6399   */\n    tag_102:\n        /* \"#utility.yul\":6365:6391   */\n      0x646f65736e27742073617469736679206d79206e656564200000000000000000\n        /* \"#utility.yul\":6361:6362   */\n      0x00\n        /* \"#utility.yul\":6353:6359   */\n      dup3\n        /* \"#utility.yul\":6349:6363   */\n      add\n        /* \"#utility.yul\":6342:6392   */\n      mstore\n        /* \"#utility.yul\":6225:6399   */\n      pop\n      jump\t// out\n        /* \"#utility.yul\":6405:6771   */\n    tag_103:\n        /* \"#utility.yul\":6547:6550   */\n      0x00\n        /* \"#utility.yul\":6568:6635   */\n      tag_184\n        /* \"#utility.yul\":6632:6634   */\n      0x18\n        /* \"#utility.yul\":6627:6630   */\n      dup4\n        /* \"#utility.yul\":6568:6635   */\n      tag_101\n      jump\t// in\n    tag_184:\n        /* \"#utility.yul\":6561:6635   */\n      swap2\n      pop\n        /* \"#utility.yul\":6644:6737   */\n      tag_185\n        /* \"#utility.yul\":6733:6736   */\n      dup3\n        /* \"#utility.yul\":6644:6737   */\n      tag_102\n      jump\t// in\n    tag_185:\n        /* \"#utility.yul\":6762:6764   */\n      0x20\n        /* \"#utility.yul\":6757:6760   */\n      dup3\n        /* \"#utility.yul\":6753:6765   */\n      add\n        /* \"#utility.yul\":6746:6765   */\n      swap1\n      pop\n        /* \"#utility.yul\":6405:6771   */\n      swap2\n      swap1\n      pop\n      jump\t// out\n        /* \"#utility.yul\":6777:7196   */\n    tag_68:\n        /* \"#utility.yul\":6943:6947   */\n      0x00\n        /* \"#utility.yul\":6981:6983   */\n      0x20\n        /* \"#utility.yul\":6970:6979   */\n      dup3\n        /* \"#utility.yul\":6966:6984   */\n      add\n        /* \"#utility.yul\":6958:6984   */\n      swap1\n      pop\n        /* \"#utility.yul\":7030:7039   */\n      dup2\n        /* \"#utility.yul\":7024:7028   */\n      dup2\n        /* \"#utility.yul\":7020:7040   */\n      sub\n        /* \"#utility.yul\":7016:7017   */\n      0x00\n        /* \"#utility.yul\":7005:7014   */\n      dup4\n        /* \"#utility.yul\":7001:7018   */\n      add\n        /* \"#utility.yul\":6994:7041   */\n      mstore\n        /* \"#utility.yul\":7058:7189   */\n      tag_187\n        /* \"#utility.yul\":7184:7188   */\n      dup2\n        /* \"#utility.yul\":7058:7189   */\n      tag_103\n      jump\t// in\n    tag_187:\n        /* \"#utility.yul\":7050:7189   */\n      swap1\n      pop\n        /* \"#utility.yul\":6777:7196   */\n      swap2\n      swap1\n      pop\n      jump\t// out\n        /* \"#utility.yul\":7202:7320   */\n    tag_104:\n        /* \"#utility.yul\":7273:7295   */\n      tag_189\n        /* \"#utility.yul\":7289:7294   */\n      dup2\n        /* \"#utility.yul\":7273:7295   */\n      tag_90\n      jump\t// in\n    tag_189:\n        /* \"#utility.yul\":7266:7271   */\n      dup2\n        /* \"#utility.yul\":7263:7296   */\n      eq\n        /* \"#utility.yul\":7253:7314   */\n      tag_190\n      jumpi\n        /* \"#utility.yul\":7310:7311   */\n      0x00\n        /* \"#utility.yul\":7307:7308   */\n      dup1\n        /* \"#utility.yul\":7300:7312   */\n      revert\n        /* \"#utility.yul\":7253:7314   */\n    tag_190:\n        /* \"#utility.yul\":7202:7320   */\n      pop\n      jump\t// out\n        /* \"#utility.yul\":7326:7465   */\n    tag_105:\n        /* \"#utility.yul\":7381:7386   */\n      0x00\n        /* \"#utility.yul\":7412:7418   */\n      dup2\n        /* \"#utility.yul\":7406:7419   */\n      mload\n        /* \"#utility.yul\":7397:7419   */\n      swap1\n      pop\n        /* \"#utility.yul\":7428:7459   */\n      tag_192\n        /* \"#utility.yul\":7453:7458   */\n      dup2\n        /* \"#utility.yul\":7428:7459   */\n      tag_104\n      jump\t// in\n    tag_192:\n        /* \"#utility.yul\":7326:7465   */\n      swap3\n      swap2\n      pop\n      pop\n      jump\t// out\n        /* \"#utility.yul\":7471:7818   */\n    tag_82:\n        /* \"#utility.yul\":7539:7545   */\n      0x00\n        /* \"#utility.yul\":7588:7590   */\n      0x20\n        /* \"#utility.yul\":7576:7585   */\n      dup3\n        /* \"#utility.yul\":7567:7574   */\n      dup5\n        /* \"#utility.yul\":7563:7586   */\n      sub\n        /* \"#utility.yul\":7559:7591   */\n      slt\n        /* \"#utility.yul\":7556:7675   */\n      iszero\n      tag_194\n      jumpi\n        /* \"#utility.yul\":7594:7673   */\n      tag_195\n      tag_86\n      jump\t// in\n    tag_195:\n        /* \"#utility.yul\":7556:7675   */\n    tag_194:\n        /* \"#utility.yul\":7714:7715   */\n      0x00\n        /* \"#utility.yul\":7739:7801   */\n      tag_196\n        /* \"#utility.yul\":7793:7800   */\n      dup5\n        /* \"#utility.yul\":7784:7790   */\n      dup3\n        /* \"#utility.yul\":7773:7782   */\n      dup6\n        /* \"#utility.yul\":7769:7791   */\n      add\n        /* \"#utility.yul\":7739:7801   */\n      tag_105\n      jump\t// in\n    tag_196:\n        /* \"#utility.yul\":7729:7801   */\n      swap2\n      pop\n        /* \"#utility.yul\":7685:7811   */\n      pop\n        /* \"#utility.yul\":7471:7818   */\n      swap3\n      swap2\n      pop\n      pop\n      jump\t// out\n\n    auxdata: 0xa26469706673582212202b42c49c420eb7bcbef1f6e59b942dc20e3dcea0bb1dad000469793f198f6c3064736f6c63430008180033\n}\n",
				"bytecode": {
					"linkReferences": {},
					"object": "6080604052674563918244f400005f5534801561001a575f80fd5b50610949806100285f395ff3fe60806040526004361061007a575f3560e01c8063d1d9165d1161004d578063d1d9165d14610138578063dd2b47db14610142578063e351332c1461016c578063f0141d84146101a85761007a565b80630d8e6e2c1461007e5780633430a88c146100a85780638897f2e1146100d257806398d5fdca1461010e575b5f80fd5b348015610089575f80fd5b506100926101d2565b60405161009f91906104f9565b60405180910390f35b3480156100b3575f80fd5b506100bc610259565b6040516100c991906104f9565b60405180910390f35b3480156100dd575f80fd5b506100f860048036038101906100f39190610540565b61025e565b60405161010591906104f9565b60405180910390f35b348015610119575f80fd5b5061012261028b565b60405161012f91906104f9565b60405180910390f35b610140610330565b005b34801561014d575f80fd5b5061015661037d565b60405161016391906104f9565b60405180910390f35b348015610177575f80fd5b50610192600480360381019061018d919061057e565b610422565b60405161019f91906104f9565b60405180910390f35b3480156101b3575f80fd5b506101bc61045a565b6040516101c991906105c4565b60405180910390f35b5f73694aa1769357215de4fac081bf1f309adc32530673ffffffffffffffffffffffffffffffffffffffff166354fd4d506040518163ffffffff1660e01b8152600401602060405180830381865afa158015610230573d5f803e3d5ffd5b505050506040513d601f19601f8201168201806040525081019061025491906105f1565b905090565b5f5481565b5f8082670de0b6b3a7640000856102759190610649565b61027f91906106b7565b90508091505092915050565b5f8073694aa1769357215de4fac081bf1f309adc32530690505f8173ffffffffffffffffffffffffffffffffffffffff1663feaf968c6040518163ffffffff1660e01b815260040160a060405180830381865afa1580156102ee573d5f803e3d5ffd5b505050506040513d601f19601f820116820180604052508101906103129190610759565b5050509150506402540be4008161032991906107d0565b9250505090565b5f5461033b34610422565b1161037b576040517f08c379a0000000000000000000000000000000000000000000000000000000008152600401610372906108a0565b60405180910390fd5b565b5f80735fb1616f78da7afc9ff79e0371741a747d2a7f2290505f8173ffffffffffffffffffffffffffffffffffffffff1663feaf968c6040518163ffffffff1660e01b815260040160a060405180830381865afa1580156103e0573d5f803e3d5ffd5b505050506040513d601f19601f820116820180604052508101906104049190610759565b5050509150506402540be4008161041b91906107d0565b9250505090565b5f8061042c61028b565b90505f670de0b6b3a764000082856104449190610649565b61044e91906106b7565b90508092505050919050565b5f73694aa1769357215de4fac081bf1f309adc32530673ffffffffffffffffffffffffffffffffffffffff1663313ce5676040518163ffffffff1660e01b8152600401602060405180830381865afa1580156104b8573d5f803e3d5ffd5b505050506040513d601f19601f820116820180604052508101906104dc91906108e8565b905090565b5f819050919050565b6104f3816104e1565b82525050565b5f60208201905061050c5f8301846104ea565b92915050565b5f80fd5b61051f816104e1565b8114610529575f80fd5b50565b5f8135905061053a81610516565b92915050565b5f806040838503121561055657610555610512565b5b5f6105638582860161052c565b92505060206105748582860161052c565b9150509250929050565b5f6020828403121561059357610592610512565b5b5f6105a08482850161052c565b91505092915050565b5f60ff82169050919050565b6105be816105a9565b82525050565b5f6020820190506105d75f8301846105b5565b92915050565b5f815190506105eb81610516565b92915050565b5f6020828403121561060657610605610512565b5b5f610613848285016105dd565b91505092915050565b7f4e487b71000000000000000000000000000000000000000000000000000000005f52601160045260245ffd5b5f610653826104e1565b915061065e836104e1565b925082820261066c816104e1565b915082820484148315176106835761068261061c565b5b5092915050565b7f4e487b71000000000000000000000000000000000000000000000000000000005f52601260045260245ffd5b5f6106c1826104e1565b91506106cc836104e1565b9250826106dc576106db61068a565b5b828204905092915050565b5f69ffffffffffffffffffff82169050919050565b610705816106e7565b811461070f575f80fd5b50565b5f81519050610720816106fc565b92915050565b5f819050919050565b61073881610726565b8114610742575f80fd5b50565b5f815190506107538161072f565b92915050565b5f805f805f60a0868803121561077257610771610512565b5b5f61077f88828901610712565b955050602061079088828901610745565b94505060406107a1888289016105dd565b93505060606107b2888289016105dd565b92505060806107c388828901610712565b9150509295509295909350565b5f6107da82610726565b91506107e583610726565b92508282026107f381610726565b91507f800000000000000000000000000000000000000000000000000000000000000084145f8412161561082a5761082961061c565b5b828205841483151761083f5761083e61061c565b5b5092915050565b5f82825260208201905092915050565b7f646f65736e27742073617469736679206d79206e6565642000000000000000005f82015250565b5f61088a601883610846565b915061089582610856565b602082019050919050565b5f6020820190508181035f8301526108b78161087e565b9050919050565b6108c7816105a9565b81146108d1575f80fd5b50565b5f815190506108e2816108be565b92915050565b5f602082840312156108fd576108fc610512565b5b5f61090a848285016108d4565b9150509291505056fea26469706673582212202b42c49c420eb7bcbef1f6e59b942dc20e3dcea0bb1dad000469793f198f6c3064736f6c63430008180033",
					"opcodes": "PUSH1 0x80 PUSH1 0x40 MSTORE PUSH8 0x4563918244F40000 PUSH0 SSTORE CALLVALUE DUP1 ISZERO PUSH2 0x1A JUMPI PUSH0 DUP1 REVERT JUMPDEST POP PUSH2 0x949 DUP1 PUSH2 0x28 PUSH0 CODECOPY PUSH0 RETURN INVALID PUSH1 0x80 PUSH1 0x40 MSTORE PUSH1 0x4 CALLDATASIZE LT PUSH2 0x7A JUMPI PUSH0 CALLDATALOAD PUSH1 0xE0 SHR DUP1 PUSH4 0xD1D9165D GT PUSH2 0x4D JUMPI DUP1 PUSH4 0xD1D9165D EQ PUSH2 0x138 JUMPI DUP1 PUSH4 0xDD2B47DB EQ PUSH2 0x142 JUMPI DUP1 PUSH4 0xE351332C EQ PUSH2 0x16C JUMPI DUP1 PUSH4 0xF0141D84 EQ PUSH2 0x1A8 JUMPI PUSH2 0x7A JUMP JUMPDEST DUP1 PUSH4 0xD8E6E2C EQ PUSH2 0x7E JUMPI DUP1 PUSH4 0x3430A88C EQ PUSH2 0xA8 JUMPI DUP1 PUSH4 0x8897F2E1 EQ PUSH2 0xD2 JUMPI DUP1 PUSH4 0x98D5FDCA EQ PUSH2 0x10E JUMPI JUMPDEST PUSH0 DUP1 REVERT JUMPDEST CALLVALUE DUP1 ISZERO PUSH2 0x89 JUMPI PUSH0 DUP1 REVERT JUMPDEST POP PUSH2 0x92 PUSH2 0x1D2 JUMP JUMPDEST PUSH1 0x40 MLOAD PUSH2 0x9F SWAP2 SWAP1 PUSH2 0x4F9 JUMP JUMPDEST PUSH1 0x40 MLOAD DUP1 SWAP2 SUB SWAP1 RETURN JUMPDEST CALLVALUE DUP1 ISZERO PUSH2 0xB3 JUMPI PUSH0 DUP1 REVERT JUMPDEST POP PUSH2 0xBC PUSH2 0x259 JUMP JUMPDEST PUSH1 0x40 MLOAD PUSH2 0xC9 SWAP2 SWAP1 PUSH2 0x4F9 JUMP JUMPDEST PUSH1 0x40 MLOAD DUP1 SWAP2 SUB SWAP1 RETURN JUMPDEST CALLVALUE DUP1 ISZERO PUSH2 0xDD JUMPI PUSH0 DUP1 REVERT JUMPDEST POP PUSH2 0xF8 PUSH1 0x4 DUP1 CALLDATASIZE SUB DUP2 ADD SWAP1 PUSH2 0xF3 SWAP2 SWAP1 PUSH2 0x540 JUMP JUMPDEST PUSH2 0x25E JUMP JUMPDEST PUSH1 0x40 MLOAD PUSH2 0x105 SWAP2 SWAP1 PUSH2 0x4F9 JUMP JUMPDEST PUSH1 0x40 MLOAD DUP1 SWAP2 SUB SWAP1 RETURN JUMPDEST CALLVALUE DUP1 ISZERO PUSH2 0x119 JUMPI PUSH0 DUP1 REVERT JUMPDEST POP PUSH2 0x122 PUSH2 0x28B JUMP JUMPDEST PUSH1 0x40 MLOAD PUSH2 0x12F SWAP2 SWAP1 PUSH2 0x4F9 JUMP JUMPDEST PUSH1 0x40 MLOAD DUP1 SWAP2 SUB SWAP1 RETURN JUMPDEST PUSH2 0x140 PUSH2 0x330 JUMP JUMPDEST STOP JUMPDEST CALLVALUE DUP1 ISZERO PUSH2 0x14D JUMPI PUSH0 DUP1 REVERT JUMPDEST POP PUSH2 0x156 PUSH2 0x37D JUMP JUMPDEST PUSH1 0x40 MLOAD PUSH2 0x163 SWAP2 SWAP1 PUSH2 0x4F9 JUMP JUMPDEST PUSH1 0x40 MLOAD DUP1 SWAP2 SUB SWAP1 RETURN JUMPDEST CALLVALUE DUP1 ISZERO PUSH2 0x177 JUMPI PUSH0 DUP1 REVERT JUMPDEST POP PUSH2 0x192 PUSH1 0x4 DUP1 CALLDATASIZE SUB DUP2 ADD SWAP1 PUSH2 0x18D SWAP2 SWAP1 PUSH2 0x57E JUMP JUMPDEST PUSH2 0x422 JUMP JUMPDEST PUSH1 0x40 MLOAD PUSH2 0x19F SWAP2 SWAP1 PUSH2 0x4F9 JUMP JUMPDEST PUSH1 0x40 MLOAD DUP1 SWAP2 SUB SWAP1 RETURN JUMPDEST CALLVALUE DUP1 ISZERO PUSH2 0x1B3 JUMPI PUSH0 DUP1 REVERT JUMPDEST POP PUSH2 0x1BC PUSH2 0x45A JUMP JUMPDEST PUSH1 0x40 MLOAD PUSH2 0x1C9 SWAP2 SWAP1 PUSH2 0x5C4 JUMP JUMPDEST PUSH1 0x40 MLOAD DUP1 SWAP2 SUB SWAP1 RETURN JUMPDEST PUSH0 PUSH20 0x694AA1769357215DE4FAC081BF1F309ADC325306 PUSH20 0xFFFFFFFFFFFFFFFFFFFFFFFFFFFFFFFFFFFFFFFF AND PUSH4 0x54FD4D50 PUSH1 0x40 MLOAD DUP2 PUSH4 0xFFFFFFFF AND PUSH1 0xE0 SHL DUP2 MSTORE PUSH1 0x4 ADD PUSH1 0x20 PUSH1 0x40 MLOAD DUP1 DUP4 SUB DUP2 DUP7 GAS STATICCALL ISZERO DUP1 ISZERO PUSH2 0x230 JUMPI RETURNDATASIZE PUSH0 DUP1 RETURNDATACOPY RETURNDATASIZE PUSH0 REVERT JUMPDEST POP POP POP POP PUSH1 0x40 MLOAD RETURNDATASIZE PUSH1 0x1F NOT PUSH1 0x1F DUP3 ADD AND DUP3 ADD DUP1 PUSH1 0x40 MSTORE POP DUP2 ADD SWAP1 PUSH2 0x254 SWAP2 SWAP1 PUSH2 0x5F1 JUMP JUMPDEST SWAP1 POP SWAP1 JUMP JUMPDEST PUSH0 SLOAD DUP2 JUMP JUMPDEST PUSH0 DUP1 DUP3 PUSH8 0xDE0B6B3A7640000 DUP6 PUSH2 0x275 SWAP2 SWAP1 PUSH2 0x649 JUMP JUMPDEST PUSH2 0x27F SWAP2 SWAP1 PUSH2 0x6B7 JUMP JUMPDEST SWAP1 POP DUP1 SWAP2 POP POP SWAP3 SWAP2 POP POP JUMP JUMPDEST PUSH0 DUP1 PUSH20 0x694AA1769357215DE4FAC081BF1F309ADC325306 SWAP1 POP PUSH0 DUP2 PUSH20 0xFFFFFFFFFFFFFFFFFFFFFFFFFFFFFFFFFFFFFFFF AND PUSH4 0xFEAF968C PUSH1 0x40 MLOAD DUP2 PUSH4 0xFFFFFFFF AND PUSH1 0xE0 SHL DUP2 MSTORE PUSH1 0x4 ADD PUSH1 0xA0 PUSH1 0x40 MLOAD DUP1 DUP4 SUB DUP2 DUP7 GAS STATICCALL ISZERO DUP1 ISZERO PUSH2 0x2EE JUMPI RETURNDATASIZE PUSH0 DUP1 RETURNDATACOPY RETURNDATASIZE PUSH0 REVERT JUMPDEST POP POP POP POP PUSH1 0x40 MLOAD RETURNDATASIZE PUSH1 0x1F NOT PUSH1 0x1F DUP3 ADD AND DUP3 ADD DUP1 PUSH1 0x40 MSTORE POP DUP2 ADD SWAP1 PUSH2 0x312 SWAP2 SWAP1 PUSH2 0x759 JUMP JUMPDEST POP POP POP SWAP2 POP POP PUSH5 0x2540BE400 DUP2 PUSH2 0x329 SWAP2 SWAP1 PUSH2 0x7D0 JUMP JUMPDEST SWAP3 POP POP POP SWAP1 JUMP JUMPDEST PUSH0 SLOAD PUSH2 0x33B CALLVALUE PUSH2 0x422 JUMP JUMPDEST GT PUSH2 0x37B JUMPI PUSH1 0x40 MLOAD PUSH32 0x8C379A000000000000000000000000000000000000000000000000000000000 DUP2 MSTORE PUSH1 0x4 ADD PUSH2 0x372 SWAP1 PUSH2 0x8A0 JUMP JUMPDEST PUSH1 0x40 MLOAD DUP1 SWAP2 SUB SWAP1 REVERT JUMPDEST JUMP JUMPDEST PUSH0 DUP1 PUSH20 0x5FB1616F78DA7AFC9FF79E0371741A747D2A7F22 SWAP1 POP PUSH0 DUP2 PUSH20 0xFFFFFFFFFFFFFFFFFFFFFFFFFFFFFFFFFFFFFFFF AND PUSH4 0xFEAF968C PUSH1 0x40 MLOAD DUP2 PUSH4 0xFFFFFFFF AND PUSH1 0xE0 SHL DUP2 MSTORE PUSH1 0x4 ADD PUSH1 0xA0 PUSH1 0x40 MLOAD DUP1 DUP4 SUB DUP2 DUP7 GAS STATICCALL ISZERO DUP1 ISZERO PUSH2 0x3E0 JUMPI RETURNDATASIZE PUSH0 DUP1 RETURNDATACOPY RETURNDATASIZE PUSH0 REVERT JUMPDEST POP POP POP POP PUSH1 0x40 MLOAD RETURNDATASIZE PUSH1 0x1F NOT PUSH1 0x1F DUP3 ADD AND DUP3 ADD DUP1 PUSH1 0x40 MSTORE POP DUP2 ADD SWAP1 PUSH2 0x404 SWAP2 SWAP1 PUSH2 0x759 JUMP JUMPDEST POP POP POP SWAP2 POP POP PUSH5 0x2540BE400 DUP2 PUSH2 0x41B SWAP2 SWAP1 PUSH2 0x7D0 JUMP JUMPDEST SWAP3 POP POP POP SWAP1 JUMP JUMPDEST PUSH0 DUP1 PUSH2 0x42C PUSH2 0x28B JUMP JUMPDEST SWAP1 POP PUSH0 PUSH8 0xDE0B6B3A7640000 DUP3 DUP6 PUSH2 0x444 SWAP2 SWAP1 PUSH2 0x649 JUMP JUMPDEST PUSH2 0x44E SWAP2 SWAP1 PUSH2 0x6B7 JUMP JUMPDEST SWAP1 POP DUP1 SWAP3 POP POP POP SWAP2 SWAP1 POP JUMP JUMPDEST PUSH0 PUSH20 0x694AA1769357215DE4FAC081BF1F309ADC325306 PUSH20 0xFFFFFFFFFFFFFFFFFFFFFFFFFFFFFFFFFFFFFFFF AND PUSH4 0x313CE567 PUSH1 0x40 MLOAD DUP2 PUSH4 0xFFFFFFFF AND PUSH1 0xE0 SHL DUP2 MSTORE PUSH1 0x4 ADD PUSH1 0x20 PUSH1 0x40 MLOAD DUP1 DUP4 SUB DUP2 DUP7 GAS STATICCALL ISZERO DUP1 ISZERO PUSH2 0x4B8 JUMPI RETURNDATASIZE PUSH0 DUP1 RETURNDATACOPY RETURNDATASIZE PUSH0 REVERT JUMPDEST POP POP POP POP PUSH1 0x40 MLOAD RETURNDATASIZE PUSH1 0x1F NOT PUSH1 0x1F DUP3 ADD AND DUP3 ADD DUP1 PUSH1 0x40 MSTORE POP DUP2 ADD SWAP1 PUSH2 0x4DC SWAP2 SWAP1 PUSH2 0x8E8 JUMP JUMPDEST SWAP1 POP SWAP1 JUMP JUMPDEST PUSH0 DUP2 SWAP1 POP SWAP2 SWAP1 POP JUMP JUMPDEST PUSH2 0x4F3 DUP2 PUSH2 0x4E1 JUMP JUMPDEST DUP3 MSTORE POP POP JUMP JUMPDEST PUSH0 PUSH1 0x20 DUP3 ADD SWAP1 POP PUSH2 0x50C PUSH0 DUP4 ADD DUP5 PUSH2 0x4EA JUMP JUMPDEST SWAP3 SWAP2 POP POP JUMP JUMPDEST PUSH0 DUP1 REVERT JUMPDEST PUSH2 0x51F DUP2 PUSH2 0x4E1 JUMP JUMPDEST DUP2 EQ PUSH2 0x529 JUMPI PUSH0 DUP1 REVERT JUMPDEST POP JUMP JUMPDEST PUSH0 DUP2 CALLDATALOAD SWAP1 POP PUSH2 0x53A DUP2 PUSH2 0x516 JUMP JUMPDEST SWAP3 SWAP2 POP POP JUMP JUMPDEST PUSH0 DUP1 PUSH1 0x40 DUP4 DUP6 SUB SLT ISZERO PUSH2 0x556 JUMPI PUSH2 0x555 PUSH2 0x512 JUMP JUMPDEST JUMPDEST PUSH0 PUSH2 0x563 DUP6 DUP3 DUP7 ADD PUSH2 0x52C JUMP JUMPDEST SWAP3 POP POP PUSH1 0x20 PUSH2 0x574 DUP6 DUP3 DUP7 ADD PUSH2 0x52C JUMP JUMPDEST SWAP2 POP POP SWAP3 POP SWAP3 SWAP1 POP JUMP JUMPDEST PUSH0 PUSH1 0x20 DUP3 DUP5 SUB SLT ISZERO PUSH2 0x593 JUMPI PUSH2 0x592 PUSH2 0x512 JUMP JUMPDEST JUMPDEST PUSH0 PUSH2 0x5A0 DUP5 DUP3 DUP6 ADD PUSH2 0x52C JUMP JUMPDEST SWAP2 POP POP SWAP3 SWAP2 POP POP JUMP JUMPDEST PUSH0 PUSH1 0xFF DUP3 AND SWAP1 POP SWAP2 SWAP1 POP JUMP JUMPDEST PUSH2 0x5BE DUP2 PUSH2 0x5A9 JUMP JUMPDEST DUP3 MSTORE POP POP JUMP JUMPDEST PUSH0 PUSH1 0x20 DUP3 ADD SWAP1 POP PUSH2 0x5D7 PUSH0 DUP4 ADD DUP5 PUSH2 0x5B5 JUMP JUMPDEST SWAP3 SWAP2 POP POP JUMP JUMPDEST PUSH0 DUP2 MLOAD SWAP1 POP PUSH2 0x5EB DUP2 PUSH2 0x516 JUMP JUMPDEST SWAP3 SWAP2 POP POP JUMP JUMPDEST PUSH0 PUSH1 0x20 DUP3 DUP5 SUB SLT ISZERO PUSH2 0x606 JUMPI PUSH2 0x605 PUSH2 0x512 JUMP JUMPDEST JUMPDEST PUSH0 PUSH2 0x613 DUP5 DUP3 DUP6 ADD PUSH2 0x5DD JUMP JUMPDEST SWAP2 POP POP SWAP3 SWAP2 POP POP JUMP JUMPDEST PUSH32 0x4E487B7100000000000000000000000000000000000000000000000000000000 PUSH0 MSTORE PUSH1 0x11 PUSH1 0x4 MSTORE PUSH1 0x24 PUSH0 REVERT JUMPDEST PUSH0 PUSH2 0x653 DUP3 PUSH2 0x4E1 JUMP JUMPDEST SWAP2 POP PUSH2 0x65E DUP4 PUSH2 0x4E1 JUMP JUMPDEST SWAP3 POP DUP3 DUP3 MUL PUSH2 0x66C DUP2 PUSH2 0x4E1 JUMP JUMPDEST SWAP2 POP DUP3 DUP3 DIV DUP5 EQ DUP4 ISZERO OR PUSH2 0x683 JUMPI PUSH2 0x682 PUSH2 0x61C JUMP JUMPDEST JUMPDEST POP SWAP3 SWAP2 POP POP JUMP JUMPDEST PUSH32 0x4E487B7100000000000000000000000000000000000000000000000000000000 PUSH0 MSTORE PUSH1 0x12 PUSH1 0x4 MSTORE PUSH1 0x24 PUSH0 REVERT JUMPDEST PUSH0 PUSH2 0x6C1 DUP3 PUSH2 0x4E1 JUMP JUMPDEST SWAP2 POP PUSH2 0x6CC DUP4 PUSH2 0x4E1 JUMP JUMPDEST SWAP3 POP DUP3 PUSH2 0x6DC JUMPI PUSH2 0x6DB PUSH2 0x68A JUMP JUMPDEST JUMPDEST DUP3 DUP3 DIV SWAP1 POP SWAP3 SWAP2 POP POP JUMP JUMPDEST PUSH0 PUSH10 0xFFFFFFFFFFFFFFFFFFFF DUP3 AND SWAP1 POP SWAP2 SWAP1 POP JUMP JUMPDEST PUSH2 0x705 DUP2 PUSH2 0x6E7 JUMP JUMPDEST DUP2 EQ PUSH2 0x70F JUMPI PUSH0 DUP1 REVERT JUMPDEST POP JUMP JUMPDEST PUSH0 DUP2 MLOAD SWAP1 POP PUSH2 0x720 DUP2 PUSH2 0x6FC JUMP JUMPDEST SWAP3 SWAP2 POP POP JUMP JUMPDEST PUSH0 DUP2 SWAP1 POP SWAP2 SWAP1 POP JUMP JUMPDEST PUSH2 0x738 DUP2 PUSH2 0x726 JUMP JUMPDEST DUP2 EQ PUSH2 0x742 JUMPI PUSH0 DUP1 REVERT JUMPDEST POP JUMP JUMPDEST PUSH0 DUP2 MLOAD SWAP1 POP PUSH2 0x753 DUP2 PUSH2 0x72F JUMP JUMPDEST SWAP3 SWAP2 POP POP JUMP JUMPDEST PUSH0 DUP1 PUSH0 DUP1 PUSH0 PUSH1 0xA0 DUP7 DUP9 SUB SLT ISZERO PUSH2 0x772 JUMPI PUSH2 0x771 PUSH2 0x512 JUMP JUMPDEST JUMPDEST PUSH0 PUSH2 0x77F DUP9 DUP3 DUP10 ADD PUSH2 0x712 JUMP JUMPDEST SWAP6 POP POP PUSH1 0x20 PUSH2 0x790 DUP9 DUP3 DUP10 ADD PUSH2 0x745 JUMP JUMPDEST SWAP5 POP POP PUSH1 0x40 PUSH2 0x7A1 DUP9 DUP3 DUP10 ADD PUSH2 0x5DD JUMP JUMPDEST SWAP4 POP POP PUSH1 0x60 PUSH2 0x7B2 DUP9 DUP3 DUP10 ADD PUSH2 0x5DD JUMP JUMPDEST SWAP3 POP POP PUSH1 0x80 PUSH2 0x7C3 DUP9 DUP3 DUP10 ADD PUSH2 0x712 JUMP JUMPDEST SWAP2 POP POP SWAP3 SWAP6 POP SWAP3 SWAP6 SWAP1 SWAP4 POP JUMP JUMPDEST PUSH0 PUSH2 0x7DA DUP3 PUSH2 0x726 JUMP JUMPDEST SWAP2 POP PUSH2 0x7E5 DUP4 PUSH2 0x726 JUMP JUMPDEST SWAP3 POP DUP3 DUP3 MUL PUSH2 0x7F3 DUP2 PUSH2 0x726 JUMP JUMPDEST SWAP2 POP PUSH32 0x8000000000000000000000000000000000000000000000000000000000000000 DUP5 EQ PUSH0 DUP5 SLT AND ISZERO PUSH2 0x82A JUMPI PUSH2 0x829 PUSH2 0x61C JUMP JUMPDEST JUMPDEST DUP3 DUP3 SDIV DUP5 EQ DUP4 ISZERO OR PUSH2 0x83F JUMPI PUSH2 0x83E PUSH2 0x61C JUMP JUMPDEST JUMPDEST POP SWAP3 SWAP2 POP POP JUMP JUMPDEST PUSH0 DUP3 DUP3 MSTORE PUSH1 0x20 DUP3 ADD SWAP1 POP SWAP3 SWAP2 POP POP JUMP JUMPDEST PUSH32 0x646F65736E27742073617469736679206D79206E656564200000000000000000 PUSH0 DUP3 ADD MSTORE POP JUMP JUMPDEST PUSH0 PUSH2 0x88A PUSH1 0x18 DUP4 PUSH2 0x846 JUMP JUMPDEST SWAP2 POP PUSH2 0x895 DUP3 PUSH2 0x856 JUMP JUMPDEST PUSH1 0x20 DUP3 ADD SWAP1 POP SWAP2 SWAP1 POP JUMP JUMPDEST PUSH0 PUSH1 0x20 DUP3 ADD SWAP1 POP DUP2 DUP2 SUB PUSH0 DUP4 ADD MSTORE PUSH2 0x8B7 DUP2 PUSH2 0x87E JUMP JUMPDEST SWAP1 POP SWAP2 SWAP1 POP JUMP JUMPDEST PUSH2 0x8C7 DUP2 PUSH2 0x5A9 JUMP JUMPDEST DUP2 EQ PUSH2 0x8D1 JUMPI PUSH0 DUP1 REVERT JUMPDEST POP JUMP JUMPDEST PUSH0 DUP2 MLOAD SWAP1 POP PUSH2 0x8E2 DUP2 PUSH2 0x8BE JUMP JUMPDEST SWAP3 SWAP2 POP POP JUMP JUMPDEST PUSH0 PUSH1 0x20 DUP3 DUP5 SUB SLT ISZERO PUSH2 0x8FD JUMPI PUSH2 0x8FC PUSH2 0x512 JUMP JUMPDEST JUMPDEST PUSH0 PUSH2 0x90A DUP5 DUP3 DUP6 ADD PUSH2 0x8D4 JUMP JUMPDEST SWAP2 POP POP SWAP3 SWAP2 POP POP JUMP INVALID LOG2 PUSH5 0x6970667358 0x22 SLT KECCAK256 0x2B TIMESTAMP 0xC4 SWAP13 TIMESTAMP 0xE 0xB7 0xBC 0xBE CALL 0xF6 0xE5 SWAP12 SWAP5 0x2D 0xC2 0xE RETURNDATASIZE 0xCE LOG0 0xBB SAR 0xAD STOP DIV PUSH10 0x793F198F6C3064736F6C PUSH4 0x43000818 STOP CALLER "
				},
				"gasEstimates": {
					"creation": {
						"codeDepositCost": "475400",
						"executionCost": "22614",
						"totalCost": "498014"
					},
					"external": {
						"convertUsdToEth(uint256,uint256)": "infinite",
						"fundme()": "infinite",
						"getConversionrate(uint256)": "infinite",
						"getDecimals()": "infinite",
						"getLatestBTCPriceInETH()": "infinite",
						"getPrice()": "infinite",
						"getVersion()": "infinite",
						"minimumUSD()": "2447"
					}
				},
				"methodIdentifiers": {
					"convertUsdToEth(uint256,uint256)": "8897f2e1",
					"fundme()": "d1d9165d",
					"getConversionrate(uint256)": "e351332c",
					"getDecimals()": "f0141d84",
					"getLatestBTCPriceInETH()": "dd2b47db",
					"getPrice()": "98d5fdca",
					"getVersion()": "0d8e6e2c",
					"minimumUSD()": "3430a88c"
				}
			},
			"storageLayout": {
				"storage": [
					{
						"astId": 52,
						"contract": "contracts/fundme.sol:Fundme",
						"label": "minimumUSD",
						"offset": 0,
						"slot": "0",
						"type": "t_uint256"
					}
				],
				"types": {
					"t_uint256": {
						"encoding": "inplace",
						"label": "uint256",
						"numberOfBytes": "32"
					}
				}
			},
			"userdoc": {
				"kind": "user",
				"methods": {},
				"version": 1
			}
		}
	}
}