{
	"contracts/fundme.sol": {
		"Fundme": {
			"abi": [
				{
					"inputs": [],
					"stateMutability": "nonpayable",
					"type": "constructor"
				},
				{
					"inputs": [],
					"name": "notowner",
					"type": "error"
				},
				{
					"stateMutability": "payable",
					"type": "fallback"
				},
				{
					"inputs": [],
					"name": "MINIMUM_USD",
					"outputs": [
						{
							"internalType": "uint256",
							"name": "",
							"type": "uint256"
						}
					],
					"stateMutability": "view",
					"type": "function"
				},
				{
					"inputs": [
						{
							"internalType": "address",
							"name": "funder",
							"type": "address"
						}
					],
					"name": "addresstoAmountfunded",
					"outputs": [
						{
							"internalType": "uint256",
							"name": "amountfunded",
							"type": "uint256"
						}
					],
					"stateMutability": "view",
					"type": "function"
				},
				{
					"inputs": [],
					"name": "calculatesum",
					"outputs": [
						{
							"internalType": "uint256",
							"name": "",
							"type": "uint256"
						}
					],
					"stateMutability": "view",
					"type": "function"
				},
				{
					"inputs": [],
					"name": "contributionCount",
					"outputs": [
						{
							"internalType": "uint256",
							"name": "",
							"type": "uint256"
						}
					],
					"stateMutability": "view",
					"type": "function"
				},
				{
					"inputs": [],
					"name": "executeAfter",
					"outputs": [
						{
							"internalType": "uint256",
							"name": "",
							"type": "uint256"
						}
					],
					"stateMutability": "view",
					"type": "function"
				},
				{
					"inputs": [
						{
							"internalType": "uint256",
							"name": "",
							"type": "uint256"
						}
					],
					"name": "funder",
					"outputs": [
						{
							"internalType": "address",
							"name": "",
							"type": "address"
						}
					],
					"stateMutability": "view",
					"type": "function"
				},
				{
					"inputs": [],
					"name": "fundme",
					"outputs": [],
					"stateMutability": "payable",
					"type": "function"
				},
				{
					"inputs": [],
					"name": "i_owner",
					"outputs": [
						{
							"internalType": "address",
							"name": "",
							"type": "address"
						}
					],
					"stateMutability": "view",
					"type": "function"
				},
				{
					"inputs": [
						{
							"internalType": "uint256",
							"name": "_timeInSeconds",
							"type": "uint256"
						}
					],
					"name": "setExecutionTime",
					"outputs": [],
					"stateMutability": "nonpayable",
					"type": "function"
				},
				{
					"inputs": [],
					"name": "withdraw",
					"outputs": [],
					"stateMutability": "nonpayable",
					"type": "function"
				},
				{
					"stateMutability": "payable",
					"type": "receive"
				}
			],
			"devdoc": {
				"kind": "dev",
				"methods": {},
				"version": 1
			},
			"evm": {
				"assembly": "    /* \"contracts/fundme.sol\":865:3607  contract Fundme{... */\n  mstore(0x40, 0xa0)\n    /* \"contracts/fundme.sol\":1151:1204  constructor() {... */\n  callvalue\n  dup1\n  iszero\n  tag_1\n  jumpi\n  0x00\n  dup1\n  revert\ntag_1:\n  pop\n    /* \"contracts/fundme.sol\":1186:1196  msg.sender */\n  caller\n    /* \"contracts/fundme.sol\":1176:1196  i_owner = msg.sender */\n  0xffffffffffffffffffffffffffffffffffffffff\n  and\n  0x80\n  dup2\n  0xffffffffffffffffffffffffffffffffffffffff\n  and\n  dup2\n  mstore\n  pop\n  pop\n    /* \"contracts/fundme.sol\":865:3607  contract Fundme{... */\n  mload(0x80)\n  codecopy(0x00, dataOffset(sub_0), dataSize(sub_0))\n  0x00\n  assignImmutable(\"0x646d998f946f968f0675fd4e3cb527e1222094ea0d9cc1fd615146a8fe29802e\")\n  return(0x00, dataSize(sub_0))\nstop\n\nsub_0: assembly {\n        /* \"contracts/fundme.sol\":865:3607  contract Fundme{... */\n      mstore(0x40, 0x80)\n      jumpi(tag_1, lt(calldatasize, 0x04))\n      shr(0xe0, calldataload(0x00))\n      dup1\n      0x62b8d693\n      gt\n      tag_13\n      jumpi\n      dup1\n      0x62b8d693\n      eq\n      tag_8\n      jumpi\n      dup1\n      0x6b69a592\n      eq\n      tag_9\n      jumpi\n      dup1\n      0xd1d9165d\n      eq\n      tag_10\n      jumpi\n      dup1\n      0xdba6335f\n      eq\n      tag_11\n      jumpi\n      dup1\n      0xf3aaee9d\n      eq\n      tag_12\n      jumpi\n      jump(tag_2)\n    tag_13:\n      dup1\n      0x1f2c9238\n      eq\n      tag_3\n      jumpi\n      dup1\n      0x221ace14\n      eq\n      tag_4\n      jumpi\n      dup1\n      0x288c3d17\n      eq\n      tag_5\n      jumpi\n      dup1\n      0x3ccfd60b\n      eq\n      tag_6\n      jumpi\n      dup1\n      0x5b18056b\n      eq\n      tag_7\n      jumpi\n      jump(tag_2)\n    tag_1:\n      jumpi(tag_2, calldatasize)\n        /* \"contracts/fundme.sol\":3523:3531  fundme() */\n      tag_16\n        /* \"contracts/fundme.sol\":3523:3529  fundme */\n      tag_17\n        /* \"contracts/fundme.sol\":3523:3531  fundme() */\n      jump\t// in\n    tag_16:\n        /* \"contracts/fundme.sol\":865:3607  contract Fundme{... */\n      stop\n    tag_2:\n        /* \"contracts/fundme.sol\":3586:3594  fundme() */\n      tag_20\n        /* \"contracts/fundme.sol\":3586:3592  fundme */\n      tag_17\n        /* \"contracts/fundme.sol\":3586:3594  fundme() */\n      jump\t// in\n    tag_20:\n        /* \"contracts/fundme.sol\":865:3607  contract Fundme{... */\n      stop\n        /* \"contracts/fundme.sol\":1017:1040  address[] public funder */\n    tag_3:\n      callvalue\n      dup1\n      iszero\n      tag_21\n      jumpi\n      0x00\n      dup1\n      revert\n    tag_21:\n      pop\n      tag_22\n      0x04\n      dup1\n      calldatasize\n      sub\n      dup2\n      add\n      swap1\n      tag_23\n      swap2\n      swap1\n      tag_24\n      jump\t// in\n    tag_23:\n      tag_25\n      jump\t// in\n    tag_22:\n      mload(0x40)\n      tag_26\n      swap2\n      swap1\n      tag_27\n      jump\t// in\n    tag_26:\n      mload(0x40)\n      dup1\n      swap2\n      sub\n      swap1\n      return\n        /* \"contracts/fundme.sol\":1212:1290  mapping (address funder => uint256 amountfunded ) public addresstoAmountfunded */\n    tag_4:\n      callvalue\n      dup1\n      iszero\n      tag_28\n      jumpi\n      0x00\n      dup1\n      revert\n    tag_28:\n      pop\n      tag_29\n      0x04\n      dup1\n      calldatasize\n      sub\n      dup2\n      add\n      swap1\n      tag_30\n      swap2\n      swap1\n      tag_31\n      jump\t// in\n    tag_30:\n      tag_32\n      jump\t// in\n    tag_29:\n      mload(0x40)\n      tag_33\n      swap2\n      swap1\n      tag_34\n      jump\t// in\n    tag_33:\n      mload(0x40)\n      dup1\n      swap2\n      sub\n      swap1\n      return\n        /* \"contracts/fundme.sol\":1871:2056  function calculatesum() public  view timerestricted returns (uint256)  {... */\n    tag_5:\n      callvalue\n      dup1\n      iszero\n      tag_35\n      jumpi\n      0x00\n      dup1\n      revert\n    tag_35:\n      pop\n      tag_36\n      tag_37\n      jump\t// in\n    tag_36:\n      mload(0x40)\n      tag_38\n      swap2\n      swap1\n      tag_34\n      jump\t// in\n    tag_38:\n      mload(0x40)\n      dup1\n      swap2\n      sub\n      swap1\n      return\n        /* \"contracts/fundme.sol\":2064:2995  function withdraw() public onlyowner timerestricted{... */\n    tag_6:\n      callvalue\n      dup1\n      iszero\n      tag_39\n      jumpi\n      0x00\n      dup1\n      revert\n    tag_39:\n      pop\n      tag_40\n      tag_41\n      jump\t// in\n    tag_40:\n      stop\n        /* \"contracts/fundme.sol\":1767:1863  function contributionCount() public view returns(uint256){... */\n    tag_7:\n      callvalue\n      dup1\n      iszero\n      tag_42\n      jumpi\n      0x00\n      dup1\n      revert\n    tag_42:\n      pop\n      tag_43\n      tag_44\n      jump\t// in\n    tag_43:\n      mload(0x40)\n      tag_45\n      swap2\n      swap1\n      tag_34\n      jump\t// in\n    tag_45:\n      mload(0x40)\n      dup1\n      swap2\n      sub\n      swap1\n      return\n        /* \"contracts/fundme.sol\":3338:3471  function setExecutionTime(uint256 _timeInSeconds) public onlyowner {... */\n    tag_8:\n      callvalue\n      dup1\n      iszero\n      tag_46\n      jumpi\n      0x00\n      dup1\n      revert\n    tag_46:\n      pop\n      tag_47\n      0x04\n      dup1\n      calldatasize\n      sub\n      dup2\n      add\n      swap1\n      tag_48\n      swap2\n      swap1\n      tag_24\n      jump\t// in\n    tag_48:\n      tag_49\n      jump\t// in\n    tag_47:\n      stop\n        /* \"contracts/fundme.sol\":967:1008  uint256 public constant MINIMUM_USD =5e18 */\n    tag_9:\n      callvalue\n      dup1\n      iszero\n      tag_50\n      jumpi\n      0x00\n      dup1\n      revert\n    tag_50:\n      pop\n      tag_51\n      tag_52\n      jump\t// in\n    tag_51:\n      mload(0x40)\n      tag_53\n      swap2\n      swap1\n      tag_34\n      jump\t// in\n    tag_53:\n      mload(0x40)\n      dup1\n      swap2\n      sub\n      swap1\n      return\n        /* \"contracts/fundme.sol\":1299:1755  function fundme () public  payable timerestricted {... */\n    tag_10:\n      tag_54\n      tag_17\n      jump\t// in\n    tag_54:\n      stop\n        /* \"contracts/fundme.sol\":1049:1081  address public immutable i_owner */\n    tag_11:\n      callvalue\n      dup1\n      iszero\n      tag_55\n      jumpi\n      0x00\n      dup1\n      revert\n    tag_55:\n      pop\n      tag_56\n      tag_57\n      jump\t// in\n    tag_56:\n      mload(0x40)\n      tag_58\n      swap2\n      swap1\n      tag_27\n      jump\t// in\n    tag_58:\n      mload(0x40)\n      dup1\n      swap2\n      sub\n      swap1\n      return\n        /* \"contracts/fundme.sol\":1090:1117  uint256 public executeAfter */\n    tag_12:\n      callvalue\n      dup1\n      iszero\n      tag_59\n      jumpi\n      0x00\n      dup1\n      revert\n    tag_59:\n      pop\n      tag_60\n      tag_61\n      jump\t// in\n    tag_60:\n      mload(0x40)\n      tag_62\n      swap2\n      swap1\n      tag_34\n      jump\t// in\n    tag_62:\n      mload(0x40)\n      dup1\n      swap2\n      sub\n      swap1\n      return\n        /* \"contracts/fundme.sol\":1299:1755  function fundme () public  payable timerestricted {... */\n    tag_17:\n        /* \"contracts/fundme.sol\":3263:3275  executeAfter */\n      sload(0x01)\n        /* \"contracts/fundme.sol\":3247:3262  block.timestamp */\n      timestamp\n        /* \"contracts/fundme.sol\":3247:3275  block.timestamp>executeAfter */\n      gt\n        /* \"contracts/fundme.sol\":3239:3310  require(block.timestamp>executeAfter,\"please wait for time completion\") */\n      tag_64\n      jumpi\n      mload(0x40)\n      0x08c379a000000000000000000000000000000000000000000000000000000000\n      dup2\n      mstore\n      0x04\n      add\n      tag_65\n      swap1\n      tag_66\n      jump\t// in\n    tag_65:\n      mload(0x40)\n      dup1\n      swap2\n      sub\n      swap1\n      revert\n    tag_64:\n        /* \"contracts/fundme.sol\":1004:1008  5e18 */\n      0x4563918244f40000\n        /* \"contracts/fundme.sol\":1497:1526  msg.value.getConversionrate() */\n      tag_68\n        /* \"contracts/fundme.sol\":1497:1506  msg.value */\n      callvalue\n        /* \"contracts/fundme.sol\":1497:1524  msg.value.getConversionrate */\n      tag_69\n        /* \"contracts/fundme.sol\":1497:1526  msg.value.getConversionrate() */\n      jump\t// in\n    tag_68:\n        /* \"contracts/fundme.sol\":1497:1540  msg.value.getConversionrate() > MINIMUM_USD */\n      gt\n        /* \"contracts/fundme.sol\":1489:1569  require(msg.value.getConversionrate() > MINIMUM_USD, \"doesn't satisfy my need \") */\n      tag_70\n      jumpi\n      mload(0x40)\n      0x08c379a000000000000000000000000000000000000000000000000000000000\n      dup2\n      mstore\n      0x04\n      add\n      tag_71\n      swap1\n      tag_72\n      jump\t// in\n    tag_71:\n      mload(0x40)\n      dup1\n      swap2\n      sub\n      swap1\n      revert\n    tag_70:\n        /* \"contracts/fundme.sol\":1581:1587  funder */\n      0x00\n        /* \"contracts/fundme.sol\":1593:1603  msg.sender */\n      caller\n        /* \"contracts/fundme.sol\":1581:1604  funder.push(msg.sender) */\n      swap1\n      dup1\n      0x01\n      dup2\n      sload\n      add\n      dup1\n      dup3\n      sstore\n      dup1\n      swap2\n      pop\n      pop\n      0x01\n      swap1\n      sub\n      swap1\n      0x00\n      mstore\n      keccak256(0x00, 0x20)\n      add\n      0x00\n      swap1\n      swap2\n      swap1\n      swap2\n      swap1\n      swap2\n      0x0100\n      exp\n      dup2\n      sload\n      dup2\n      0xffffffffffffffffffffffffffffffffffffffff\n      mul\n      not\n      and\n      swap1\n      dup4\n      0xffffffffffffffffffffffffffffffffffffffff\n      and\n      mul\n      or\n      swap1\n      sstore\n      pop\n        /* \"contracts/fundme.sol\":1687:1696  msg.value */\n      callvalue\n        /* \"contracts/fundme.sol\":1651:1672  addresstoAmountfunded */\n      0x02\n        /* \"contracts/fundme.sol\":1651:1684  addresstoAmountfunded[msg.sender] */\n      0x00\n        /* \"contracts/fundme.sol\":1673:1683  msg.sender */\n      caller\n        /* \"contracts/fundme.sol\":1651:1684  addresstoAmountfunded[msg.sender] */\n      0xffffffffffffffffffffffffffffffffffffffff\n      and\n      0xffffffffffffffffffffffffffffffffffffffff\n      and\n      dup2\n      mstore\n      0x20\n      add\n      swap1\n      dup2\n      mstore\n      0x20\n      add\n      0x00\n      keccak256\n      sload\n        /* \"contracts/fundme.sol\":1651:1696  addresstoAmountfunded[msg.sender] + msg.value */\n      tag_74\n      swap2\n      swap1\n      tag_75\n      jump\t// in\n    tag_74:\n        /* \"contracts/fundme.sol\":1615:1636  addresstoAmountfunded */\n      0x02\n        /* \"contracts/fundme.sol\":1615:1648  addresstoAmountfunded[msg.sender] */\n      0x00\n        /* \"contracts/fundme.sol\":1637:1647  msg.sender */\n      caller\n        /* \"contracts/fundme.sol\":1615:1648  addresstoAmountfunded[msg.sender] */\n      0xffffffffffffffffffffffffffffffffffffffff\n      and\n      0xffffffffffffffffffffffffffffffffffffffff\n      and\n      dup2\n      mstore\n      0x20\n      add\n      swap1\n      dup2\n      mstore\n      0x20\n      add\n      0x00\n      keccak256\n        /* \"contracts/fundme.sol\":1615:1696  addresstoAmountfunded[msg.sender] = addresstoAmountfunded[msg.sender] + msg.value */\n      dup2\n      swap1\n      sstore\n      pop\n        /* \"contracts/fundme.sol\":1299:1755  function fundme () public  payable timerestricted {... */\n      jump\t// out\n        /* \"contracts/fundme.sol\":1017:1040  address[] public funder */\n    tag_25:\n      0x00\n      dup2\n      dup2\n      sload\n      dup2\n      lt\n      tag_76\n      jumpi\n      0x00\n      dup1\n      revert\n    tag_76:\n      swap1\n      0x00\n      mstore\n      keccak256(0x00, 0x20)\n      add\n      0x00\n      swap2\n      pop\n      sload\n      swap1\n      0x0100\n      exp\n      swap1\n      div\n      0xffffffffffffffffffffffffffffffffffffffff\n      and\n      dup2\n      jump\t// out\n        /* \"contracts/fundme.sol\":1212:1290  mapping (address funder => uint256 amountfunded ) public addresstoAmountfunded */\n    tag_32:\n      mstore(0x20, 0x02)\n      dup1\n      0x00\n      mstore\n      keccak256(0x00, 0x40)\n      0x00\n      swap2\n      pop\n      swap1\n      pop\n      sload\n      dup2\n      jump\t// out\n        /* \"contracts/fundme.sol\":1871:2056  function calculatesum() public  view timerestricted returns (uint256)  {... */\n    tag_37:\n        /* \"contracts/fundme.sol\":1932:1939  uint256 */\n      0x00\n        /* \"contracts/fundme.sol\":3263:3275  executeAfter */\n      sload(0x01)\n        /* \"contracts/fundme.sol\":3247:3262  block.timestamp */\n      timestamp\n        /* \"contracts/fundme.sol\":3247:3275  block.timestamp>executeAfter */\n      gt\n        /* \"contracts/fundme.sol\":3239:3310  require(block.timestamp>executeAfter,\"please wait for time completion\") */\n      tag_79\n      jumpi\n      mload(0x40)\n      0x08c379a000000000000000000000000000000000000000000000000000000000\n      dup2\n      mstore\n      0x04\n      add\n      tag_80\n      swap1\n      tag_66\n      jump\t// in\n    tag_80:\n      mload(0x40)\n      dup1\n      swap2\n      sub\n      swap1\n      revert\n    tag_79:\n        /* \"contracts/fundme.sol\":1953:1962  uint256 a */\n      0x00\n        /* \"contracts/fundme.sol\":1965:1967  27 */\n      0x1b\n        /* \"contracts/fundme.sol\":1953:1967  uint256 a = 27 */\n      swap1\n      pop\n        /* \"contracts/fundme.sol\":1978:1987  uint256 b */\n      0x00\n        /* \"contracts/fundme.sol\":1990:1992  13 */\n      0x0d\n        /* \"contracts/fundme.sol\":1978:1992  uint256 b = 13 */\n      swap1\n      pop\n        /* \"contracts/fundme.sol\":2003:2014  uint256 sum */\n      0x00\n        /* \"contracts/fundme.sol\":2017:2025  a.add(b) */\n      tag_82\n        /* \"contracts/fundme.sol\":2023:2024  b */\n      dup3\n        /* \"contracts/fundme.sol\":2017:2018  a */\n      dup5\n        /* \"contracts/fundme.sol\":2017:2022  a.add */\n      tag_83\n      swap1\n        /* \"contracts/fundme.sol\":2017:2025  a.add(b) */\n      swap2\n      swap1\n      0xffffffff\n      and\n      jump\t// in\n    tag_82:\n        /* \"contracts/fundme.sol\":2003:2025  uint256 sum = a.add(b) */\n      swap1\n      pop\n        /* \"contracts/fundme.sol\":2043:2046  sum */\n      dup1\n        /* \"contracts/fundme.sol\":2036:2046  return sum */\n      swap4\n      pop\n      pop\n      pop\n      pop\n        /* \"contracts/fundme.sol\":1871:2056  function calculatesum() public  view timerestricted returns (uint256)  {... */\n      swap1\n      jump\t// out\n        /* \"contracts/fundme.sol\":2064:2995  function withdraw() public onlyowner timerestricted{... */\n    tag_41:\n        /* \"contracts/fundme.sol\":3120:3127  i_owner */\n      immutable(\"0x646d998f946f968f0675fd4e3cb527e1222094ea0d9cc1fd615146a8fe29802e\")\n        /* \"contracts/fundme.sol\":3106:3127  msg.sender != i_owner */\n      0xffffffffffffffffffffffffffffffffffffffff\n      and\n        /* \"contracts/fundme.sol\":3106:3116  msg.sender */\n      caller\n        /* \"contracts/fundme.sol\":3106:3127  msg.sender != i_owner */\n      0xffffffffffffffffffffffffffffffffffffffff\n      and\n      eq\n        /* \"contracts/fundme.sol\":3103:3174  if(msg.sender != i_owner){... */\n      tag_85\n      jumpi\n        /* \"contracts/fundme.sol\":3150:3160  notowner() */\n      mload(0x40)\n      0xd3b46f1c00000000000000000000000000000000000000000000000000000000\n      dup2\n      mstore\n      0x04\n      add\n      mload(0x40)\n      dup1\n      swap2\n      sub\n      swap1\n      revert\n        /* \"contracts/fundme.sol\":3103:3174  if(msg.sender != i_owner){... */\n    tag_85:\n        /* \"contracts/fundme.sol\":3263:3275  executeAfter */\n      sload(0x01)\n        /* \"contracts/fundme.sol\":3247:3262  block.timestamp */\n      timestamp\n        /* \"contracts/fundme.sol\":3247:3275  block.timestamp>executeAfter */\n      gt\n        /* \"contracts/fundme.sol\":3239:3310  require(block.timestamp>executeAfter,\"please wait for time completion\") */\n      tag_87\n      jumpi\n      mload(0x40)\n      0x08c379a000000000000000000000000000000000000000000000000000000000\n      dup2\n      mstore\n      0x04\n      add\n      tag_88\n      swap1\n      tag_66\n      jump\t// in\n    tag_88:\n      mload(0x40)\n      dup1\n      swap2\n      sub\n      swap1\n      revert\n    tag_87:\n        /* \"contracts/fundme.sol\":2235:2254  uint256 funderIndex */\n      0x00\n        /* \"contracts/fundme.sol\":2231:2412  for(uint256 funderIndex = 0; funderIndex<funder.length; funderIndex++){... */\n    tag_90:\n        /* \"contracts/fundme.sol\":2272:2278  funder */\n      0x00\n        /* \"contracts/fundme.sol\":2272:2285  funder.length */\n      dup1\n      sload\n      swap1\n      pop\n        /* \"contracts/fundme.sol\":2260:2271  funderIndex */\n      dup2\n        /* \"contracts/fundme.sol\":2260:2285  funderIndex<funder.length */\n      lt\n        /* \"contracts/fundme.sol\":2231:2412  for(uint256 funderIndex = 0; funderIndex<funder.length; funderIndex++){... */\n      iszero\n      tag_91\n      jumpi\n        /* \"contracts/fundme.sol\":2316:2331  address funders */\n      0x00\n        /* \"contracts/fundme.sol\":2334:2340  funder */\n      dup1\n        /* \"contracts/fundme.sol\":2341:2352  funderIndex */\n      dup3\n        /* \"contracts/fundme.sol\":2334:2353  funder[funderIndex] */\n      dup2\n      sload\n      dup2\n      lt\n      tag_93\n      jumpi\n      tag_94\n      tag_95\n      jump\t// in\n    tag_94:\n    tag_93:\n      swap1\n      0x00\n      mstore\n      keccak256(0x00, 0x20)\n      add\n      0x00\n      swap1\n      sload\n      swap1\n      0x0100\n      exp\n      swap1\n      div\n      0xffffffffffffffffffffffffffffffffffffffff\n      and\n        /* \"contracts/fundme.sol\":2316:2353  address funders = funder[funderIndex] */\n      swap1\n      pop\n        /* \"contracts/fundme.sol\":2399:2400  0 */\n      0x00\n        /* \"contracts/fundme.sol\":2368:2389  addresstoAmountfunded */\n      0x02\n        /* \"contracts/fundme.sol\":2368:2398  addresstoAmountfunded[funders] */\n      0x00\n        /* \"contracts/fundme.sol\":2390:2397  funders */\n      dup4\n        /* \"contracts/fundme.sol\":2368:2398  addresstoAmountfunded[funders] */\n      0xffffffffffffffffffffffffffffffffffffffff\n      and\n      0xffffffffffffffffffffffffffffffffffffffff\n      and\n      dup2\n      mstore\n      0x20\n      add\n      swap1\n      dup2\n      mstore\n      0x20\n      add\n      0x00\n      keccak256\n        /* \"contracts/fundme.sol\":2368:2400  addresstoAmountfunded[funders]=0 */\n      dup2\n      swap1\n      sstore\n      pop\n        /* \"contracts/fundme.sol\":2301:2412  {... */\n      pop\n        /* \"contracts/fundme.sol\":2287:2300  funderIndex++ */\n      dup1\n      dup1\n      0x01\n      add\n      swap2\n      pop\n      pop\n        /* \"contracts/fundme.sol\":2231:2412  for(uint256 funderIndex = 0; funderIndex<funder.length; funderIndex++){... */\n      jump(tag_90)\n    tag_91:\n      pop\n        /* \"contracts/fundme.sol\":2479:2480  0 */\n      0x00\n        /* \"contracts/fundme.sol\":2465:2481  new address[](0) */\n      0xffffffffffffffff\n      dup2\n      gt\n      iszero\n      tag_97\n      jumpi\n      tag_98\n      tag_99\n      jump\t// in\n    tag_98:\n    tag_97:\n      mload(0x40)\n      swap1\n      dup1\n      dup3\n      mstore\n      dup1\n      0x20\n      mul\n      0x20\n      add\n      dup3\n      add\n      0x40\n      mstore\n      dup1\n      iszero\n      tag_100\n      jumpi\n      dup2\n      0x20\n      add\n      0x20\n      dup3\n      mul\n      dup1\n      calldatasize\n      dup4\n      calldatacopy\n      dup1\n      dup3\n      add\n      swap2\n      pop\n      pop\n      swap1\n      pop\n    tag_100:\n      pop\n        /* \"contracts/fundme.sol\":2456:2462  funder */\n      0x00\n        /* \"contracts/fundme.sol\":2456:2481  funder = new address[](0) */\n      swap1\n      dup1\n      mload\n      swap1\n      0x20\n      add\n      swap1\n      tag_101\n      swap3\n      swap2\n      swap1\n      tag_102\n      jump\t// in\n    tag_101:\n      pop\n        /* \"contracts/fundme.sol\":2865:2877  bool truimph */\n      0x00\n        /* \"contracts/fundme.sol\":2891:2901  msg.sender */\n      caller\n        /* \"contracts/fundme.sol\":2882:2907  payable (msg.sender).call */\n      0xffffffffffffffffffffffffffffffffffffffff\n      and\n        /* \"contracts/fundme.sol\":2914:2935  address(this).balance */\n      selfbalance\n        /* \"contracts/fundme.sol\":2882:2941  payable (msg.sender).call{value:address(this).balance}(\" \") */\n      mload(0x40)\n      tag_103\n      swap1\n      tag_104\n      jump\t// in\n    tag_103:\n      0x00\n      mload(0x40)\n      dup1\n      dup4\n      sub\n      dup2\n      dup6\n      dup8\n      gas\n      call\n      swap3\n      pop\n      pop\n      pop\n      returndatasize\n      dup1\n      0x00\n      dup2\n      eq\n      tag_107\n      jumpi\n      mload(0x40)\n      swap2\n      pop\n      and(add(returndatasize, 0x3f), not(0x1f))\n      dup3\n      add\n      0x40\n      mstore\n      returndatasize\n      dup3\n      mstore\n      returndatasize\n      0x00\n      0x20\n      dup5\n      add\n      returndatacopy\n      jump(tag_106)\n    tag_107:\n      0x60\n      swap2\n      pop\n    tag_106:\n      pop\n        /* \"contracts/fundme.sol\":2864:2941  (bool truimph,) = payable (msg.sender).call{value:address(this).balance}(\" \") */\n      pop\n      swap1\n      pop\n        /* \"contracts/fundme.sol\":2961:2968  truimph */\n      dup1\n        /* \"contracts/fundme.sol\":2952:2983  require (truimph,\"failed call\") */\n      tag_108\n      jumpi\n      mload(0x40)\n      0x08c379a000000000000000000000000000000000000000000000000000000000\n      dup2\n      mstore\n      0x04\n      add\n      tag_109\n      swap1\n      tag_110\n      jump\t// in\n    tag_109:\n      mload(0x40)\n      dup1\n      swap2\n      sub\n      swap1\n      revert\n    tag_108:\n        /* \"contracts/fundme.sol\":2115:2995  {... */\n      pop\n        /* \"contracts/fundme.sol\":2064:2995  function withdraw() public onlyowner timerestricted{... */\n      jump\t// out\n        /* \"contracts/fundme.sol\":1767:1863  function contributionCount() public view returns(uint256){... */\n    tag_44:\n        /* \"contracts/fundme.sol\":1816:1823  uint256 */\n      0x00\n        /* \"contracts/fundme.sol\":1842:1848  funder */\n      dup1\n        /* \"contracts/fundme.sol\":1842:1855  funder.length */\n      dup1\n      sload\n      swap1\n      pop\n        /* \"contracts/fundme.sol\":1835:1855  return funder.length */\n      swap1\n      pop\n        /* \"contracts/fundme.sol\":1767:1863  function contributionCount() public view returns(uint256){... */\n      swap1\n      jump\t// out\n        /* \"contracts/fundme.sol\":3338:3471  function setExecutionTime(uint256 _timeInSeconds) public onlyowner {... */\n    tag_49:\n        /* \"contracts/fundme.sol\":3120:3127  i_owner */\n      immutable(\"0x646d998f946f968f0675fd4e3cb527e1222094ea0d9cc1fd615146a8fe29802e\")\n        /* \"contracts/fundme.sol\":3106:3127  msg.sender != i_owner */\n      0xffffffffffffffffffffffffffffffffffffffff\n      and\n        /* \"contracts/fundme.sol\":3106:3116  msg.sender */\n      caller\n        /* \"contracts/fundme.sol\":3106:3127  msg.sender != i_owner */\n      0xffffffffffffffffffffffffffffffffffffffff\n      and\n      eq\n        /* \"contracts/fundme.sol\":3103:3174  if(msg.sender != i_owner){... */\n      tag_113\n      jumpi\n        /* \"contracts/fundme.sol\":3150:3160  notowner() */\n      mload(0x40)\n      0xd3b46f1c00000000000000000000000000000000000000000000000000000000\n      dup2\n      mstore\n      0x04\n      add\n      mload(0x40)\n      dup1\n      swap2\n      sub\n      swap1\n      revert\n        /* \"contracts/fundme.sol\":3103:3174  if(msg.sender != i_owner){... */\n    tag_113:\n        /* \"contracts/fundme.sol\":3449:3463  _timeInSeconds */\n      dup1\n        /* \"contracts/fundme.sol\":3431:3446  block.timestamp */\n      timestamp\n        /* \"contracts/fundme.sol\":3431:3463  block.timestamp + _timeInSeconds */\n      tag_115\n      swap2\n      swap1\n      tag_75\n      jump\t// in\n    tag_115:\n        /* \"contracts/fundme.sol\":3416:3428  executeAfter */\n      0x01\n        /* \"contracts/fundme.sol\":3416:3463  executeAfter = block.timestamp + _timeInSeconds */\n      dup2\n      swap1\n      sstore\n      pop\n        /* \"contracts/fundme.sol\":3338:3471  function setExecutionTime(uint256 _timeInSeconds) public onlyowner {... */\n      pop\n      jump\t// out\n        /* \"contracts/fundme.sol\":967:1008  uint256 public constant MINIMUM_USD =5e18 */\n    tag_52:\n        /* \"contracts/fundme.sol\":1004:1008  5e18 */\n      0x4563918244f40000\n        /* \"contracts/fundme.sol\":967:1008  uint256 public constant MINIMUM_USD =5e18 */\n      dup2\n      jump\t// out\n        /* \"contracts/fundme.sol\":1049:1081  address public immutable i_owner */\n    tag_57:\n      immutable(\"0x646d998f946f968f0675fd4e3cb527e1222094ea0d9cc1fd615146a8fe29802e\")\n      dup2\n      jump\t// out\n        /* \"contracts/fundme.sol\":1090:1117  uint256 public executeAfter */\n    tag_61:\n      sload(0x01)\n      dup2\n      jump\t// out\n        /* \"contracts/priceconverter.sol\":631:911  function getConversionrate(uint256 ethAmount) internal  view returns(uint256) {... */\n    tag_69:\n        /* \"contracts/priceconverter.sol\":700:707  uint256 */\n      0x00\n        /* \"contracts/priceconverter.sol\":779:795  uint256 ethprice */\n      dup1\n        /* \"contracts/priceconverter.sol\":798:808  getPrice() */\n      tag_117\n        /* \"contracts/priceconverter.sol\":798:806  getPrice */\n      tag_118\n        /* \"contracts/priceconverter.sol\":798:808  getPrice() */\n      jump\t// in\n    tag_117:\n        /* \"contracts/priceconverter.sol\":779:808  uint256 ethprice = getPrice() */\n      swap1\n      pop\n        /* \"contracts/priceconverter.sol\":819:841  uint256 ethAmountInUSD */\n      0x00\n        /* \"contracts/priceconverter.sol\":865:869  1e18 */\n      0x0de0b6b3a7640000\n        /* \"contracts/priceconverter.sol\":855:863  ethprice */\n      dup3\n        /* \"contracts/priceconverter.sol\":845:854  ethAmount */\n      dup6\n        /* \"contracts/priceconverter.sol\":845:863  ethAmount*ethprice */\n      tag_119\n      swap2\n      swap1\n      tag_120\n      jump\t// in\n    tag_119:\n        /* \"contracts/priceconverter.sol\":844:869  (ethAmount*ethprice)/1e18 */\n      tag_121\n      swap2\n      swap1\n      tag_122\n      jump\t// in\n    tag_121:\n        /* \"contracts/priceconverter.sol\":819:869  uint256 ethAmountInUSD = (ethAmount*ethprice)/1e18 */\n      swap1\n      pop\n        /* \"contracts/priceconverter.sol\":889:903  ethAmountInUSD */\n      dup1\n        /* \"contracts/priceconverter.sol\":882:903  return ethAmountInUSD */\n      swap3\n      pop\n      pop\n      pop\n        /* \"contracts/priceconverter.sol\":631:911  function getConversionrate(uint256 ethAmount) internal  view returns(uint256) {... */\n      swap2\n      swap1\n      pop\n      jump\t// out\n        /* \"contracts/mathslibrary.sol\":96:258  function add(uint256 _first, uint256 _second) internal pure returns(uint256){... */\n    tag_83:\n        /* \"contracts/mathslibrary.sol\":164:171  uint256 */\n      0x00\n        /* \"contracts/mathslibrary.sol\":183:202  uint256 addednumber */\n      dup1\n        /* \"contracts/mathslibrary.sol\":214:221  _second */\n      dup3\n        /* \"contracts/mathslibrary.sol\":205:211  _first */\n      dup5\n        /* \"contracts/mathslibrary.sol\":205:221  _first + _second */\n      tag_124\n      swap2\n      swap1\n      tag_75\n      jump\t// in\n    tag_124:\n        /* \"contracts/mathslibrary.sol\":183:221  uint256 addednumber = _first + _second */\n      swap1\n      pop\n        /* \"contracts/mathslibrary.sol\":239:250  addednumber */\n      dup1\n        /* \"contracts/mathslibrary.sol\":232:250  return addednumber */\n      swap2\n      pop\n      pop\n        /* \"contracts/mathslibrary.sol\":96:258  function add(uint256 _first, uint256 _second) internal pure returns(uint256){... */\n      swap3\n      swap2\n      pop\n      pop\n      jump\t// out\n        /* \"contracts/priceconverter.sol\":205:623  function getPrice () internal view returns(uint256){... */\n    tag_118:\n        /* \"contracts/priceconverter.sol\":248:255  uint256 */\n      0x00\n        /* \"contracts/priceconverter.sol\":399:430  AggregatorV3Interface pricefeed */\n      dup1\n        /* \"contracts/priceconverter.sol\":454:496  0x694AA1769357215DE4FAC081bf1f309aDC325306 */\n      0x694aa1769357215de4fac081bf1f309adc325306\n        /* \"contracts/priceconverter.sol\":399:497  AggregatorV3Interface pricefeed= AggregatorV3Interface(0x694AA1769357215DE4FAC081bf1f309aDC325306) */\n      swap1\n      pop\n        /* \"contracts/priceconverter.sol\":510:523  int256 answer */\n      0x00\n        /* \"contracts/priceconverter.sol\":530:539  pricefeed */\n      dup2\n        /* \"contracts/priceconverter.sol\":530:555  pricefeed.latestRoundData */\n      0xffffffffffffffffffffffffffffffffffffffff\n      and\n      0xfeaf968c\n        /* \"contracts/priceconverter.sol\":530:557  pricefeed.latestRoundData() */\n      mload(0x40)\n      dup2\n      0xffffffff\n      and\n      0xe0\n      shl\n      dup2\n      mstore\n      0x04\n      add\n      0xa0\n      mload(0x40)\n      dup1\n      dup4\n      sub\n      dup2\n      dup7\n      gas\n      staticcall\n      iszero\n      dup1\n      iszero\n      tag_127\n      jumpi\n      returndatasize\n      0x00\n      dup1\n      returndatacopy\n      revert(0x00, returndatasize)\n    tag_127:\n      pop\n      pop\n      pop\n      pop\n      mload(0x40)\n      returndatasize\n      not(0x1f)\n      0x1f\n      dup3\n      add\n      and\n      dup3\n      add\n      dup1\n      0x40\n      mstore\n      pop\n      dup2\n      add\n      swap1\n      tag_128\n      swap2\n      swap1\n      tag_129\n      jump\t// in\n    tag_128:\n        /* \"contracts/priceconverter.sol\":508:557  (,int256 answer,,,) = pricefeed.latestRoundData() */\n      pop\n      pop\n      pop\n      swap2\n      pop\n      pop\n        /* \"contracts/priceconverter.sol\":610:614  1e10 */\n      0x02540be400\n        /* \"contracts/priceconverter.sol\":603:609  answer */\n      dup2\n        /* \"contracts/priceconverter.sol\":603:614  answer*1e10 */\n      tag_130\n      swap2\n      swap1\n      tag_131\n      jump\t// in\n    tag_130:\n        /* \"contracts/priceconverter.sol\":588:615  return uint256(answer*1e10) */\n      swap3\n      pop\n      pop\n      pop\n        /* \"contracts/priceconverter.sol\":205:623  function getPrice () internal view returns(uint256){... */\n      swap1\n      jump\t// out\n    tag_102:\n      dup3\n      dup1\n      sload\n      dup3\n      dup3\n      sstore\n      swap1\n      0x00\n      mstore\n      keccak256(0x00, 0x20)\n      swap1\n      dup2\n      add\n      swap3\n      dup3\n      iszero\n      tag_132\n      jumpi\n      swap2\n      0x20\n      mul\n      dup3\n      add\n    tag_133:\n      dup3\n      dup2\n      gt\n      iszero\n      tag_134\n      jumpi\n      dup3\n      mload\n      dup3\n      exp(0x0100, 0x00)\n      dup2\n      sload\n      dup2\n      0xffffffffffffffffffffffffffffffffffffffff\n      mul\n      not\n      and\n      swap1\n      dup4\n      0xffffffffffffffffffffffffffffffffffffffff\n      and\n      mul\n      or\n      swap1\n      sstore\n      pop\n      swap2\n      0x20\n      add\n      swap2\n      swap1\n      0x01\n      add\n      swap1\n      jump(tag_133)\n    tag_134:\n    tag_132:\n      pop\n      swap1\n      pop\n      tag_135\n      swap2\n      swap1\n      tag_136\n      jump\t// in\n    tag_135:\n      pop\n      swap1\n      jump\t// out\n    tag_136:\n    tag_137:\n      dup1\n      dup3\n      gt\n      iszero\n      tag_138\n      jumpi\n      0x00\n      dup2\n      0x00\n      swap1\n      sstore\n      pop\n      0x01\n      add\n      jump(tag_137)\n    tag_138:\n      pop\n      swap1\n      jump\t// out\n        /* \"#utility.yul\":88:205   */\n    tag_140:\n        /* \"#utility.yul\":197:198   */\n      0x00\n        /* \"#utility.yul\":194:195   */\n      dup1\n        /* \"#utility.yul\":187:199   */\n      revert\n        /* \"#utility.yul\":334:411   */\n    tag_142:\n        /* \"#utility.yul\":371:378   */\n      0x00\n        /* \"#utility.yul\":400:405   */\n      dup2\n        /* \"#utility.yul\":389:405   */\n      swap1\n      pop\n        /* \"#utility.yul\":334:411   */\n      swap2\n      swap1\n      pop\n      jump\t// out\n        /* \"#utility.yul\":417:539   */\n    tag_143:\n        /* \"#utility.yul\":490:514   */\n      tag_176\n        /* \"#utility.yul\":508:513   */\n      dup2\n        /* \"#utility.yul\":490:514   */\n      tag_142\n      jump\t// in\n    tag_176:\n        /* \"#utility.yul\":483:488   */\n      dup2\n        /* \"#utility.yul\":480:515   */\n      eq\n        /* \"#utility.yul\":470:533   */\n      tag_177\n      jumpi\n        /* \"#utility.yul\":529:530   */\n      0x00\n        /* \"#utility.yul\":526:527   */\n      dup1\n        /* \"#utility.yul\":519:531   */\n      revert\n        /* \"#utility.yul\":470:533   */\n    tag_177:\n        /* \"#utility.yul\":417:539   */\n      pop\n      jump\t// out\n        /* \"#utility.yul\":545:684   */\n    tag_144:\n        /* \"#utility.yul\":591:596   */\n      0x00\n        /* \"#utility.yul\":629:635   */\n      dup2\n        /* \"#utility.yul\":616:636   */\n      calldataload\n        /* \"#utility.yul\":607:636   */\n      swap1\n      pop\n        /* \"#utility.yul\":645:678   */\n      tag_179\n        /* \"#utility.yul\":672:677   */\n      dup2\n        /* \"#utility.yul\":645:678   */\n      tag_143\n      jump\t// in\n    tag_179:\n        /* \"#utility.yul\":545:684   */\n      swap3\n      swap2\n      pop\n      pop\n      jump\t// out\n        /* \"#utility.yul\":690:1019   */\n    tag_24:\n        /* \"#utility.yul\":749:755   */\n      0x00\n        /* \"#utility.yul\":798:800   */\n      0x20\n        /* \"#utility.yul\":786:795   */\n      dup3\n        /* \"#utility.yul\":777:784   */\n      dup5\n        /* \"#utility.yul\":773:796   */\n      sub\n        /* \"#utility.yul\":769:801   */\n      slt\n        /* \"#utility.yul\":766:885   */\n      iszero\n      tag_181\n      jumpi\n        /* \"#utility.yul\":804:883   */\n      tag_182\n      tag_140\n      jump\t// in\n    tag_182:\n        /* \"#utility.yul\":766:885   */\n    tag_181:\n        /* \"#utility.yul\":924:925   */\n      0x00\n        /* \"#utility.yul\":949:1002   */\n      tag_183\n        /* \"#utility.yul\":994:1001   */\n      dup5\n        /* \"#utility.yul\":985:991   */\n      dup3\n        /* \"#utility.yul\":974:983   */\n      dup6\n        /* \"#utility.yul\":970:992   */\n      add\n        /* \"#utility.yul\":949:1002   */\n      tag_144\n      jump\t// in\n    tag_183:\n        /* \"#utility.yul\":939:1002   */\n      swap2\n      pop\n        /* \"#utility.yul\":895:1012   */\n      pop\n        /* \"#utility.yul\":690:1019   */\n      swap3\n      swap2\n      pop\n      pop\n      jump\t// out\n        /* \"#utility.yul\":1025:1151   */\n    tag_145:\n        /* \"#utility.yul\":1062:1069   */\n      0x00\n        /* \"#utility.yul\":1102:1144   */\n      0xffffffffffffffffffffffffffffffffffffffff\n        /* \"#utility.yul\":1095:1100   */\n      dup3\n        /* \"#utility.yul\":1091:1145   */\n      and\n        /* \"#utility.yul\":1080:1145   */\n      swap1\n      pop\n        /* \"#utility.yul\":1025:1151   */\n      swap2\n      swap1\n      pop\n      jump\t// out\n        /* \"#utility.yul\":1157:1253   */\n    tag_146:\n        /* \"#utility.yul\":1194:1201   */\n      0x00\n        /* \"#utility.yul\":1223:1247   */\n      tag_186\n        /* \"#utility.yul\":1241:1246   */\n      dup3\n        /* \"#utility.yul\":1223:1247   */\n      tag_145\n      jump\t// in\n    tag_186:\n        /* \"#utility.yul\":1212:1247   */\n      swap1\n      pop\n        /* \"#utility.yul\":1157:1253   */\n      swap2\n      swap1\n      pop\n      jump\t// out\n        /* \"#utility.yul\":1259:1377   */\n    tag_147:\n        /* \"#utility.yul\":1346:1370   */\n      tag_188\n        /* \"#utility.yul\":1364:1369   */\n      dup2\n        /* \"#utility.yul\":1346:1370   */\n      tag_146\n      jump\t// in\n    tag_188:\n        /* \"#utility.yul\":1341:1344   */\n      dup3\n        /* \"#utility.yul\":1334:1371   */\n      mstore\n        /* \"#utility.yul\":1259:1377   */\n      pop\n      pop\n      jump\t// out\n        /* \"#utility.yul\":1383:1605   */\n    tag_27:\n        /* \"#utility.yul\":1476:1480   */\n      0x00\n        /* \"#utility.yul\":1514:1516   */\n      0x20\n        /* \"#utility.yul\":1503:1512   */\n      dup3\n        /* \"#utility.yul\":1499:1517   */\n      add\n        /* \"#utility.yul\":1491:1517   */\n      swap1\n      pop\n        /* \"#utility.yul\":1527:1598   */\n      tag_190\n        /* \"#utility.yul\":1595:1596   */\n      0x00\n        /* \"#utility.yul\":1584:1593   */\n      dup4\n        /* \"#utility.yul\":1580:1597   */\n      add\n        /* \"#utility.yul\":1571:1577   */\n      dup5\n        /* \"#utility.yul\":1527:1598   */\n      tag_147\n      jump\t// in\n    tag_190:\n        /* \"#utility.yul\":1383:1605   */\n      swap3\n      swap2\n      pop\n      pop\n      jump\t// out\n        /* \"#utility.yul\":1611:1733   */\n    tag_148:\n        /* \"#utility.yul\":1684:1708   */\n      tag_192\n        /* \"#utility.yul\":1702:1707   */\n      dup2\n        /* \"#utility.yul\":1684:1708   */\n      tag_146\n      jump\t// in\n    tag_192:\n        /* \"#utility.yul\":1677:1682   */\n      dup2\n        /* \"#utility.yul\":1674:1709   */\n      eq\n        /* \"#utility.yul\":1664:1727   */\n      tag_193\n      jumpi\n        /* \"#utility.yul\":1723:1724   */\n      0x00\n        /* \"#utility.yul\":1720:1721   */\n      dup1\n        /* \"#utility.yul\":1713:1725   */\n      revert\n        /* \"#utility.yul\":1664:1727   */\n    tag_193:\n        /* \"#utility.yul\":1611:1733   */\n      pop\n      jump\t// out\n        /* \"#utility.yul\":1739:1878   */\n    tag_149:\n        /* \"#utility.yul\":1785:1790   */\n      0x00\n        /* \"#utility.yul\":1823:1829   */\n      dup2\n        /* \"#utility.yul\":1810:1830   */\n      calldataload\n        /* \"#utility.yul\":1801:1830   */\n      swap1\n      pop\n        /* \"#utility.yul\":1839:1872   */\n      tag_195\n        /* \"#utility.yul\":1866:1871   */\n      dup2\n        /* \"#utility.yul\":1839:1872   */\n      tag_148\n      jump\t// in\n    tag_195:\n        /* \"#utility.yul\":1739:1878   */\n      swap3\n      swap2\n      pop\n      pop\n      jump\t// out\n        /* \"#utility.yul\":1884:2213   */\n    tag_31:\n        /* \"#utility.yul\":1943:1949   */\n      0x00\n        /* \"#utility.yul\":1992:1994   */\n      0x20\n        /* \"#utility.yul\":1980:1989   */\n      dup3\n        /* \"#utility.yul\":1971:1978   */\n      dup5\n        /* \"#utility.yul\":1967:1990   */\n      sub\n        /* \"#utility.yul\":1963:1995   */\n      slt\n        /* \"#utility.yul\":1960:2079   */\n      iszero\n      tag_197\n      jumpi\n        /* \"#utility.yul\":1998:2077   */\n      tag_198\n      tag_140\n      jump\t// in\n    tag_198:\n        /* \"#utility.yul\":1960:2079   */\n    tag_197:\n        /* \"#utility.yul\":2118:2119   */\n      0x00\n        /* \"#utility.yul\":2143:2196   */\n      tag_199\n        /* \"#utility.yul\":2188:2195   */\n      dup5\n        /* \"#utility.yul\":2179:2185   */\n      dup3\n        /* \"#utility.yul\":2168:2177   */\n      dup6\n        /* \"#utility.yul\":2164:2186   */\n      add\n        /* \"#utility.yul\":2143:2196   */\n      tag_149\n      jump\t// in\n    tag_199:\n        /* \"#utility.yul\":2133:2196   */\n      swap2\n      pop\n        /* \"#utility.yul\":2089:2206   */\n      pop\n        /* \"#utility.yul\":1884:2213   */\n      swap3\n      swap2\n      pop\n      pop\n      jump\t// out\n        /* \"#utility.yul\":2219:2337   */\n    tag_150:\n        /* \"#utility.yul\":2306:2330   */\n      tag_201\n        /* \"#utility.yul\":2324:2329   */\n      dup2\n        /* \"#utility.yul\":2306:2330   */\n      tag_142\n      jump\t// in\n    tag_201:\n        /* \"#utility.yul\":2301:2304   */\n      dup3\n        /* \"#utility.yul\":2294:2331   */\n      mstore\n        /* \"#utility.yul\":2219:2337   */\n      pop\n      pop\n      jump\t// out\n        /* \"#utility.yul\":2343:2565   */\n    tag_34:\n        /* \"#utility.yul\":2436:2440   */\n      0x00\n        /* \"#utility.yul\":2474:2476   */\n      0x20\n        /* \"#utility.yul\":2463:2472   */\n      dup3\n        /* \"#utility.yul\":2459:2477   */\n      add\n        /* \"#utility.yul\":2451:2477   */\n      swap1\n      pop\n        /* \"#utility.yul\":2487:2558   */\n      tag_203\n        /* \"#utility.yul\":2555:2556   */\n      0x00\n        /* \"#utility.yul\":2544:2553   */\n      dup4\n        /* \"#utility.yul\":2540:2557   */\n      add\n        /* \"#utility.yul\":2531:2537   */\n      dup5\n        /* \"#utility.yul\":2487:2558   */\n      tag_150\n      jump\t// in\n    tag_203:\n        /* \"#utility.yul\":2343:2565   */\n      swap3\n      swap2\n      pop\n      pop\n      jump\t// out\n        /* \"#utility.yul\":2571:2740   */\n    tag_151:\n        /* \"#utility.yul\":2655:2666   */\n      0x00\n        /* \"#utility.yul\":2689:2695   */\n      dup3\n        /* \"#utility.yul\":2684:2687   */\n      dup3\n        /* \"#utility.yul\":2677:2696   */\n      mstore\n        /* \"#utility.yul\":2729:2733   */\n      0x20\n        /* \"#utility.yul\":2724:2727   */\n      dup3\n        /* \"#utility.yul\":2720:2734   */\n      add\n        /* \"#utility.yul\":2705:2734   */\n      swap1\n      pop\n        /* \"#utility.yul\":2571:2740   */\n      swap3\n      swap2\n      pop\n      pop\n      jump\t// out\n        /* \"#utility.yul\":2746:2927   */\n    tag_152:\n        /* \"#utility.yul\":2886:2919   */\n      0x706c65617365207761697420666f722074696d6520636f6d706c6574696f6e00\n        /* \"#utility.yul\":2882:2883   */\n      0x00\n        /* \"#utility.yul\":2874:2880   */\n      dup3\n        /* \"#utility.yul\":2870:2884   */\n      add\n        /* \"#utility.yul\":2863:2920   */\n      mstore\n        /* \"#utility.yul\":2746:2927   */\n      pop\n      jump\t// out\n        /* \"#utility.yul\":2933:3299   */\n    tag_153:\n        /* \"#utility.yul\":3075:3078   */\n      0x00\n        /* \"#utility.yul\":3096:3163   */\n      tag_207\n        /* \"#utility.yul\":3160:3162   */\n      0x1f\n        /* \"#utility.yul\":3155:3158   */\n      dup4\n        /* \"#utility.yul\":3096:3163   */\n      tag_151\n      jump\t// in\n    tag_207:\n        /* \"#utility.yul\":3089:3163   */\n      swap2\n      pop\n        /* \"#utility.yul\":3172:3265   */\n      tag_208\n        /* \"#utility.yul\":3261:3264   */\n      dup3\n        /* \"#utility.yul\":3172:3265   */\n      tag_152\n      jump\t// in\n    tag_208:\n        /* \"#utility.yul\":3290:3292   */\n      0x20\n        /* \"#utility.yul\":3285:3288   */\n      dup3\n        /* \"#utility.yul\":3281:3293   */\n      add\n        /* \"#utility.yul\":3274:3293   */\n      swap1\n      pop\n        /* \"#utility.yul\":2933:3299   */\n      swap2\n      swap1\n      pop\n      jump\t// out\n        /* \"#utility.yul\":3305:3724   */\n    tag_66:\n        /* \"#utility.yul\":3471:3475   */\n      0x00\n        /* \"#utility.yul\":3509:3511   */\n      0x20\n        /* \"#utility.yul\":3498:3507   */\n      dup3\n        /* \"#utility.yul\":3494:3512   */\n      add\n        /* \"#utility.yul\":3486:3512   */\n      swap1\n      pop\n        /* \"#utility.yul\":3558:3567   */\n      dup2\n        /* \"#utility.yul\":3552:3556   */\n      dup2\n        /* \"#utility.yul\":3548:3568   */\n      sub\n        /* \"#utility.yul\":3544:3545   */\n      0x00\n        /* \"#utility.yul\":3533:3542   */\n      dup4\n        /* \"#utility.yul\":3529:3546   */\n      add\n        /* \"#utility.yul\":3522:3569   */\n      mstore\n        /* \"#utility.yul\":3586:3717   */\n      tag_210\n        /* \"#utility.yul\":3712:3716   */\n      dup2\n        /* \"#utility.yul\":3586:3717   */\n      tag_153\n      jump\t// in\n    tag_210:\n        /* \"#utility.yul\":3578:3717   */\n      swap1\n      pop\n        /* \"#utility.yul\":3305:3724   */\n      swap2\n      swap1\n      pop\n      jump\t// out\n        /* \"#utility.yul\":3730:3904   */\n    tag_154:\n        /* \"#utility.yul\":3870:3896   */\n      0x646f65736e27742073617469736679206d79206e656564200000000000000000\n        /* \"#utility.yul\":3866:3867   */\n      0x00\n        /* \"#utility.yul\":3858:3864   */\n      dup3\n        /* \"#utility.yul\":3854:3868   */\n      add\n        /* \"#utility.yul\":3847:3897   */\n      mstore\n        /* \"#utility.yul\":3730:3904   */\n      pop\n      jump\t// out\n        /* \"#utility.yul\":3910:4276   */\n    tag_155:\n        /* \"#utility.yul\":4052:4055   */\n      0x00\n        /* \"#utility.yul\":4073:4140   */\n      tag_213\n        /* \"#utility.yul\":4137:4139   */\n      0x18\n        /* \"#utility.yul\":4132:4135   */\n      dup4\n        /* \"#utility.yul\":4073:4140   */\n      tag_151\n      jump\t// in\n    tag_213:\n        /* \"#utility.yul\":4066:4140   */\n      swap2\n      pop\n        /* \"#utility.yul\":4149:4242   */\n      tag_214\n        /* \"#utility.yul\":4238:4241   */\n      dup3\n        /* \"#utility.yul\":4149:4242   */\n      tag_154\n      jump\t// in\n    tag_214:\n        /* \"#utility.yul\":4267:4269   */\n      0x20\n        /* \"#utility.yul\":4262:4265   */\n      dup3\n        /* \"#utility.yul\":4258:4270   */\n      add\n        /* \"#utility.yul\":4251:4270   */\n      swap1\n      pop\n        /* \"#utility.yul\":3910:4276   */\n      swap2\n      swap1\n      pop\n      jump\t// out\n        /* \"#utility.yul\":4282:4701   */\n    tag_72:\n        /* \"#utility.yul\":4448:4452   */\n      0x00\n        /* \"#utility.yul\":4486:4488   */\n      0x20\n        /* \"#utility.yul\":4475:4484   */\n      dup3\n        /* \"#utility.yul\":4471:4489   */\n      add\n        /* \"#utility.yul\":4463:4489   */\n      swap1\n      pop\n        /* \"#utility.yul\":4535:4544   */\n      dup2\n        /* \"#utility.yul\":4529:4533   */\n      dup2\n        /* \"#utility.yul\":4525:4545   */\n      sub\n        /* \"#utility.yul\":4521:4522   */\n      0x00\n        /* \"#utility.yul\":4510:4519   */\n      dup4\n        /* \"#utility.yul\":4506:4523   */\n      add\n        /* \"#utility.yul\":4499:4546   */\n      mstore\n        /* \"#utility.yul\":4563:4694   */\n      tag_216\n        /* \"#utility.yul\":4689:4693   */\n      dup2\n        /* \"#utility.yul\":4563:4694   */\n      tag_155\n      jump\t// in\n    tag_216:\n        /* \"#utility.yul\":4555:4694   */\n      swap1\n      pop\n        /* \"#utility.yul\":4282:4701   */\n      swap2\n      swap1\n      pop\n      jump\t// out\n        /* \"#utility.yul\":4707:4887   */\n    tag_156:\n        /* \"#utility.yul\":4755:4832   */\n      0x4e487b7100000000000000000000000000000000000000000000000000000000\n        /* \"#utility.yul\":4752:4753   */\n      0x00\n        /* \"#utility.yul\":4745:4833   */\n      mstore\n        /* \"#utility.yul\":4852:4856   */\n      0x11\n        /* \"#utility.yul\":4849:4850   */\n      0x04\n        /* \"#utility.yul\":4842:4857   */\n      mstore\n        /* \"#utility.yul\":4876:4880   */\n      0x24\n        /* \"#utility.yul\":4873:4874   */\n      0x00\n        /* \"#utility.yul\":4866:4881   */\n      revert\n        /* \"#utility.yul\":4893:5084   */\n    tag_75:\n        /* \"#utility.yul\":4933:4936   */\n      0x00\n        /* \"#utility.yul\":4952:4972   */\n      tag_219\n        /* \"#utility.yul\":4970:4971   */\n      dup3\n        /* \"#utility.yul\":4952:4972   */\n      tag_142\n      jump\t// in\n    tag_219:\n        /* \"#utility.yul\":4947:4972   */\n      swap2\n      pop\n        /* \"#utility.yul\":4986:5006   */\n      tag_220\n        /* \"#utility.yul\":5004:5005   */\n      dup4\n        /* \"#utility.yul\":4986:5006   */\n      tag_142\n      jump\t// in\n    tag_220:\n        /* \"#utility.yul\":4981:5006   */\n      swap3\n      pop\n        /* \"#utility.yul\":5029:5030   */\n      dup3\n        /* \"#utility.yul\":5026:5027   */\n      dup3\n        /* \"#utility.yul\":5022:5031   */\n      add\n        /* \"#utility.yul\":5015:5031   */\n      swap1\n      pop\n        /* \"#utility.yul\":5050:5053   */\n      dup1\n        /* \"#utility.yul\":5047:5048   */\n      dup3\n        /* \"#utility.yul\":5044:5054   */\n      gt\n        /* \"#utility.yul\":5041:5077   */\n      iszero\n      tag_221\n      jumpi\n        /* \"#utility.yul\":5057:5075   */\n      tag_222\n      tag_156\n      jump\t// in\n    tag_222:\n        /* \"#utility.yul\":5041:5077   */\n    tag_221:\n        /* \"#utility.yul\":4893:5084   */\n      swap3\n      swap2\n      pop\n      pop\n      jump\t// out\n        /* \"#utility.yul\":5090:5270   */\n    tag_95:\n        /* \"#utility.yul\":5138:5215   */\n      0x4e487b7100000000000000000000000000000000000000000000000000000000\n        /* \"#utility.yul\":5135:5136   */\n      0x00\n        /* \"#utility.yul\":5128:5216   */\n      mstore\n        /* \"#utility.yul\":5235:5239   */\n      0x32\n        /* \"#utility.yul\":5232:5233   */\n      0x04\n        /* \"#utility.yul\":5225:5240   */\n      mstore\n        /* \"#utility.yul\":5259:5263   */\n      0x24\n        /* \"#utility.yul\":5256:5257   */\n      0x00\n        /* \"#utility.yul\":5249:5264   */\n      revert\n        /* \"#utility.yul\":5276:5456   */\n    tag_99:\n        /* \"#utility.yul\":5324:5401   */\n      0x4e487b7100000000000000000000000000000000000000000000000000000000\n        /* \"#utility.yul\":5321:5322   */\n      0x00\n        /* \"#utility.yul\":5314:5402   */\n      mstore\n        /* \"#utility.yul\":5421:5425   */\n      0x41\n        /* \"#utility.yul\":5418:5419   */\n      0x04\n        /* \"#utility.yul\":5411:5426   */\n      mstore\n        /* \"#utility.yul\":5445:5449   */\n      0x24\n        /* \"#utility.yul\":5442:5443   */\n      0x00\n        /* \"#utility.yul\":5435:5450   */\n      revert\n        /* \"#utility.yul\":5462:5609   */\n    tag_157:\n        /* \"#utility.yul\":5563:5574   */\n      0x00\n        /* \"#utility.yul\":5600:5603   */\n      dup2\n        /* \"#utility.yul\":5585:5603   */\n      swap1\n      pop\n        /* \"#utility.yul\":5462:5609   */\n      swap3\n      swap2\n      pop\n      pop\n      jump\t// out\n        /* \"#utility.yul\":5615:5766   */\n    tag_158:\n        /* \"#utility.yul\":5755:5758   */\n      0x2000000000000000000000000000000000000000000000000000000000000000\n        /* \"#utility.yul\":5751:5752   */\n      0x00\n        /* \"#utility.yul\":5743:5749   */\n      dup3\n        /* \"#utility.yul\":5739:5753   */\n      add\n        /* \"#utility.yul\":5732:5759   */\n      mstore\n        /* \"#utility.yul\":5615:5766   */\n      pop\n      jump\t// out\n        /* \"#utility.yul\":5772:6170   */\n    tag_159:\n        /* \"#utility.yul\":5931:5934   */\n      0x00\n        /* \"#utility.yul\":5952:6035   */\n      tag_228\n        /* \"#utility.yul\":6033:6034   */\n      0x01\n        /* \"#utility.yul\":6028:6031   */\n      dup4\n        /* \"#utility.yul\":5952:6035   */\n      tag_157\n      jump\t// in\n    tag_228:\n        /* \"#utility.yul\":5945:6035   */\n      swap2\n      pop\n        /* \"#utility.yul\":6044:6137   */\n      tag_229\n        /* \"#utility.yul\":6133:6136   */\n      dup3\n        /* \"#utility.yul\":6044:6137   */\n      tag_158\n      jump\t// in\n    tag_229:\n        /* \"#utility.yul\":6162:6163   */\n      0x01\n        /* \"#utility.yul\":6157:6160   */\n      dup3\n        /* \"#utility.yul\":6153:6164   */\n      add\n        /* \"#utility.yul\":6146:6164   */\n      swap1\n      pop\n        /* \"#utility.yul\":5772:6170   */\n      swap2\n      swap1\n      pop\n      jump\t// out\n        /* \"#utility.yul\":6176:6555   */\n    tag_104:\n        /* \"#utility.yul\":6360:6363   */\n      0x00\n        /* \"#utility.yul\":6382:6529   */\n      tag_231\n        /* \"#utility.yul\":6525:6528   */\n      dup3\n        /* \"#utility.yul\":6382:6529   */\n      tag_159\n      jump\t// in\n    tag_231:\n        /* \"#utility.yul\":6375:6529   */\n      swap2\n      pop\n        /* \"#utility.yul\":6546:6549   */\n      dup2\n        /* \"#utility.yul\":6539:6549   */\n      swap1\n      pop\n        /* \"#utility.yul\":6176:6555   */\n      swap2\n      swap1\n      pop\n      jump\t// out\n        /* \"#utility.yul\":6561:6722   */\n    tag_160:\n        /* \"#utility.yul\":6701:6714   */\n      0x6661696c65642063616c6c000000000000000000000000000000000000000000\n        /* \"#utility.yul\":6697:6698   */\n      0x00\n        /* \"#utility.yul\":6689:6695   */\n      dup3\n        /* \"#utility.yul\":6685:6699   */\n      add\n        /* \"#utility.yul\":6678:6715   */\n      mstore\n        /* \"#utility.yul\":6561:6722   */\n      pop\n      jump\t// out\n        /* \"#utility.yul\":6728:7094   */\n    tag_161:\n        /* \"#utility.yul\":6870:6873   */\n      0x00\n        /* \"#utility.yul\":6891:6958   */\n      tag_234\n        /* \"#utility.yul\":6955:6957   */\n      0x0b\n        /* \"#utility.yul\":6950:6953   */\n      dup4\n        /* \"#utility.yul\":6891:6958   */\n      tag_151\n      jump\t// in\n    tag_234:\n        /* \"#utility.yul\":6884:6958   */\n      swap2\n      pop\n        /* \"#utility.yul\":6967:7060   */\n      tag_235\n        /* \"#utility.yul\":7056:7059   */\n      dup3\n        /* \"#utility.yul\":6967:7060   */\n      tag_160\n      jump\t// in\n    tag_235:\n        /* \"#utility.yul\":7085:7087   */\n      0x20\n        /* \"#utility.yul\":7080:7083   */\n      dup3\n        /* \"#utility.yul\":7076:7088   */\n      add\n        /* \"#utility.yul\":7069:7088   */\n      swap1\n      pop\n        /* \"#utility.yul\":6728:7094   */\n      swap2\n      swap1\n      pop\n      jump\t// out\n        /* \"#utility.yul\":7100:7519   */\n    tag_110:\n        /* \"#utility.yul\":7266:7270   */\n      0x00\n        /* \"#utility.yul\":7304:7306   */\n      0x20\n        /* \"#utility.yul\":7293:7302   */\n      dup3\n        /* \"#utility.yul\":7289:7307   */\n      add\n        /* \"#utility.yul\":7281:7307   */\n      swap1\n      pop\n        /* \"#utility.yul\":7353:7362   */\n      dup2\n        /* \"#utility.yul\":7347:7351   */\n      dup2\n        /* \"#utility.yul\":7343:7363   */\n      sub\n        /* \"#utility.yul\":7339:7340   */\n      0x00\n        /* \"#utility.yul\":7328:7337   */\n      dup4\n        /* \"#utility.yul\":7324:7341   */\n      add\n        /* \"#utility.yul\":7317:7364   */\n      mstore\n        /* \"#utility.yul\":7381:7512   */\n      tag_237\n        /* \"#utility.yul\":7507:7511   */\n      dup2\n        /* \"#utility.yul\":7381:7512   */\n      tag_161\n      jump\t// in\n    tag_237:\n        /* \"#utility.yul\":7373:7512   */\n      swap1\n      pop\n        /* \"#utility.yul\":7100:7519   */\n      swap2\n      swap1\n      pop\n      jump\t// out\n        /* \"#utility.yul\":7525:7935   */\n    tag_120:\n        /* \"#utility.yul\":7565:7572   */\n      0x00\n        /* \"#utility.yul\":7588:7608   */\n      tag_239\n        /* \"#utility.yul\":7606:7607   */\n      dup3\n        /* \"#utility.yul\":7588:7608   */\n      tag_142\n      jump\t// in\n    tag_239:\n        /* \"#utility.yul\":7583:7608   */\n      swap2\n      pop\n        /* \"#utility.yul\":7622:7642   */\n      tag_240\n        /* \"#utility.yul\":7640:7641   */\n      dup4\n        /* \"#utility.yul\":7622:7642   */\n      tag_142\n      jump\t// in\n    tag_240:\n        /* \"#utility.yul\":7617:7642   */\n      swap3\n      pop\n        /* \"#utility.yul\":7677:7678   */\n      dup3\n        /* \"#utility.yul\":7674:7675   */\n      dup3\n        /* \"#utility.yul\":7670:7679   */\n      mul\n        /* \"#utility.yul\":7699:7729   */\n      tag_241\n        /* \"#utility.yul\":7717:7728   */\n      dup2\n        /* \"#utility.yul\":7699:7729   */\n      tag_142\n      jump\t// in\n    tag_241:\n        /* \"#utility.yul\":7688:7729   */\n      swap2\n      pop\n        /* \"#utility.yul\":7878:7879   */\n      dup3\n        /* \"#utility.yul\":7869:7876   */\n      dup3\n        /* \"#utility.yul\":7865:7880   */\n      div\n        /* \"#utility.yul\":7862:7863   */\n      dup5\n        /* \"#utility.yul\":7859:7881   */\n      eq\n        /* \"#utility.yul\":7839:7840   */\n      dup4\n        /* \"#utility.yul\":7832:7841   */\n      iszero\n        /* \"#utility.yul\":7812:7895   */\n      or\n        /* \"#utility.yul\":7789:7928   */\n      tag_242\n      jumpi\n        /* \"#utility.yul\":7908:7926   */\n      tag_243\n      tag_156\n      jump\t// in\n    tag_243:\n        /* \"#utility.yul\":7789:7928   */\n    tag_242:\n        /* \"#utility.yul\":7573:7935   */\n      pop\n        /* \"#utility.yul\":7525:7935   */\n      swap3\n      swap2\n      pop\n      pop\n      jump\t// out\n        /* \"#utility.yul\":7941:8121   */\n    tag_162:\n        /* \"#utility.yul\":7989:8066   */\n      0x4e487b7100000000000000000000000000000000000000000000000000000000\n        /* \"#utility.yul\":7986:7987   */\n      0x00\n        /* \"#utility.yul\":7979:8067   */\n      mstore\n        /* \"#utility.yul\":8086:8090   */\n      0x12\n        /* \"#utility.yul\":8083:8084   */\n      0x04\n        /* \"#utility.yul\":8076:8091   */\n      mstore\n        /* \"#utility.yul\":8110:8114   */\n      0x24\n        /* \"#utility.yul\":8107:8108   */\n      0x00\n        /* \"#utility.yul\":8100:8115   */\n      revert\n        /* \"#utility.yul\":8127:8312   */\n    tag_122:\n        /* \"#utility.yul\":8167:8168   */\n      0x00\n        /* \"#utility.yul\":8184:8204   */\n      tag_246\n        /* \"#utility.yul\":8202:8203   */\n      dup3\n        /* \"#utility.yul\":8184:8204   */\n      tag_142\n      jump\t// in\n    tag_246:\n        /* \"#utility.yul\":8179:8204   */\n      swap2\n      pop\n        /* \"#utility.yul\":8218:8238   */\n      tag_247\n        /* \"#utility.yul\":8236:8237   */\n      dup4\n        /* \"#utility.yul\":8218:8238   */\n      tag_142\n      jump\t// in\n    tag_247:\n        /* \"#utility.yul\":8213:8238   */\n      swap3\n      pop\n        /* \"#utility.yul\":8257:8258   */\n      dup3\n        /* \"#utility.yul\":8247:8282   */\n      tag_248\n      jumpi\n        /* \"#utility.yul\":8262:8280   */\n      tag_249\n      tag_162\n      jump\t// in\n    tag_249:\n        /* \"#utility.yul\":8247:8282   */\n    tag_248:\n        /* \"#utility.yul\":8304:8305   */\n      dup3\n        /* \"#utility.yul\":8301:8302   */\n      dup3\n        /* \"#utility.yul\":8297:8306   */\n      div\n        /* \"#utility.yul\":8292:8306   */\n      swap1\n      pop\n        /* \"#utility.yul\":8127:8312   */\n      swap3\n      swap2\n      pop\n      pop\n      jump\t// out\n        /* \"#utility.yul\":8318:8423   */\n    tag_163:\n        /* \"#utility.yul\":8354:8361   */\n      0x00\n        /* \"#utility.yul\":8394:8416   */\n      0xffffffffffffffffffff\n        /* \"#utility.yul\":8387:8392   */\n      dup3\n        /* \"#utility.yul\":8383:8417   */\n      and\n        /* \"#utility.yul\":8372:8417   */\n      swap1\n      pop\n        /* \"#utility.yul\":8318:8423   */\n      swap2\n      swap1\n      pop\n      jump\t// out\n        /* \"#utility.yul\":8429:8549   */\n    tag_164:\n        /* \"#utility.yul\":8501:8524   */\n      tag_252\n        /* \"#utility.yul\":8518:8523   */\n      dup2\n        /* \"#utility.yul\":8501:8524   */\n      tag_163\n      jump\t// in\n    tag_252:\n        /* \"#utility.yul\":8494:8499   */\n      dup2\n        /* \"#utility.yul\":8491:8525   */\n      eq\n        /* \"#utility.yul\":8481:8543   */\n      tag_253\n      jumpi\n        /* \"#utility.yul\":8539:8540   */\n      0x00\n        /* \"#utility.yul\":8536:8537   */\n      dup1\n        /* \"#utility.yul\":8529:8541   */\n      revert\n        /* \"#utility.yul\":8481:8543   */\n    tag_253:\n        /* \"#utility.yul\":8429:8549   */\n      pop\n      jump\t// out\n        /* \"#utility.yul\":8555:8696   */\n    tag_165:\n        /* \"#utility.yul\":8611:8616   */\n      0x00\n        /* \"#utility.yul\":8642:8648   */\n      dup2\n        /* \"#utility.yul\":8636:8649   */\n      mload\n        /* \"#utility.yul\":8627:8649   */\n      swap1\n      pop\n        /* \"#utility.yul\":8658:8690   */\n      tag_255\n        /* \"#utility.yul\":8684:8689   */\n      dup2\n        /* \"#utility.yul\":8658:8690   */\n      tag_164\n      jump\t// in\n    tag_255:\n        /* \"#utility.yul\":8555:8696   */\n      swap3\n      swap2\n      pop\n      pop\n      jump\t// out\n        /* \"#utility.yul\":8702:8778   */\n    tag_166:\n        /* \"#utility.yul\":8738:8745   */\n      0x00\n        /* \"#utility.yul\":8767:8772   */\n      dup2\n        /* \"#utility.yul\":8756:8772   */\n      swap1\n      pop\n        /* \"#utility.yul\":8702:8778   */\n      swap2\n      swap1\n      pop\n      jump\t// out\n        /* \"#utility.yul\":8784:8904   */\n    tag_167:\n        /* \"#utility.yul\":8856:8879   */\n      tag_258\n        /* \"#utility.yul\":8873:8878   */\n      dup2\n        /* \"#utility.yul\":8856:8879   */\n      tag_166\n      jump\t// in\n    tag_258:\n        /* \"#utility.yul\":8849:8854   */\n      dup2\n        /* \"#utility.yul\":8846:8880   */\n      eq\n        /* \"#utility.yul\":8836:8898   */\n      tag_259\n      jumpi\n        /* \"#utility.yul\":8894:8895   */\n      0x00\n        /* \"#utility.yul\":8891:8892   */\n      dup1\n        /* \"#utility.yul\":8884:8896   */\n      revert\n        /* \"#utility.yul\":8836:8898   */\n    tag_259:\n        /* \"#utility.yul\":8784:8904   */\n      pop\n      jump\t// out\n        /* \"#utility.yul\":8910:9051   */\n    tag_168:\n        /* \"#utility.yul\":8966:8971   */\n      0x00\n        /* \"#utility.yul\":8997:9003   */\n      dup2\n        /* \"#utility.yul\":8991:9004   */\n      mload\n        /* \"#utility.yul\":8982:9004   */\n      swap1\n      pop\n        /* \"#utility.yul\":9013:9045   */\n      tag_261\n        /* \"#utility.yul\":9039:9044   */\n      dup2\n        /* \"#utility.yul\":9013:9045   */\n      tag_167\n      jump\t// in\n    tag_261:\n        /* \"#utility.yul\":8910:9051   */\n      swap3\n      swap2\n      pop\n      pop\n      jump\t// out\n        /* \"#utility.yul\":9057:9200   */\n    tag_169:\n        /* \"#utility.yul\":9114:9119   */\n      0x00\n        /* \"#utility.yul\":9145:9151   */\n      dup2\n        /* \"#utility.yul\":9139:9152   */\n      mload\n        /* \"#utility.yul\":9130:9152   */\n      swap1\n      pop\n        /* \"#utility.yul\":9161:9194   */\n      tag_263\n        /* \"#utility.yul\":9188:9193   */\n      dup2\n        /* \"#utility.yul\":9161:9194   */\n      tag_143\n      jump\t// in\n    tag_263:\n        /* \"#utility.yul\":9057:9200   */\n      swap3\n      swap2\n      pop\n      pop\n      jump\t// out\n        /* \"#utility.yul\":9206:10177   */\n    tag_129:\n        /* \"#utility.yul\":9309:9315   */\n      0x00\n        /* \"#utility.yul\":9317:9323   */\n      dup1\n        /* \"#utility.yul\":9325:9331   */\n      0x00\n        /* \"#utility.yul\":9333:9339   */\n      dup1\n        /* \"#utility.yul\":9341:9347   */\n      0x00\n        /* \"#utility.yul\":9390:9393   */\n      0xa0\n        /* \"#utility.yul\":9378:9387   */\n      dup7\n        /* \"#utility.yul\":9369:9376   */\n      dup9\n        /* \"#utility.yul\":9365:9388   */\n      sub\n        /* \"#utility.yul\":9361:9394   */\n      slt\n        /* \"#utility.yul\":9358:9478   */\n      iszero\n      tag_265\n      jumpi\n        /* \"#utility.yul\":9397:9476   */\n      tag_266\n      tag_140\n      jump\t// in\n    tag_266:\n        /* \"#utility.yul\":9358:9478   */\n    tag_265:\n        /* \"#utility.yul\":9517:9518   */\n      0x00\n        /* \"#utility.yul\":9542:9605   */\n      tag_267\n        /* \"#utility.yul\":9597:9604   */\n      dup9\n        /* \"#utility.yul\":9588:9594   */\n      dup3\n        /* \"#utility.yul\":9577:9586   */\n      dup10\n        /* \"#utility.yul\":9573:9595   */\n      add\n        /* \"#utility.yul\":9542:9605   */\n      tag_165\n      jump\t// in\n    tag_267:\n        /* \"#utility.yul\":9532:9605   */\n      swap6\n      pop\n        /* \"#utility.yul\":9488:9615   */\n      pop\n        /* \"#utility.yul\":9654:9656   */\n      0x20\n        /* \"#utility.yul\":9680:9743   */\n      tag_268\n        /* \"#utility.yul\":9735:9742   */\n      dup9\n        /* \"#utility.yul\":9726:9732   */\n      dup3\n        /* \"#utility.yul\":9715:9724   */\n      dup10\n        /* \"#utility.yul\":9711:9733   */\n      add\n        /* \"#utility.yul\":9680:9743   */\n      tag_168\n      jump\t// in\n    tag_268:\n        /* \"#utility.yul\":9670:9743   */\n      swap5\n      pop\n        /* \"#utility.yul\":9625:9753   */\n      pop\n        /* \"#utility.yul\":9792:9794   */\n      0x40\n        /* \"#utility.yul\":9818:9882   */\n      tag_269\n        /* \"#utility.yul\":9874:9881   */\n      dup9\n        /* \"#utility.yul\":9865:9871   */\n      dup3\n        /* \"#utility.yul\":9854:9863   */\n      dup10\n        /* \"#utility.yul\":9850:9872   */\n      add\n        /* \"#utility.yul\":9818:9882   */\n      tag_169\n      jump\t// in\n    tag_269:\n        /* \"#utility.yul\":9808:9882   */\n      swap4\n      pop\n        /* \"#utility.yul\":9763:9892   */\n      pop\n        /* \"#utility.yul\":9931:9933   */\n      0x60\n        /* \"#utility.yul\":9957:10021   */\n      tag_270\n        /* \"#utility.yul\":10013:10020   */\n      dup9\n        /* \"#utility.yul\":10004:10010   */\n      dup3\n        /* \"#utility.yul\":9993:10002   */\n      dup10\n        /* \"#utility.yul\":9989:10011   */\n      add\n        /* \"#utility.yul\":9957:10021   */\n      tag_169\n      jump\t// in\n    tag_270:\n        /* \"#utility.yul\":9947:10021   */\n      swap3\n      pop\n        /* \"#utility.yul\":9902:10031   */\n      pop\n        /* \"#utility.yul\":10070:10073   */\n      0x80\n        /* \"#utility.yul\":10097:10160   */\n      tag_271\n        /* \"#utility.yul\":10152:10159   */\n      dup9\n        /* \"#utility.yul\":10143:10149   */\n      dup3\n        /* \"#utility.yul\":10132:10141   */\n      dup10\n        /* \"#utility.yul\":10128:10150   */\n      add\n        /* \"#utility.yul\":10097:10160   */\n      tag_165\n      jump\t// in\n    tag_271:\n        /* \"#utility.yul\":10087:10160   */\n      swap2\n      pop\n        /* \"#utility.yul\":10041:10170   */\n      pop\n        /* \"#utility.yul\":9206:10177   */\n      swap3\n      swap6\n      pop\n      swap3\n      swap6\n      swap1\n      swap4\n      pop\n      jump\t// out\n        /* \"#utility.yul\":10183:10739   */\n    tag_131:\n        /* \"#utility.yul\":10222:10229   */\n      0x00\n        /* \"#utility.yul\":10245:10264   */\n      tag_273\n        /* \"#utility.yul\":10262:10263   */\n      dup3\n        /* \"#utility.yul\":10245:10264   */\n      tag_166\n      jump\t// in\n    tag_273:\n        /* \"#utility.yul\":10240:10264   */\n      swap2\n      pop\n        /* \"#utility.yul\":10278:10297   */\n      tag_274\n        /* \"#utility.yul\":10295:10296   */\n      dup4\n        /* \"#utility.yul\":10278:10297   */\n      tag_166\n      jump\t// in\n    tag_274:\n        /* \"#utility.yul\":10273:10297   */\n      swap3\n      pop\n        /* \"#utility.yul\":10332:10333   */\n      dup3\n        /* \"#utility.yul\":10329:10330   */\n      dup3\n        /* \"#utility.yul\":10325:10334   */\n      mul\n        /* \"#utility.yul\":10354:10383   */\n      tag_275\n        /* \"#utility.yul\":10371:10382   */\n      dup2\n        /* \"#utility.yul\":10354:10383   */\n      tag_166\n      jump\t// in\n    tag_275:\n        /* \"#utility.yul\":10343:10383   */\n      swap2\n      pop\n        /* \"#utility.yul\":10441:10507   */\n      0x8000000000000000000000000000000000000000000000000000000000000000\n        /* \"#utility.yul\":10438:10439   */\n      dup5\n        /* \"#utility.yul\":10435:10508   */\n      eq\n        /* \"#utility.yul\":10431:10432   */\n      0x00\n        /* \"#utility.yul\":10428:10429   */\n      dup5\n        /* \"#utility.yul\":10424:10433   */\n      slt\n        /* \"#utility.yul\":10420:10509   */\n      and\n        /* \"#utility.yul\":10417:10532   */\n      iszero\n      tag_276\n      jumpi\n        /* \"#utility.yul\":10512:10530   */\n      tag_277\n      tag_156\n      jump\t// in\n    tag_277:\n        /* \"#utility.yul\":10417:10532   */\n    tag_276:\n        /* \"#utility.yul\":10682:10683   */\n      dup3\n        /* \"#utility.yul\":10673:10680   */\n      dup3\n        /* \"#utility.yul\":10668:10684   */\n      sdiv\n        /* \"#utility.yul\":10665:10666   */\n      dup5\n        /* \"#utility.yul\":10662:10685   */\n      eq\n        /* \"#utility.yul\":10642:10643   */\n      dup4\n        /* \"#utility.yul\":10635:10644   */\n      iszero\n        /* \"#utility.yul\":10615:10699   */\n      or\n        /* \"#utility.yul\":10592:10732   */\n      tag_278\n      jumpi\n        /* \"#utility.yul\":10712:10730   */\n      tag_279\n      tag_156\n      jump\t// in\n    tag_279:\n        /* \"#utility.yul\":10592:10732   */\n    tag_278:\n        /* \"#utility.yul\":10230:10739   */\n      pop\n        /* \"#utility.yul\":10183:10739   */\n      swap3\n      swap2\n      pop\n      pop\n      jump\t// out\n\n    auxdata: 0xa2646970667358221220aae41e22a3a2e921736cebd7943fa63eaac39bbe6215c7cf9c3121f23d96154164736f6c63430008180033\n}\n",
				"bytecode": {
					"linkReferences": {},
					"object": "60a060405234801561000f575f80fd5b503373ffffffffffffffffffffffffffffffffffffffff1660808173ffffffffffffffffffffffffffffffffffffffff1681525050608051610f4861006a5f395f818161047f015281816106f9015261079f0152610f485ff3fe608060405260043610610094575f3560e01c806362b8d6931161005857806362b8d6931461018f5780636b69a592146101b7578063d1d9165d146101e1578063dba6335f146101eb578063f3aaee9d14610215576100a3565b80631f2c9238146100ad578063221ace14146100e9578063288c3d17146101255780633ccfd60b1461014f5780635b18056b14610165576100a3565b366100a3576100a161023f565b005b6100ab61023f565b005b3480156100b8575f80fd5b506100d360048036038101906100ce9190610997565b6103c0565b6040516100e09190610a01565b60405180910390f35b3480156100f4575f80fd5b5061010f600480360381019061010a9190610a44565b6103fa565b60405161011c9190610a7e565b60405180910390f35b348015610130575f80fd5b5061013961040f565b6040516101469190610a7e565b60405180910390f35b34801561015a575f80fd5b5061016361047d565b005b348015610170575f80fd5b506101796106ec565b6040516101869190610a7e565b60405180910390f35b34801561019a575f80fd5b506101b560048036038101906101b09190610997565b6106f7565b005b3480156101c2575f80fd5b506101cb610791565b6040516101d89190610a7e565b60405180910390f35b6101e961023f565b005b3480156101f6575f80fd5b506101ff61079d565b60405161020c9190610a01565b60405180910390f35b348015610220575f80fd5b506102296107c1565b6040516102369190610a7e565b60405180910390f35b6001544211610283576040517f08c379a000000000000000000000000000000000000000000000000000000000815260040161027a90610af1565b60405180910390fd5b674563918244f40000610295346107c7565b116102d5576040517f08c379a00000000000000000000000000000000000000000000000000000000081526004016102cc90610b59565b60405180910390fd5b5f33908060018154018082558091505060019003905f5260205f20015f9091909190916101000a81548173ffffffffffffffffffffffffffffffffffffffff021916908373ffffffffffffffffffffffffffffffffffffffff1602179055503460025f3373ffffffffffffffffffffffffffffffffffffffff1673ffffffffffffffffffffffffffffffffffffffff1681526020019081526020015f205461037d9190610ba4565b60025f3373ffffffffffffffffffffffffffffffffffffffff1673ffffffffffffffffffffffffffffffffffffffff1681526020019081526020015f2081905550565b5f81815481106103ce575f80fd5b905f5260205f20015f915054906101000a900473ffffffffffffffffffffffffffffffffffffffff1681565b6002602052805f5260405f205f915090505481565b5f6001544211610454576040517f08c379a000000000000000000000000000000000000000000000000000000000815260040161044b90610af1565b60405180910390fd5b5f601b90505f600d90505f61047282846107ff90919063ffffffff16565b905080935050505090565b7f000000000000000000000000000000000000000000000000000000000000000073ffffffffffffffffffffffffffffffffffffffff163373ffffffffffffffffffffffffffffffffffffffff1614610502576040517fd3b46f1c00000000000000000000000000000000000000000000000000000000815260040160405180910390fd5b6001544211610546576040517f08c379a000000000000000000000000000000000000000000000000000000000815260040161053d90610af1565b60405180910390fd5b5f5b5f805490508110156105e2575f80828154811061056857610567610bd7565b5b905f5260205f20015f9054906101000a900473ffffffffffffffffffffffffffffffffffffffff1690505f60025f8373ffffffffffffffffffffffffffffffffffffffff1673ffffffffffffffffffffffffffffffffffffffff1681526020019081526020015f2081905550508080600101915050610548565b505f67ffffffffffffffff8111156105fd576105fc610c04565b5b60405190808252806020026020018201604052801561062b5781602001602082028036833780820191505090505b505f90805190602001906106409291906108be565b505f3373ffffffffffffffffffffffffffffffffffffffff164760405161066690610c85565b5f6040518083038185875af1925050503d805f81146106a0576040519150601f19603f3d011682016040523d82523d5f602084013e6106a5565b606091505b50509050806106e9576040517f08c379a00000000000000000000000000000000000000000000000000000000081526004016106e090610ce3565b60405180910390fd5b50565b5f8080549050905090565b7f000000000000000000000000000000000000000000000000000000000000000073ffffffffffffffffffffffffffffffffffffffff163373ffffffffffffffffffffffffffffffffffffffff161461077c576040517fd3b46f1c00000000000000000000000000000000000000000000000000000000815260040160405180910390fd5b80426107889190610ba4565b60018190555050565b674563918244f4000081565b7f000000000000000000000000000000000000000000000000000000000000000081565b60015481565b5f806107d1610819565b90505f670de0b6b3a764000082856107e99190610d01565b6107f39190610d6f565b90508092505050919050565b5f80828461080d9190610ba4565b90508091505092915050565b5f8073694aa1769357215de4fac081bf1f309adc32530690505f8173ffffffffffffffffffffffffffffffffffffffff1663feaf968c6040518163ffffffff1660e01b815260040160a060405180830381865afa15801561087c573d5f803e3d5ffd5b505050506040513d601f19601f820116820180604052508101906108a09190610e25565b5050509150506402540be400816108b79190610e9c565b9250505090565b828054828255905f5260205f20908101928215610934579160200282015b82811115610933578251825f6101000a81548173ffffffffffffffffffffffffffffffffffffffff021916908373ffffffffffffffffffffffffffffffffffffffff160217905550916020019190600101906108dc565b5b5090506109419190610945565b5090565b5b8082111561095c575f815f905550600101610946565b5090565b5f80fd5b5f819050919050565b61097681610964565b8114610980575f80fd5b50565b5f813590506109918161096d565b92915050565b5f602082840312156109ac576109ab610960565b5b5f6109b984828501610983565b91505092915050565b5f73ffffffffffffffffffffffffffffffffffffffff82169050919050565b5f6109eb826109c2565b9050919050565b6109fb816109e1565b82525050565b5f602082019050610a145f8301846109f2565b92915050565b610a23816109e1565b8114610a2d575f80fd5b50565b5f81359050610a3e81610a1a565b92915050565b5f60208284031215610a5957610a58610960565b5b5f610a6684828501610a30565b91505092915050565b610a7881610964565b82525050565b5f602082019050610a915f830184610a6f565b92915050565b5f82825260208201905092915050565b7f706c65617365207761697420666f722074696d6520636f6d706c6574696f6e005f82015250565b5f610adb601f83610a97565b9150610ae682610aa7565b602082019050919050565b5f6020820190508181035f830152610b0881610acf565b9050919050565b7f646f65736e27742073617469736679206d79206e6565642000000000000000005f82015250565b5f610b43601883610a97565b9150610b4e82610b0f565b602082019050919050565b5f6020820190508181035f830152610b7081610b37565b9050919050565b7f4e487b71000000000000000000000000000000000000000000000000000000005f52601160045260245ffd5b5f610bae82610964565b9150610bb983610964565b9250828201905080821115610bd157610bd0610b77565b5b92915050565b7f4e487b71000000000000000000000000000000000000000000000000000000005f52603260045260245ffd5b7f4e487b71000000000000000000000000000000000000000000000000000000005f52604160045260245ffd5b5f81905092915050565b7f20000000000000000000000000000000000000000000000000000000000000005f82015250565b5f610c6f600183610c31565b9150610c7a82610c3b565b600182019050919050565b5f610c8f82610c63565b9150819050919050565b7f6661696c65642063616c6c0000000000000000000000000000000000000000005f82015250565b5f610ccd600b83610a97565b9150610cd882610c99565b602082019050919050565b5f6020820190508181035f830152610cfa81610cc1565b9050919050565b5f610d0b82610964565b9150610d1683610964565b9250828202610d2481610964565b91508282048414831517610d3b57610d3a610b77565b5b5092915050565b7f4e487b71000000000000000000000000000000000000000000000000000000005f52601260045260245ffd5b5f610d7982610964565b9150610d8483610964565b925082610d9457610d93610d42565b5b828204905092915050565b5f69ffffffffffffffffffff82169050919050565b610dbd81610d9f565b8114610dc7575f80fd5b50565b5f81519050610dd881610db4565b92915050565b5f819050919050565b610df081610dde565b8114610dfa575f80fd5b50565b5f81519050610e0b81610de7565b92915050565b5f81519050610e1f8161096d565b92915050565b5f805f805f60a08688031215610e3e57610e3d610960565b5b5f610e4b88828901610dca565b9550506020610e5c88828901610dfd565b9450506040610e6d88828901610e11565b9350506060610e7e88828901610e11565b9250506080610e8f88828901610dca565b9150509295509295909350565b5f610ea682610dde565b9150610eb183610dde565b9250828202610ebf81610dde565b91507f800000000000000000000000000000000000000000000000000000000000000084145f84121615610ef657610ef5610b77565b5b8282058414831517610f0b57610f0a610b77565b5b509291505056fea2646970667358221220aae41e22a3a2e921736cebd7943fa63eaac39bbe6215c7cf9c3121f23d96154164736f6c63430008180033",
					"opcodes": "PUSH1 0xA0 PUSH1 0x40 MSTORE CALLVALUE DUP1 ISZERO PUSH2 0xF JUMPI PUSH0 DUP1 REVERT JUMPDEST POP CALLER PUSH20 0xFFFFFFFFFFFFFFFFFFFFFFFFFFFFFFFFFFFFFFFF AND PUSH1 0x80 DUP2 PUSH20 0xFFFFFFFFFFFFFFFFFFFFFFFFFFFFFFFFFFFFFFFF AND DUP2 MSTORE POP POP PUSH1 0x80 MLOAD PUSH2 0xF48 PUSH2 0x6A PUSH0 CODECOPY PUSH0 DUP2 DUP2 PUSH2 0x47F ADD MSTORE DUP2 DUP2 PUSH2 0x6F9 ADD MSTORE PUSH2 0x79F ADD MSTORE PUSH2 0xF48 PUSH0 RETURN INVALID PUSH1 0x80 PUSH1 0x40 MSTORE PUSH1 0x4 CALLDATASIZE LT PUSH2 0x94 JUMPI PUSH0 CALLDATALOAD PUSH1 0xE0 SHR DUP1 PUSH4 0x62B8D693 GT PUSH2 0x58 JUMPI DUP1 PUSH4 0x62B8D693 EQ PUSH2 0x18F JUMPI DUP1 PUSH4 0x6B69A592 EQ PUSH2 0x1B7 JUMPI DUP1 PUSH4 0xD1D9165D EQ PUSH2 0x1E1 JUMPI DUP1 PUSH4 0xDBA6335F EQ PUSH2 0x1EB JUMPI DUP1 PUSH4 0xF3AAEE9D EQ PUSH2 0x215 JUMPI PUSH2 0xA3 JUMP JUMPDEST DUP1 PUSH4 0x1F2C9238 EQ PUSH2 0xAD JUMPI DUP1 PUSH4 0x221ACE14 EQ PUSH2 0xE9 JUMPI DUP1 PUSH4 0x288C3D17 EQ PUSH2 0x125 JUMPI DUP1 PUSH4 0x3CCFD60B EQ PUSH2 0x14F JUMPI DUP1 PUSH4 0x5B18056B EQ PUSH2 0x165 JUMPI PUSH2 0xA3 JUMP JUMPDEST CALLDATASIZE PUSH2 0xA3 JUMPI PUSH2 0xA1 PUSH2 0x23F JUMP JUMPDEST STOP JUMPDEST PUSH2 0xAB PUSH2 0x23F JUMP JUMPDEST STOP JUMPDEST CALLVALUE DUP1 ISZERO PUSH2 0xB8 JUMPI PUSH0 DUP1 REVERT JUMPDEST POP PUSH2 0xD3 PUSH1 0x4 DUP1 CALLDATASIZE SUB DUP2 ADD SWAP1 PUSH2 0xCE SWAP2 SWAP1 PUSH2 0x997 JUMP JUMPDEST PUSH2 0x3C0 JUMP JUMPDEST PUSH1 0x40 MLOAD PUSH2 0xE0 SWAP2 SWAP1 PUSH2 0xA01 JUMP JUMPDEST PUSH1 0x40 MLOAD DUP1 SWAP2 SUB SWAP1 RETURN JUMPDEST CALLVALUE DUP1 ISZERO PUSH2 0xF4 JUMPI PUSH0 DUP1 REVERT JUMPDEST POP PUSH2 0x10F PUSH1 0x4 DUP1 CALLDATASIZE SUB DUP2 ADD SWAP1 PUSH2 0x10A SWAP2 SWAP1 PUSH2 0xA44 JUMP JUMPDEST PUSH2 0x3FA JUMP JUMPDEST PUSH1 0x40 MLOAD PUSH2 0x11C SWAP2 SWAP1 PUSH2 0xA7E JUMP JUMPDEST PUSH1 0x40 MLOAD DUP1 SWAP2 SUB SWAP1 RETURN JUMPDEST CALLVALUE DUP1 ISZERO PUSH2 0x130 JUMPI PUSH0 DUP1 REVERT JUMPDEST POP PUSH2 0x139 PUSH2 0x40F JUMP JUMPDEST PUSH1 0x40 MLOAD PUSH2 0x146 SWAP2 SWAP1 PUSH2 0xA7E JUMP JUMPDEST PUSH1 0x40 MLOAD DUP1 SWAP2 SUB SWAP1 RETURN JUMPDEST CALLVALUE DUP1 ISZERO PUSH2 0x15A JUMPI PUSH0 DUP1 REVERT JUMPDEST POP PUSH2 0x163 PUSH2 0x47D JUMP JUMPDEST STOP JUMPDEST CALLVALUE DUP1 ISZERO PUSH2 0x170 JUMPI PUSH0 DUP1 REVERT JUMPDEST POP PUSH2 0x179 PUSH2 0x6EC JUMP JUMPDEST PUSH1 0x40 MLOAD PUSH2 0x186 SWAP2 SWAP1 PUSH2 0xA7E JUMP JUMPDEST PUSH1 0x40 MLOAD DUP1 SWAP2 SUB SWAP1 RETURN JUMPDEST CALLVALUE DUP1 ISZERO PUSH2 0x19A JUMPI PUSH0 DUP1 REVERT JUMPDEST POP PUSH2 0x1B5 PUSH1 0x4 DUP1 CALLDATASIZE SUB DUP2 ADD SWAP1 PUSH2 0x1B0 SWAP2 SWAP1 PUSH2 0x997 JUMP JUMPDEST PUSH2 0x6F7 JUMP JUMPDEST STOP JUMPDEST CALLVALUE DUP1 ISZERO PUSH2 0x1C2 JUMPI PUSH0 DUP1 REVERT JUMPDEST POP PUSH2 0x1CB PUSH2 0x791 JUMP JUMPDEST PUSH1 0x40 MLOAD PUSH2 0x1D8 SWAP2 SWAP1 PUSH2 0xA7E JUMP JUMPDEST PUSH1 0x40 MLOAD DUP1 SWAP2 SUB SWAP1 RETURN JUMPDEST PUSH2 0x1E9 PUSH2 0x23F JUMP JUMPDEST STOP JUMPDEST CALLVALUE DUP1 ISZERO PUSH2 0x1F6 JUMPI PUSH0 DUP1 REVERT JUMPDEST POP PUSH2 0x1FF PUSH2 0x79D JUMP JUMPDEST PUSH1 0x40 MLOAD PUSH2 0x20C SWAP2 SWAP1 PUSH2 0xA01 JUMP JUMPDEST PUSH1 0x40 MLOAD DUP1 SWAP2 SUB SWAP1 RETURN JUMPDEST CALLVALUE DUP1 ISZERO PUSH2 0x220 JUMPI PUSH0 DUP1 REVERT JUMPDEST POP PUSH2 0x229 PUSH2 0x7C1 JUMP JUMPDEST PUSH1 0x40 MLOAD PUSH2 0x236 SWAP2 SWAP1 PUSH2 0xA7E JUMP JUMPDEST PUSH1 0x40 MLOAD DUP1 SWAP2 SUB SWAP1 RETURN JUMPDEST PUSH1 0x1 SLOAD TIMESTAMP GT PUSH2 0x283 JUMPI PUSH1 0x40 MLOAD PUSH32 0x8C379A000000000000000000000000000000000000000000000000000000000 DUP2 MSTORE PUSH1 0x4 ADD PUSH2 0x27A SWAP1 PUSH2 0xAF1 JUMP JUMPDEST PUSH1 0x40 MLOAD DUP1 SWAP2 SUB SWAP1 REVERT JUMPDEST PUSH8 0x4563918244F40000 PUSH2 0x295 CALLVALUE PUSH2 0x7C7 JUMP JUMPDEST GT PUSH2 0x2D5 JUMPI PUSH1 0x40 MLOAD PUSH32 0x8C379A000000000000000000000000000000000000000000000000000000000 DUP2 MSTORE PUSH1 0x4 ADD PUSH2 0x2CC SWAP1 PUSH2 0xB59 JUMP JUMPDEST PUSH1 0x40 MLOAD DUP1 SWAP2 SUB SWAP1 REVERT JUMPDEST PUSH0 CALLER SWAP1 DUP1 PUSH1 0x1 DUP2 SLOAD ADD DUP1 DUP3 SSTORE DUP1 SWAP2 POP POP PUSH1 0x1 SWAP1 SUB SWAP1 PUSH0 MSTORE PUSH1 0x20 PUSH0 KECCAK256 ADD PUSH0 SWAP1 SWAP2 SWAP1 SWAP2 SWAP1 SWAP2 PUSH2 0x100 EXP DUP2 SLOAD DUP2 PUSH20 0xFFFFFFFFFFFFFFFFFFFFFFFFFFFFFFFFFFFFFFFF MUL NOT AND SWAP1 DUP4 PUSH20 0xFFFFFFFFFFFFFFFFFFFFFFFFFFFFFFFFFFFFFFFF AND MUL OR SWAP1 SSTORE POP CALLVALUE PUSH1 0x2 PUSH0 CALLER PUSH20 0xFFFFFFFFFFFFFFFFFFFFFFFFFFFFFFFFFFFFFFFF AND PUSH20 0xFFFFFFFFFFFFFFFFFFFFFFFFFFFFFFFFFFFFFFFF AND DUP2 MSTORE PUSH1 0x20 ADD SWAP1 DUP2 MSTORE PUSH1 0x20 ADD PUSH0 KECCAK256 SLOAD PUSH2 0x37D SWAP2 SWAP1 PUSH2 0xBA4 JUMP JUMPDEST PUSH1 0x2 PUSH0 CALLER PUSH20 0xFFFFFFFFFFFFFFFFFFFFFFFFFFFFFFFFFFFFFFFF AND PUSH20 0xFFFFFFFFFFFFFFFFFFFFFFFFFFFFFFFFFFFFFFFF AND DUP2 MSTORE PUSH1 0x20 ADD SWAP1 DUP2 MSTORE PUSH1 0x20 ADD PUSH0 KECCAK256 DUP2 SWAP1 SSTORE POP JUMP JUMPDEST PUSH0 DUP2 DUP2 SLOAD DUP2 LT PUSH2 0x3CE JUMPI PUSH0 DUP1 REVERT JUMPDEST SWAP1 PUSH0 MSTORE PUSH1 0x20 PUSH0 KECCAK256 ADD PUSH0 SWAP2 POP SLOAD SWAP1 PUSH2 0x100 EXP SWAP1 DIV PUSH20 0xFFFFFFFFFFFFFFFFFFFFFFFFFFFFFFFFFFFFFFFF AND DUP2 JUMP JUMPDEST PUSH1 0x2 PUSH1 0x20 MSTORE DUP1 PUSH0 MSTORE PUSH1 0x40 PUSH0 KECCAK256 PUSH0 SWAP2 POP SWAP1 POP SLOAD DUP2 JUMP JUMPDEST PUSH0 PUSH1 0x1 SLOAD TIMESTAMP GT PUSH2 0x454 JUMPI PUSH1 0x40 MLOAD PUSH32 0x8C379A000000000000000000000000000000000000000000000000000000000 DUP2 MSTORE PUSH1 0x4 ADD PUSH2 0x44B SWAP1 PUSH2 0xAF1 JUMP JUMPDEST PUSH1 0x40 MLOAD DUP1 SWAP2 SUB SWAP1 REVERT JUMPDEST PUSH0 PUSH1 0x1B SWAP1 POP PUSH0 PUSH1 0xD SWAP1 POP PUSH0 PUSH2 0x472 DUP3 DUP5 PUSH2 0x7FF SWAP1 SWAP2 SWAP1 PUSH4 0xFFFFFFFF AND JUMP JUMPDEST SWAP1 POP DUP1 SWAP4 POP POP POP POP SWAP1 JUMP JUMPDEST PUSH32 0x0 PUSH20 0xFFFFFFFFFFFFFFFFFFFFFFFFFFFFFFFFFFFFFFFF AND CALLER PUSH20 0xFFFFFFFFFFFFFFFFFFFFFFFFFFFFFFFFFFFFFFFF AND EQ PUSH2 0x502 JUMPI PUSH1 0x40 MLOAD PUSH32 0xD3B46F1C00000000000000000000000000000000000000000000000000000000 DUP2 MSTORE PUSH1 0x4 ADD PUSH1 0x40 MLOAD DUP1 SWAP2 SUB SWAP1 REVERT JUMPDEST PUSH1 0x1 SLOAD TIMESTAMP GT PUSH2 0x546 JUMPI PUSH1 0x40 MLOAD PUSH32 0x8C379A000000000000000000000000000000000000000000000000000000000 DUP2 MSTORE PUSH1 0x4 ADD PUSH2 0x53D SWAP1 PUSH2 0xAF1 JUMP JUMPDEST PUSH1 0x40 MLOAD DUP1 SWAP2 SUB SWAP1 REVERT JUMPDEST PUSH0 JUMPDEST PUSH0 DUP1 SLOAD SWAP1 POP DUP2 LT ISZERO PUSH2 0x5E2 JUMPI PUSH0 DUP1 DUP3 DUP2 SLOAD DUP2 LT PUSH2 0x568 JUMPI PUSH2 0x567 PUSH2 0xBD7 JUMP JUMPDEST JUMPDEST SWAP1 PUSH0 MSTORE PUSH1 0x20 PUSH0 KECCAK256 ADD PUSH0 SWAP1 SLOAD SWAP1 PUSH2 0x100 EXP SWAP1 DIV PUSH20 0xFFFFFFFFFFFFFFFFFFFFFFFFFFFFFFFFFFFFFFFF AND SWAP1 POP PUSH0 PUSH1 0x2 PUSH0 DUP4 PUSH20 0xFFFFFFFFFFFFFFFFFFFFFFFFFFFFFFFFFFFFFFFF AND PUSH20 0xFFFFFFFFFFFFFFFFFFFFFFFFFFFFFFFFFFFFFFFF AND DUP2 MSTORE PUSH1 0x20 ADD SWAP1 DUP2 MSTORE PUSH1 0x20 ADD PUSH0 KECCAK256 DUP2 SWAP1 SSTORE POP POP DUP1 DUP1 PUSH1 0x1 ADD SWAP2 POP POP PUSH2 0x548 JUMP JUMPDEST POP PUSH0 PUSH8 0xFFFFFFFFFFFFFFFF DUP2 GT ISZERO PUSH2 0x5FD JUMPI PUSH2 0x5FC PUSH2 0xC04 JUMP JUMPDEST JUMPDEST PUSH1 0x40 MLOAD SWAP1 DUP1 DUP3 MSTORE DUP1 PUSH1 0x20 MUL PUSH1 0x20 ADD DUP3 ADD PUSH1 0x40 MSTORE DUP1 ISZERO PUSH2 0x62B JUMPI DUP2 PUSH1 0x20 ADD PUSH1 0x20 DUP3 MUL DUP1 CALLDATASIZE DUP4 CALLDATACOPY DUP1 DUP3 ADD SWAP2 POP POP SWAP1 POP JUMPDEST POP PUSH0 SWAP1 DUP1 MLOAD SWAP1 PUSH1 0x20 ADD SWAP1 PUSH2 0x640 SWAP3 SWAP2 SWAP1 PUSH2 0x8BE JUMP JUMPDEST POP PUSH0 CALLER PUSH20 0xFFFFFFFFFFFFFFFFFFFFFFFFFFFFFFFFFFFFFFFF AND SELFBALANCE PUSH1 0x40 MLOAD PUSH2 0x666 SWAP1 PUSH2 0xC85 JUMP JUMPDEST PUSH0 PUSH1 0x40 MLOAD DUP1 DUP4 SUB DUP2 DUP6 DUP8 GAS CALL SWAP3 POP POP POP RETURNDATASIZE DUP1 PUSH0 DUP2 EQ PUSH2 0x6A0 JUMPI PUSH1 0x40 MLOAD SWAP2 POP PUSH1 0x1F NOT PUSH1 0x3F RETURNDATASIZE ADD AND DUP3 ADD PUSH1 0x40 MSTORE RETURNDATASIZE DUP3 MSTORE RETURNDATASIZE PUSH0 PUSH1 0x20 DUP5 ADD RETURNDATACOPY PUSH2 0x6A5 JUMP JUMPDEST PUSH1 0x60 SWAP2 POP JUMPDEST POP POP SWAP1 POP DUP1 PUSH2 0x6E9 JUMPI PUSH1 0x40 MLOAD PUSH32 0x8C379A000000000000000000000000000000000000000000000000000000000 DUP2 MSTORE PUSH1 0x4 ADD PUSH2 0x6E0 SWAP1 PUSH2 0xCE3 JUMP JUMPDEST PUSH1 0x40 MLOAD DUP1 SWAP2 SUB SWAP1 REVERT JUMPDEST POP JUMP JUMPDEST PUSH0 DUP1 DUP1 SLOAD SWAP1 POP SWAP1 POP SWAP1 JUMP JUMPDEST PUSH32 0x0 PUSH20 0xFFFFFFFFFFFFFFFFFFFFFFFFFFFFFFFFFFFFFFFF AND CALLER PUSH20 0xFFFFFFFFFFFFFFFFFFFFFFFFFFFFFFFFFFFFFFFF AND EQ PUSH2 0x77C JUMPI PUSH1 0x40 MLOAD PUSH32 0xD3B46F1C00000000000000000000000000000000000000000000000000000000 DUP2 MSTORE PUSH1 0x4 ADD PUSH1 0x40 MLOAD DUP1 SWAP2 SUB SWAP1 REVERT JUMPDEST DUP1 TIMESTAMP PUSH2 0x788 SWAP2 SWAP1 PUSH2 0xBA4 JUMP JUMPDEST PUSH1 0x1 DUP2 SWAP1 SSTORE POP POP JUMP JUMPDEST PUSH8 0x4563918244F40000 DUP2 JUMP JUMPDEST PUSH32 0x0 DUP2 JUMP JUMPDEST PUSH1 0x1 SLOAD DUP2 JUMP JUMPDEST PUSH0 DUP1 PUSH2 0x7D1 PUSH2 0x819 JUMP JUMPDEST SWAP1 POP PUSH0 PUSH8 0xDE0B6B3A7640000 DUP3 DUP6 PUSH2 0x7E9 SWAP2 SWAP1 PUSH2 0xD01 JUMP JUMPDEST PUSH2 0x7F3 SWAP2 SWAP1 PUSH2 0xD6F JUMP JUMPDEST SWAP1 POP DUP1 SWAP3 POP POP POP SWAP2 SWAP1 POP JUMP JUMPDEST PUSH0 DUP1 DUP3 DUP5 PUSH2 0x80D SWAP2 SWAP1 PUSH2 0xBA4 JUMP JUMPDEST SWAP1 POP DUP1 SWAP2 POP POP SWAP3 SWAP2 POP POP JUMP JUMPDEST PUSH0 DUP1 PUSH20 0x694AA1769357215DE4FAC081BF1F309ADC325306 SWAP1 POP PUSH0 DUP2 PUSH20 0xFFFFFFFFFFFFFFFFFFFFFFFFFFFFFFFFFFFFFFFF AND PUSH4 0xFEAF968C PUSH1 0x40 MLOAD DUP2 PUSH4 0xFFFFFFFF AND PUSH1 0xE0 SHL DUP2 MSTORE PUSH1 0x4 ADD PUSH1 0xA0 PUSH1 0x40 MLOAD DUP1 DUP4 SUB DUP2 DUP7 GAS STATICCALL ISZERO DUP1 ISZERO PUSH2 0x87C JUMPI RETURNDATASIZE PUSH0 DUP1 RETURNDATACOPY RETURNDATASIZE PUSH0 REVERT JUMPDEST POP POP POP POP PUSH1 0x40 MLOAD RETURNDATASIZE PUSH1 0x1F NOT PUSH1 0x1F DUP3 ADD AND DUP3 ADD DUP1 PUSH1 0x40 MSTORE POP DUP2 ADD SWAP1 PUSH2 0x8A0 SWAP2 SWAP1 PUSH2 0xE25 JUMP JUMPDEST POP POP POP SWAP2 POP POP PUSH5 0x2540BE400 DUP2 PUSH2 0x8B7 SWAP2 SWAP1 PUSH2 0xE9C JUMP JUMPDEST SWAP3 POP POP POP SWAP1 JUMP JUMPDEST DUP3 DUP1 SLOAD DUP3 DUP3 SSTORE SWAP1 PUSH0 MSTORE PUSH1 0x20 PUSH0 KECCAK256 SWAP1 DUP2 ADD SWAP3 DUP3 ISZERO PUSH2 0x934 JUMPI SWAP2 PUSH1 0x20 MUL DUP3 ADD JUMPDEST DUP3 DUP2 GT ISZERO PUSH2 0x933 JUMPI DUP3 MLOAD DUP3 PUSH0 PUSH2 0x100 EXP DUP2 SLOAD DUP2 PUSH20 0xFFFFFFFFFFFFFFFFFFFFFFFFFFFFFFFFFFFFFFFF MUL NOT AND SWAP1 DUP4 PUSH20 0xFFFFFFFFFFFFFFFFFFFFFFFFFFFFFFFFFFFFFFFF AND MUL OR SWAP1 SSTORE POP SWAP2 PUSH1 0x20 ADD SWAP2 SWAP1 PUSH1 0x1 ADD SWAP1 PUSH2 0x8DC JUMP JUMPDEST JUMPDEST POP SWAP1 POP PUSH2 0x941 SWAP2 SWAP1 PUSH2 0x945 JUMP JUMPDEST POP SWAP1 JUMP JUMPDEST JUMPDEST DUP1 DUP3 GT ISZERO PUSH2 0x95C JUMPI PUSH0 DUP2 PUSH0 SWAP1 SSTORE POP PUSH1 0x1 ADD PUSH2 0x946 JUMP JUMPDEST POP SWAP1 JUMP JUMPDEST PUSH0 DUP1 REVERT JUMPDEST PUSH0 DUP2 SWAP1 POP SWAP2 SWAP1 POP JUMP JUMPDEST PUSH2 0x976 DUP2 PUSH2 0x964 JUMP JUMPDEST DUP2 EQ PUSH2 0x980 JUMPI PUSH0 DUP1 REVERT JUMPDEST POP JUMP JUMPDEST PUSH0 DUP2 CALLDATALOAD SWAP1 POP PUSH2 0x991 DUP2 PUSH2 0x96D JUMP JUMPDEST SWAP3 SWAP2 POP POP JUMP JUMPDEST PUSH0 PUSH1 0x20 DUP3 DUP5 SUB SLT ISZERO PUSH2 0x9AC JUMPI PUSH2 0x9AB PUSH2 0x960 JUMP JUMPDEST JUMPDEST PUSH0 PUSH2 0x9B9 DUP5 DUP3 DUP6 ADD PUSH2 0x983 JUMP JUMPDEST SWAP2 POP POP SWAP3 SWAP2 POP POP JUMP JUMPDEST PUSH0 PUSH20 0xFFFFFFFFFFFFFFFFFFFFFFFFFFFFFFFFFFFFFFFF DUP3 AND SWAP1 POP SWAP2 SWAP1 POP JUMP JUMPDEST PUSH0 PUSH2 0x9EB DUP3 PUSH2 0x9C2 JUMP JUMPDEST SWAP1 POP SWAP2 SWAP1 POP JUMP JUMPDEST PUSH2 0x9FB DUP2 PUSH2 0x9E1 JUMP JUMPDEST DUP3 MSTORE POP POP JUMP JUMPDEST PUSH0 PUSH1 0x20 DUP3 ADD SWAP1 POP PUSH2 0xA14 PUSH0 DUP4 ADD DUP5 PUSH2 0x9F2 JUMP JUMPDEST SWAP3 SWAP2 POP POP JUMP JUMPDEST PUSH2 0xA23 DUP2 PUSH2 0x9E1 JUMP JUMPDEST DUP2 EQ PUSH2 0xA2D JUMPI PUSH0 DUP1 REVERT JUMPDEST POP JUMP JUMPDEST PUSH0 DUP2 CALLDATALOAD SWAP1 POP PUSH2 0xA3E DUP2 PUSH2 0xA1A JUMP JUMPDEST SWAP3 SWAP2 POP POP JUMP JUMPDEST PUSH0 PUSH1 0x20 DUP3 DUP5 SUB SLT ISZERO PUSH2 0xA59 JUMPI PUSH2 0xA58 PUSH2 0x960 JUMP JUMPDEST JUMPDEST PUSH0 PUSH2 0xA66 DUP5 DUP3 DUP6 ADD PUSH2 0xA30 JUMP JUMPDEST SWAP2 POP POP SWAP3 SWAP2 POP POP JUMP JUMPDEST PUSH2 0xA78 DUP2 PUSH2 0x964 JUMP JUMPDEST DUP3 MSTORE POP POP JUMP JUMPDEST PUSH0 PUSH1 0x20 DUP3 ADD SWAP1 POP PUSH2 0xA91 PUSH0 DUP4 ADD DUP5 PUSH2 0xA6F JUMP JUMPDEST SWAP3 SWAP2 POP POP JUMP JUMPDEST PUSH0 DUP3 DUP3 MSTORE PUSH1 0x20 DUP3 ADD SWAP1 POP SWAP3 SWAP2 POP POP JUMP JUMPDEST PUSH32 0x706C65617365207761697420666F722074696D6520636F6D706C6574696F6E00 PUSH0 DUP3 ADD MSTORE POP JUMP JUMPDEST PUSH0 PUSH2 0xADB PUSH1 0x1F DUP4 PUSH2 0xA97 JUMP JUMPDEST SWAP2 POP PUSH2 0xAE6 DUP3 PUSH2 0xAA7 JUMP JUMPDEST PUSH1 0x20 DUP3 ADD SWAP1 POP SWAP2 SWAP1 POP JUMP JUMPDEST PUSH0 PUSH1 0x20 DUP3 ADD SWAP1 POP DUP2 DUP2 SUB PUSH0 DUP4 ADD MSTORE PUSH2 0xB08 DUP2 PUSH2 0xACF JUMP JUMPDEST SWAP1 POP SWAP2 SWAP1 POP JUMP JUMPDEST PUSH32 0x646F65736E27742073617469736679206D79206E656564200000000000000000 PUSH0 DUP3 ADD MSTORE POP JUMP JUMPDEST PUSH0 PUSH2 0xB43 PUSH1 0x18 DUP4 PUSH2 0xA97 JUMP JUMPDEST SWAP2 POP PUSH2 0xB4E DUP3 PUSH2 0xB0F JUMP JUMPDEST PUSH1 0x20 DUP3 ADD SWAP1 POP SWAP2 SWAP1 POP JUMP JUMPDEST PUSH0 PUSH1 0x20 DUP3 ADD SWAP1 POP DUP2 DUP2 SUB PUSH0 DUP4 ADD MSTORE PUSH2 0xB70 DUP2 PUSH2 0xB37 JUMP JUMPDEST SWAP1 POP SWAP2 SWAP1 POP JUMP JUMPDEST PUSH32 0x4E487B7100000000000000000000000000000000000000000000000000000000 PUSH0 MSTORE PUSH1 0x11 PUSH1 0x4 MSTORE PUSH1 0x24 PUSH0 REVERT JUMPDEST PUSH0 PUSH2 0xBAE DUP3 PUSH2 0x964 JUMP JUMPDEST SWAP2 POP PUSH2 0xBB9 DUP4 PUSH2 0x964 JUMP JUMPDEST SWAP3 POP DUP3 DUP3 ADD SWAP1 POP DUP1 DUP3 GT ISZERO PUSH2 0xBD1 JUMPI PUSH2 0xBD0 PUSH2 0xB77 JUMP JUMPDEST JUMPDEST SWAP3 SWAP2 POP POP JUMP JUMPDEST PUSH32 0x4E487B7100000000000000000000000000000000000000000000000000000000 PUSH0 MSTORE PUSH1 0x32 PUSH1 0x4 MSTORE PUSH1 0x24 PUSH0 REVERT JUMPDEST PUSH32 0x4E487B7100000000000000000000000000000000000000000000000000000000 PUSH0 MSTORE PUSH1 0x41 PUSH1 0x4 MSTORE PUSH1 0x24 PUSH0 REVERT JUMPDEST PUSH0 DUP2 SWAP1 POP SWAP3 SWAP2 POP POP JUMP JUMPDEST PUSH32 0x2000000000000000000000000000000000000000000000000000000000000000 PUSH0 DUP3 ADD MSTORE POP JUMP JUMPDEST PUSH0 PUSH2 0xC6F PUSH1 0x1 DUP4 PUSH2 0xC31 JUMP JUMPDEST SWAP2 POP PUSH2 0xC7A DUP3 PUSH2 0xC3B JUMP JUMPDEST PUSH1 0x1 DUP3 ADD SWAP1 POP SWAP2 SWAP1 POP JUMP JUMPDEST PUSH0 PUSH2 0xC8F DUP3 PUSH2 0xC63 JUMP JUMPDEST SWAP2 POP DUP2 SWAP1 POP SWAP2 SWAP1 POP JUMP JUMPDEST PUSH32 0x6661696C65642063616C6C000000000000000000000000000000000000000000 PUSH0 DUP3 ADD MSTORE POP JUMP JUMPDEST PUSH0 PUSH2 0xCCD PUSH1 0xB DUP4 PUSH2 0xA97 JUMP JUMPDEST SWAP2 POP PUSH2 0xCD8 DUP3 PUSH2 0xC99 JUMP JUMPDEST PUSH1 0x20 DUP3 ADD SWAP1 POP SWAP2 SWAP1 POP JUMP JUMPDEST PUSH0 PUSH1 0x20 DUP3 ADD SWAP1 POP DUP2 DUP2 SUB PUSH0 DUP4 ADD MSTORE PUSH2 0xCFA DUP2 PUSH2 0xCC1 JUMP JUMPDEST SWAP1 POP SWAP2 SWAP1 POP JUMP JUMPDEST PUSH0 PUSH2 0xD0B DUP3 PUSH2 0x964 JUMP JUMPDEST SWAP2 POP PUSH2 0xD16 DUP4 PUSH2 0x964 JUMP JUMPDEST SWAP3 POP DUP3 DUP3 MUL PUSH2 0xD24 DUP2 PUSH2 0x964 JUMP JUMPDEST SWAP2 POP DUP3 DUP3 DIV DUP5 EQ DUP4 ISZERO OR PUSH2 0xD3B JUMPI PUSH2 0xD3A PUSH2 0xB77 JUMP JUMPDEST JUMPDEST POP SWAP3 SWAP2 POP POP JUMP JUMPDEST PUSH32 0x4E487B7100000000000000000000000000000000000000000000000000000000 PUSH0 MSTORE PUSH1 0x12 PUSH1 0x4 MSTORE PUSH1 0x24 PUSH0 REVERT JUMPDEST PUSH0 PUSH2 0xD79 DUP3 PUSH2 0x964 JUMP JUMPDEST SWAP2 POP PUSH2 0xD84 DUP4 PUSH2 0x964 JUMP JUMPDEST SWAP3 POP DUP3 PUSH2 0xD94 JUMPI PUSH2 0xD93 PUSH2 0xD42 JUMP JUMPDEST JUMPDEST DUP3 DUP3 DIV SWAP1 POP SWAP3 SWAP2 POP POP JUMP JUMPDEST PUSH0 PUSH10 0xFFFFFFFFFFFFFFFFFFFF DUP3 AND SWAP1 POP SWAP2 SWAP1 POP JUMP JUMPDEST PUSH2 0xDBD DUP2 PUSH2 0xD9F JUMP JUMPDEST DUP2 EQ PUSH2 0xDC7 JUMPI PUSH0 DUP1 REVERT JUMPDEST POP JUMP JUMPDEST PUSH0 DUP2 MLOAD SWAP1 POP PUSH2 0xDD8 DUP2 PUSH2 0xDB4 JUMP JUMPDEST SWAP3 SWAP2 POP POP JUMP JUMPDEST PUSH0 DUP2 SWAP1 POP SWAP2 SWAP1 POP JUMP JUMPDEST PUSH2 0xDF0 DUP2 PUSH2 0xDDE JUMP JUMPDEST DUP2 EQ PUSH2 0xDFA JUMPI PUSH0 DUP1 REVERT JUMPDEST POP JUMP JUMPDEST PUSH0 DUP2 MLOAD SWAP1 POP PUSH2 0xE0B DUP2 PUSH2 0xDE7 JUMP JUMPDEST SWAP3 SWAP2 POP POP JUMP JUMPDEST PUSH0 DUP2 MLOAD SWAP1 POP PUSH2 0xE1F DUP2 PUSH2 0x96D JUMP JUMPDEST SWAP3 SWAP2 POP POP JUMP JUMPDEST PUSH0 DUP1 PUSH0 DUP1 PUSH0 PUSH1 0xA0 DUP7 DUP9 SUB SLT ISZERO PUSH2 0xE3E JUMPI PUSH2 0xE3D PUSH2 0x960 JUMP JUMPDEST JUMPDEST PUSH0 PUSH2 0xE4B DUP9 DUP3 DUP10 ADD PUSH2 0xDCA JUMP JUMPDEST SWAP6 POP POP PUSH1 0x20 PUSH2 0xE5C DUP9 DUP3 DUP10 ADD PUSH2 0xDFD JUMP JUMPDEST SWAP5 POP POP PUSH1 0x40 PUSH2 0xE6D DUP9 DUP3 DUP10 ADD PUSH2 0xE11 JUMP JUMPDEST SWAP4 POP POP PUSH1 0x60 PUSH2 0xE7E DUP9 DUP3 DUP10 ADD PUSH2 0xE11 JUMP JUMPDEST SWAP3 POP POP PUSH1 0x80 PUSH2 0xE8F DUP9 DUP3 DUP10 ADD PUSH2 0xDCA JUMP JUMPDEST SWAP2 POP POP SWAP3 SWAP6 POP SWAP3 SWAP6 SWAP1 SWAP4 POP JUMP JUMPDEST PUSH0 PUSH2 0xEA6 DUP3 PUSH2 0xDDE JUMP JUMPDEST SWAP2 POP PUSH2 0xEB1 DUP4 PUSH2 0xDDE JUMP JUMPDEST SWAP3 POP DUP3 DUP3 MUL PUSH2 0xEBF DUP2 PUSH2 0xDDE JUMP JUMPDEST SWAP2 POP PUSH32 0x8000000000000000000000000000000000000000000000000000000000000000 DUP5 EQ PUSH0 DUP5 SLT AND ISZERO PUSH2 0xEF6 JUMPI PUSH2 0xEF5 PUSH2 0xB77 JUMP JUMPDEST JUMPDEST DUP3 DUP3 SDIV DUP5 EQ DUP4 ISZERO OR PUSH2 0xF0B JUMPI PUSH2 0xF0A PUSH2 0xB77 JUMP JUMPDEST JUMPDEST POP SWAP3 SWAP2 POP POP JUMP INVALID LOG2 PUSH5 0x6970667358 0x22 SLT KECCAK256 0xAA 0xE4 0x1E 0x22 LOG3 LOG2 0xE9 0x21 PUSH20 0x6CEBD7943FA63EAAC39BBE6215C7CF9C3121F23D SWAP7 ISZERO COINBASE PUSH5 0x736F6C6343 STOP ADDMOD XOR STOP CALLER "
				},
				"gasEstimates": {
					"creation": {
						"codeDepositCost": "782400",
						"executionCost": "infinite",
						"totalCost": "infinite"
					},
					"external": {
						"": "infinite",
						"MINIMUM_USD()": "347",
						"addresstoAmountfunded(address)": "2825",
						"calculatesum()": "infinite",
						"contributionCount()": "2529",
						"executeAfter()": "2513",
						"funder(uint256)": "4944",
						"fundme()": "infinite",
						"i_owner()": "infinite",
						"setExecutionTime(uint256)": "infinite",
						"withdraw()": "infinite"
					}
				},
				"methodIdentifiers": {
					"MINIMUM_USD()": "6b69a592",
					"addresstoAmountfunded(address)": "221ace14",
					"calculatesum()": "288c3d17",
					"contributionCount()": "5b18056b",
					"executeAfter()": "f3aaee9d",
					"funder(uint256)": "1f2c9238",
					"fundme()": "d1d9165d",
					"i_owner()": "dba6335f",
					"setExecutionTime(uint256)": "62b8d693",
					"withdraw()": "3ccfd60b"
				}
			},
			"storageLayout": {
				"storage": [
					{
						"astId": 62,
						"contract": "contracts/fundme.sol:Fundme",
						"label": "funder",
						"offset": 0,
						"slot": "0",
						"type": "t_array(t_address)dyn_storage"
					},
					{
						"astId": 66,
						"contract": "contracts/fundme.sol:Fundme",
						"label": "executeAfter",
						"offset": 0,
						"slot": "1",
						"type": "t_uint256"
					},
					{
						"astId": 81,
						"contract": "contracts/fundme.sol:Fundme",
						"label": "addresstoAmountfunded",
						"offset": 0,
						"slot": "2",
						"type": "t_mapping(t_address,t_uint256)"
					}
				],
				"types": {
					"t_address": {
						"encoding": "inplace",
						"label": "address",
						"numberOfBytes": "20"
					},
					"t_array(t_address)dyn_storage": {
						"base": "t_address",
						"encoding": "dynamic_array",
						"label": "address[]",
						"numberOfBytes": "32"
					},
					"t_mapping(t_address,t_uint256)": {
						"encoding": "mapping",
						"key": "t_address",
						"label": "mapping(address => uint256)",
						"numberOfBytes": "32",
						"value": "t_uint256"
					},
					"t_uint256": {
						"encoding": "inplace",
						"label": "uint256",
						"numberOfBytes": "32"
					}
				}
			},
			"userdoc": {
				"kind": "user",
				"methods": {},
				"version": 1
			}
		}
	}
}