{
	"data": {
		"bytecode": {
			"linkReferences": {},
			"object": "608060405234801561000f575f80fd5b506101198061001d5f395ff3fe608060405260043610601b575f3560e01c8063d1d9165d14601f575b5f80fd5b60256027565b005b670de0b6b3a7640000341015606f576040517f08c379a000000000000000000000000000000000000000000000000000000000815260040160669060c7565b60405180910390fd5b565b5f82825260208201905092915050565b7f646f65736e27742073617469736679206d79206e6565642000000000000000005f82015250565b5f60b36018836071565b915060bc826081565b602082019050919050565b5f6020820190508181035f83015260dc8160a9565b905091905056fea26469706673582212208fd1780e12e0dd8ff5a673845fa02e5c7a119104e08428c404dee8f387afbe4364736f6c63430008180033",
			"opcodes": "PUSH1 0x80 PUSH1 0x40 MSTORE CALLVALUE DUP1 ISZERO PUSH2 0xF JUMPI PUSH0 DUP1 REVERT JUMPDEST POP PUSH2 0x119 DUP1 PUSH2 0x1D PUSH0 CODECOPY PUSH0 RETURN INVALID PUSH1 0x80 PUSH1 0x40 MSTORE PUSH1 0x4 CALLDATASIZE LT PUSH1 0x1B JUMPI PUSH0 CALLDATALOAD PUSH1 0xE0 SHR DUP1 PUSH4 0xD1D9165D EQ PUSH1 0x1F JUMPI JUMPDEST PUSH0 DUP1 REVERT JUMPDEST PUSH1 0x25 PUSH1 0x27 JUMP JUMPDEST STOP JUMPDEST PUSH8 0xDE0B6B3A7640000 CALLVALUE LT ISZERO PUSH1 0x6F JUMPI PUSH1 0x40 MLOAD PUSH32 0x8C379A000000000000000000000000000000000000000000000000000000000 DUP2 MSTORE PUSH1 0x4 ADD PUSH1 0x66 SWAP1 PUSH1 0xC7 JUMP JUMPDEST PUSH1 0x40 MLOAD DUP1 SWAP2 SUB SWAP1 REVERT JUMPDEST JUMP JUMPDEST PUSH0 DUP3 DUP3 MSTORE PUSH1 0x20 DUP3 ADD SWAP1 POP SWAP3 SWAP2 POP POP JUMP JUMPDEST PUSH32 0x646F65736E27742073617469736679206D79206E656564200000000000000000 PUSH0 DUP3 ADD MSTORE POP JUMP JUMPDEST PUSH0 PUSH1 0xB3 PUSH1 0x18 DUP4 PUSH1 0x71 JUMP JUMPDEST SWAP2 POP PUSH1 0xBC DUP3 PUSH1 0x81 JUMP JUMPDEST PUSH1 0x20 DUP3 ADD SWAP1 POP SWAP2 SWAP1 POP JUMP JUMPDEST PUSH0 PUSH1 0x20 DUP3 ADD SWAP1 POP DUP2 DUP2 SUB PUSH0 DUP4 ADD MSTORE PUSH1 0xDC DUP2 PUSH1 0xA9 JUMP JUMPDEST SWAP1 POP SWAP2 SWAP1 POP JUMP INVALID LOG2 PUSH5 0x6970667358 0x22 SLT KECCAK256 DUP16 0xD1 PUSH25 0xE12E0DD8FF5A673845FA02E5C7A119104E08428C404DEE8F3 DUP8 0xAF 0xBE NUMBER PUSH5 0x736F6C6343 STOP ADDMOD XOR STOP CALLER "
		},
		"gasEstimates": {
			"creation": {
				"codeDepositCost": "56200",
				"executionCost": "103",
				"totalCost": "56303"
			},
			"external": {
				"fundme()": "406"
			}
		},
		"methodIdentifiers": {
			"fundme()": "d1d9165d"
		}
	},
	"abi": [
		{
			"inputs": [],
			"name": "fundme",
			"outputs": [],
			"stateMutability": "payable",
			"type": "function"
		}
	]
}