{
	"data": {
		"bytecode": {
			"linkReferences": {},
			"object": "608060405234801561000f575f80fd5b5061043f8061001d5f395ff3fe608060405234801561000f575f80fd5b506004361061004a575f3560e01c806327a03cd71461004e5780632e64cec11461006c578063471f7cdf1461008a5780636057361d146100a8575b5f80fd5b6100566100c4565b60405161006391906101ad565b60405180910390f35b610074610101565b60405161008191906101e5565b60405180910390f35b610092610109565b60405161009f91906101e5565b60405180910390f35b6100c260048036038101906100bd919061022c565b61010e565b005b60606040518060400160405280600581526020017f68656c6c6f000000000000000000000000000000000000000000000000000000815250905090565b5f8054905090565b5f5481565b60028161011b91906103bf565b5f8190555050565b5f81519050919050565b5f82825260208201905092915050565b5f5b8381101561015a57808201518184015260208101905061013f565b5f8484015250505050565b5f601f19601f8301169050919050565b5f61017f82610123565b610189818561012d565b935061019981856020860161013d565b6101a281610165565b840191505092915050565b5f6020820190508181035f8301526101c58184610175565b905092915050565b5f819050919050565b6101df816101cd565b82525050565b5f6020820190506101f85f8301846101d6565b92915050565b5f80fd5b61020b816101cd565b8114610215575f80fd5b50565b5f8135905061022681610202565b92915050565b5f60208284031215610241576102406101fe565b5b5f61024e84828501610218565b91505092915050565b7f4e487b71000000000000000000000000000000000000000000000000000000005f52601160045260245ffd5b5f8160011c9050919050565b5f808291508390505b60018511156102d9578086048111156102b5576102b4610257565b5b60018516156102c45780820291505b80810290506102d285610284565b9450610299565b94509492505050565b5f826102f157600190506103ac565b816102fe575f90506103ac565b8160018114610314576002811461031e5761034d565b60019150506103ac565b60ff8411156103305761032f610257565b5b8360020a91508482111561034757610346610257565b5b506103ac565b5060208310610133831016604e8410600b84101617156103825782820a90508381111561037d5761037c610257565b5b6103ac565b61038f8484846001610290565b925090508184048111156103a6576103a5610257565b5b81810290505b9392505050565b5f60ff82169050919050565b5f6103c9826101cd565b91506103d4836103b3565b92506104017fffffffffffffffffffffffffffffffffffffffffffffffffffffffffffffffff84846102e2565b90509291505056fea2646970667358221220061016b2ad29da147f6798d29e6b9c2e3991a9f1899a7f20ec99bb12096fb41864736f6c63430008180033",
			"opcodes": "PUSH1 0x80 PUSH1 0x40 MSTORE CALLVALUE DUP1 ISZERO PUSH2 0xF JUMPI PUSH0 DUP1 REVERT JUMPDEST POP PUSH2 0x43F DUP1 PUSH2 0x1D PUSH0 CODECOPY PUSH0 RETURN INVALID PUSH1 0x80 PUSH1 0x40 MSTORE CALLVALUE DUP1 ISZERO PUSH2 0xF JUMPI PUSH0 DUP1 REVERT JUMPDEST POP PUSH1 0x4 CALLDATASIZE LT PUSH2 0x4A JUMPI PUSH0 CALLDATALOAD PUSH1 0xE0 SHR DUP1 PUSH4 0x27A03CD7 EQ PUSH2 0x4E JUMPI DUP1 PUSH4 0x2E64CEC1 EQ PUSH2 0x6C JUMPI DUP1 PUSH4 0x471F7CDF EQ PUSH2 0x8A JUMPI DUP1 PUSH4 0x6057361D EQ PUSH2 0xA8 JUMPI JUMPDEST PUSH0 DUP1 REVERT JUMPDEST PUSH2 0x56 PUSH2 0xC4 JUMP JUMPDEST PUSH1 0x40 MLOAD PUSH2 0x63 SWAP2 SWAP1 PUSH2 0x1AD JUMP JUMPDEST PUSH1 0x40 MLOAD DUP1 SWAP2 SUB SWAP1 RETURN JUMPDEST PUSH2 0x74 PUSH2 0x101 JUMP JUMPDEST PUSH1 0x40 MLOAD PUSH2 0x81 SWAP2 SWAP1 PUSH2 0x1E5 JUMP JUMPDEST PUSH1 0x40 MLOAD DUP1 SWAP2 SUB SWAP1 RETURN JUMPDEST PUSH2 0x92 PUSH2 0x109 JUMP JUMPDEST PUSH1 0x40 MLOAD PUSH2 0x9F SWAP2 SWAP1 PUSH2 0x1E5 JUMP JUMPDEST PUSH1 0x40 MLOAD DUP1 SWAP2 SUB SWAP1 RETURN JUMPDEST PUSH2 0xC2 PUSH1 0x4 DUP1 CALLDATASIZE SUB DUP2 ADD SWAP1 PUSH2 0xBD SWAP2 SWAP1 PUSH2 0x22C JUMP JUMPDEST PUSH2 0x10E JUMP JUMPDEST STOP JUMPDEST PUSH1 0x60 PUSH1 0x40 MLOAD DUP1 PUSH1 0x40 ADD PUSH1 0x40 MSTORE DUP1 PUSH1 0x5 DUP2 MSTORE PUSH1 0x20 ADD PUSH32 0x68656C6C6F000000000000000000000000000000000000000000000000000000 DUP2 MSTORE POP SWAP1 POP SWAP1 JUMP JUMPDEST PUSH0 DUP1 SLOAD SWAP1 POP SWAP1 JUMP JUMPDEST PUSH0 SLOAD DUP2 JUMP JUMPDEST PUSH1 0x2 DUP2 PUSH2 0x11B SWAP2 SWAP1 PUSH2 0x3BF JUMP JUMPDEST PUSH0 DUP2 SWAP1 SSTORE POP POP JUMP JUMPDEST PUSH0 DUP2 MLOAD SWAP1 POP SWAP2 SWAP1 POP JUMP JUMPDEST PUSH0 DUP3 DUP3 MSTORE PUSH1 0x20 DUP3 ADD SWAP1 POP SWAP3 SWAP2 POP POP JUMP JUMPDEST PUSH0 JUMPDEST DUP4 DUP2 LT ISZERO PUSH2 0x15A JUMPI DUP1 DUP3 ADD MLOAD DUP2 DUP5 ADD MSTORE PUSH1 0x20 DUP2 ADD SWAP1 POP PUSH2 0x13F JUMP JUMPDEST PUSH0 DUP5 DUP5 ADD MSTORE POP POP POP POP JUMP JUMPDEST PUSH0 PUSH1 0x1F NOT PUSH1 0x1F DUP4 ADD AND SWAP1 POP SWAP2 SWAP1 POP JUMP JUMPDEST PUSH0 PUSH2 0x17F DUP3 PUSH2 0x123 JUMP JUMPDEST PUSH2 0x189 DUP2 DUP6 PUSH2 0x12D JUMP JUMPDEST SWAP4 POP PUSH2 0x199 DUP2 DUP6 PUSH1 0x20 DUP7 ADD PUSH2 0x13D JUMP JUMPDEST PUSH2 0x1A2 DUP2 PUSH2 0x165 JUMP JUMPDEST DUP5 ADD SWAP2 POP POP SWAP3 SWAP2 POP POP JUMP JUMPDEST PUSH0 PUSH1 0x20 DUP3 ADD SWAP1 POP DUP2 DUP2 SUB PUSH0 DUP4 ADD MSTORE PUSH2 0x1C5 DUP2 DUP5 PUSH2 0x175 JUMP JUMPDEST SWAP1 POP SWAP3 SWAP2 POP POP JUMP JUMPDEST PUSH0 DUP2 SWAP1 POP SWAP2 SWAP1 POP JUMP JUMPDEST PUSH2 0x1DF DUP2 PUSH2 0x1CD JUMP JUMPDEST DUP3 MSTORE POP POP JUMP JUMPDEST PUSH0 PUSH1 0x20 DUP3 ADD SWAP1 POP PUSH2 0x1F8 PUSH0 DUP4 ADD DUP5 PUSH2 0x1D6 JUMP JUMPDEST SWAP3 SWAP2 POP POP JUMP JUMPDEST PUSH0 DUP1 REVERT JUMPDEST PUSH2 0x20B DUP2 PUSH2 0x1CD JUMP JUMPDEST DUP2 EQ PUSH2 0x215 JUMPI PUSH0 DUP1 REVERT JUMPDEST POP JUMP JUMPDEST PUSH0 DUP2 CALLDATALOAD SWAP1 POP PUSH2 0x226 DUP2 PUSH2 0x202 JUMP JUMPDEST SWAP3 SWAP2 POP POP JUMP JUMPDEST PUSH0 PUSH1 0x20 DUP3 DUP5 SUB SLT ISZERO PUSH2 0x241 JUMPI PUSH2 0x240 PUSH2 0x1FE JUMP JUMPDEST JUMPDEST PUSH0 PUSH2 0x24E DUP5 DUP3 DUP6 ADD PUSH2 0x218 JUMP JUMPDEST SWAP2 POP POP SWAP3 SWAP2 POP POP JUMP JUMPDEST PUSH32 0x4E487B7100000000000000000000000000000000000000000000000000000000 PUSH0 MSTORE PUSH1 0x11 PUSH1 0x4 MSTORE PUSH1 0x24 PUSH0 REVERT JUMPDEST PUSH0 DUP2 PUSH1 0x1 SHR SWAP1 POP SWAP2 SWAP1 POP JUMP JUMPDEST PUSH0 DUP1 DUP3 SWAP2 POP DUP4 SWAP1 POP JUMPDEST PUSH1 0x1 DUP6 GT ISZERO PUSH2 0x2D9 JUMPI DUP1 DUP7 DIV DUP2 GT ISZERO PUSH2 0x2B5 JUMPI PUSH2 0x2B4 PUSH2 0x257 JUMP JUMPDEST JUMPDEST PUSH1 0x1 DUP6 AND ISZERO PUSH2 0x2C4 JUMPI DUP1 DUP3 MUL SWAP2 POP JUMPDEST DUP1 DUP2 MUL SWAP1 POP PUSH2 0x2D2 DUP6 PUSH2 0x284 JUMP JUMPDEST SWAP5 POP PUSH2 0x299 JUMP JUMPDEST SWAP5 POP SWAP5 SWAP3 POP POP POP JUMP JUMPDEST PUSH0 DUP3 PUSH2 0x2F1 JUMPI PUSH1 0x1 SWAP1 POP PUSH2 0x3AC JUMP JUMPDEST DUP2 PUSH2 0x2FE JUMPI PUSH0 SWAP1 POP PUSH2 0x3AC JUMP JUMPDEST DUP2 PUSH1 0x1 DUP2 EQ PUSH2 0x314 JUMPI PUSH1 0x2 DUP2 EQ PUSH2 0x31E JUMPI PUSH2 0x34D JUMP JUMPDEST PUSH1 0x1 SWAP2 POP POP PUSH2 0x3AC JUMP JUMPDEST PUSH1 0xFF DUP5 GT ISZERO PUSH2 0x330 JUMPI PUSH2 0x32F PUSH2 0x257 JUMP JUMPDEST JUMPDEST DUP4 PUSH1 0x2 EXP SWAP2 POP DUP5 DUP3 GT ISZERO PUSH2 0x347 JUMPI PUSH2 0x346 PUSH2 0x257 JUMP JUMPDEST JUMPDEST POP PUSH2 0x3AC JUMP JUMPDEST POP PUSH1 0x20 DUP4 LT PUSH2 0x133 DUP4 LT AND PUSH1 0x4E DUP5 LT PUSH1 0xB DUP5 LT AND OR ISZERO PUSH2 0x382 JUMPI DUP3 DUP3 EXP SWAP1 POP DUP4 DUP2 GT ISZERO PUSH2 0x37D JUMPI PUSH2 0x37C PUSH2 0x257 JUMP JUMPDEST JUMPDEST PUSH2 0x3AC JUMP JUMPDEST PUSH2 0x38F DUP5 DUP5 DUP5 PUSH1 0x1 PUSH2 0x290 JUMP JUMPDEST SWAP3 POP SWAP1 POP DUP2 DUP5 DIV DUP2 GT ISZERO PUSH2 0x3A6 JUMPI PUSH2 0x3A5 PUSH2 0x257 JUMP JUMPDEST JUMPDEST DUP2 DUP2 MUL SWAP1 POP JUMPDEST SWAP4 SWAP3 POP POP POP JUMP JUMPDEST PUSH0 PUSH1 0xFF DUP3 AND SWAP1 POP SWAP2 SWAP1 POP JUMP JUMPDEST PUSH0 PUSH2 0x3C9 DUP3 PUSH2 0x1CD JUMP JUMPDEST SWAP2 POP PUSH2 0x3D4 DUP4 PUSH2 0x3B3 JUMP JUMPDEST SWAP3 POP PUSH2 0x401 PUSH32 0xFFFFFFFFFFFFFFFFFFFFFFFFFFFFFFFFFFFFFFFFFFFFFFFFFFFFFFFFFFFFFFFF DUP5 DUP5 PUSH2 0x2E2 JUMP JUMPDEST SWAP1 POP SWAP3 SWAP2 POP POP JUMP INVALID LOG2 PUSH5 0x6970667358 0x22 SLT KECCAK256 MOD LT AND 0xB2 0xAD 0x29 0xDA EQ PUSH32 0x6798D29E6B9C2E3991A9F1899A7F20EC99BB12096FB41864736F6C6343000818 STOP CALLER "
		},
		"gasEstimates": {
			"creation": {
				"codeDepositCost": "217400",
				"executionCost": "255",
				"totalCost": "217655"
			},
			"external": {
				"favoriteNumber()": "2446",
				"retrieve()": "2432",
				"sayhello()": "infinite",
				"store(uint256)": "infinite"
			}
		},
		"methodIdentifiers": {
			"favoriteNumber()": "471f7cdf",
			"retrieve()": "2e64cec1",
			"sayhello()": "27a03cd7",
			"store(uint256)": "6057361d"
		}
	},
	"abi": [
		{
			"inputs": [],
			"name": "favoriteNumber",
			"outputs": [
				{
					"internalType": "uint256",
					"name": "",
					"type": "uint256"
				}
			],
			"stateMutability": "view",
			"type": "function"
		},
		{
			"inputs": [],
			"name": "retrieve",
			"outputs": [
				{
					"internalType": "uint256",
					"name": "",
					"type": "uint256"
				}
			],
			"stateMutability": "view",
			"type": "function"
		},
		{
			"inputs": [],
			"name": "sayhello",
			"outputs": [
				{
					"internalType": "string",
					"name": "",
					"type": "string"
				}
			],
			"stateMutability": "pure",
			"type": "function"
		},
		{
			"inputs": [
				{
					"internalType": "uint256",
					"name": "myfavnum",
					"type": "uint256"
				}
			],
			"name": "store",
			"outputs": [],
			"stateMutability": "nonpayable",
			"type": "function"
		}
	]
}